{
  "contractName": "Medishield",
  "abi": [
    {
      "constant": true,
      "inputs": [
        {
          "name": "",
          "type": "uint256"
        }
      ],
      "name": "healthcareList",
      "outputs": [
        {
          "name": "",
          "type": "address"
        }
      ],
      "payable": false,
      "stateMutability": "view",
      "type": "function"
    },
    {
      "constant": true,
      "inputs": [
        {
          "name": "",
          "type": "uint256"
        }
      ],
      "name": "patientList",
      "outputs": [
        {
          "name": "",
          "type": "address"
        }
      ],
      "payable": false,
      "stateMutability": "view",
      "type": "function"
    },
    {
      "constant": false,
      "inputs": [
        {
          "name": "_name",
          "type": "string"
        },
        {
          "name": "_number",
          "type": "uint256"
        },
        {
          "name": "_designation",
          "type": "uint256"
        },
        {
          "name": "_hash",
          "type": "string"
        }
      ],
      "name": "add_agent",
      "outputs": [
        {
          "name": "",
          "type": "string"
        }
      ],
      "payable": false,
      "stateMutability": "nonpayable",
      "type": "function"
    },
    {
      "constant": true,
      "inputs": [
        {
          "name": "addr",
          "type": "address"
        }
      ],
      "name": "get_patient",
      "outputs": [
        {
          "name": "",
          "type": "string"
        },
        {
          "name": "",
          "type": "uint256"
        },
        {
          "name": "",
          "type": "uint256[]"
        },
        {
          "name": "",
          "type": "address"
        },
        {
          "name": "",
          "type": "string"
        },
        {
          "name": "",
          "type": "address"
        }
      ],
      "payable": false,
      "stateMutability": "view",
      "type": "function"
    },
    {
      "constant": true,
      "inputs": [
        {
          "name": "addr",
          "type": "address"
        }
      ],
      "name": "get_healthcare",
      "outputs": [
        {
          "name": "",
          "type": "string"
        },
        {
          "name": "",
          "type": "uint256"
        },
        {
          "name": "",
          "type": "uint256"
        }
      ],
      "payable": false,
      "stateMutability": "view",
      "type": "function"
    },
    {
      "constant": true,
      "inputs": [
        {
          "name": "paddr",
          "type": "address"
        },
        {
          "name": "daddr",
          "type": "address"
        }
      ],
      "name": "get_patient_healthcare_name",
      "outputs": [
        {
          "name": "",
          "type": "string"
        },
        {
          "name": "",
          "type": "string"
        }
      ],
      "payable": false,
      "stateMutability": "view",
      "type": "function"
    },
    {
      "constant": false,
      "inputs": [
        {
          "name": "addr",
          "type": "address"
        }
      ],
      "name": "permit_access",
      "outputs": [],
      "payable": true,
      "stateMutability": "payable",
      "type": "function"
    },
    {
      "constant": false,
      "inputs": [
        {
          "name": "addr",
          "type": "address"
        }
      ],
      "name": "doctor_permit_access",
      "outputs": [],
      "payable": true,
      "stateMutability": "payable",
      "type": "function"
    },
    {
      "constant": false,
      "inputs": [
        {
          "name": "addr",
          "type": "address"
        }
      ],
      "name": "permit_access_and_remove_doctor_permit_access",
      "outputs": [],
      "payable": true,
      "stateMutability": "payable",
      "type": "function"
    },
    {
      "constant": false,
      "inputs": [
        {
          "name": "addr",
          "type": "address"
        }
      ],
      "name": "cancel_access",
      "outputs": [],
      "payable": true,
      "stateMutability": "payable",
      "type": "function"
    },
    {
      "constant": false,
      "inputs": [
        {
          "name": "paddr",
          "type": "address"
        },
        {
          "name": "_diagnosis",
          "type": "uint256"
        },
        {
          "name": "_hash",
          "type": "string"
        }
      ],
      "name": "submitfile",
      "outputs": [],
      "payable": false,
      "stateMutability": "nonpayable",
      "type": "function"
    },
    {
      "constant": false,
      "inputs": [
        {
          "name": "paddr",
          "type": "address"
        },
        {
          "name": "daddr",
          "type": "address"
        }
      ],
      "name": "remove_patient",
      "outputs": [],
      "payable": false,
      "stateMutability": "nonpayable",
      "type": "function"
    },
    {
      "constant": true,
      "inputs": [
        {
          "name": "addr",
          "type": "address"
        }
      ],
      "name": "get_accessed_healthcarelist_for_patient",
      "outputs": [
        {
          "name": "",
          "type": "address[]"
        }
      ],
      "payable": false,
      "stateMutability": "view",
      "type": "function"
    },
    {
      "constant": true,
      "inputs": [
        {
          "name": "addr",
          "type": "address"
        }
      ],
      "name": "get_request_healthcarelist_for_patient",
      "outputs": [
        {
          "name": "",
          "type": "address[]"
        }
      ],
      "payable": false,
      "stateMutability": "view",
      "type": "function"
    },
    {
      "constant": true,
      "inputs": [
        {
          "name": "addr",
          "type": "address"
        }
      ],
      "name": "get_accessed_patientlist_for_healthcare",
      "outputs": [
        {
          "name": "",
          "type": "address[]"
        }
      ],
      "payable": false,
      "stateMutability": "view",
      "type": "function"
    },
    {
      "constant": false,
      "inputs": [
        {
          "name": "daddr",
          "type": "address"
        }
      ],
      "name": "revoke_access",
      "outputs": [],
      "payable": true,
      "stateMutability": "payable",
      "type": "function"
    },
    {
      "constant": true,
      "inputs": [],
      "name": "get_patient_list",
      "outputs": [
        {
          "name": "",
          "type": "address[]"
        }
      ],
      "payable": false,
      "stateMutability": "view",
      "type": "function"
    },
    {
      "constant": true,
      "inputs": [],
      "name": "get_healthcare_list",
      "outputs": [
        {
          "name": "",
          "type": "address[]"
        }
      ],
      "payable": false,
      "stateMutability": "view",
      "type": "function"
    },
    {
      "constant": true,
      "inputs": [
        {
          "name": "paddr",
          "type": "address"
        }
      ],
      "name": "get_hash",
      "outputs": [
        {
          "name": "",
          "type": "string"
        }
      ],
      "payable": false,
      "stateMutability": "view",
      "type": "function"
    }
  ],
  "bytecode": "0x608060405234801561001057600080fd5b50612b44806100206000396000f3fe608060405260043610610101576000357c0100000000000000000000000000000000000000000000000000000000900480630362fe9b14610106578063239a75ff1461017757806327b1dcee1461021d5780633740b3c0146102615780634042d2d4146102dc5780634b0ca585146104c757806352fc89c21461050b5780637e1519ce1461057757806386200c91146106415780639f55c37b14610733578063babb1d41146107d9578063bcffb7ca14610854578063c196a15f14610898578063cb37190e146108dc578063cf9c186f14610a32578063d6763c7f14610a76578063e7322c7014610b1c578063e81ac05414610bf4578063f02d90a414610c60575b600080fd5b34801561011257600080fd5b506101756004803603604081101561012957600080fd5b81019080803573ffffffffffffffffffffffffffffffffffffffff169060200190929190803573ffffffffffffffffffffffffffffffffffffffff169060200190929190505050610e4c565b005b34801561018357600080fd5b506101c66004803603602081101561019a57600080fd5b81019080803573ffffffffffffffffffffffffffffffffffffffff169060200190929190505050610ee8565b6040518080602001828103825283818151815260200191508051906020019060200280838360005b838110156102095780820151818401526020810190506101ee565b505050509050019250505060405180910390f35b61025f6004803603602081101561023357600080fd5b81019080803573ffffffffffffffffffffffffffffffffffffffff169060200190929190505050610fb8565b005b34801561026d57600080fd5b5061029a6004803603602081101561028457600080fd5b8101908080359060200190929190505050611024565b604051808273ffffffffffffffffffffffffffffffffffffffff1673ffffffffffffffffffffffffffffffffffffffff16815260200191505060405180910390f35b3480156102e857600080fd5b5061032b600480360360208110156102ff57600080fd5b81019080803573ffffffffffffffffffffffffffffffffffffffff169060200190929190505050611062565b6040518080602001878152602001806020018673ffffffffffffffffffffffffffffffffffffffff1673ffffffffffffffffffffffffffffffffffffffff168152602001806020018573ffffffffffffffffffffffffffffffffffffffff1673ffffffffffffffffffffffffffffffffffffffff16815260200184810384528a818151815260200191508051906020019080838360005b838110156103dd5780820151818401526020810190506103c2565b50505050905090810190601f16801561040a5780820380516001836020036101000a031916815260200191505b50848103835288818151815260200191508051906020019060200280838360005b8381101561044657808201518184015260208101905061042b565b50505050905001848103825286818151815260200191508051906020019080838360005b8381101561048557808201518184015260208101905061046a565b50505050905090810190601f1680156104b25780820380516001836020036101000a031916815260200191505b50995050505050505050505060405180910390f35b610509600480360360208110156104dd57600080fd5b81019080803573ffffffffffffffffffffffffffffffffffffffff1690602001909291905050506113d6565b005b34801561051757600080fd5b506105206114a8565b6040518080602001828103825283818151815260200191508051906020019060200280838360005b83811015610563578082015181840152602081019050610548565b505050509050019250505060405180910390f35b34801561058357600080fd5b506105c66004803603602081101561059a57600080fd5b81019080803573ffffffffffffffffffffffffffffffffffffffff169060200190929190505050611536565b6040518080602001828103825283818151815260200191508051906020019080838360005b838110156106065780820151818401526020810190506105eb565b50505050905090810190601f1680156106335780820380516001836020036101000a031916815260200191505b509250505060405180910390f35b34801561064d57600080fd5b506107316004803603606081101561066457600080fd5b81019080803573ffffffffffffffffffffffffffffffffffffffff16906020019092919080359060200190929190803590602001906401000000008111156106ab57600080fd5b8201836020820111156106bd57600080fd5b803590602001918460018302840111640100000000831117156106df57600080fd5b91908080601f016020809104026020016040519081016040528093929190818152602001838380828437600081840152601f19601f82011690508083019250505050505050919291929050505061161a565b005b34801561073f57600080fd5b506107826004803603602081101561075657600080fd5b81019080803573ffffffffffffffffffffffffffffffffffffffff16906020019092919050505061188f565b6040518080602001828103825283818151815260200191508051906020019060200280838360005b838110156107c55780820151818401526020810190506107aa565b505050509050019250505060405180910390f35b3480156107e557600080fd5b50610812600480360360208110156107fc57600080fd5b8101908080359060200190929190505050611965565b604051808273ffffffffffffffffffffffffffffffffffffffff1673ffffffffffffffffffffffffffffffffffffffff16815260200191505060405180910390f35b6108966004803603602081101561086a57600080fd5b81019080803573ffffffffffffffffffffffffffffffffffffffff1690602001909291905050506119a3565b005b6108da600480360360208110156108ae57600080fd5b81019080803573ffffffffffffffffffffffffffffffffffffffff169060200190929190505050611b1e565b005b3480156108e857600080fd5b5061094b600480360360408110156108ff57600080fd5b81019080803573ffffffffffffffffffffffffffffffffffffffff169060200190929190803573ffffffffffffffffffffffffffffffffffffffff169060200190929190505050611b93565b604051808060200180602001838103835285818151815260200191508051906020019080838360005b8381101561098f578082015181840152602081019050610974565b50505050905090810190601f1680156109bc5780820380516001836020036101000a031916815260200191505b50838103825284818151815260200191508051906020019080838360005b838110156109f55780820151818401526020810190506109da565b50505050905090810190601f168015610a225780820380516001836020036101000a031916815260200191505b5094505050505060405180910390f35b610a7460048036036020811015610a4857600080fd5b81019080803573ffffffffffffffffffffffffffffffffffffffff169060200190929190505050611d5d565b005b348015610a8257600080fd5b50610ac560048036036020811015610a9957600080fd5b81019080803573ffffffffffffffffffffffffffffffffffffffff169060200190929190505050611f34565b6040518080602001828103825283818151815260200191508051906020019060200280838360005b83811015610b08578082015181840152602081019050610aed565b505050509050019250505060405180910390f35b348015610b2857600080fd5b50610b6b60048036036020811015610b3f57600080fd5b81019080803573ffffffffffffffffffffffffffffffffffffffff16906020019092919050505061200a565b6040518080602001848152602001838152602001828103825285818151815260200191508051906020019080838360005b83811015610bb7578082015181840152602081019050610b9c565b50505050905090810190601f168015610be45780820380516001836020036101000a031916815260200191505b5094505050505060405180910390f35b348015610c0057600080fd5b50610c09612180565b6040518080602001828103825283818151815260200191508051906020019060200280838360005b83811015610c4c578082015181840152602081019050610c31565b505050509050019250505060405180910390f35b348015610c6c57600080fd5b50610dd160048036036080811015610c8357600080fd5b8101908080359060200190640100000000811115610ca057600080fd5b820183602082011115610cb257600080fd5b80359060200191846001830284011164010000000083111715610cd457600080fd5b91908080601f016020809104026020016040519081016040528093929190818152602001838380828437600081840152601f19601f820116905080830192505050505050509192919290803590602001909291908035906020019092919080359060200190640100000000811115610d4b57600080fd5b820183602082011115610d5d57600080fd5b80359060200191846001830284011164010000000083111715610d7f57600080fd5b91908080601f016020809104026020016040519081016040528093929190818152602001838380828437600081840152601f19601f82011690508083019250505050505050919291929050505061220e565b6040518080602001828103825283818151815260200191508051906020019080838360005b83811015610e11578082015181840152602081019050610df6565b50505050905090810190601f168015610e3e5780820380516001836020036101000a031916815260200191505b509250505060405180910390f35b610e97600460008373ffffffffffffffffffffffffffffffffffffffff1673ffffffffffffffffffffffffffffffffffffffff16815260200190815260200160002060030183612603565b50610ee3600360008473ffffffffffffffffffffffffffffffffffffffff1673ffffffffffffffffffffffffffffffffffffffff16815260200190815260200160002060020182612603565b505050565b6060600460008373ffffffffffffffffffffffffffffffffffffffff1673ffffffffffffffffffffffffffffffffffffffff168152602001908152602001600020600301805480602002602001604051908101604052809291908181526020018280548015610fac57602002820191906000526020600020905b8160009054906101000a900473ffffffffffffffffffffffffffffffffffffffff1673ffffffffffffffffffffffffffffffffffffffff1681526020019060010190808311610f62575b50505050509050919050565b610fc23382610e4c565b3373ffffffffffffffffffffffffffffffffffffffff166108fc671bc16d674ec800009081150290604051600060405180830381858888f19350505050158015611010573d6000803e3d6000fd5b506002600080828254039250508190555050565b60028181548110151561103357fe5b906000526020600020016000915054906101000a900473ffffffffffffffffffffffffffffffffffffffff1681565b606060006060600060606000600360008873ffffffffffffffffffffffffffffffffffffffff1673ffffffffffffffffffffffffffffffffffffffff168152602001908152602001600020600001600360008973ffffffffffffffffffffffffffffffffffffffff1673ffffffffffffffffffffffffffffffffffffffff16815260200190815260200160002060010154600360008a73ffffffffffffffffffffffffffffffffffffffff1673ffffffffffffffffffffffffffffffffffffffff168152602001908152602001600020600301600560008b73ffffffffffffffffffffffffffffffffffffffff1673ffffffffffffffffffffffffffffffffffffffff16815260200190815260200160002060009054906101000a900473ffffffffffffffffffffffffffffffffffffffff16600360008c73ffffffffffffffffffffffffffffffffffffffff1673ffffffffffffffffffffffffffffffffffffffff168152602001908152602001600020600401600560008d73ffffffffffffffffffffffffffffffffffffffff1673ffffffffffffffffffffffffffffffffffffffff16815260200190815260200160002060009054906101000a900473ffffffffffffffffffffffffffffffffffffffff16858054600181600116156101000203166002900480601f0160208091040260200160405190810160405280929190818152602001828054600181600116156101000203166002900480156112cc5780601f106112a1576101008083540402835291602001916112cc565b820191906000526020600020905b8154815290600101906020018083116112af57829003601f168201915b505050505095508380548060200260200160405190810160405280929190818152602001828054801561131e57602002820191906000526020600020905b81548152602001906001019080831161130a575b50505050509350818054600181600116156101000203166002900480601f0160208091040260200160405190810160405280929190818152602001828054600181600116156101000203166002900480156113ba5780601f1061138f576101008083540402835291602001916113ba565b820191906000526020600020905b81548152906001019060200180831161139d57829003601f168201915b5050505050915095509550955095509550955091939550919395565b670de0b6b3a7640000341415156113ec57600080fd5b600260008082825401925050819055506001600360008373ffffffffffffffffffffffffffffffffffffffff1673ffffffffffffffffffffffffffffffffffffffff1681526020019081526020016000206005013390806001815401808255809150509060018203906000526020600020016000909192909190916101000a81548173ffffffffffffffffffffffffffffffffffffffff021916908373ffffffffffffffffffffffffffffffffffffffff160217905550505050565b6060600280548060200260200160405190810160405280929190818152602001828054801561152c57602002820191906000526020600020905b8160009054906101000a900473ffffffffffffffffffffffffffffffffffffffff1673ffffffffffffffffffffffffffffffffffffffff16815260200190600101908083116114e2575b5050505050905090565b6060600360008373ffffffffffffffffffffffffffffffffffffffff1673ffffffffffffffffffffffffffffffffffffffff1681526020019081526020016000206004018054600181600116156101000203166002900480601f01602080910402602001604051908101604052809291908181526020018280546001816001161561010002031660029004801561160e5780601f106115e35761010080835404028352916020019161160e565b820191906000526020600020905b8154815290600101906020018083116115f157829003601f168201915b50505050509050919050565b600080905060008090505b600460003373ffffffffffffffffffffffffffffffffffffffff1673ffffffffffffffffffffffffffffffffffffffff16815260200190815260200160002060030180549050811015611790578473ffffffffffffffffffffffffffffffffffffffff16600460003373ffffffffffffffffffffffffffffffffffffffff1673ffffffffffffffffffffffffffffffffffffffff168152602001908152602001600020600301828154811015156116d857fe5b9060005260206000200160009054906101000a900473ffffffffffffffffffffffffffffffffffffffff1673ffffffffffffffffffffffffffffffffffffffff161415611783573373ffffffffffffffffffffffffffffffffffffffff166108fc671bc16d674ec800009081150290604051600060405180830381858888f1935050505015801561176d573d6000803e3d6000fd5b5060026000808282540392505081905550600191505b8080600101915050611625565b506001151581151514156117b7576117a884836127f2565b6117b28433610e4c565b6117bc565b600080fd5b600080905060008090505b600360008773ffffffffffffffffffffffffffffffffffffffff1673ffffffffffffffffffffffffffffffffffffffff168152602001908152602001600020600301805490508110156118875784600360008873ffffffffffffffffffffffffffffffffffffffff1673ffffffffffffffffffffffffffffffffffffffff1681526020019081526020016000206003018281548110151561186457fe5b9060005260206000200154141561187a57600191505b80806001019150506117c7565b505050505050565b60606000600360008473ffffffffffffffffffffffffffffffffffffffff1673ffffffffffffffffffffffffffffffffffffffff16815260200190815260200160002060020190508080548060200260200160405190810160405280929190818152602001828054801561195857602002820191906000526020600020905b8160009054906101000a900473ffffffffffffffffffffffffffffffffffffffff1673ffffffffffffffffffffffffffffffffffffffff168152602001906001019080831161190e575b5050505050915050919050565b60018181548110151561197457fe5b906000526020600020016000915054906101000a900473ffffffffffffffffffffffffffffffffffffffff1681565b671bc16d674ec80000341415156119b957600080fd5b600260008082825401925050819055506001600460008373ffffffffffffffffffffffffffffffffffffffff1673ffffffffffffffffffffffffffffffffffffffff1681526020019081526020016000206003013390806001815401808255809150509060018203906000526020600020016000909192909190916101000a81548173ffffffffffffffffffffffffffffffffffffffff021916908373ffffffffffffffffffffffffffffffffffffffff16021790555050506001600360003373ffffffffffffffffffffffffffffffffffffffff1673ffffffffffffffffffffffffffffffffffffffff1681526020019081526020016000206002018290806001815401808255809150509060018203906000526020600020016000909192909190916101000a81548173ffffffffffffffffffffffffffffffffffffffff021916908373ffffffffffffffffffffffffffffffffffffffff160217905550505050565b671bc16d674ec8000034141515611b3457600080fd5b60026000808282540392505081905550611b8f600360003373ffffffffffffffffffffffffffffffffffffffff1673ffffffffffffffffffffffffffffffffffffffff16815260200190815260200160002060050182612603565b5050565b606080600360008573ffffffffffffffffffffffffffffffffffffffff1673ffffffffffffffffffffffffffffffffffffffff168152602001908152602001600020600001600460008573ffffffffffffffffffffffffffffffffffffffff1673ffffffffffffffffffffffffffffffffffffffff168152602001908152602001600020600001818054600181600116156101000203166002900480601f016020809104026020016040519081016040528092919081815260200182805460018160011615610100020316600290048015611caf5780601f10611c8457610100808354040283529160200191611caf565b820191906000526020600020905b815481529060010190602001808311611c9257829003601f168201915b50505050509150808054600181600116156101000203166002900480601f016020809104026020016040519081016040528092919081815260200182805460018160011615610100020316600290048015611d4b5780601f10611d2057610100808354040283529160200191611d4b565b820191906000526020600020905b815481529060010190602001808311611d2e57829003601f168201915b50505050509050915091509250929050565b671bc16d674ec8000034141515611d7357600080fd5b600260008082825401925050819055506001600460008373ffffffffffffffffffffffffffffffffffffffff1673ffffffffffffffffffffffffffffffffffffffff1681526020019081526020016000206003013390806001815401808255809150509060018203906000526020600020016000909192909190916101000a81548173ffffffffffffffffffffffffffffffffffffffff021916908373ffffffffffffffffffffffffffffffffffffffff16021790555050506001600360003373ffffffffffffffffffffffffffffffffffffffff1673ffffffffffffffffffffffffffffffffffffffff1681526020019081526020016000206002018290806001815401808255809150509060018203906000526020600020016000909192909190916101000a81548173ffffffffffffffffffffffffffffffffffffffff021916908373ffffffffffffffffffffffffffffffffffffffff160217905550505060026000808282540392505081905550611f30600360003373ffffffffffffffffffffffffffffffffffffffff1673ffffffffffffffffffffffffffffffffffffffff16815260200190815260200160002060050182612603565b5050565b60606000600360008473ffffffffffffffffffffffffffffffffffffffff1673ffffffffffffffffffffffffffffffffffffffff168152602001908152602001600020600501905080805480602002602001604051908101604052809291908181526020018280548015611ffd57602002820191906000526020600020905b8160009054906101000a900473ffffffffffffffffffffffffffffffffffffffff1673ffffffffffffffffffffffffffffffffffffffff1681526020019060010190808311611fb3575b5050505050915050919050565b6060600080600460008573ffffffffffffffffffffffffffffffffffffffff1673ffffffffffffffffffffffffffffffffffffffff168152602001908152602001600020600001600460008673ffffffffffffffffffffffffffffffffffffffff1673ffffffffffffffffffffffffffffffffffffffff16815260200190815260200160002060010154600460008773ffffffffffffffffffffffffffffffffffffffff1673ffffffffffffffffffffffffffffffffffffffff16815260200190815260200160002060020154828054600181600116156101000203166002900480601f01602080910402602001604051908101604052809291908181526020018280546001816001161561010002031660029004801561216c5780601f106121415761010080835404028352916020019161216c565b820191906000526020600020905b81548152906001019060200180831161214f57829003601f168201915b505050505092509250925092509193909250565b6060600180548060200260200160405190810160405280929190818152602001828054801561220457602002820191906000526020600020905b8160009054906101000a900473ffffffffffffffffffffffffffffffffffffffff1673ffffffffffffffffffffffffffffffffffffffff16815260200190600101908083116121ba575b5050505050905090565b6060600033905060008414156123925761222661284d565b8681600001819052508581602001818152505083816080018190525080600360003373ffffffffffffffffffffffffffffffffffffffff1673ffffffffffffffffffffffffffffffffffffffff168152602001908152602001600020600082015181600001908051906020019061229e929190612884565b506020820151816001015560408201518160020190805190602001906122c5929190612904565b5060608201518160030190805190602001906122e292919061298e565b5060808201518160040190805190602001906122ff929190612884565b5060a082015181600501908051906020019061231c929190612904565b509050506001808390806001815401808255809150509060018203906000526020600020016000909192909190916101000a81548173ffffffffffffffffffffffffffffffffffffffff021916908373ffffffffffffffffffffffffffffffffffffffff160217905550505086925050506125fb565b60018414156124c4576123a36129db565b868160000181905250858160200181815250508481604001818152505080600460003373ffffffffffffffffffffffffffffffffffffffff1673ffffffffffffffffffffffffffffffffffffffff168152602001908152602001600020600082015181600001908051906020019061241c929190612884565b506020820151816001015560408201518160020155606082015181600301908051906020019061244d929190612904565b50905050600160028390806001815401808255809150509060018203906000526020600020016000909192909190916101000a81548173ffffffffffffffffffffffffffffffffffffffff021916908373ffffffffffffffffffffffffffffffffffffffff160217905550505086925050506125fb565b60028414156125f6576124d56129db565b868160000181905250858160200181815250508481604001818152505080600460003373ffffffffffffffffffffffffffffffffffffffff1673ffffffffffffffffffffffffffffffffffffffff168152602001908152602001600020600082015181600001908051906020019061254e929190612884565b506020820151816001015560408201518160020155606082015181600301908051906020019061257f929190612904565b50905050600160028390806001815401808255809150509060018203906000526020600020016000909192909190916101000a81548173ffffffffffffffffffffffffffffffffffffffff021916908373ffffffffffffffffffffffffffffffffffffffff160217905550505086925050506125fb565b600080fd5b949350505050565b60008060009050600080905060008090505b85805490508110156126a2578473ffffffffffffffffffffffffffffffffffffffff16868281548110151561264657fe5b9060005260206000200160009054906101000a900473ffffffffffffffffffffffffffffffffffffffff1673ffffffffffffffffffffffffffffffffffffffff16141561269557600192508091505b8080600101915050612615565b508115156126af57600080fd5b6001858054905014156126fc5784818154811015156126ca57fe5b9060005260206000200160006101000a81549073ffffffffffffffffffffffffffffffffffffffff02191690556127d5565b84600186805490500381548110151561271157fe5b9060005260206000200160009054906101000a900473ffffffffffffffffffffffffffffffffffffffff16858281548110151561274a57fe5b9060005260206000200160006101000a81548173ffffffffffffffffffffffffffffffffffffffff021916908373ffffffffffffffffffffffffffffffffffffffff1602179055508460018680549050038154811015156127a757fe5b9060005260206000200160006101000a81549073ffffffffffffffffffffffffffffffffffffffff02191690555b848054809190600190036127e99190612a04565b50505092915050565b80600360008473ffffffffffffffffffffffffffffffffffffffff1673ffffffffffffffffffffffffffffffffffffffff1681526020019081526020016000206004019080519060200190612848929190612a30565b505050565b60c0604051908101604052806060815260200160008152602001606081526020016060815260200160608152602001606081525090565b828054600181600116156101000203166002900490600052602060002090601f016020900481019282601f106128c557805160ff19168380011785556128f3565b828001600101855582156128f3579182015b828111156128f25782518255916020019190600101906128d7565b5b5090506129009190612ab0565b5090565b82805482825590600052602060002090810192821561297d579160200282015b8281111561297c5782518260006101000a81548173ffffffffffffffffffffffffffffffffffffffff021916908373ffffffffffffffffffffffffffffffffffffffff16021790555091602001919060010190612924565b5b50905061298a9190612ad5565b5090565b8280548282559060005260206000209081019282156129ca579160200282015b828111156129c95782518255916020019190600101906129ae565b5b5090506129d79190612ab0565b5090565b608060405190810160405280606081526020016000815260200160008152602001606081525090565b815481835581811115612a2b57818360005260206000209182019101612a2a9190612ab0565b5b505050565b828054600181600116156101000203166002900490600052602060002090601f016020900481019282601f10612a7157805160ff1916838001178555612a9f565b82800160010185558215612a9f579182015b82811115612a9e578251825591602001919060010190612a83565b5b509050612aac9190612ab0565b5090565b612ad291905b80821115612ace576000816000905550600101612ab6565b5090565b90565b612b1591905b80821115612b1157600081816101000a81549073ffffffffffffffffffffffffffffffffffffffff021916905550600101612adb565b5090565b9056fea165627a7a723058209fd03ed2cd458e46794f0a9ea5d4828a17f9fea1e16a79de48914c0183b4606a0029",
  "source": "pragma solidity ^0.5.1;\r\n\r\ncontract Medishield {\r\n    \r\n    struct patient {\r\n        string name;\r\n        uint number;\r\n        address[] healthcareAccessList;\r\n        uint[] diagnosis;\r\n        string record;\r\n        address[] healthcareRequestList;\r\n    }\r\n    \r\n    struct healthcare {\r\n        string name;\r\n        uint number;\r\n        uint designation;\r\n        address[] patientAccessList;\r\n    }\r\n\r\n    uint creditPool;\r\n    address[] public patientList;\r\n    address[] public healthcareList;\r\n\r\n\r\n    mapping (address => patient) patientInfo;\r\n    mapping (address => healthcare) healthcareInfo;\r\n    mapping (address => address) Empty;\r\n    mapping (address => string) patientRecords;\r\n\r\n\r\n    function add_agent(string memory _name, uint _number, uint _designation, string memory _hash) public returns(string memory){\r\n        address addr = msg.sender;\r\n        if(_designation == 0){\r\n            patient memory p;\r\n            p.name = _name;\r\n            p.number = _number;\r\n            p.record = _hash;\r\n            patientInfo[msg.sender] = p;\r\n            patientList.push(addr)-1;\r\n            return _name;\r\n        }\r\n       else if (_designation == 1){\r\n            healthcare memory d;\r\n            d.name = _name;\r\n            d.number = _number;\r\n            d.designation = _designation;\r\n            healthcareInfo[msg.sender] = d;\r\n            healthcareList.push(addr)-1;\r\n            return _name;\r\n       }\r\n       else if (_designation == 2){\r\n            healthcare memory d;\r\n            d.name = _name;\r\n            d.number = _number;\r\n            d.designation = _designation;\r\n            healthcareInfo[msg.sender] = d;\r\n            healthcareList.push(addr)-1;\r\n            return _name;\r\n       }\r\n       else{\r\n           revert();\r\n       }\r\n    }\r\n\r\n    function get_patient(address addr) view public returns (string memory , uint, uint[] memory , address, string memory, address){\r\n        // if(keccak256(patientInfo[addr].name) == keccak256(\"\"))revert();\r\n        return (patientInfo[addr].name, patientInfo[addr].number, patientInfo[addr].diagnosis, Empty[addr], patientInfo[addr].record, Empty[addr]);\r\n    }\r\n\r\n    function get_healthcare(address addr) view public returns (string memory , uint, uint256){\r\n        return (healthcareInfo[addr].name, healthcareInfo[addr].number, healthcareInfo[addr].designation);\r\n    }\r\n    function get_patient_healthcare_name(address paddr, address daddr) view public returns (string memory , string memory ){\r\n        return (patientInfo[paddr].name,healthcareInfo[daddr].name);\r\n    }\r\n\r\n    function permit_access(address addr) payable public {\r\n        require(msg.value == 2 ether);\r\n        creditPool += 2;\r\n        healthcareInfo[addr].patientAccessList.push(msg.sender)-1;\r\n        patientInfo[msg.sender].healthcareAccessList.push(addr)-1;\r\n    }\r\n    function doctor_permit_access(address addr) payable public {\r\n        require(msg.value == 1 ether);\r\n        creditPool += 2;\r\n        patientInfo[addr].healthcareRequestList.push(msg.sender)-1;\r\n    }\r\n    //new\r\n    function permit_access_and_remove_doctor_permit_access(address addr) payable public {\r\n        require(msg.value == 2 ether);\r\n        creditPool += 2;\r\n        healthcareInfo[addr].patientAccessList.push(msg.sender)-1;\r\n        patientInfo[msg.sender].healthcareAccessList.push(addr)-1;\r\n        creditPool -= 2;\r\n        remove_element_in_array(patientInfo[msg.sender].healthcareRequestList, addr);\r\n    }\r\n    //\r\n    function cancel_access(address addr) payable public {\r\n        require(msg.value == 2 ether);\r\n        creditPool -= 2;\r\n        remove_element_in_array(patientInfo[msg.sender].healthcareRequestList, addr);\r\n    }\r\n    // show request \r\n    //must be called by healthcare.\r\n    function submitfile(address paddr, uint _diagnosis, string memory  _hash) public {\r\n        bool patientFound = false;\r\n        for(uint i = 0;i<healthcareInfo[msg.sender].patientAccessList.length;i++){\r\n            if(healthcareInfo[msg.sender].patientAccessList[i]==paddr){\r\n                msg.sender.transfer(2 ether);\r\n                creditPool -= 2;\r\n                patientFound = true;\r\n                \r\n            }\r\n            \r\n        }\r\n        if(patientFound==true){\r\n            set_hash(paddr, _hash);\r\n            remove_patient(paddr, msg.sender);\r\n        }else {\r\n            revert();\r\n        }\r\n\r\n        bool DiagnosisFound = false;\r\n        for(uint j = 0; j < patientInfo[paddr].diagnosis.length;j++){\r\n            if(patientInfo[paddr].diagnosis[j] == _diagnosis)DiagnosisFound = true;\r\n        }\r\n    }\r\n\r\n    function remove_element_in_array(address[] storage Array, address addr) internal returns(uint)\r\n    {\r\n        bool check = false;\r\n        uint del_index = 0;\r\n        for(uint i = 0; i<Array.length; i++){\r\n            if(Array[i] == addr){\r\n                check = true;\r\n                del_index = i;\r\n            }\r\n        }\r\n        if(!check) revert();\r\n        else{\r\n            if(Array.length == 1){\r\n                delete Array[del_index];\r\n            }\r\n            else {\r\n                Array[del_index] = Array[Array.length - 1];\r\n                delete Array[Array.length - 1];\r\n\r\n            }\r\n            Array.length--;\r\n        }\r\n    }\r\n\r\n    function remove_patient(address paddr, address daddr) public {\r\n        remove_element_in_array(healthcareInfo[daddr].patientAccessList, paddr);\r\n        remove_element_in_array(patientInfo[paddr].healthcareAccessList, daddr);\r\n    }\r\n    \r\n    function get_accessed_healthcarelist_for_patient(address addr) public view returns (address[] memory )\r\n    { \r\n        address[] storage healthcareaddr = patientInfo[addr].healthcareAccessList;\r\n        return healthcareaddr;\r\n    }\r\n    function get_request_healthcarelist_for_patient(address addr) public view returns (address[] memory )\r\n    {\r\n        address[] storage healthcareaddr = patientInfo[addr].healthcareRequestList;\r\n        return healthcareaddr;\r\n    }\r\n    function get_accessed_patientlist_for_healthcare(address addr) public view returns (address[] memory )\r\n    {\r\n        return healthcareInfo[addr].patientAccessList;\r\n    }\r\n\r\n    \r\n    function revoke_access(address daddr) public payable{\r\n        remove_patient(msg.sender,daddr);\r\n        msg.sender.transfer(2 ether);\r\n        creditPool -= 2;\r\n    }\r\n\r\n    function get_patient_list() public view returns(address[] memory ){\r\n        return patientList;\r\n    }\r\n\r\n    function get_healthcare_list() public view returns(address[] memory ){\r\n        return healthcareList;\r\n    }\r\n\r\n    function get_hash(address paddr) public view returns(string memory ){\r\n        return patientInfo[paddr].record;\r\n    }\r\n\r\n    function set_hash(address paddr, string memory _hash) internal {\r\n        patientInfo[paddr].record = _hash;\r\n    }\r\n\r\n}\r\n\r\n",
  "sourcePath": "C:\\Users\\Acer\\Desktop\\MY WORKSPASE\\DACN\\Blockchain\\Demo_09_11\\Blockchain-For-EHR-Management\\contracts\\Medishield.sol",
  "compiler": {
    "name": "solc",
    "version": "0.5.1+commit.c8a2cb62.Emscripten.clang"
  },
  "schemaVersion": "3.4.16",
  "updatedAt": "2024-11-19T03:09:51.486Z",
  "devdoc": {
    "methods": {}
  },
  "userdoc": {
    "methods": {}
  }
}