{
  "contractName": "Medishield",
  "abi": [
    {
      "constant": true,
      "inputs": [
        {
          "name": "",
          "type": "uint256"
        }
      ],
      "name": "healthcareList",
      "outputs": [
        {
          "name": "",
          "type": "address"
        }
      ],
      "payable": false,
      "stateMutability": "view",
      "type": "function"
    },
    {
      "constant": true,
      "inputs": [
        {
          "name": "",
          "type": "uint256"
        }
      ],
      "name": "patientList",
      "outputs": [
        {
          "name": "",
          "type": "address"
        }
      ],
      "payable": false,
      "stateMutability": "view",
      "type": "function"
    },
    {
      "constant": true,
      "inputs": [
        {
          "name": "",
          "type": "uint256"
        }
      ],
      "name": "hospitalList",
      "outputs": [
        {
          "name": "",
          "type": "address"
        }
      ],
      "payable": false,
      "stateMutability": "view",
      "type": "function"
    },
    {
      "constant": false,
      "inputs": [
        {
          "name": "_name",
          "type": "string"
        },
        {
          "name": "_number",
          "type": "uint256"
        },
        {
          "name": "_designation",
          "type": "uint256"
        },
        {
          "name": "_hash",
          "type": "string"
        }
      ],
      "name": "add_agent",
      "outputs": [
        {
          "name": "",
          "type": "string"
        }
      ],
      "payable": false,
      "stateMutability": "nonpayable",
      "type": "function"
    },
    {
      "constant": true,
      "inputs": [
        {
          "name": "addr",
          "type": "address"
        }
      ],
      "name": "get_patient",
      "outputs": [
        {
          "name": "",
          "type": "string"
        },
        {
          "name": "",
          "type": "uint256"
        },
        {
          "name": "",
          "type": "string"
        },
        {
          "name": "",
          "type": "address"
        },
        {
          "name": "",
          "type": "string"
        },
        {
          "name": "",
          "type": "address"
        }
      ],
      "payable": false,
      "stateMutability": "view",
      "type": "function"
    },
    {
      "constant": true,
      "inputs": [
        {
          "name": "addr",
          "type": "address"
        }
      ],
      "name": "get_healthcare",
      "outputs": [
        {
          "name": "",
          "type": "string"
        },
        {
          "name": "",
          "type": "uint256"
        },
        {
          "name": "",
          "type": "uint256"
        }
      ],
      "payable": false,
      "stateMutability": "view",
      "type": "function"
    },
    {
      "constant": true,
      "inputs": [
        {
          "name": "addr",
          "type": "address"
        }
      ],
      "name": "get_hospital",
      "outputs": [
        {
          "name": "",
          "type": "string"
        },
        {
          "name": "",
          "type": "uint256"
        },
        {
          "name": "",
          "type": "uint256"
        },
        {
          "name": "",
          "type": "string"
        }
      ],
      "payable": false,
      "stateMutability": "view",
      "type": "function"
    },
    {
      "constant": true,
      "inputs": [
        {
          "name": "paddr",
          "type": "address"
        },
        {
          "name": "daddr",
          "type": "address"
        }
      ],
      "name": "get_patient_healthcare_name",
      "outputs": [
        {
          "name": "",
          "type": "string"
        },
        {
          "name": "",
          "type": "string"
        }
      ],
      "payable": false,
      "stateMutability": "view",
      "type": "function"
    },
    {
      "constant": false,
      "inputs": [
        {
          "name": "addr",
          "type": "address"
        }
      ],
      "name": "permit_access",
      "outputs": [],
      "payable": true,
      "stateMutability": "payable",
      "type": "function"
    },
    {
      "constant": false,
      "inputs": [
        {
          "name": "addr",
          "type": "address"
        }
      ],
      "name": "doctor_permit_access",
      "outputs": [],
      "payable": true,
      "stateMutability": "payable",
      "type": "function"
    },
    {
      "constant": false,
      "inputs": [
        {
          "name": "addr",
          "type": "address"
        }
      ],
      "name": "create_an_appointment",
      "outputs": [],
      "payable": true,
      "stateMutability": "payable",
      "type": "function"
    },
    {
      "constant": false,
      "inputs": [
        {
          "name": "addr",
          "type": "address"
        }
      ],
      "name": "access_request_patient",
      "outputs": [],
      "payable": true,
      "stateMutability": "payable",
      "type": "function"
    },
    {
      "constant": false,
      "inputs": [
        {
          "name": "addr",
          "type": "address"
        }
      ],
      "name": "doctor_apply",
      "outputs": [],
      "payable": true,
      "stateMutability": "payable",
      "type": "function"
    },
    {
      "constant": false,
      "inputs": [
        {
          "name": "addr",
          "type": "address"
        },
        {
          "name": "_hash",
          "type": "string"
        }
      ],
      "name": "sign_records",
      "outputs": [],
      "payable": true,
      "stateMutability": "payable",
      "type": "function"
    },
    {
      "constant": false,
      "inputs": [
        {
          "name": "addr",
          "type": "address"
        }
      ],
      "name": "request_ordor_medicine",
      "outputs": [],
      "payable": true,
      "stateMutability": "payable",
      "type": "function"
    },
    {
      "constant": false,
      "inputs": [
        {
          "name": "_hash",
          "type": "string"
        }
      ],
      "name": "add_store_medicine",
      "outputs": [],
      "payable": true,
      "stateMutability": "payable",
      "type": "function"
    },
    {
      "constant": false,
      "inputs": [
        {
          "name": "addr",
          "type": "address"
        }
      ],
      "name": "remove_order_request",
      "outputs": [],
      "payable": true,
      "stateMutability": "payable",
      "type": "function"
    },
    {
      "constant": false,
      "inputs": [
        {
          "name": "addr",
          "type": "address"
        }
      ],
      "name": "remove_status_order_request",
      "outputs": [],
      "payable": true,
      "stateMutability": "payable",
      "type": "function"
    },
    {
      "constant": false,
      "inputs": [
        {
          "name": "addr",
          "type": "address"
        }
      ],
      "name": "permit_access_and_remove_doctor_permit_access",
      "outputs": [],
      "payable": true,
      "stateMutability": "payable",
      "type": "function"
    },
    {
      "constant": false,
      "inputs": [
        {
          "name": "addr",
          "type": "address"
        }
      ],
      "name": "cancel_access",
      "outputs": [],
      "payable": true,
      "stateMutability": "payable",
      "type": "function"
    },
    {
      "constant": false,
      "inputs": [
        {
          "name": "addr",
          "type": "address"
        },
        {
          "name": "paddr",
          "type": "address"
        },
        {
          "name": "_hash",
          "type": "string"
        }
      ],
      "name": "permit_access_and_submitfile",
      "outputs": [],
      "payable": true,
      "stateMutability": "payable",
      "type": "function"
    },
    {
      "constant": false,
      "inputs": [
        {
          "name": "paddr",
          "type": "address"
        },
        {
          "name": "_hash",
          "type": "string"
        }
      ],
      "name": "submitfile",
      "outputs": [],
      "payable": false,
      "stateMutability": "nonpayable",
      "type": "function"
    },
    {
      "constant": false,
      "inputs": [
        {
          "name": "paddr",
          "type": "address"
        },
        {
          "name": "daddr",
          "type": "address"
        }
      ],
      "name": "remove_patient",
      "outputs": [],
      "payable": false,
      "stateMutability": "nonpayable",
      "type": "function"
    },
    {
      "constant": true,
      "inputs": [
        {
          "name": "addr",
          "type": "address"
        }
      ],
      "name": "get_accessed_healthcarelist_for_patient",
      "outputs": [
        {
          "name": "",
          "type": "address[]"
        }
      ],
      "payable": false,
      "stateMutability": "view",
      "type": "function"
    },
    {
      "constant": true,
      "inputs": [
        {
          "name": "addr",
          "type": "address"
        }
      ],
      "name": "get_request_healthcarelist_for_patient",
      "outputs": [
        {
          "name": "",
          "type": "address[]"
        }
      ],
      "payable": false,
      "stateMutability": "view",
      "type": "function"
    },
    {
      "constant": true,
      "inputs": [
        {
          "name": "addr",
          "type": "address"
        }
      ],
      "name": "get_accessed_patientlist_for_healthcare",
      "outputs": [
        {
          "name": "",
          "type": "address[]"
        }
      ],
      "payable": false,
      "stateMutability": "view",
      "type": "function"
    },
    {
      "constant": true,
      "inputs": [
        {
          "name": "addr",
          "type": "address"
        }
      ],
      "name": "get_appointment_first",
      "outputs": [
        {
          "name": "",
          "type": "address[]"
        }
      ],
      "payable": false,
      "stateMutability": "view",
      "type": "function"
    },
    {
      "constant": true,
      "inputs": [
        {
          "name": "addr",
          "type": "address"
        }
      ],
      "name": "get_queue_doctor_sign_first",
      "outputs": [
        {
          "name": "",
          "type": "address[]"
        }
      ],
      "payable": false,
      "stateMutability": "view",
      "type": "function"
    },
    {
      "constant": true,
      "inputs": [
        {
          "name": "addr",
          "type": "address"
        }
      ],
      "name": "get_employeees_hospital",
      "outputs": [
        {
          "name": "",
          "type": "address[]"
        }
      ],
      "payable": false,
      "stateMutability": "view",
      "type": "function"
    },
    {
      "constant": true,
      "inputs": [
        {
          "name": "addr",
          "type": "address"
        }
      ],
      "name": "get_job_doctor",
      "outputs": [
        {
          "name": "",
          "type": "address[]"
        }
      ],
      "payable": false,
      "stateMutability": "view",
      "type": "function"
    },
    {
      "constant": false,
      "inputs": [
        {
          "name": "addr",
          "type": "address"
        }
      ],
      "name": "resign_job_from_doctor",
      "outputs": [],
      "payable": false,
      "stateMutability": "nonpayable",
      "type": "function"
    },
    {
      "constant": false,
      "inputs": [
        {
          "name": "addr",
          "type": "address"
        }
      ],
      "name": "quit_job_from_hospital",
      "outputs": [],
      "payable": false,
      "stateMutability": "nonpayable",
      "type": "function"
    },
    {
      "constant": true,
      "inputs": [
        {
          "name": "addr",
          "type": "address"
        }
      ],
      "name": "get_doctor_in_medicine",
      "outputs": [
        {
          "name": "",
          "type": "address[]"
        }
      ],
      "payable": false,
      "stateMutability": "view",
      "type": "function"
    },
    {
      "constant": true,
      "inputs": [
        {
          "name": "addr",
          "type": "address"
        }
      ],
      "name": "get_patient_order_medicine",
      "outputs": [
        {
          "name": "",
          "type": "address[]"
        }
      ],
      "payable": false,
      "stateMutability": "view",
      "type": "function"
    },
    {
      "constant": true,
      "inputs": [
        {
          "name": "addr",
          "type": "address"
        }
      ],
      "name": "get_wait_handle_request_order_medicine",
      "outputs": [
        {
          "name": "",
          "type": "address[]"
        }
      ],
      "payable": false,
      "stateMutability": "view",
      "type": "function"
    },
    {
      "constant": true,
      "inputs": [
        {
          "name": "addr",
          "type": "address"
        }
      ],
      "name": "get_wait_payment_request_order_medicine",
      "outputs": [
        {
          "name": "",
          "type": "address[]"
        }
      ],
      "payable": false,
      "stateMutability": "view",
      "type": "function"
    },
    {
      "constant": true,
      "inputs": [
        {
          "name": "addr",
          "type": "address"
        }
      ],
      "name": "get_was_deleted_request_order_medicine",
      "outputs": [
        {
          "name": "",
          "type": "address[]"
        }
      ],
      "payable": false,
      "stateMutability": "view",
      "type": "function"
    },
    {
      "constant": true,
      "inputs": [
        {
          "name": "addr",
          "type": "address"
        }
      ],
      "name": "get_success_request_order_medicine",
      "outputs": [
        {
          "name": "",
          "type": "address[]"
        }
      ],
      "payable": false,
      "stateMutability": "view",
      "type": "function"
    },
    {
      "constant": false,
      "inputs": [
        {
          "name": "daddr",
          "type": "address"
        }
      ],
      "name": "revoke_access",
      "outputs": [],
      "payable": true,
      "stateMutability": "payable",
      "type": "function"
    },
    {
      "constant": true,
      "inputs": [],
      "name": "get_patient_list",
      "outputs": [
        {
          "name": "",
          "type": "address[]"
        }
      ],
      "payable": false,
      "stateMutability": "view",
      "type": "function"
    },
    {
      "constant": true,
      "inputs": [],
      "name": "get_healthcare_list",
      "outputs": [
        {
          "name": "",
          "type": "address[]"
        }
      ],
      "payable": false,
      "stateMutability": "view",
      "type": "function"
    },
    {
      "constant": true,
      "inputs": [
        {
          "name": "paddr",
          "type": "address"
        }
      ],
      "name": "get_hash",
      "outputs": [
        {
          "name": "",
          "type": "string"
        }
      ],
      "payable": false,
      "stateMutability": "view",
      "type": "function"
    },
    {
      "constant": true,
      "inputs": [],
      "name": "get_hospital_list",
      "outputs": [
        {
          "name": "",
          "type": "address[]"
        }
      ],
      "payable": false,
      "stateMutability": "view",
      "type": "function"
    }
  ],
  "bytecode": "0x608060405234801561001057600080fd5b5061525b806100206000396000f3fe608060405260043610610208576000357c0100000000000000000000000000000000000000000000000000000000900480622fd8661461020d5780630362fe9b146102b35780630abcb6a014610324578063239a75ff1461040c57806326e161bc146104b257806327b1dcee1461055857806327d9be431461059c5780632a866eee146105e05780632a8d8b9c146106bb5780632b6850061461072757806333cdfdba146107cd5780633740b3c0146108115780633ba6c5501461088c5780633e429f8f146108dd5780634042d2d4146109835780634149060a14610b925780634b0ca58514610c3857806350cbd8ae14610c7c57806352fc89c214610d2257806358db888e14610d8e5780635a2f284414610ed25780636e82bafc14610f8d5780637e1519ce1461103357806385cbce97146110fd57806388a53fcd14611141578063890fa83b146111855780639f55c37b146111d6578063a87648a01461127c578063b3d94bd014611377578063b462b31f1461141d578063b5d1b3e114611461578063babb1d4114611507578063bcffb7ca14611582578063bdf633df146115c6578063c196a15f1461160a578063c82412b91461164e578063cb37190e146116c9578063cf9c186f1461181f578063d6763c7f14611863578063e7322c7014611909578063e81ac054146119e1578063f02d90a414611a4d578063fa45f6fc14611c39575b600080fd5b34801561021957600080fd5b5061025c6004803603602081101561023057600080fd5b81019080803573ffffffffffffffffffffffffffffffffffffffff169060200190929190505050611cdf565b6040518080602001828103825283818151815260200191508051906020019060200280838360005b8381101561029f578082015181840152602081019050610284565b505050509050019250505060405180910390f35b3480156102bf57600080fd5b50610322600480360360408110156102d657600080fd5b81019080803573ffffffffffffffffffffffffffffffffffffffff169060200190929190803573ffffffffffffffffffffffffffffffffffffffff169060200190929190505050611db5565b005b34801561033057600080fd5b5061040a6004803603604081101561034757600080fd5b81019080803573ffffffffffffffffffffffffffffffffffffffff1690602001909291908035906020019064010000000081111561038457600080fd5b82018360208201111561039657600080fd5b803590602001918460018302840111640100000000831117156103b857600080fd5b91908080601f016020809104026020016040519081016040528093929190818152602001838380828437600081840152601f19601f820116905080830192505050505050509192919290505050611e51565b005b34801561041857600080fd5b5061045b6004803603602081101561042f57600080fd5b81019080803573ffffffffffffffffffffffffffffffffffffffff169060200190929190505050611ff8565b6040518080602001828103825283818151815260200191508051906020019060200280838360005b8381101561049e578082015181840152602081019050610483565b505050509050019250505060405180910390f35b3480156104be57600080fd5b50610501600480360360208110156104d557600080fd5b81019080803573ffffffffffffffffffffffffffffffffffffffff1690602001909291905050506120c8565b6040518080602001828103825283818151815260200191508051906020019060200280838360005b83811015610544578082015181840152602081019050610529565b505050509050019250505060405180910390f35b61059a6004803603602081101561056e57600080fd5b81019080803573ffffffffffffffffffffffffffffffffffffffff16906020019092919050505061219e565b005b6105de600480360360208110156105b257600080fd5b81019080803573ffffffffffffffffffffffffffffffffffffffff16906020019092919050505061220a565b005b6106b9600480360360408110156105f657600080fd5b81019080803573ffffffffffffffffffffffffffffffffffffffff1690602001909291908035906020019064010000000081111561063357600080fd5b82018360208201111561064557600080fd5b8035906020019184600183028401116401000000008311171561066757600080fd5b91908080601f016020809104026020016040519081016040528093929190818152602001838380828437600081840152601f19601f82011690508083019250505050505050919291929050505061227f565b005b3480156106c757600080fd5b506106d06123b8565b6040518080602001828103825283818151815260200191508051906020019060200280838360005b838110156107135780820151818401526020810190506106f8565b505050509050019250505060405180910390f35b34801561073357600080fd5b506107766004803603602081101561074a57600080fd5b81019080803573ffffffffffffffffffffffffffffffffffffffff169060200190929190505050612446565b6040518080602001828103825283818151815260200191508051906020019060200280838360005b838110156107b957808201518184015260208101905061079e565b505050509050019250505060405180910390f35b61080f600480360360208110156107e357600080fd5b81019080803573ffffffffffffffffffffffffffffffffffffffff16906020019092919050505061251c565b005b34801561081d57600080fd5b5061084a6004803603602081101561083457600080fd5b8101908080359060200190929190505050612697565b604051808273ffffffffffffffffffffffffffffffffffffffff1673ffffffffffffffffffffffffffffffffffffffff16815260200191505060405180910390f35b34801561089857600080fd5b506108db600480360360208110156108af57600080fd5b81019080803573ffffffffffffffffffffffffffffffffffffffff1690602001909291905050506126d5565b005b3480156108e957600080fd5b5061092c6004803603602081101561090057600080fd5b81019080803573ffffffffffffffffffffffffffffffffffffffff169060200190929190505050612770565b6040518080602001828103825283818151815260200191508051906020019060200280838360005b8381101561096f578082015181840152602081019050610954565b505050509050019250505060405180910390f35b34801561098f57600080fd5b506109d2600480360360208110156109a657600080fd5b81019080803573ffffffffffffffffffffffffffffffffffffffff169060200190929190505050612846565b6040518080602001878152602001806020018673ffffffffffffffffffffffffffffffffffffffff1673ffffffffffffffffffffffffffffffffffffffff168152602001806020018573ffffffffffffffffffffffffffffffffffffffff1673ffffffffffffffffffffffffffffffffffffffff16815260200184810384528a818151815260200191508051906020019080838360005b83811015610a84578082015181840152602081019050610a69565b50505050905090810190601f168015610ab15780820380516001836020036101000a031916815260200191505b50848103835288818151815260200191508051906020019080838360005b83811015610aea578082015181840152602081019050610acf565b50505050905090810190601f168015610b175780820380516001836020036101000a031916815260200191505b50848103825286818151815260200191508051906020019080838360005b83811015610b50578082015181840152602081019050610b35565b50505050905090810190601f168015610b7d5780820380516001836020036101000a031916815260200191505b50995050505050505050505060405180910390f35b348015610b9e57600080fd5b50610be160048036036020811015610bb557600080fd5b81019080803573ffffffffffffffffffffffffffffffffffffffff169060200190929190505050612c04565b6040518080602001828103825283818151815260200191508051906020019060200280838360005b83811015610c24578082015181840152602081019050610c09565b505050509050019250505060405180910390f35b610c7a60048036036020811015610c4e57600080fd5b81019080803573ffffffffffffffffffffffffffffffffffffffff169060200190929190505050612cda565b005b348015610c8857600080fd5b50610ccb60048036036020811015610c9f57600080fd5b81019080803573ffffffffffffffffffffffffffffffffffffffff169060200190929190505050612dac565b6040518080602001828103825283818151815260200191508051906020019060200280838360005b83811015610d0e578082015181840152602081019050610cf3565b505050509050019250505060405180910390f35b348015610d2e57600080fd5b50610d37612e7c565b6040518080602001828103825283818151815260200191508051906020019060200280838360005b83811015610d7a578082015181840152602081019050610d5f565b505050509050019250505060405180910390f35b348015610d9a57600080fd5b50610ddd60048036036020811015610db157600080fd5b81019080803573ffffffffffffffffffffffffffffffffffffffff169060200190929190505050612f0a565b604051808060200185815260200184815260200180602001838103835287818151815260200191508051906020019080838360005b83811015610e2d578082015181840152602081019050610e12565b50505050905090810190601f168015610e5a5780820380516001836020036101000a031916815260200191505b50838103825284818151815260200191508051906020019080838360005b83811015610e93578082015181840152602081019050610e78565b50505050905090810190601f168015610ec05780820380516001836020036101000a031916815260200191505b50965050505050505060405180910390f35b610f8b60048036036020811015610ee857600080fd5b8101908080359060200190640100000000811115610f0557600080fd5b820183602082011115610f1757600080fd5b80359060200191846001830284011164010000000083111715610f3957600080fd5b91908080601f016020809104026020016040519081016040528093929190818152602001838380828437600081840152601f19601f820116905080830192505050505050509192919290505050613162565b005b348015610f9957600080fd5b50610fdc60048036036020811015610fb057600080fd5b81019080803573ffffffffffffffffffffffffffffffffffffffff1690602001909291905050506131e2565b6040518080602001828103825283818151815260200191508051906020019060200280838360005b8381101561101f578082015181840152602081019050611004565b505050509050019250505060405180910390f35b34801561103f57600080fd5b506110826004803603602081101561105657600080fd5b81019080803573ffffffffffffffffffffffffffffffffffffffff1690602001909291905050506132b8565b6040518080602001828103825283818151815260200191508051906020019080838360005b838110156110c25780820151818401526020810190506110a7565b50505050905090810190601f1680156110ef5780820380516001836020036101000a031916815260200191505b509250505060405180910390f35b61113f6004803603602081101561111357600080fd5b81019080803573ffffffffffffffffffffffffffffffffffffffff16906020019092919050505061339c565b005b6111836004803603602081101561115757600080fd5b81019080803573ffffffffffffffffffffffffffffffffffffffff169060200190929190505050613506565b005b34801561119157600080fd5b506111d4600480360360208110156111a857600080fd5b81019080803573ffffffffffffffffffffffffffffffffffffffff1690602001909291905050506135d8565b005b3480156111e257600080fd5b50611225600480360360208110156111f957600080fd5b81019080803573ffffffffffffffffffffffffffffffffffffffff169060200190929190505050613673565b6040518080602001828103825283818151815260200191508051906020019060200280838360005b8381101561126857808201518184015260208101905061124d565b505050509050019250505060405180910390f35b6113756004803603606081101561129257600080fd5b81019080803573ffffffffffffffffffffffffffffffffffffffff169060200190929190803573ffffffffffffffffffffffffffffffffffffffff169060200190929190803590602001906401000000008111156112ef57600080fd5b82018360208201111561130157600080fd5b8035906020019184600183028401116401000000008311171561132357600080fd5b91908080601f016020809104026020016040519081016040528093929190818152602001838380828437600081840152601f19601f820116905080830192505050505050509192919290505050613749565b005b34801561138357600080fd5b506113c66004803603602081101561139a57600080fd5b81019080803573ffffffffffffffffffffffffffffffffffffffff1690602001909291905050506138d0565b6040518080602001828103825283818151815260200191508051906020019060200280838360005b838110156114095780820151818401526020810190506113ee565b505050509050019250505060405180910390f35b61145f6004803603602081101561143357600080fd5b81019080803573ffffffffffffffffffffffffffffffffffffffff1690602001909291905050506139a6565b005b34801561146d57600080fd5b506114b06004803603602081101561148457600080fd5b81019080803573ffffffffffffffffffffffffffffffffffffffff169060200190929190505050613ad4565b6040518080602001828103825283818151815260200191508051906020019060200280838360005b838110156114f35780820151818401526020810190506114d8565b505050509050019250505060405180910390f35b34801561151357600080fd5b506115406004803603602081101561152a57600080fd5b8101908080359060200190929190505050613baa565b604051808273ffffffffffffffffffffffffffffffffffffffff1673ffffffffffffffffffffffffffffffffffffffff16815260200191505060405180910390f35b6115c46004803603602081101561159857600080fd5b81019080803573ffffffffffffffffffffffffffffffffffffffff169060200190929190505050613be8565b005b611608600480360360208110156115dc57600080fd5b81019080803573ffffffffffffffffffffffffffffffffffffffff169060200190929190505050613d63565b005b61164c6004803603602081101561162057600080fd5b81019080803573ffffffffffffffffffffffffffffffffffffffff169060200190929190505050613ede565b005b34801561165a57600080fd5b506116876004803603602081101561167157600080fd5b8101908080359060200190929190505050613f53565b604051808273ffffffffffffffffffffffffffffffffffffffff1673ffffffffffffffffffffffffffffffffffffffff16815260200191505060405180910390f35b3480156116d557600080fd5b50611738600480360360408110156116ec57600080fd5b81019080803573ffffffffffffffffffffffffffffffffffffffff169060200190929190803573ffffffffffffffffffffffffffffffffffffffff169060200190929190505050613f91565b604051808060200180602001838103835285818151815260200191508051906020019080838360005b8381101561177c578082015181840152602081019050611761565b50505050905090810190601f1680156117a95780820380516001836020036101000a031916815260200191505b50838103825284818151815260200191508051906020019080838360005b838110156117e25780820151818401526020810190506117c7565b50505050905090810190601f16801561180f5780820380516001836020036101000a031916815260200191505b5094505050505060405180910390f35b6118616004803603602081101561183557600080fd5b81019080803573ffffffffffffffffffffffffffffffffffffffff16906020019092919050505061415b565b005b34801561186f57600080fd5b506118b26004803603602081101561188657600080fd5b81019080803573ffffffffffffffffffffffffffffffffffffffff169060200190929190505050614332565b6040518080602001828103825283818151815260200191508051906020019060200280838360005b838110156118f55780820151818401526020810190506118da565b505050509050019250505060405180910390f35b34801561191557600080fd5b506119586004803603602081101561192c57600080fd5b81019080803573ffffffffffffffffffffffffffffffffffffffff169060200190929190505050614408565b6040518080602001848152602001838152602001828103825285818151815260200191508051906020019080838360005b838110156119a4578082015181840152602081019050611989565b50505050905090810190601f1680156119d15780820380516001836020036101000a031916815260200191505b5094505050505060405180910390f35b3480156119ed57600080fd5b506119f661457e565b6040518080602001828103825283818151815260200191508051906020019060200280838360005b83811015611a39578082015181840152602081019050611a1e565b505050509050019250505060405180910390f35b348015611a5957600080fd5b50611bbe60048036036080811015611a7057600080fd5b8101908080359060200190640100000000811115611a8d57600080fd5b820183602082011115611a9f57600080fd5b80359060200191846001830284011164010000000083111715611ac157600080fd5b91908080601f016020809104026020016040519081016040528093929190818152602001838380828437600081840152601f19601f820116905080830192505050505050509192919290803590602001909291908035906020019092919080359060200190640100000000811115611b3857600080fd5b820183602082011115611b4a57600080fd5b80359060200191846001830284011164010000000083111715611b6c57600080fd5b91908080601f016020809104026020016040519081016040528093929190818152602001838380828437600081840152601f19601f82011690508083019250505050505050919291929050505061460c565b6040518080602001828103825283818151815260200191508051906020019080838360005b83811015611bfe578082015181840152602081019050611be3565b50505050905090810190601f168015611c2b5780820380516001836020036101000a031916815260200191505b509250505060405180910390f35b348015611c4557600080fd5b50611c8860048036036020811015611c5c57600080fd5b81019080803573ffffffffffffffffffffffffffffffffffffffff169060200190929190505050614c3b565b6040518080602001828103825283818151815260200191508051906020019060200280838360005b83811015611ccb578082015181840152602081019050611cb0565b505050509050019250505060405180910390f35b60606000600660008473ffffffffffffffffffffffffffffffffffffffff1673ffffffffffffffffffffffffffffffffffffffff168152602001908152602001600020600701905080805480602002602001604051908101604052809291908181526020018280548015611da857602002820191906000526020600020905b8160009054906101000a900473ffffffffffffffffffffffffffffffffffffffff1673ffffffffffffffffffffffffffffffffffffffff1681526020019060010190808311611d5e575b5050505050915050919050565b611e00600560008373ffffffffffffffffffffffffffffffffffffffff1673ffffffffffffffffffffffffffffffffffffffff16815260200190815260200160002060030183614d11565b50611e4c600460008473ffffffffffffffffffffffffffffffffffffffff1673ffffffffffffffffffffffffffffffffffffffff16815260200190815260200160002060020182614d11565b505050565b600080905060008090505b600560003373ffffffffffffffffffffffffffffffffffffffff1673ffffffffffffffffffffffffffffffffffffffff16815260200190815260200160002060030180549050811015611fc7578373ffffffffffffffffffffffffffffffffffffffff16600560003373ffffffffffffffffffffffffffffffffffffffff1673ffffffffffffffffffffffffffffffffffffffff16815260200190815260200160002060030182815481101515611f0f57fe5b9060005260206000200160009054906101000a900473ffffffffffffffffffffffffffffffffffffffff1673ffffffffffffffffffffffffffffffffffffffff161415611fba573373ffffffffffffffffffffffffffffffffffffffff166108fc671bc16d674ec800009081150290604051600060405180830381858888f19350505050158015611fa4573d6000803e3d6000fd5b5060026000808282540392505081905550600191505b8080600101915050611e5c565b50600115158115151415611fee57611fdf8383614f00565b611fe98333611db5565b611ff3565b600080fd5b505050565b6060600560008373ffffffffffffffffffffffffffffffffffffffff1673ffffffffffffffffffffffffffffffffffffffff1681526020019081526020016000206003018054806020026020016040519081016040528092919081815260200182805480156120bc57602002820191906000526020600020905b8160009054906101000a900473ffffffffffffffffffffffffffffffffffffffff1673ffffffffffffffffffffffffffffffffffffffff1681526020019060010190808311612072575b50505050509050919050565b60606000600560008473ffffffffffffffffffffffffffffffffffffffff1673ffffffffffffffffffffffffffffffffffffffff16815260200190815260200160002060080190508080548060200260200160405190810160405280929190818152602001828054801561219157602002820191906000526020600020905b8160009054906101000a900473ffffffffffffffffffffffffffffffffffffffff1673ffffffffffffffffffffffffffffffffffffffff1681526020019060010190808311612147575b5050505050915050919050565b6121a83382611db5565b3373ffffffffffffffffffffffffffffffffffffffff166108fc671bc16d674ec800009081150290604051600060405180830381858888f193505050501580156121f6573d6000803e3d6000fd5b506002600080828254039250508190555050565b671bc16d674ec800003414151561222057600080fd5b6001600080828254039250508190555061227b600460003373ffffffffffffffffffffffffffffffffffffffff1673ffffffffffffffffffffffffffffffffffffffff16815260200190815260200160002060080182614d11565b5050565b671bc16d674ec800003414151561229557600080fd5b600260008082825401925050819055506001600460008473ffffffffffffffffffffffffffffffffffffffff1673ffffffffffffffffffffffffffffffffffffffff1681526020019081526020016000206006013390806001815401808255809150509060018203906000526020600020016000909192909190916101000a81548173ffffffffffffffffffffffffffffffffffffffff021916908373ffffffffffffffffffffffffffffffffffffffff16021790555050506123588282614f00565b600260008082825403925050819055506123b3600560003373ffffffffffffffffffffffffffffffffffffffff1673ffffffffffffffffffffffffffffffffffffffff16815260200190815260200160002060040183614d11565b505050565b6060600380548060200260200160405190810160405280929190818152602001828054801561243c57602002820191906000526020600020905b8160009054906101000a900473ffffffffffffffffffffffffffffffffffffffff1673ffffffffffffffffffffffffffffffffffffffff16815260200190600101908083116123f2575b5050505050905090565b60606000600460008473ffffffffffffffffffffffffffffffffffffffff1673ffffffffffffffffffffffffffffffffffffffff16815260200190815260200160002060090190508080548060200260200160405190810160405280929190818152602001828054801561250f57602002820191906000526020600020905b8160009054906101000a900473ffffffffffffffffffffffffffffffffffffffff1673ffffffffffffffffffffffffffffffffffffffff16815260200190600101908083116124c5575b5050505050915050919050565b671bc16d674ec800003414151561253257600080fd5b600260008082825401925050819055506001600660008373ffffffffffffffffffffffffffffffffffffffff1673ffffffffffffffffffffffffffffffffffffffff1681526020019081526020016000206007013390806001815401808255809150509060018203906000526020600020016000909192909190916101000a81548173ffffffffffffffffffffffffffffffffffffffff021916908373ffffffffffffffffffffffffffffffffffffffff16021790555050506001600560003373ffffffffffffffffffffffffffffffffffffffff1673ffffffffffffffffffffffffffffffffffffffff1681526020019081526020016000206008018290806001815401808255809150509060018203906000526020600020016000909192909190916101000a81548173ffffffffffffffffffffffffffffffffffffffff021916908373ffffffffffffffffffffffffffffffffffffffff160217905550505050565b6002818154811015156126a657fe5b906000526020600020016000915054906101000a900473ffffffffffffffffffffffffffffffffffffffff1681565b612720600660003373ffffffffffffffffffffffffffffffffffffffff1673ffffffffffffffffffffffffffffffffffffffff16815260200190815260200160002060070182614d11565b5061276c600560008373ffffffffffffffffffffffffffffffffffffffff1673ffffffffffffffffffffffffffffffffffffffff16815260200190815260200160002060080133614d11565b5050565b60606000600560008473ffffffffffffffffffffffffffffffffffffffff1673ffffffffffffffffffffffffffffffffffffffff16815260200190815260200160002060050190508080548060200260200160405190810160405280929190818152602001828054801561283957602002820191906000526020600020905b8160009054906101000a900473ffffffffffffffffffffffffffffffffffffffff1673ffffffffffffffffffffffffffffffffffffffff16815260200190600101908083116127ef575b5050505050915050919050565b606060006060600060606000600460008873ffffffffffffffffffffffffffffffffffffffff1673ffffffffffffffffffffffffffffffffffffffff168152602001908152602001600020600001600460008973ffffffffffffffffffffffffffffffffffffffff1673ffffffffffffffffffffffffffffffffffffffff16815260200190815260200160002060010154600460008a73ffffffffffffffffffffffffffffffffffffffff1673ffffffffffffffffffffffffffffffffffffffff168152602001908152602001600020600301600760008b73ffffffffffffffffffffffffffffffffffffffff1673ffffffffffffffffffffffffffffffffffffffff16815260200190815260200160002060009054906101000a900473ffffffffffffffffffffffffffffffffffffffff16600460008c73ffffffffffffffffffffffffffffffffffffffff1673ffffffffffffffffffffffffffffffffffffffff168152602001908152602001600020600401600760008d73ffffffffffffffffffffffffffffffffffffffff1673ffffffffffffffffffffffffffffffffffffffff16815260200190815260200160002060009054906101000a900473ffffffffffffffffffffffffffffffffffffffff16858054600181600116156101000203166002900480601f016020809104026020016040519081016040528092919081815260200182805460018160011615610100020316600290048015612ab05780601f10612a8557610100808354040283529160200191612ab0565b820191906000526020600020905b815481529060010190602001808311612a9357829003601f168201915b50505050509550838054600181600116156101000203166002900480601f016020809104026020016040519081016040528092919081815260200182805460018160011615610100020316600290048015612b4c5780601f10612b2157610100808354040283529160200191612b4c565b820191906000526020600020905b815481529060010190602001808311612b2f57829003601f168201915b50505050509350818054600181600116156101000203166002900480601f016020809104026020016040519081016040528092919081815260200182805460018160011615610100020316600290048015612be85780601f10612bbd57610100808354040283529160200191612be8565b820191906000526020600020905b815481529060010190602001808311612bcb57829003601f168201915b5050505050915095509550955095509550955091939550919395565b60606000600460008473ffffffffffffffffffffffffffffffffffffffff1673ffffffffffffffffffffffffffffffffffffffff168152602001908152602001600020600701905080805480602002602001604051908101604052809291908181526020018280548015612ccd57602002820191906000526020600020905b8160009054906101000a900473ffffffffffffffffffffffffffffffffffffffff1673ffffffffffffffffffffffffffffffffffffffff1681526020019060010190808311612c83575b5050505050915050919050565b670de0b6b3a764000034141515612cf057600080fd5b600260008082825401925050819055506001600460008373ffffffffffffffffffffffffffffffffffffffff1673ffffffffffffffffffffffffffffffffffffffff1681526020019081526020016000206005013390806001815401808255809150509060018203906000526020600020016000909192909190916101000a81548173ffffffffffffffffffffffffffffffffffffffff021916908373ffffffffffffffffffffffffffffffffffffffff160217905550505050565b6060600460008373ffffffffffffffffffffffffffffffffffffffff1673ffffffffffffffffffffffffffffffffffffffff168152602001908152602001600020600601805480602002602001604051908101604052809291908181526020018280548015612e7057602002820191906000526020600020905b8160009054906101000a900473ffffffffffffffffffffffffffffffffffffffff1673ffffffffffffffffffffffffffffffffffffffff1681526020019060010190808311612e26575b50505050509050919050565b60606002805480602002602001604051908101604052809291908181526020018280548015612f0057602002820191906000526020600020905b8160009054906101000a900473ffffffffffffffffffffffffffffffffffffffff1673ffffffffffffffffffffffffffffffffffffffff1681526020019060010190808311612eb6575b5050505050905090565b60606000806060600660008673ffffffffffffffffffffffffffffffffffffffff1673ffffffffffffffffffffffffffffffffffffffff168152602001908152602001600020600001600660008773ffffffffffffffffffffffffffffffffffffffff1673ffffffffffffffffffffffffffffffffffffffff16815260200190815260200160002060010154600660008873ffffffffffffffffffffffffffffffffffffffff1673ffffffffffffffffffffffffffffffffffffffff16815260200190815260200160002060020154600660008973ffffffffffffffffffffffffffffffffffffffff1673ffffffffffffffffffffffffffffffffffffffff168152602001908152602001600020600a01838054600181600116156101000203166002900480601f0160208091040260200160405190810160405280929190818152602001828054600181600116156101000203166002900480156130b05780601f10613085576101008083540402835291602001916130b0565b820191906000526020600020905b81548152906001019060200180831161309357829003601f168201915b50505050509350808054600181600116156101000203166002900480601f01602080910402602001604051908101604052809291908181526020018280546001816001161561010002031660029004801561314c5780601f106131215761010080835404028352916020019161314c565b820191906000526020600020905b81548152906001019060200180831161312f57829003601f168201915b5050505050905093509350935093509193509193565b671bc16d674ec800003414151561317857600080fd5b6002600080828254019250508190555080600660003373ffffffffffffffffffffffffffffffffffffffff1673ffffffffffffffffffffffffffffffffffffffff168152602001908152602001600020600a0190805190602001906131de929190614f5b565b5050565b60606000600660008473ffffffffffffffffffffffffffffffffffffffff1673ffffffffffffffffffffffffffffffffffffffff1681526020019081526020016000206009019050808054806020026020016040519081016040528092919081815260200182805480156132ab57602002820191906000526020600020905b8160009054906101000a900473ffffffffffffffffffffffffffffffffffffffff1673ffffffffffffffffffffffffffffffffffffffff1681526020019060010190808311613261575b5050505050915050919050565b6060600460008373ffffffffffffffffffffffffffffffffffffffff1673ffffffffffffffffffffffffffffffffffffffff1681526020019081526020016000206004018054600181600116156101000203166002900480601f0160208091040260200160405190810160405280929190818152602001828054600181600116156101000203166002900480156133905780601f1061336557610100808354040283529160200191613390565b820191906000526020600020905b81548152906001019060200180831161337357829003601f168201915b50505050509050919050565b671bc16d674ec80000341415156133b257600080fd5b6001600080828254039250508190555061340d600460008373ffffffffffffffffffffffffffffffffffffffff1673ffffffffffffffffffffffffffffffffffffffff16815260200190815260200160002060070133614d11565b50613459600660003373ffffffffffffffffffffffffffffffffffffffff1673ffffffffffffffffffffffffffffffffffffffff16815260200190815260200160002060090182614d11565b506001600460008373ffffffffffffffffffffffffffffffffffffffff1673ffffffffffffffffffffffffffffffffffffffff1681526020019081526020016000206008013390806001815401808255809150509060018203906000526020600020016000909192909190916101000a81548173ffffffffffffffffffffffffffffffffffffffff021916908373ffffffffffffffffffffffffffffffffffffffff160217905550505050565b671bc16d674ec800003414151561351c57600080fd5b600260008082825401925050819055506001600560008373ffffffffffffffffffffffffffffffffffffffff1673ffffffffffffffffffffffffffffffffffffffff1681526020019081526020016000206005013390806001815401808255809150509060018203906000526020600020016000909192909190916101000a81548173ffffffffffffffffffffffffffffffffffffffff021916908373ffffffffffffffffffffffffffffffffffffffff160217905550505050565b613623600660008373ffffffffffffffffffffffffffffffffffffffff1673ffffffffffffffffffffffffffffffffffffffff16815260200190815260200160002060070133614d11565b5061366f600560003373ffffffffffffffffffffffffffffffffffffffff1673ffffffffffffffffffffffffffffffffffffffff16815260200190815260200160002060080182614d11565b5050565b60606000600460008473ffffffffffffffffffffffffffffffffffffffff1673ffffffffffffffffffffffffffffffffffffffff16815260200190815260200160002060020190508080548060200260200160405190810160405280929190818152602001828054801561373c57602002820191906000526020600020905b8160009054906101000a900473ffffffffffffffffffffffffffffffffffffffff1673ffffffffffffffffffffffffffffffffffffffff16815260200190600101908083116136f2575b5050505050915050919050565b671bc16d674ec800003414151561375f57600080fd5b600260008082825401925050819055506001600560008573ffffffffffffffffffffffffffffffffffffffff1673ffffffffffffffffffffffffffffffffffffffff1681526020019081526020016000206003013390806001815401808255809150509060018203906000526020600020016000909192909190916101000a81548173ffffffffffffffffffffffffffffffffffffffff021916908373ffffffffffffffffffffffffffffffffffffffff16021790555050506001600460003373ffffffffffffffffffffffffffffffffffffffff1673ffffffffffffffffffffffffffffffffffffffff1681526020019081526020016000206002018490806001815401808255809150509060018203906000526020600020016000909192909190916101000a81548173ffffffffffffffffffffffffffffffffffffffff021916908373ffffffffffffffffffffffffffffffffffffffff16021790555050506138cb8282611e51565b505050565b60606000600560008473ffffffffffffffffffffffffffffffffffffffff1673ffffffffffffffffffffffffffffffffffffffff16815260200190815260200160002060040190508080548060200260200160405190810160405280929190818152602001828054801561399957602002820191906000526020600020905b8160009054906101000a900473ffffffffffffffffffffffffffffffffffffffff1673ffffffffffffffffffffffffffffffffffffffff168152602001906001019080831161394f575b5050505050915050919050565b671bc16d674ec80000341415156139bc57600080fd5b600260008082825401925050819055506001600560003373ffffffffffffffffffffffffffffffffffffffff1673ffffffffffffffffffffffffffffffffffffffff1681526020019081526020016000206004018290806001815401808255809150509060018203906000526020600020016000909192909190916101000a81548173ffffffffffffffffffffffffffffffffffffffff021916908373ffffffffffffffffffffffffffffffffffffffff160217905550505060026000808282540392505081905550613ad0600560003373ffffffffffffffffffffffffffffffffffffffff1673ffffffffffffffffffffffffffffffffffffffff16815260200190815260200160002060050182614d11565b5050565b60606000600460008473ffffffffffffffffffffffffffffffffffffffff1673ffffffffffffffffffffffffffffffffffffffff168152602001908152602001600020600801905080805480602002602001604051908101604052809291908181526020018280548015613b9d57602002820191906000526020600020905b8160009054906101000a900473ffffffffffffffffffffffffffffffffffffffff1673ffffffffffffffffffffffffffffffffffffffff1681526020019060010190808311613b53575b5050505050915050919050565b600181815481101515613bb957fe5b906000526020600020016000915054906101000a900473ffffffffffffffffffffffffffffffffffffffff1681565b671bc16d674ec8000034141515613bfe57600080fd5b600260008082825401925050819055506001600560008373ffffffffffffffffffffffffffffffffffffffff1673ffffffffffffffffffffffffffffffffffffffff1681526020019081526020016000206003013390806001815401808255809150509060018203906000526020600020016000909192909190916101000a81548173ffffffffffffffffffffffffffffffffffffffff021916908373ffffffffffffffffffffffffffffffffffffffff16021790555050506001600460003373ffffffffffffffffffffffffffffffffffffffff1673ffffffffffffffffffffffffffffffffffffffff1681526020019081526020016000206002018290806001815401808255809150509060018203906000526020600020016000909192909190916101000a81548173ffffffffffffffffffffffffffffffffffffffff021916908373ffffffffffffffffffffffffffffffffffffffff160217905550505050565b671bc16d674ec8000034141515613d7957600080fd5b600260008082825401925050819055506001600660008373ffffffffffffffffffffffffffffffffffffffff1673ffffffffffffffffffffffffffffffffffffffff1681526020019081526020016000206009013390806001815401808255809150509060018203906000526020600020016000909192909190916101000a81548173ffffffffffffffffffffffffffffffffffffffff021916908373ffffffffffffffffffffffffffffffffffffffff16021790555050506001600460003373ffffffffffffffffffffffffffffffffffffffff1673ffffffffffffffffffffffffffffffffffffffff1681526020019081526020016000206007018290806001815401808255809150509060018203906000526020600020016000909192909190916101000a81548173ffffffffffffffffffffffffffffffffffffffff021916908373ffffffffffffffffffffffffffffffffffffffff160217905550505050565b671bc16d674ec8000034141515613ef457600080fd5b60026000808282540392505081905550613f4f600460003373ffffffffffffffffffffffffffffffffffffffff1673ffffffffffffffffffffffffffffffffffffffff16815260200190815260200160002060050182614d11565b5050565b600381815481101515613f6257fe5b906000526020600020016000915054906101000a900473ffffffffffffffffffffffffffffffffffffffff1681565b606080600460008573ffffffffffffffffffffffffffffffffffffffff1673ffffffffffffffffffffffffffffffffffffffff168152602001908152602001600020600001600560008573ffffffffffffffffffffffffffffffffffffffff1673ffffffffffffffffffffffffffffffffffffffff168152602001908152602001600020600001818054600181600116156101000203166002900480601f0160208091040260200160405190810160405280929190818152602001828054600181600116156101000203166002900480156140ad5780601f10614082576101008083540402835291602001916140ad565b820191906000526020600020905b81548152906001019060200180831161409057829003601f168201915b50505050509150808054600181600116156101000203166002900480601f0160208091040260200160405190810160405280929190818152602001828054600181600116156101000203166002900480156141495780601f1061411e57610100808354040283529160200191614149565b820191906000526020600020905b81548152906001019060200180831161412c57829003601f168201915b50505050509050915091509250929050565b671bc16d674ec800003414151561417157600080fd5b600260008082825401925050819055506001600560008373ffffffffffffffffffffffffffffffffffffffff1673ffffffffffffffffffffffffffffffffffffffff1681526020019081526020016000206003013390806001815401808255809150509060018203906000526020600020016000909192909190916101000a81548173ffffffffffffffffffffffffffffffffffffffff021916908373ffffffffffffffffffffffffffffffffffffffff16021790555050506001600460003373ffffffffffffffffffffffffffffffffffffffff1673ffffffffffffffffffffffffffffffffffffffff1681526020019081526020016000206002018290806001815401808255809150509060018203906000526020600020016000909192909190916101000a81548173ffffffffffffffffffffffffffffffffffffffff021916908373ffffffffffffffffffffffffffffffffffffffff16021790555050506002600080828254039250508190555061432e600460003373ffffffffffffffffffffffffffffffffffffffff1673ffffffffffffffffffffffffffffffffffffffff16815260200190815260200160002060050182614d11565b5050565b60606000600460008473ffffffffffffffffffffffffffffffffffffffff1673ffffffffffffffffffffffffffffffffffffffff1681526020019081526020016000206005019050808054806020026020016040519081016040528092919081815260200182805480156143fb57602002820191906000526020600020905b8160009054906101000a900473ffffffffffffffffffffffffffffffffffffffff1673ffffffffffffffffffffffffffffffffffffffff16815260200190600101908083116143b1575b5050505050915050919050565b6060600080600560008573ffffffffffffffffffffffffffffffffffffffff1673ffffffffffffffffffffffffffffffffffffffff168152602001908152602001600020600001600560008673ffffffffffffffffffffffffffffffffffffffff1673ffffffffffffffffffffffffffffffffffffffff16815260200190815260200160002060010154600560008773ffffffffffffffffffffffffffffffffffffffff1673ffffffffffffffffffffffffffffffffffffffff16815260200190815260200160002060020154828054600181600116156101000203166002900480601f01602080910402602001604051908101604052809291908181526020018280546001816001161561010002031660029004801561456a5780601f1061453f5761010080835404028352916020019161456a565b820191906000526020600020905b81548152906001019060200180831161454d57829003601f168201915b505050505092509250925092509193909250565b6060600180548060200260200160405190810160405280929190818152602001828054801561460257602002820191906000526020600020905b8160009054906101000a900473ffffffffffffffffffffffffffffffffffffffff1673ffffffffffffffffffffffffffffffffffffffff16815260200190600101908083116145b8575b5050505050905090565b60606000339050600084141561482457614624614fdb565b8681600001819052508581602001818152505083816080018190525080600460003373ffffffffffffffffffffffffffffffffffffffff1673ffffffffffffffffffffffffffffffffffffffff168152602001908152602001600020600082015181600001908051906020019061469c929190615036565b506020820151816001015560408201518160020190805190602001906146c39291906150b6565b5060608201518160030190805190602001906146e0929190615036565b5060808201518160040190805190602001906146fd929190615036565b5060a082015181600501908051906020019061471a9291906150b6565b5060c08201518160060190805190602001906147379291906150b6565b5060e08201518160070190805190602001906147549291906150b6565b506101008201518160080190805190602001906147729291906150b6565b506101208201518160090190805190602001906147909291906150b6565b5061014082015181600a0190805190602001906147ae9291906150b6565b509050506001808390806001815401808255809150509060018203906000526020600020016000909192909190916101000a81548173ffffffffffffffffffffffffffffffffffffffff021916908373ffffffffffffffffffffffffffffffffffffffff16021790555050508692505050614c33565b6001841415614a2457614835615140565b868160000181905250858160200181815250508481604001818152505080600560003373ffffffffffffffffffffffffffffffffffffffff1673ffffffffffffffffffffffffffffffffffffffff16815260200190815260200160002060008201518160000190805190602001906148ae929190615036565b50602082015181600101556040820151816002015560608201518160030190805190602001906148df9291906150b6565b5060808201518160040190805190602001906148fc9291906150b6565b5060a08201518160050190805190602001906149199291906150b6565b5060c08201518160060190805190602001906149369291906150b6565b5060e08201518160070190805190602001906149539291906150b6565b506101008201518160080190805190602001906149719291906150b6565b5061012082015181600901908051906020019061498f9291906150b6565b5061014082015181600a0190805190602001906149ad929190615036565b50905050600160028390806001815401808255809150509060018203906000526020600020016000909192909190916101000a81548173ffffffffffffffffffffffffffffffffffffffff021916908373ffffffffffffffffffffffffffffffffffffffff16021790555050508692505050614c33565b6002841415614c2e57614a35615140565b86816000018190525085816020018181525050848160400181815250508381610140018190525080600660003373ffffffffffffffffffffffffffffffffffffffff1673ffffffffffffffffffffffffffffffffffffffff1681526020019081526020016000206000820151816000019080519060200190614ab8929190615036565b5060208201518160010155604082015181600201556060820151816003019080519060200190614ae99291906150b6565b506080820151816004019080519060200190614b069291906150b6565b5060a0820151816005019080519060200190614b239291906150b6565b5060c0820151816006019080519060200190614b409291906150b6565b5060e0820151816007019080519060200190614b5d9291906150b6565b50610100820151816008019080519060200190614b7b9291906150b6565b50610120820151816009019080519060200190614b999291906150b6565b5061014082015181600a019080519060200190614bb7929190615036565b50905050600160038390806001815401808255809150509060018203906000526020600020016000909192909190916101000a81548173ffffffffffffffffffffffffffffffffffffffff021916908373ffffffffffffffffffffffffffffffffffffffff16021790555050508692505050614c33565b600080fd5b949350505050565b60606000600460008473ffffffffffffffffffffffffffffffffffffffff1673ffffffffffffffffffffffffffffffffffffffff168152602001908152602001600020600a01905080805480602002602001604051908101604052809291908181526020018280548015614d0457602002820191906000526020600020905b8160009054906101000a900473ffffffffffffffffffffffffffffffffffffffff1673ffffffffffffffffffffffffffffffffffffffff1681526020019060010190808311614cba575b5050505050915050919050565b60008060009050600080905060008090505b8580549050811015614db0578473ffffffffffffffffffffffffffffffffffffffff168682815481101515614d5457fe5b9060005260206000200160009054906101000a900473ffffffffffffffffffffffffffffffffffffffff1673ffffffffffffffffffffffffffffffffffffffff161415614da357600192508091505b8080600101915050614d23565b50811515614dbd57600080fd5b600185805490501415614e0a578481815481101515614dd857fe5b9060005260206000200160006101000a81549073ffffffffffffffffffffffffffffffffffffffff0219169055614ee3565b846001868054905003815481101515614e1f57fe5b9060005260206000200160009054906101000a900473ffffffffffffffffffffffffffffffffffffffff168582815481101515614e5857fe5b9060005260206000200160006101000a81548173ffffffffffffffffffffffffffffffffffffffff021916908373ffffffffffffffffffffffffffffffffffffffff160217905550846001868054905003815481101515614eb557fe5b9060005260206000200160006101000a81549073ffffffffffffffffffffffffffffffffffffffff02191690555b84805480919060019003614ef7919061519b565b50505092915050565b80600460008473ffffffffffffffffffffffffffffffffffffffff1673ffffffffffffffffffffffffffffffffffffffff1681526020019081526020016000206004019080519060200190614f56929190614f5b565b505050565b828054600181600116156101000203166002900490600052602060002090601f016020900481019282601f10614f9c57805160ff1916838001178555614fca565b82800160010185558215614fca579182015b82811115614fc9578251825591602001919060010190614fae565b5b509050614fd791906151c7565b5090565b6101606040519081016040528060608152602001600081526020016060815260200160608152602001606081526020016060815260200160608152602001606081526020016060815260200160608152602001606081525090565b828054600181600116156101000203166002900490600052602060002090601f016020900481019282601f1061507757805160ff19168380011785556150a5565b828001600101855582156150a5579182015b828111156150a4578251825591602001919060010190615089565b5b5090506150b291906151c7565b5090565b82805482825590600052602060002090810192821561512f579160200282015b8281111561512e5782518260006101000a81548173ffffffffffffffffffffffffffffffffffffffff021916908373ffffffffffffffffffffffffffffffffffffffff160217905550916020019190600101906150d6565b5b50905061513c91906151ec565b5090565b6101606040519081016040528060608152602001600081526020016000815260200160608152602001606081526020016060815260200160608152602001606081526020016060815260200160608152602001606081525090565b8154818355818111156151c2578183600052602060002091820191016151c191906151c7565b5b505050565b6151e991905b808211156151e55760008160009055506001016151cd565b5090565b90565b61522c91905b8082111561522857600081816101000a81549073ffffffffffffffffffffffffffffffffffffffff0219169055506001016151f2565b5090565b9056fea165627a7a7230582066aa1d9bdb2ee36e20c7a6180b42c842242902240905e253463f11443a9453670029",
  "source": "pragma solidity ^0.5.1;\r\n\r\ncontract Medishield {\r\n    \r\n    struct patient {\r\n        string name;\r\n        uint number;\r\n        address[] healthcareAccessList;\r\n        string diagnosis; // uint[]\r\n        string record;\r\n        address[] healthcareRequestList;\r\n        // string[] listMedicine;\r\n        address[] doctorSigns;\r\n        // request order medicine\r\n        address[] waitHandleRequestOrderMedicine; // 1\r\n        address[] wasDeletedRequestOrderMedicine;  // -1\r\n        address[] successRequestOrderMedicine; // 3\r\n        address[] waitPaymentRequestOrderMedicine; // 2\r\n    }\r\n    \r\n    struct healthcare {\r\n        string name;\r\n        uint number;\r\n        uint designation;\r\n        address[] patientAccessList; // view\r\n        address[] queuDoctorSign; // sign\r\n        address[] queuePatient; // patients\r\n        address[] queuePatientGetMedicine; // hospital\r\n        address[] doctorAccessList; // hospital\r\n        address[] accessJob; // doctor\r\n        address[] patientOrderMedicineList; //  hospital\r\n        string medicines; // hospital\r\n    }\r\n\r\n    uint creditPool;\r\n    address[] public patientList;\r\n    address[] public healthcareList;\r\n    // new \r\n    address[] public hospitalList;\r\n    //\r\n\r\n    mapping (address => patient) patientInfo;\r\n    mapping (address => healthcare) healthcareInfo;\r\n    //new\r\n    mapping (address => healthcare) hospitalInfo;\r\n    //\r\n    mapping (address => address) Empty;\r\n    mapping (address => string) patientRecords;\r\n    \r\n\r\n    function add_agent(string memory _name, uint _number, uint _designation, string memory _hash) public returns(string memory){\r\n        address addr = msg.sender;\r\n        if(_designation == 0){\r\n            patient memory p;\r\n            p.name = _name;\r\n            p.number = _number;\r\n            p.record = _hash;\r\n            patientInfo[msg.sender] = p;\r\n            patientList.push(addr)-1;\r\n            return _name;\r\n        }\r\n       else if (_designation == 1){\r\n            healthcare memory d;\r\n            d.name = _name;\r\n            d.number = _number;\r\n            d.designation = _designation;\r\n            //d.medincines = _hash;\r\n            healthcareInfo[msg.sender] = d;\r\n            healthcareList.push(addr)-1;\r\n            return _name;\r\n       }\r\n       else if (_designation == 2){\r\n            healthcare memory d;\r\n            d.name = _name;\r\n            d.number = _number;\r\n            d.designation = _designation;\r\n            d.medicines = _hash;\r\n            hospitalInfo[msg.sender] = d;\r\n            hospitalList.push(addr)-1;\r\n            return _name;\r\n       }\r\n       else{\r\n           revert();\r\n       }\r\n    }\r\n\r\n    function get_patient(address addr) view public returns (string memory , uint, string memory , address, string memory, address){\r\n        // if(keccak256(patientInfo[addr].name) == keccak256(\"\"))revert();\r\n        return (patientInfo[addr].name, patientInfo[addr].number, patientInfo[addr].diagnosis, Empty[addr], patientInfo[addr].record, Empty[addr]);\r\n    }\r\n\r\n    function get_healthcare(address addr) view public returns (string memory , uint, uint256){\r\n        return (healthcareInfo[addr].name, healthcareInfo[addr].number, healthcareInfo[addr].designation);\r\n    }\r\n    function get_hospital(address addr) view public returns (string memory , uint, uint256, string memory){\r\n        return (hospitalInfo[addr].name, hospitalInfo[addr].number, hospitalInfo[addr].designation, hospitalInfo[addr].medicines);\r\n    }\r\n    function get_patient_healthcare_name(address paddr, address daddr) view public returns (string memory , string memory ){\r\n        return (patientInfo[paddr].name,healthcareInfo[daddr].name);\r\n    }\r\n\r\n    function permit_access(address addr) payable public {\r\n        require(msg.value == 2 ether);\r\n        creditPool += 2;\r\n        healthcareInfo[addr].patientAccessList.push(msg.sender)-1;\r\n        patientInfo[msg.sender].healthcareAccessList.push(addr)-1;\r\n    }\r\n    function doctor_permit_access(address addr) payable public {\r\n        require(msg.value == 1 ether);\r\n        creditPool += 2;\r\n        patientInfo[addr].healthcareRequestList.push(msg.sender)-1;\r\n    }\r\n    // new\r\n    function create_an_appointment(address addr) payable public {\r\n        require(msg.value == 2 ether);\r\n        creditPool += 2;\r\n        healthcareInfo[addr].queuePatient.push(msg.sender)-1;\r\n    }\r\n    function access_request_patient(address addr) payable public {\r\n        require(msg.value == 2 ether);\r\n        creditPool += 2;\r\n        healthcareInfo[msg.sender].queuDoctorSign.push(addr)-1;\r\n        creditPool -= 2;\r\n        remove_element_in_array(healthcareInfo[msg.sender].queuePatient, addr);\r\n    }\r\n    function doctor_apply(address addr) payable public {\r\n        require(msg.value == 2 ether);\r\n        creditPool += 2;\r\n        hospitalInfo[addr].doctorAccessList.push(msg.sender)-1;\r\n        healthcareInfo[msg.sender].accessJob.push(addr)-1;\r\n    }\r\n    function sign_records(address addr, string memory _hash) payable public {\r\n        require(msg.value == 2 ether);\r\n        creditPool += 2;\r\n        patientInfo[addr].doctorSigns.push(msg.sender)-1;\r\n        set_hash(addr, _hash);\r\n        creditPool -= 2;\r\n        remove_element_in_array(healthcareInfo[msg.sender].queuDoctorSign, addr);\r\n    }\r\n    function request_ordor_medicine(address addr) payable public {\r\n        require(msg.value == 2 ether);\r\n        creditPool += 2;\r\n        hospitalInfo[addr].patientOrderMedicineList.push(msg.sender)-1;\r\n        patientInfo[msg.sender].waitHandleRequestOrderMedicine.push(addr)-1;\r\n    }\r\n    function add_store_medicine(string memory _hash) payable public {\r\n        require(msg.value == 2 ether);\r\n        creditPool += 2;\r\n        hospitalInfo[msg.sender].medicines = _hash;\r\n    }\r\n    function remove_order_request(address addr) payable public{\r\n        require(msg.value == 2 ether);\r\n        creditPool -=1;\r\n        remove_element_in_array(patientInfo[addr].waitHandleRequestOrderMedicine, msg.sender);\r\n        remove_element_in_array( hospitalInfo[msg.sender].patientOrderMedicineList, addr);\r\n        patientInfo[addr].wasDeletedRequestOrderMedicine.push(msg.sender)-1;\r\n    }\r\n    function remove_status_order_request(address addr) payable public{\r\n        require(msg.value == 2 ether);\r\n        creditPool -=1;\r\n        remove_element_in_array(patientInfo[msg.sender].wasDeletedRequestOrderMedicine, addr);\r\n    }\r\n    //\r\n    function permit_access_and_remove_doctor_permit_access(address addr) payable public {\r\n        require(msg.value == 2 ether);\r\n        creditPool += 2;\r\n        healthcareInfo[addr].patientAccessList.push(msg.sender)-1;\r\n        patientInfo[msg.sender].healthcareAccessList.push(addr)-1;\r\n        creditPool -= 2;\r\n        remove_element_in_array(patientInfo[msg.sender].healthcareRequestList, addr);\r\n    }\r\n    function cancel_access(address addr) payable public {\r\n        require(msg.value == 2 ether);\r\n        creditPool -= 2;\r\n        remove_element_in_array(patientInfo[msg.sender].healthcareRequestList, addr);\r\n    }\r\n    function permit_access_and_submitfile(address addr, address paddr, string memory  _hash) payable public {\r\n        require(msg.value == 2 ether);\r\n        creditPool += 2;\r\n        healthcareInfo[addr].patientAccessList.push(msg.sender)-1;\r\n        patientInfo[msg.sender].healthcareAccessList.push(addr)-1;\r\n        submitfile(paddr,_hash);\r\n    }\r\n    // show request \r\n    //must be called by healthcare.\r\n    function submitfile(address paddr, string memory  _hash) public {\r\n        bool patientFound = false;\r\n        for(uint i = 0;i<healthcareInfo[msg.sender].patientAccessList.length;i++){\r\n            if(healthcareInfo[msg.sender].patientAccessList[i]==paddr){\r\n                msg.sender.transfer(2 ether);\r\n                creditPool -= 2;\r\n                patientFound = true;\r\n                \r\n            }\r\n            \r\n        }\r\n        if(patientFound==true){\r\n            set_hash(paddr, _hash);\r\n            remove_patient(paddr, msg.sender);\r\n        }else {\r\n            revert();\r\n        }\r\n\r\n        // bool DiagnosisFound = false;\r\n        // for(uint j = 0; j < patientInfo[paddr].diagnosis.length;j++){\r\n        //     if(patientInfo[paddr].diagnosis[j] == _diagnosis)DiagnosisFound = true;\r\n        // }\r\n    }\r\n\r\n    //new\r\n    // function submitfileHospital(address paddr, uint _diagnosis, string memory  _hash) public {\r\n    //     bool patientFound = false;\r\n    //     for(uint i = 0;i<healthcareInfo[msg.sender].patientAccessList.length;i++){\r\n    //         if(healthcareInfo[msg.sender].patientAccessList[i]==paddr){\r\n    //             msg.sender.transfer(2 ether);\r\n    //             creditPool -= 2;\r\n    //             patientFound = true;\r\n                \r\n    //         }\r\n            \r\n    //     }\r\n    //     if(patientFound==true){\r\n    //         set_medincine(paddr, _hash);\r\n    //         remove_patient(paddr, msg.sender); // fix\r\n    //     }else {\r\n    //         revert();\r\n    //     }\r\n\r\n    //     bool DiagnosisFound = false;\r\n    //     for(uint j = 0; j < patientInfo[paddr].diagnosis.length;j++){\r\n    //         if(patientInfo[paddr].diagnosis[j] == _diagnosis)DiagnosisFound = true;\r\n    //     }\r\n    // }\r\n    //\r\n\r\n    function remove_element_in_array(address[] storage Array, address addr) internal returns(uint)\r\n    {\r\n        bool check = false;\r\n        uint del_index = 0;\r\n        for(uint i = 0; i<Array.length; i++){\r\n            if(Array[i] == addr){\r\n                check = true;\r\n                del_index = i;\r\n            }\r\n        }\r\n        if(!check) revert();\r\n        else{\r\n            if(Array.length == 1){\r\n                delete Array[del_index];\r\n            }\r\n            else {\r\n                Array[del_index] = Array[Array.length - 1];\r\n                delete Array[Array.length - 1];\r\n\r\n            }\r\n            Array.length--;\r\n        }\r\n    }\r\n\r\n    function remove_patient(address paddr, address daddr) public {\r\n        remove_element_in_array(healthcareInfo[daddr].patientAccessList, paddr);\r\n        remove_element_in_array(patientInfo[paddr].healthcareAccessList, daddr);\r\n    }\r\n    \r\n    function get_accessed_healthcarelist_for_patient(address addr) public view returns (address[] memory )\r\n    { \r\n        address[] storage healthcareaddr = patientInfo[addr].healthcareAccessList;\r\n        return healthcareaddr;\r\n    }\r\n    function get_request_healthcarelist_for_patient(address addr) public view returns (address[] memory )\r\n    {\r\n        address[] storage healthcareaddr = patientInfo[addr].healthcareRequestList;\r\n        return healthcareaddr;\r\n    }\r\n    function get_accessed_patientlist_for_healthcare(address addr) public view returns (address[] memory )\r\n    {\r\n        return healthcareInfo[addr].patientAccessList;\r\n    }\r\n    // new\r\n    function get_appointment_first(address addr) public view returns (address[] memory ){\r\n        address[] storage healthcareaddr = healthcareInfo[addr].queuePatient;\r\n        return healthcareaddr;\r\n    }\r\n    function get_queue_doctor_sign_first(address addr) public view returns (address[] memory ){\r\n        address[] storage healthcareaddr = healthcareInfo[addr].queuDoctorSign;\r\n        return healthcareaddr;\r\n    }\r\n    function get_employeees_hospital(address addr) public view returns (address[] memory) {\r\n        address[] storage doctoraddr = hospitalInfo[addr].doctorAccessList;\r\n        return doctoraddr;\r\n    }\r\n    function get_job_doctor(address addr) public view returns (address[] memory) {\r\n        address[] storage doctoraddr = healthcareInfo[addr].accessJob;\r\n        return doctoraddr;\r\n    }\r\n    function resign_job_from_doctor(address addr) public {\r\n        remove_element_in_array(hospitalInfo[addr].doctorAccessList, msg.sender);\r\n        remove_element_in_array(healthcareInfo[msg.sender].accessJob, addr);\r\n    }\r\n    function quit_job_from_hospital(address addr) public {\r\n        remove_element_in_array(hospitalInfo[msg.sender].doctorAccessList, addr);\r\n        remove_element_in_array(healthcareInfo[addr].accessJob, msg.sender);\r\n    }\r\n    function get_doctor_in_medicine(address addr) public view  returns (address[] memory) {\r\n        return patientInfo[addr].doctorSigns;\r\n    }\r\n    function get_patient_order_medicine(address addr) public view returns(address[] memory) {\r\n        address[] storage patientAddr =  hospitalInfo[addr].patientOrderMedicineList;\r\n        return patientAddr;\r\n    }\r\n    function get_wait_handle_request_order_medicine(address addr) public view returns(address[] memory) {\r\n        address[] storage hospitalAddr =  patientInfo[addr].waitHandleRequestOrderMedicine;\r\n        return hospitalAddr;\r\n    }\r\n    function get_wait_payment_request_order_medicine(address addr) public view returns(address[] memory) {\r\n        address[] storage hospitalAddr =  patientInfo[addr].waitPaymentRequestOrderMedicine;\r\n        return hospitalAddr;\r\n    }\r\n    function get_was_deleted_request_order_medicine(address addr) public view returns(address[] memory) {\r\n        address[] storage hospitalAddr =  patientInfo[addr].wasDeletedRequestOrderMedicine;\r\n        return hospitalAddr;\r\n    }\r\n    function get_success_request_order_medicine(address addr) public view returns(address[] memory) {\r\n        address[] storage hospitalAddr =  patientInfo[addr].successRequestOrderMedicine;\r\n        return hospitalAddr;\r\n    }\r\n    //\r\n    function revoke_access(address daddr) public payable{\r\n        remove_patient(msg.sender,daddr);\r\n        msg.sender.transfer(2 ether);\r\n        creditPool -= 2;\r\n    }\r\n    \r\n    function get_patient_list() public view returns(address[] memory ){\r\n        return patientList;\r\n    }\r\n\r\n    function get_healthcare_list() public view returns(address[] memory ){\r\n        return healthcareList;\r\n    }\r\n\r\n    function get_hash(address paddr) public view returns(string memory ){\r\n        return patientInfo[paddr].record;\r\n    }\r\n \r\n    function set_hash(address paddr, string memory _hash) internal {\r\n        patientInfo[paddr].record = _hash;\r\n    }\r\n\r\n    //new\r\n    function get_hospital_list() public view returns (address[] memory) {\r\n        return hospitalList;\r\n    }\r\n    // function get_medincines(address addr) public view returns(string memory) {\r\n    //     return hospitalInfo[addr].medincines;\r\n    // }\r\n    // function set_medincine(address paddr, string memory _hash) public {\r\n    //     hospitalInfo[paddr].medincines = _hash;\r\n    // }\r\n    //\r\n}\r\n\r\n",
  "sourcePath": "C:\\Users\\Acer\\Desktop\\MY WORKSPASE\\DACN\\Blockchain\\Demo_09_11\\Blockchain-For-EHR-Management\\contracts\\Medishield.sol",
  "compiler": {
    "name": "solc",
    "version": "0.5.1+commit.c8a2cb62.Emscripten.clang"
  },
  "schemaVersion": "3.4.16",
  "updatedAt": "2024-12-10T05:00:34.999Z",
  "devdoc": {
    "methods": {}
  },
  "userdoc": {
    "methods": {}
  }
}