{
  "contractName": "Medishield",
  "abi": [
    {
      "constant": true,
      "inputs": [
        {
          "name": "",
          "type": "uint256"
        }
      ],
      "name": "healthcareList",
      "outputs": [
        {
          "name": "",
          "type": "address"
        }
      ],
      "payable": false,
      "stateMutability": "view",
      "type": "function"
    },
    {
      "constant": true,
      "inputs": [
        {
          "name": "",
          "type": "uint256"
        }
      ],
      "name": "patientList",
      "outputs": [
        {
          "name": "",
          "type": "address"
        }
      ],
      "payable": false,
      "stateMutability": "view",
      "type": "function"
    },
    {
      "constant": true,
      "inputs": [
        {
          "name": "",
          "type": "uint256"
        }
      ],
      "name": "hospitalList",
      "outputs": [
        {
          "name": "",
          "type": "address"
        }
      ],
      "payable": false,
      "stateMutability": "view",
      "type": "function"
    },
    {
      "constant": false,
      "inputs": [
        {
          "name": "_name",
          "type": "string"
        },
        {
          "name": "_number",
          "type": "uint256"
        },
        {
          "name": "_designation",
          "type": "uint256"
        },
        {
          "name": "_hash",
          "type": "string"
        }
      ],
      "name": "add_agent",
      "outputs": [
        {
          "name": "",
          "type": "string"
        }
      ],
      "payable": false,
      "stateMutability": "nonpayable",
      "type": "function"
    },
    {
      "constant": true,
      "inputs": [
        {
          "name": "addr",
          "type": "address"
        }
      ],
      "name": "get_patient",
      "outputs": [
        {
          "name": "",
          "type": "string"
        },
        {
          "name": "",
          "type": "uint256"
        },
        {
          "name": "",
          "type": "string"
        },
        {
          "name": "",
          "type": "address"
        },
        {
          "name": "",
          "type": "string"
        },
        {
          "name": "",
          "type": "address"
        }
      ],
      "payable": false,
      "stateMutability": "view",
      "type": "function"
    },
    {
      "constant": true,
      "inputs": [
        {
          "name": "addr",
          "type": "address"
        }
      ],
      "name": "get_healthcare",
      "outputs": [
        {
          "name": "",
          "type": "string"
        },
        {
          "name": "",
          "type": "uint256"
        },
        {
          "name": "",
          "type": "uint256"
        }
      ],
      "payable": false,
      "stateMutability": "view",
      "type": "function"
    },
    {
      "constant": true,
      "inputs": [
        {
          "name": "addr",
          "type": "address"
        }
      ],
      "name": "get_hospital",
      "outputs": [
        {
          "name": "",
          "type": "string"
        },
        {
          "name": "",
          "type": "uint256"
        },
        {
          "name": "",
          "type": "uint256"
        },
        {
          "name": "",
          "type": "string"
        }
      ],
      "payable": false,
      "stateMutability": "view",
      "type": "function"
    },
    {
      "constant": true,
      "inputs": [
        {
          "name": "paddr",
          "type": "address"
        },
        {
          "name": "daddr",
          "type": "address"
        }
      ],
      "name": "get_patient_healthcare_name",
      "outputs": [
        {
          "name": "",
          "type": "string"
        },
        {
          "name": "",
          "type": "string"
        }
      ],
      "payable": false,
      "stateMutability": "view",
      "type": "function"
    },
    {
      "constant": false,
      "inputs": [
        {
          "name": "addr",
          "type": "address"
        }
      ],
      "name": "permit_access",
      "outputs": [],
      "payable": true,
      "stateMutability": "payable",
      "type": "function"
    },
    {
      "constant": false,
      "inputs": [
        {
          "name": "addr",
          "type": "address"
        }
      ],
      "name": "doctor_permit_access",
      "outputs": [],
      "payable": true,
      "stateMutability": "payable",
      "type": "function"
    },
    {
      "constant": false,
      "inputs": [
        {
          "name": "addr",
          "type": "address"
        }
      ],
      "name": "create_an_appointment",
      "outputs": [],
      "payable": true,
      "stateMutability": "payable",
      "type": "function"
    },
    {
      "constant": false,
      "inputs": [
        {
          "name": "addr",
          "type": "address"
        }
      ],
      "name": "access_request_patient",
      "outputs": [],
      "payable": true,
      "stateMutability": "payable",
      "type": "function"
    },
    {
      "constant": false,
      "inputs": [
        {
          "name": "addr",
          "type": "address"
        }
      ],
      "name": "doctor_apply",
      "outputs": [],
      "payable": true,
      "stateMutability": "payable",
      "type": "function"
    },
    {
      "constant": false,
      "inputs": [
        {
          "name": "addr",
          "type": "address"
        },
        {
          "name": "_hash",
          "type": "string"
        }
      ],
      "name": "sign_records",
      "outputs": [],
      "payable": true,
      "stateMutability": "payable",
      "type": "function"
    },
    {
      "constant": false,
      "inputs": [
        {
          "name": "addr",
          "type": "address"
        }
      ],
      "name": "request_ordor_medicine",
      "outputs": [],
      "payable": true,
      "stateMutability": "payable",
      "type": "function"
    },
    {
      "constant": false,
      "inputs": [
        {
          "name": "_hash",
          "type": "string"
        }
      ],
      "name": "add_store_medicine",
      "outputs": [],
      "payable": true,
      "stateMutability": "payable",
      "type": "function"
    },
    {
      "constant": false,
      "inputs": [
        {
          "name": "addr",
          "type": "address"
        }
      ],
      "name": "remove_order_request",
      "outputs": [],
      "payable": true,
      "stateMutability": "payable",
      "type": "function"
    },
    {
      "constant": false,
      "inputs": [
        {
          "name": "addr",
          "type": "address"
        }
      ],
      "name": "remove_status_order_request",
      "outputs": [],
      "payable": true,
      "stateMutability": "payable",
      "type": "function"
    },
    {
      "constant": false,
      "inputs": [
        {
          "name": "_name",
          "type": "string"
        }
      ],
      "name": "choice_specialty",
      "outputs": [],
      "payable": true,
      "stateMutability": "payable",
      "type": "function"
    },
    {
      "constant": false,
      "inputs": [
        {
          "name": "_hash",
          "type": "string"
        }
      ],
      "name": "set_working_days",
      "outputs": [],
      "payable": true,
      "stateMutability": "payable",
      "type": "function"
    },
    {
      "constant": false,
      "inputs": [
        {
          "name": "addr",
          "type": "address"
        }
      ],
      "name": "permit_access_and_remove_doctor_permit_access",
      "outputs": [],
      "payable": true,
      "stateMutability": "payable",
      "type": "function"
    },
    {
      "constant": false,
      "inputs": [
        {
          "name": "addr",
          "type": "address"
        }
      ],
      "name": "cancel_access",
      "outputs": [],
      "payable": true,
      "stateMutability": "payable",
      "type": "function"
    },
    {
      "constant": false,
      "inputs": [
        {
          "name": "addr",
          "type": "address"
        },
        {
          "name": "paddr",
          "type": "address"
        },
        {
          "name": "_hash",
          "type": "string"
        }
      ],
      "name": "permit_access_and_submitfile",
      "outputs": [],
      "payable": true,
      "stateMutability": "payable",
      "type": "function"
    },
    {
      "constant": false,
      "inputs": [
        {
          "name": "paddr",
          "type": "address"
        },
        {
          "name": "_hash",
          "type": "string"
        }
      ],
      "name": "submitfile",
      "outputs": [],
      "payable": false,
      "stateMutability": "nonpayable",
      "type": "function"
    },
    {
      "constant": false,
      "inputs": [
        {
          "name": "paddr",
          "type": "address"
        },
        {
          "name": "daddr",
          "type": "address"
        }
      ],
      "name": "remove_patient",
      "outputs": [],
      "payable": false,
      "stateMutability": "nonpayable",
      "type": "function"
    },
    {
      "constant": true,
      "inputs": [
        {
          "name": "addr",
          "type": "address"
        }
      ],
      "name": "get_accessed_healthcarelist_for_patient",
      "outputs": [
        {
          "name": "",
          "type": "address[]"
        }
      ],
      "payable": false,
      "stateMutability": "view",
      "type": "function"
    },
    {
      "constant": true,
      "inputs": [
        {
          "name": "addr",
          "type": "address"
        }
      ],
      "name": "get_request_healthcarelist_for_patient",
      "outputs": [
        {
          "name": "",
          "type": "address[]"
        }
      ],
      "payable": false,
      "stateMutability": "view",
      "type": "function"
    },
    {
      "constant": true,
      "inputs": [
        {
          "name": "addr",
          "type": "address"
        }
      ],
      "name": "get_accessed_patientlist_for_healthcare",
      "outputs": [
        {
          "name": "",
          "type": "address[]"
        }
      ],
      "payable": false,
      "stateMutability": "view",
      "type": "function"
    },
    {
      "constant": true,
      "inputs": [
        {
          "name": "addr",
          "type": "address"
        }
      ],
      "name": "get_appointment_first",
      "outputs": [
        {
          "name": "",
          "type": "address[]"
        }
      ],
      "payable": false,
      "stateMutability": "view",
      "type": "function"
    },
    {
      "constant": true,
      "inputs": [
        {
          "name": "addr",
          "type": "address"
        }
      ],
      "name": "get_queue_doctor_sign_first",
      "outputs": [
        {
          "name": "",
          "type": "address[]"
        }
      ],
      "payable": false,
      "stateMutability": "view",
      "type": "function"
    },
    {
      "constant": true,
      "inputs": [
        {
          "name": "addr",
          "type": "address"
        }
      ],
      "name": "get_employeees_hospital",
      "outputs": [
        {
          "name": "",
          "type": "address[]"
        }
      ],
      "payable": false,
      "stateMutability": "view",
      "type": "function"
    },
    {
      "constant": true,
      "inputs": [
        {
          "name": "addr",
          "type": "address"
        }
      ],
      "name": "get_job_doctor",
      "outputs": [
        {
          "name": "",
          "type": "address[]"
        }
      ],
      "payable": false,
      "stateMutability": "view",
      "type": "function"
    },
    {
      "constant": false,
      "inputs": [
        {
          "name": "addr",
          "type": "address"
        }
      ],
      "name": "resign_job_from_doctor",
      "outputs": [],
      "payable": false,
      "stateMutability": "nonpayable",
      "type": "function"
    },
    {
      "constant": false,
      "inputs": [
        {
          "name": "addr",
          "type": "address"
        }
      ],
      "name": "quit_job_from_hospital",
      "outputs": [],
      "payable": false,
      "stateMutability": "nonpayable",
      "type": "function"
    },
    {
      "constant": true,
      "inputs": [
        {
          "name": "addr",
          "type": "address"
        }
      ],
      "name": "get_doctor_in_medicine",
      "outputs": [
        {
          "name": "",
          "type": "address[]"
        }
      ],
      "payable": false,
      "stateMutability": "view",
      "type": "function"
    },
    {
      "constant": true,
      "inputs": [
        {
          "name": "addr",
          "type": "address"
        }
      ],
      "name": "get_patient_order_medicine",
      "outputs": [
        {
          "name": "",
          "type": "address[]"
        }
      ],
      "payable": false,
      "stateMutability": "view",
      "type": "function"
    },
    {
      "constant": true,
      "inputs": [
        {
          "name": "addr",
          "type": "address"
        }
      ],
      "name": "get_wait_handle_request_order_medicine",
      "outputs": [
        {
          "name": "",
          "type": "address[]"
        }
      ],
      "payable": false,
      "stateMutability": "view",
      "type": "function"
    },
    {
      "constant": true,
      "inputs": [
        {
          "name": "addr",
          "type": "address"
        }
      ],
      "name": "get_wait_payment_request_order_medicine",
      "outputs": [
        {
          "name": "",
          "type": "address[]"
        }
      ],
      "payable": false,
      "stateMutability": "view",
      "type": "function"
    },
    {
      "constant": true,
      "inputs": [
        {
          "name": "addr",
          "type": "address"
        }
      ],
      "name": "get_was_deleted_request_order_medicine",
      "outputs": [
        {
          "name": "",
          "type": "address[]"
        }
      ],
      "payable": false,
      "stateMutability": "view",
      "type": "function"
    },
    {
      "constant": true,
      "inputs": [
        {
          "name": "addr",
          "type": "address"
        }
      ],
      "name": "get_success_request_order_medicine",
      "outputs": [
        {
          "name": "",
          "type": "address[]"
        }
      ],
      "payable": false,
      "stateMutability": "view",
      "type": "function"
    },
    {
      "constant": true,
      "inputs": [
        {
          "name": "addr",
          "type": "address"
        }
      ],
      "name": "get_specialty_healthcare",
      "outputs": [
        {
          "name": "",
          "type": "string"
        }
      ],
      "payable": false,
      "stateMutability": "view",
      "type": "function"
    },
    {
      "constant": true,
      "inputs": [
        {
          "name": "addr",
          "type": "address"
        }
      ],
      "name": "get_working_days",
      "outputs": [
        {
          "name": "",
          "type": "string"
        }
      ],
      "payable": false,
      "stateMutability": "view",
      "type": "function"
    },
    {
      "constant": false,
      "inputs": [
        {
          "name": "daddr",
          "type": "address"
        }
      ],
      "name": "revoke_access",
      "outputs": [],
      "payable": true,
      "stateMutability": "payable",
      "type": "function"
    },
    {
      "constant": true,
      "inputs": [],
      "name": "get_patient_list",
      "outputs": [
        {
          "name": "",
          "type": "address[]"
        }
      ],
      "payable": false,
      "stateMutability": "view",
      "type": "function"
    },
    {
      "constant": true,
      "inputs": [],
      "name": "get_healthcare_list",
      "outputs": [
        {
          "name": "",
          "type": "address[]"
        }
      ],
      "payable": false,
      "stateMutability": "view",
      "type": "function"
    },
    {
      "constant": true,
      "inputs": [
        {
          "name": "paddr",
          "type": "address"
        }
      ],
      "name": "get_hash",
      "outputs": [
        {
          "name": "",
          "type": "string"
        }
      ],
      "payable": false,
      "stateMutability": "view",
      "type": "function"
    },
    {
      "constant": true,
      "inputs": [],
      "name": "get_hospital_list",
      "outputs": [
        {
          "name": "",
          "type": "address[]"
        }
      ],
      "payable": false,
      "stateMutability": "view",
      "type": "function"
    },
    {
      "constant": true,
      "inputs": [
        {
          "name": "_field",
          "type": "string"
        },
        {
          "name": "isSpecialty",
          "type": "bool"
        }
      ],
      "name": "getAddressesByField",
      "outputs": [
        {
          "name": "",
          "type": "address[]"
        }
      ],
      "payable": false,
      "stateMutability": "view",
      "type": "function"
    },
    {
      "constant": false,
      "inputs": [
        {
          "name": "addr",
          "type": "address"
        },
        {
          "name": "_hash",
          "type": "string"
        }
      ],
      "name": "send_request_payment",
      "outputs": [],
      "payable": true,
      "stateMutability": "payable",
      "type": "function"
    },
    {
      "constant": false,
      "inputs": [
        {
          "name": "addr",
          "type": "address"
        }
      ],
      "name": "payment_medicine_success",
      "outputs": [],
      "payable": true,
      "stateMutability": "payable",
      "type": "function"
    },
    {
      "constant": false,
      "inputs": [
        {
          "name": "addr",
          "type": "address"
        }
      ],
      "name": "cancel_payment_medicine",
      "outputs": [],
      "payable": true,
      "stateMutability": "payable",
      "type": "function"
    },
    {
      "constant": true,
      "inputs": [
        {
          "name": "addr",
          "type": "address"
        }
      ],
      "name": "get_cancel_payment_request_order_medicine",
      "outputs": [
        {
          "name": "",
          "type": "address[]"
        }
      ],
      "payable": false,
      "stateMutability": "view",
      "type": "function"
    }
  ],
  "bytecode": "0x608060405234801561001057600080fd5b50613b36806100206000396000f3fe60806040526004361061026a577c010000000000000000000000000000000000000000000000000000000060003504622fd866811461026f5780630362fe9b146102f25780630abcb6a01461032f578063239a75ff146103f257806326e161bc1461042557806327b1dcee1461045857806327d9be431461047e5780632a84e0d5146104a45780632a866eee1461054a5780632a8d8b9c146106005780632b6850061461061557806333cdfdba146106485780633740b3c01461066e5780633ba6c550146106b45780633e429f8f146106e75780634042d2d41461071a5780634149060a146108b25780634b0ca585146108e557806350cbd8ae1461090b57806352fc89c21461093e57806358db888e146109535780635a086a4514610a725780635a2f284414610a985780635b1e45dc14610b3e5780635b2af59e14610b645780636e82bafc14610c0c5780637e1519ce14610c3f57806385cbce9714610c7257806388a53fcd14610c98578063890fa83b14610cbe5780639ce05dc914610cf15780639f55c37b14610d24578063a87648a014610d57578063b3d94bd014610e16578063b462b31f14610e49578063b5d1b3e114610e6f578063babb1d4114610ea2578063bcffb7ca14610ecc578063bdf633df14610ef2578063c196a15f14610f18578063c6f6767d14610f3e578063c82412b914610ff4578063cb37190e1461101e578063cf9c186f14611137578063d51d4b4a1461115d578063d535cc3a14611212578063d6763c7f14611245578063e7322c7014611278578063e81ac054146112f3578063ef2aac7f14611308578063f02d90a4146113ae578063fa45f6fc146114f4575b600080fd5b34801561027b57600080fd5b506102a26004803603602081101561029257600080fd5b5035600160a060020a0316611527565b60408051602080825283518183015283519192839290830191858101910280838360005b838110156102de5781810151838201526020016102c6565b505050509050019250505060405180910390f35b3480156102fe57600080fd5b5061032d6004803603604081101561031557600080fd5b50600160a060020a03813581169160200135166115a5565b005b34801561033b57600080fd5b5061032d6004803603604081101561035257600080fd5b600160a060020a03823516919081019060408101602082013564010000000081111561037d57600080fd5b82018360208201111561038f57600080fd5b803590602001918460018302840111640100000000831117156103b157600080fd5b91908080601f0160208091040260200160405190810160405280939291908181526020018383808284376000920191909152509295506115f5945050505050565b3480156103fe57600080fd5b506102a26004803603602081101561041557600080fd5b5035600160a060020a03166116c5565b34801561043157600080fd5b506102a26004803603602081101561044857600080fd5b5035600160a060020a031661173e565b61032d6004803603602081101561046e57600080fd5b5035600160a060020a03166117ba565b61032d6004803603602081101561049457600080fd5b5035600160a060020a0316611802565b61032d600480360360208110156104ba57600080fd5b8101906020810181356401000000008111156104d557600080fd5b8201836020820111156104e757600080fd5b8035906020019184600183028401116401000000008311171561050957600080fd5b91908080601f01602080910402602001604051908101604052809392919081815260200183838082843760009201919091525092955061183d945050505050565b61032d6004803603604081101561056057600080fd5b600160a060020a03823516919081019060408101602082013564010000000081111561058b57600080fd5b82018360208201111561059d57600080fd5b803590602001918460018302840111640100000000831117156105bf57600080fd5b91908080601f01602080910402602001604051908101604052809392919081815260200183838082843760009201919091525092955061187d945050505050565b34801561060c57600080fd5b506102a26118ff565b34801561062157600080fd5b506102a26004803603602081101561063857600080fd5b5035600160a060020a0316611962565b61032d6004803603602081101561065e57600080fd5b5035600160a060020a03166119de565b34801561067a57600080fd5b506106986004803603602081101561069157600080fd5b5035611a62565b60408051600160a060020a039092168252519081900360200190f35b3480156106c057600080fd5b5061032d600480360360208110156106d757600080fd5b5035600160a060020a0316611a8a565b3480156106f357600080fd5b506102a26004803603602081101561070a57600080fd5b5035600160a060020a0316611acc565b34801561072657600080fd5b5061074d6004803603602081101561073d57600080fd5b5035600160a060020a0316611b48565b604080516020808201889052600160a060020a038087166060840152841660a083015260c080835289519083015288519192839290830191608084019160e08501918c019080838360005b838110156107b0578181015183820152602001610798565b50505050905090810190601f1680156107dd5780820380516001836020036101000a031916815260200191505b5084810383528851815288516020918201918a019080838360005b838110156108105781810151838201526020016107f8565b50505050905090810190601f16801561083d5780820380516001836020036101000a031916815260200191505b50848103825286518152865160209182019188019080838360005b83811015610870578181015183820152602001610858565b50505050905090810190601f16801561089d5780820380516001836020036101000a031916815260200191505b50995050505050505050505060405180910390f35b3480156108be57600080fd5b506102a2600480360360208110156108d557600080fd5b5035600160a060020a0316611d49565b61032d600480360360208110156108fb57600080fd5b5035600160a060020a0316611dc5565b34801561091757600080fd5b506102a26004803603602081101561092e57600080fd5b5035600160a060020a0316611e1d565b34801561094a57600080fd5b506102a2611e94565b34801561095f57600080fd5b506109866004803603602081101561097657600080fd5b5035600160a060020a0316611ef4565b604051808060200185815260200184815260200180602001838103835287818151815260200191508051906020019080838360005b838110156109d35781810151838201526020016109bb565b50505050905090810190601f168015610a005780820380516001836020036101000a031916815260200191505b50838103825284518152845160209182019186019080838360005b83811015610a33578181015183820152602001610a1b565b50505050905090810190601f168015610a605780820380516001836020036101000a031916815260200191505b50965050505050505060405180910390f35b61032d60048036036020811015610a8857600080fd5b5035600160a060020a031661204a565b61032d60048036036020811015610aae57600080fd5b810190602081018135640100000000811115610ac957600080fd5b820183602082011115610adb57600080fd5b80359060200191846001830284011164010000000083111715610afd57600080fd5b91908080601f0160208091040260200160405190810160405280939291908181526020018383808284376000920191909152509295506120bb945050505050565b61032d60048036036020811015610b5457600080fd5b5035600160a060020a03166120fb565b348015610b7057600080fd5b50610b9760048036036020811015610b8757600080fd5b5035600160a060020a031661216c565b6040805160208082528351818301528351919283929083019185019080838360005b83811015610bd1578181015183820152602001610bb9565b50505050905090810190601f168015610bfe5780820380516001836020036101000a031916815260200191505b509250505060405180910390f35b348015610c1857600080fd5b506102a260048036036020811015610c2f57600080fd5b5035600160a060020a0316612210565b348015610c4b57600080fd5b50610b9760048036036020811015610c6257600080fd5b5035600160a060020a031661228c565b61032d60048036036020811015610c8857600080fd5b5035600160a060020a0316612303565b61032d60048036036020811015610cae57600080fd5b5035600160a060020a031661239d565b348015610cca57600080fd5b5061032d60048036036020811015610ce157600080fd5b5035600160a060020a03166123f5565b348015610cfd57600080fd5b50610b9760048036036020811015610d1457600080fd5b5035600160a060020a0316612437565b348015610d3057600080fd5b506102a260048036036020811015610d4757600080fd5b5035600160a060020a03166124ae565b61032d60048036036060811015610d6d57600080fd5b600160a060020a038235811692602081013590911691810190606081016040820135640100000000811115610da157600080fd5b820183602082011115610db357600080fd5b80359060200191846001830284011164010000000083111715610dd557600080fd5b91908080601f01602080910402602001604051908101604052809392919081815260200183838082843760009201919091525092955061252a945050505050565b348015610e2257600080fd5b506102a260048036036020811015610e3957600080fd5b5035600160a060020a03166125b6565b61032d60048036036020811015610e5f57600080fd5b5035600160a060020a0316612632565b348015610e7b57600080fd5b506102a260048036036020811015610e9257600080fd5b5035600160a060020a03166126a3565b348015610eae57600080fd5b5061069860048036036020811015610ec557600080fd5b503561271f565b61032d60048036036020811015610ee257600080fd5b5035600160a060020a031661272d565b61032d60048036036020811015610f0857600080fd5b5035600160a060020a03166127b5565b61032d60048036036020811015610f2e57600080fd5b5035600160a060020a0316612839565b61032d60048036036040811015610f5457600080fd5b600160a060020a038235169190810190604081016020820135640100000000811115610f7f57600080fd5b820183602082011115610f9157600080fd5b80359060200191846001830284011164010000000083111715610fb357600080fd5b91908080601f016020809104026020016040519081016040528093929190818152602001838380828437600092019190915250929550612870945050505050565b34801561100057600080fd5b506106986004803603602081101561101757600080fd5b503561290e565b34801561102a57600080fd5b506110596004803603604081101561104157600080fd5b50600160a060020a038135811691602001351661291c565b604051808060200180602001838103835285818151815260200191508051906020019080838360005b8381101561109a578181015183820152602001611082565b50505050905090810190601f1680156110c75780820380516001836020036101000a031916815260200191505b50838103825284518152845160209182019186019080838360005b838110156110fa5781810151838201526020016110e2565b50505050905090810190601f1680156111275780820380516001836020036101000a031916815260200191505b5094505050505060405180910390f35b61032d6004803603602081101561114d57600080fd5b5035600160a060020a0316612a6d565b34801561116957600080fd5b506102a26004803603604081101561118057600080fd5b81019060208101813564010000000081111561119b57600080fd5b8201836020820111156111ad57600080fd5b803590602001918460018302840111640100000000831117156111cf57600080fd5b91908080601f0160208091040260200160405190810160405280939291908181526020018383808284376000920191909152509295505050503515159050612b06565b34801561121e57600080fd5b506102a26004803603602081101561123557600080fd5b5035600160a060020a0316612e40565b34801561125157600080fd5b506102a26004803603602081101561126857600080fd5b5035600160a060020a0316612ebc565b34801561128457600080fd5b506112ab6004803603602081101561129b57600080fd5b5035600160a060020a0316612f38565b604051808060200184815260200183815260200182810382528581815181526020019150805190602001908083836000838110156110fa5781810151838201526020016110e2565b3480156112ff57600080fd5b506102a2612ff8565b61032d6004803603602081101561131e57600080fd5b81019060208101813564010000000081111561133957600080fd5b82018360208201111561134b57600080fd5b8035906020019184600183028401116401000000008311171561136d57600080fd5b91908080601f016020809104026020016040519081016040528093929190818152602001838380828437600092019190915250929550613058945050505050565b3480156113ba57600080fd5b50610b97600480360360808110156113d157600080fd5b8101906020810181356401000000008111156113ec57600080fd5b8201836020820111156113fe57600080fd5b8035906020019184600183028401116401000000008311171561142057600080fd5b91908080601f016020809104026020016040519081016040528093929190818152602001838380828437600092019190915250929584359560208601359591945092506060810191506040013564010000000081111561147f57600080fd5b82018360208201111561149157600080fd5b803590602001918460018302840111640100000000831117156114b357600080fd5b91908080601f01602080910402602001604051908101604052809392919081815260200183838082843760009201919091525092955061307e945050505050565b34801561150057600080fd5b506102a26004803603602081101561151757600080fd5b5035600160a060020a031661360f565b600160a060020a0381166000908152600660209081526040918290206007018054835181840281018401909452808452606093919283919083018282801561159857602002820191906000526020600020905b8154600160a060020a0316815260019091019060200180831161157a575b5050505050915050919050565b600160a060020a03811660009081526005602052604090206115ca906003018361368b565b50600160a060020a03821660009081526004602052604090206115f0906002018261368b565b505050565b6000805b336000908152600560205260409020600301548110156116a0573360009081526005602052604090206003018054600160a060020a03861691908390811061163d57fe5b600091825260209091200154600160a060020a03161415611698576040513390600090671bc16d674ec800009082818181858883f19350505050158015611688573d6000803e3d6000fd5b5060008054600119019055600191505b6001016115f9565b506001811515141561026a576116b683836137c6565b6116c083336115a5565b6115f0565b600160a060020a03811660009081526005602090815260409182902060030180548351818402810184019094528084526060939283018282801561173257602002820191906000526020600020905b8154600160a060020a03168152600190910190602001808311611714575b50505050509050919050565b600160a060020a0381166000908152600560209081526040918290206008018054835181840281018401909452808452606093919283919083018282801561159857602002820191906000526020600020908154600160a060020a0316815260019091019060200180831161157a575050505050915050919050565b6117c433826115a5565b6040513390600090671bc16d674ec800009082818181858883f193505050501580156117f4573d6000803e3d6000fd5b505060008054600119019055565b671bc16d674ec80000341461181657600080fd5b60008054600019018155338152600460205260409020611839906008018261368b565b5050565b671bc16d674ec80000341461185157600080fd5b600080546001018155338152600560209081526040909120825161183992600b909201918401906138fb565b671bc16d674ec80000341461189157600080fd5b600080546002018155600160a060020a0383168152600460209081526040822060060180546001810182559083529120018054600160a060020a031916331790556118dc82826137c6565b600080546001190181553381526005602052604090206115f0906004018361368b565b6060600380548060200260200160405190810160405280929190818152602001828054801561195757602002820191906000526020600020905b8154600160a060020a03168152600190910190602001808311611939575b505050505090505b90565b600160a060020a0381166000908152600460209081526040918290206009018054835181840281018401909452808452606093919283919083018282801561159857602002820191906000526020600020908154600160a060020a0316815260019091019060200180831161157a575050505050915050919050565b671bc16d674ec8000034146119f257600080fd5b600080546002018155600160a060020a03909116808252600660209081526040808420600701805460018181018355918652838620018054600160a060020a0319908116339081179092559086526005845291852060080180549182018155855291909320018054909216179055565b6002805482908110611a7057fe5b600091825260209091200154600160a060020a0316905081565b336000908152600660205260409020611aa6906007018261368b565b50600160a060020a0381166000908152600560205260409020611839906008013361368b565b600160a060020a0381166000908152600560208181526040928390209091018054835181840281018401909452808452606093919283919083018282801561159857602002820191906000526020600020908154600160a060020a0316815260019091019060200180831161157a575050505050915050919050565b600160a060020a038181166000908152600460208181526040808420600180820154600785528387205483548551600261010095831615959095026000190190911693909304601f810187900487028401870190955284835260609889978997899789979660038801959094169392870192849290918891830182828015611c115780601f10611be657610100808354040283529160200191611c11565b820191906000526020600020905b815481529060010190602001808311611bf457829003601f168201915b5050875460408051602060026001851615610100026000190190941693909304601f8101849004840282018401909252818152959b5089945092508401905082828015611c9f5780601f10611c7457610100808354040283529160200191611c9f565b820191906000526020600020905b815481529060010190602001808311611c8257829003601f168201915b5050855460408051602060026001851615610100026000190190941693909304601f810184900484028201840190925281815295995087945092508401905082828015611d2d5780601f10611d0257610100808354040283529160200191611d2d565b820191906000526020600020905b815481529060010190602001808311611d1057829003601f168201915b5050505050915095509550955095509550955091939550919395565b600160a060020a0381166000908152600460209081526040918290206007018054835181840281018401909452808452606093919283919083018282801561159857602002820191906000526020600020908154600160a060020a0316815260019091019060200180831161157a575050505050915050919050565b670de0b6b3a76400003414611dd957600080fd5b600080546002018155600160a060020a039091168152600460209081526040822060050180546001810182559083529120018054600160a060020a03191633179055565b600160a060020a03811660009081526004602090815260409182902060060180548351818402810184019094528084526060939283018282801561173257602002820191906000526020600020908154600160a060020a031681526001909101906020018083116117145750505050509050919050565b6060600280548060200260200160405190810160405280929190818152602001828054801561195757602002820191906000526020600020908154600160a060020a03168152600190910190602001808311611939575050505050905090565b600160a060020a0381166000908152600660209081526040808320600180820154600280840154845486519481161561010002600019011691909104601f8101879004870284018701909552848352606096958695889594600a86019290918691830182828015611fa65780601f10611f7b57610100808354040283529160200191611fa6565b820191906000526020600020905b815481529060010190602001808311611f8957829003601f168201915b5050845460408051602060026001851615610100026000190190941693909304601f8101849004840282018401909252818152959950869450925084019050828280156120345780601f1061200957610100808354040283529160200191612034565b820191906000526020600020905b81548152906001019060200180831161201757829003601f168201915b5050505050905093509350935093509193509193565b671bc16d674ec80000341461205e57600080fd5b6000805460020181553380825260046020908152604083206009810180546001810182559085529184209091018054600160a060020a031916600160a060020a0386161790558254600019018355915261183990600a018261368b565b671bc16d674ec8000034146120cf57600080fd5b600080546002018155338152600660209081526040909120825161183992600a909201918401906138fb565b671bc16d674ec80000341461210f57600080fd5b600080546002018155338082526004602090815260408320600b810180546001810182559085529184209091018054600160a060020a031916600160a060020a0386161790558254600019018355915261183990600a018261368b565b600160a060020a038116600090815260056020908152604091829020600b0180548351601f60026000196101006001861615020190931692909204918201849004840281018401909452808452606093928301828280156117325780601f106121e357610100808354040283529160200191611732565b820191906000526020600020905b8154815290600101906020018083116121f15750939695505050505050565b600160a060020a0381166000908152600660209081526040918290206009018054835181840281018401909452808452606093919283919083018282801561159857602002820191906000526020600020908154600160a060020a0316815260019091019060200180831161157a575050505050915050919050565b600160a060020a03811660009081526004602081815260409283902090910180548351601f60026000196101006001861615020190931692909204918201849004840281018401909452808452606093928301828280156117325780601f106121e357610100808354040283529160200191611732565b671bc16d674ec80000341461231757600080fd5b60008054600019018155600160a060020a0382168152600460205260409020612343906007013361368b565b50336000908152600660205260409020612360906009018261368b565b50600160a060020a03166000908152600460209081526040822060080180546001810182559083529120018054600160a060020a03191633179055565b671bc16d674ec8000034146123b157600080fd5b600080546002018155600160a060020a039091168152600560208181526040832090910180546001810182559083529120018054600160a060020a03191633179055565b600160a060020a038116600090815260066020526040902061241a906007013361368b565b50336000908152600560205260409020611839906008018261368b565b600160a060020a038116600090815260056020908152604091829020600c0180548351601f60026000196101006001861615020190931692909204918201849004840281018401909452808452606093928301828280156117325780601f106121e357610100808354040283529160200191611732565b600160a060020a0381166000908152600460209081526040918290206002018054835181840281018401909452808452606093919283919083018282801561159857602002820191906000526020600020908154600160a060020a0316815260019091019060200180831161157a575050505050915050919050565b671bc16d674ec80000341461253e57600080fd5b6000805460029081018255600160a060020a03851680835260056020908152604080852060030180546001818101835591875283872001805433600160a060020a0319918216811790925590875260048452918620909401805494850181558552932090910180549092161790556115f082826115f5565b600160a060020a0381166000908152600560209081526040918290206004018054835181840281018401909452808452606093919283919083018282801561159857602002820191906000526020600020908154600160a060020a0316815260019091019060200180831161157a575050505050915050919050565b671bc16d674ec80000341461264657600080fd5b6000805460020181553380825260056020818152604084206004810180546001810182559086529185209091018054600160a060020a031916600160a060020a03871617905583546001190184559190925261183991018261368b565b600160a060020a0381166000908152600460209081526040918290206008018054835181840281018401909452808452606093919283919083018282801561159857602002820191906000526020600020908154600160a060020a0316815260019091019060200180831161157a575050505050915050919050565b6001805482908110611a7057fe5b671bc16d674ec80000341461274157600080fd5b6000805460029081018255600160a060020a03909216808252600560209081526040808420600301805460018181018355918652838620018054600160a060020a03199081163390811790925590865260048452918520909501805495860181558452922090920180549091169091179055565b671bc16d674ec8000034146127c957600080fd5b600080546002018155600160a060020a03909116808252600660209081526040808420600901805460018181018355918652838620018054600160a060020a0319908116339081179092559086526004845291852060070180549182018155855291909320018054909216179055565b671bc16d674ec80000341461284d57600080fd5b60008054600119018155338152600460205260409020611839906005018261368b565b671bc16d674ec80000341461288457600080fd5b60008054600201815533815260066020908152604090912082516128b092600a909201918401906138fb565b50600160a060020a03821660008181526004602090815260408220600a810180546001810182559084529183209091018054600160a060020a031916339081179091558254600019018355929091526115f09160079091019061368b565b6003805482908110611a7057fe5b600160a060020a038281166000908152600460209081526040808320938516835260058252918290208354835160026001831615610100026000190190921691909104601f8101849004840282018401909452838152606094859490938491908301828280156129cd5780601f106129a2576101008083540402835291602001916129cd565b820191906000526020600020905b8154815290600101906020018083116129b057829003601f168201915b5050845460408051602060026001851615610100026000190190941693909304601f810184900484028201840190925281815295975086945092508401905082828015612a5b5780601f10612a3057610100808354040283529160200191612a5b565b820191906000526020600020905b815481529060010190602001808311612a3e57829003601f168201915b50505050509050915091509250929050565b671bc16d674ec800003414612a8157600080fd5b6000805460029081018255600160a060020a03831680835260056020818152604080862060030180546001818101835591885283882001805433600160a060020a03199182168117909255818952600485529288209687018054928301815588529287200180549091169093179092558354600119018455925261183991018261368b565b606080600280549050604051908082528060200260200182016040528015612b38578160200160208202803883390190505b5090506000805b600254811015612db457606085612b8f5760056000600284815481101515612b6357fe5b6000918252602080832090910154600160a060020a031683528201929092526040019020600c01612bca565b60056000600284815481101515612ba257fe5b6000918252602080832090910154600160a060020a031683528201929092526040019020600b015b805460408051602060026001851615610100026000190190941693909304601f81018490048402820184019092528181529291830182828015612c4e5780601f10612c2357610100808354040283529160200191612c4e565b820191906000526020600020905b815481529060010190602001808311612c3157829003601f168201915b50505050509050858015612d3b5750866040516020018082805190602001908083835b60208310612c905780518252601f199092019160209182019101612c71565b6001836020036101000a03801982511681845116808217855250505050505090500191505060405160208183030381529060405280519060200120816040516020018082805190602001908083835b60208310612cfe5780518252601f199092019160209182019101612cdf565b6001836020036101000a03801982511681845116808217855250505050505090500191505060405160208183030381529060405280519060200120145b80612d54575085158015612d545750612d5481886137f5565b15612dab576002805483908110612d6757fe5b6000918252602090912001548451600160a060020a0390911690859085908110612d8d57fe5b600160a060020a039092166020928302909101909101526001909201915b50600101612b3f565b50606081604051908082528060200260200182016040528015612de1578160200160208202803883390190505b50905060005b82811015612e34578381815181101515612dfd57fe5b906020019060200201518282815181101515612e1557fe5b600160a060020a03909216602092830290910190910152600101612de7565b50925050505b92915050565b600160a060020a038116600090815260046020908152604091829020600b018054835181840281018401909452808452606093919283919083018282801561159857602002820191906000526020600020908154600160a060020a0316815260019091019060200180831161157a575050505050915050919050565b600160a060020a0381166000908152600460209081526040918290206005018054835181840281018401909452808452606093919283919083018282801561159857602002820191906000526020600020908154600160a060020a0316815260019091019060200180831161157a575050505050915050919050565b600160a060020a0381166000908152600560209081526040808320600180820154600280840154845486519481161561010002600019011691909104601f8101879004870284018701909552848352606096958695929391928591830182828015612fe45780601f10612fb957610100808354040283529160200191612fe4565b820191906000526020600020905b815481529060010190602001808311612fc757829003601f168201915b505050505092509250925092509193909250565b6060600180548060200260200160405190810160405280929190818152602001828054801561195757602002820191906000526020600020908154600160a060020a03168152600190910190602001808311611939575050505050905090565b336000908152600560209081526040909120825161183992600c909201918401906138fb565b60603383151561326157613090613979565b86815260208082018790526080820185905233600090815260048252604090208251805184936130c49284929101906138fb565b506020828101516001830155604083015180516130e792600285019201906139e2565b50606082015180516131039160038401916020909101906138fb565b506080820151805161311f9160048401916020909101906138fb565b5060a0820151805161313b9160058401916020909101906139e2565b5060c082015180516131579160068401916020909101906139e2565b5060e082015180516131739160078401916020909101906139e2565b5061010082015180516131909160088401916020909101906139e2565b5061012082015180516131ad9160098401916020909101906139e2565b5061014082015180516131ca91600a8401916020909101906139e2565b5061016082015180516131e791600b8401916020909101906139e2565b50610180820151805161320491600c8401916020909101906139e2565b50506001805480820182556000919091527fb10e2d527612073b26eecdfd717e6a320cf44b4afac2b0732d9fcbe2b7fa0cf6018054600160a060020a031916600160a060020a039490941693909317909255508591506136079050565b836001141561343057613272613a43565b8681526020808201879052604080830187905233600090815260058352208251805184936132a49284929101906138fb565b50602082810151600183015560408301516002830155606083015180516132d192600385019201906139e2565b50608082015180516132ed9160048401916020909101906139e2565b5060a082015180516133099160058401916020909101906139e2565b5060c082015180516133259160068401916020909101906139e2565b5060e082015180516133419160078401916020909101906139e2565b50610100820151805161335e9160088401916020909101906139e2565b50610120820151805161337b9160098401916020909101906139e2565b50610140820151805161339891600a8401916020909101906138fb565b5061016082015180516133b591600b8401916020909101906138fb565b5061018082015180516133d291600c8401916020909101906138fb565b5050600280546001810182556000919091527f405787fa12a823e0f2b7631cc41b3ba8828b3321ca811111fa75cd3aa3bb5ace018054600160a060020a031916600160a060020a039490941693909317909255508591506136079050565b836002141561026a57613441613a43565b868152602080820187905260408083018790526101408301869052336000908152600683522082518051849361347b9284929101906138fb565b50602082810151600183015560408301516002830155606083015180516134a892600385019201906139e2565b50608082015180516134c49160048401916020909101906139e2565b5060a082015180516134e09160058401916020909101906139e2565b5060c082015180516134fc9160068401916020909101906139e2565b5060e082015180516135189160078401916020909101906139e2565b5061010082015180516135359160088401916020909101906139e2565b5061012082015180516135529160098401916020909101906139e2565b50610140820151805161356f91600a8401916020909101906138fb565b50610160820151805161358c91600b8401916020909101906138fb565b5061018082015180516135a991600c8401916020909101906138fb565b5050600380546001810182556000919091527fc2575a0e9e593c00f959f8c92f12db2869c3395a3b0502d05e2516446f71f85b018054600160a060020a031916600160a060020a039490941693909317909255508591506136079050565b949350505050565b600160a060020a038116600090815260046020908152604091829020600a018054835181840281018401909452808452606093919283919083018282801561159857602002820191906000526020600020908154600160a060020a0316815260019091019060200180831161157a575050505050915050919050565b60008080805b85548110156136dd5784600160a060020a031686828154811015156136b257fe5b600091825260209091200154600160a060020a031614156136d557600192508091505b600101613691565b508115156136ea57600080fd5b84546001141561372057848181548110151561370257fe5b60009182526020909120018054600160a060020a03191690556137ad565b84548590600019810190811061373257fe5b6000918252602090912001548554600160a060020a039091169086908390811061375857fe5b60009182526020909120018054600160a060020a031916600160a060020a039290921691909117905584548590600019810190811061379357fe5b60009182526020909120018054600160a060020a03191690555b84546137bd866000198301613aac565b50505092915050565b600160a060020a038216600090815260046020818152604090922083516115f0939190920191908401906138fb565b805160009083908390158061380b575081518151115b1561381b57600092505050612e3a565b60005b815183510381116138ef57600160005b83518110156138d257838181518110151561384557fe5b90602001015160f860020a900460f860020a027effffffffffffffffffffffffffffffffffffffffffffffffffffffffffffff19168582850181518110151561388a57fe5b60209101015160f860020a90819004027fff0000000000000000000000000000000000000000000000000000000000000016146138ca57600091506138d2565b60010161382e565b5080156138e6576001945050505050612e3a565b5060010161381e565b50600095945050505050565b828054600181600116156101000203166002900490600052602060002090601f016020900481019282601f1061393c57805160ff1916838001178555613969565b82800160010185558215613969579182015b8281111561396957825182559160200191906001019061394e565b50613975929150613acc565b5090565b6101a060405190810160405280606081526020016000815260200160608152602001606081526020016060815260200160608152602001606081526020016060815260200160608152602001606081526020016060815260200160608152602001606081525090565b828054828255906000526020600020908101928215613a37579160200282015b82811115613a375782518254600160a060020a031916600160a060020a03909116178255602090920191600190910190613a02565b50613975929150613ae6565b6101a060405190810160405280606081526020016000815260200160008152602001606081526020016060815260200160608152602001606081526020016060815260200160608152602001606081526020016060815260200160608152602001606081525090565b8154818355818111156115f0576000838152602090206115f09181019083015b61195f91905b808211156139755760008155600101613ad2565b61195f91905b80821115613975578054600160a060020a0319168155600101613aec56fea165627a7a72305820536dc838f60862e1bf9d511d29a3482c236fbbedaaf8404bc2875608d5ea3a150029",
  "source": "pragma solidity ^0.5.1;\r\n\r\ncontract Medishield {\r\n    \r\n    struct patient {\r\n        string name;\r\n        uint number;\r\n        address[] healthcareAccessList;\r\n        string diagnosis; // uint[]\r\n        string record;\r\n        address[] healthcareRequestList;\r\n        // string[] listMedicine;\r\n        address[] doctorSigns;\r\n        // request order medicine\r\n        address[] waitHandleRequestOrderMedicine; // 1\r\n        address[] wasDeletedRequestOrderMedicine;  // -1\r\n        address[] successRequestOrderMedicine; // 3\r\n        address[] waitPaymentRequestOrderMedicine; // 2\r\n        address[] cancelPaymentRequestOrderMedicine;\r\n        address[] queuePatientGetMedicineSuccess;\r\n    }\r\n    \r\n    struct healthcare {\r\n        string name;\r\n        uint number;\r\n        uint designation;\r\n        address[] patientAccessList; // view\r\n        address[] queuDoctorSign; // sign\r\n        address[] queuePatient; // patients\r\n        address[] queuePatientGetMedicine; // hospital\r\n        address[] doctorAccessList; // hospital\r\n        address[] accessJob; // doctor\r\n        address[] patientOrderMedicineList; //  hospital\r\n        string medicines; // hospital\r\n        string specialty; // doctor\r\n        string workingDays;\r\n    }\r\n\r\n    uint creditPool;\r\n    address[] public patientList;\r\n    address[] public healthcareList;\r\n    // new \r\n    address[] public hospitalList;\r\n    //\r\n\r\n    mapping (address => patient) patientInfo;\r\n    mapping (address => healthcare) healthcareInfo;\r\n    //new\r\n    mapping (address => healthcare) hospitalInfo;\r\n    //\r\n    mapping (address => address) Empty;\r\n    mapping (address => string) patientRecords;\r\n    \r\n\r\n    function add_agent(string memory _name, uint _number, uint _designation, string memory _hash) public returns(string memory){\r\n        address addr = msg.sender;\r\n        if(_designation == 0){\r\n            patient memory p;\r\n            p.name = _name;\r\n            p.number = _number;\r\n            p.record = _hash;\r\n            patientInfo[msg.sender] = p;\r\n            patientList.push(addr)-1;\r\n            return _name;\r\n        }\r\n       else if (_designation == 1){\r\n            healthcare memory d;\r\n            d.name = _name;\r\n            d.number = _number;\r\n            d.designation = _designation;\r\n            //d.medincines = _hash;\r\n            healthcareInfo[msg.sender] = d;\r\n            healthcareList.push(addr)-1;\r\n            return _name;\r\n       }\r\n       else if (_designation == 2){\r\n            healthcare memory d;\r\n            d.name = _name;\r\n            d.number = _number;\r\n            d.designation = _designation;\r\n            d.medicines = _hash;\r\n            hospitalInfo[msg.sender] = d;\r\n            hospitalList.push(addr)-1;\r\n            return _name;\r\n       }\r\n       else{\r\n           revert();\r\n       }\r\n    }\r\n\r\n    function get_patient(address addr) view public returns (string memory , uint, string memory , address, string memory, address){\r\n        // if(keccak256(patientInfo[addr].name) == keccak256(\"\"))revert();\r\n        return (patientInfo[addr].name, patientInfo[addr].number, patientInfo[addr].diagnosis, Empty[addr], patientInfo[addr].record, Empty[addr]);\r\n    }\r\n\r\n    function get_healthcare(address addr) view public returns (string memory , uint, uint256){\r\n        return (healthcareInfo[addr].name, healthcareInfo[addr].number, healthcareInfo[addr].designation);\r\n    }\r\n    function get_hospital(address addr) view public returns (string memory , uint, uint256, string memory){\r\n        return (hospitalInfo[addr].name, hospitalInfo[addr].number, hospitalInfo[addr].designation, hospitalInfo[addr].medicines);\r\n    }\r\n    function get_patient_healthcare_name(address paddr, address daddr) view public returns (string memory , string memory ){\r\n        return (patientInfo[paddr].name,healthcareInfo[daddr].name);\r\n    }\r\n\r\n    function permit_access(address addr) payable public {\r\n        require(msg.value == 2 ether);\r\n        creditPool += 2;\r\n        healthcareInfo[addr].patientAccessList.push(msg.sender)-1;\r\n        patientInfo[msg.sender].healthcareAccessList.push(addr)-1;\r\n    }\r\n    function doctor_permit_access(address addr) payable public {\r\n        require(msg.value == 1 ether);\r\n        creditPool += 2;\r\n        patientInfo[addr].healthcareRequestList.push(msg.sender)-1;\r\n    }\r\n    // new\r\n    function create_an_appointment(address addr) payable public {\r\n        require(msg.value == 2 ether);\r\n        creditPool += 2;\r\n        healthcareInfo[addr].queuePatient.push(msg.sender)-1;\r\n    }\r\n    function access_request_patient(address addr) payable public {\r\n        require(msg.value == 2 ether);\r\n        creditPool += 2;\r\n        healthcareInfo[msg.sender].queuDoctorSign.push(addr)-1;\r\n        creditPool -= 2;\r\n        remove_element_in_array(healthcareInfo[msg.sender].queuePatient, addr);\r\n    }\r\n    function doctor_apply(address addr) payable public {\r\n        require(msg.value == 2 ether);\r\n        creditPool += 2;\r\n        hospitalInfo[addr].doctorAccessList.push(msg.sender)-1;\r\n        healthcareInfo[msg.sender].accessJob.push(addr)-1;\r\n    }\r\n    function sign_records(address addr, string memory _hash) payable public {\r\n        require(msg.value == 2 ether);\r\n        creditPool += 2;\r\n        patientInfo[addr].doctorSigns.push(msg.sender)-1;\r\n        set_hash(addr, _hash);\r\n        creditPool -= 2;\r\n        remove_element_in_array(healthcareInfo[msg.sender].queuDoctorSign, addr);\r\n    }\r\n    function request_ordor_medicine(address addr) payable public {\r\n        require(msg.value == 2 ether);\r\n        creditPool += 2;\r\n        hospitalInfo[addr].patientOrderMedicineList.push(msg.sender)-1;\r\n        patientInfo[msg.sender].waitHandleRequestOrderMedicine.push(addr)-1;\r\n    }\r\n    function add_store_medicine(string memory _hash) payable public {\r\n        require(msg.value == 2 ether);\r\n        creditPool += 2;\r\n        hospitalInfo[msg.sender].medicines = _hash;\r\n    }\r\n    function remove_order_request(address addr) payable public{\r\n        require(msg.value == 2 ether);\r\n        creditPool -=1;\r\n        remove_element_in_array(patientInfo[addr].waitHandleRequestOrderMedicine, msg.sender);\r\n        remove_element_in_array( hospitalInfo[msg.sender].patientOrderMedicineList, addr);\r\n        patientInfo[addr].wasDeletedRequestOrderMedicine.push(msg.sender)-1;\r\n    }\r\n    function remove_status_order_request(address addr) payable public{\r\n        require(msg.value == 2 ether);\r\n        creditPool -=1;\r\n        remove_element_in_array(patientInfo[msg.sender].wasDeletedRequestOrderMedicine, addr);\r\n    }\r\n    function choice_specialty(string memory _name) payable public {\r\n        require(msg.value == 2 ether);\r\n        creditPool += 1;\r\n        healthcareInfo[msg.sender].specialty = _name;\r\n    }\r\n    function set_working_days(string memory _hash) payable public {\r\n        //require(healthcareInfo[msg.sender].designation == 1, \"Not a doctor account.\");\r\n        healthcareInfo[msg.sender].workingDays = _hash;\r\n    }\r\n    //\r\n    function permit_access_and_remove_doctor_permit_access(address addr) payable public {\r\n        require(msg.value == 2 ether);\r\n        creditPool += 2;\r\n        healthcareInfo[addr].patientAccessList.push(msg.sender)-1;\r\n        patientInfo[msg.sender].healthcareAccessList.push(addr)-1;\r\n        creditPool -= 2;\r\n        remove_element_in_array(patientInfo[msg.sender].healthcareRequestList, addr);\r\n    }\r\n    function cancel_access(address addr) payable public {\r\n        require(msg.value == 2 ether);\r\n        creditPool -= 2;\r\n        remove_element_in_array(patientInfo[msg.sender].healthcareRequestList, addr);\r\n    }\r\n    function permit_access_and_submitfile(address addr, address paddr, string memory  _hash) payable public {\r\n        require(msg.value == 2 ether);\r\n        creditPool += 2;\r\n        healthcareInfo[addr].patientAccessList.push(msg.sender)-1;\r\n        patientInfo[msg.sender].healthcareAccessList.push(addr)-1;\r\n        submitfile(paddr,_hash);\r\n    }\r\n    // show request \r\n    //must be called by healthcare.\r\n    function submitfile(address paddr, string memory  _hash) public {\r\n        bool patientFound = false;\r\n        for(uint i = 0;i<healthcareInfo[msg.sender].patientAccessList.length;i++){\r\n            if(healthcareInfo[msg.sender].patientAccessList[i]==paddr){\r\n                msg.sender.transfer(2 ether);\r\n                creditPool -= 2;\r\n                patientFound = true;\r\n            }\r\n        }\r\n        if(patientFound==true){\r\n            set_hash(paddr, _hash);\r\n            remove_patient(paddr, msg.sender);\r\n        }else {\r\n            revert();\r\n        }\r\n    }\r\n    function remove_element_in_array(address[] storage Array, address addr) internal returns(uint)\r\n    {\r\n        bool check = false;\r\n        uint del_index = 0;\r\n        for(uint i = 0; i<Array.length; i++){\r\n            if(Array[i] == addr){\r\n                check = true;\r\n                del_index = i;\r\n            }\r\n        }\r\n        if(!check) revert();\r\n        else{\r\n            if(Array.length == 1){\r\n                delete Array[del_index];\r\n            }\r\n            else {\r\n                Array[del_index] = Array[Array.length - 1];\r\n                delete Array[Array.length - 1];\r\n\r\n            }\r\n            Array.length--;\r\n        }\r\n    }\r\n\r\n    function remove_patient(address paddr, address daddr) public {\r\n        remove_element_in_array(healthcareInfo[daddr].patientAccessList, paddr);\r\n        remove_element_in_array(patientInfo[paddr].healthcareAccessList, daddr);\r\n    }\r\n    \r\n    function get_accessed_healthcarelist_for_patient(address addr) public view returns (address[] memory )\r\n    { \r\n        address[] storage healthcareaddr = patientInfo[addr].healthcareAccessList;\r\n        return healthcareaddr;\r\n    }\r\n    function get_request_healthcarelist_for_patient(address addr) public view returns (address[] memory )\r\n    {\r\n        address[] storage healthcareaddr = patientInfo[addr].healthcareRequestList;\r\n        return healthcareaddr;\r\n    }\r\n    function get_accessed_patientlist_for_healthcare(address addr) public view returns (address[] memory )\r\n    {\r\n        return healthcareInfo[addr].patientAccessList;\r\n    }\r\n    // new\r\n    function get_appointment_first(address addr) public view returns (address[] memory ){\r\n        address[] storage healthcareaddr = healthcareInfo[addr].queuePatient;\r\n        return healthcareaddr;\r\n    }\r\n    function get_queue_doctor_sign_first(address addr) public view returns (address[] memory ){\r\n        address[] storage healthcareaddr = healthcareInfo[addr].queuDoctorSign;\r\n        return healthcareaddr;\r\n    }\r\n    function get_employeees_hospital(address addr) public view returns (address[] memory) {\r\n        address[] storage doctoraddr = hospitalInfo[addr].doctorAccessList;\r\n        return doctoraddr;\r\n    }\r\n    function get_job_doctor(address addr) public view returns (address[] memory) {\r\n        address[] storage doctoraddr = healthcareInfo[addr].accessJob;\r\n        return doctoraddr;\r\n    }\r\n    function resign_job_from_doctor(address addr) public {\r\n        remove_element_in_array(hospitalInfo[addr].doctorAccessList, msg.sender);\r\n        remove_element_in_array(healthcareInfo[msg.sender].accessJob, addr);\r\n    }\r\n    function quit_job_from_hospital(address addr) public {\r\n        remove_element_in_array(hospitalInfo[msg.sender].doctorAccessList, addr);\r\n        remove_element_in_array(healthcareInfo[addr].accessJob, msg.sender);\r\n    }\r\n    function get_doctor_in_medicine(address addr) public view  returns (address[] memory) {\r\n        return patientInfo[addr].doctorSigns;\r\n    }\r\n    function get_patient_order_medicine(address addr) public view returns(address[] memory) {\r\n        address[] storage patientAddr =  hospitalInfo[addr].patientOrderMedicineList;\r\n        return patientAddr;\r\n    }\r\n    function get_wait_handle_request_order_medicine(address addr) public view returns(address[] memory) {\r\n        address[] storage hospitalAddr =  patientInfo[addr].waitHandleRequestOrderMedicine;\r\n        return hospitalAddr;\r\n    }\r\n    function get_wait_payment_request_order_medicine(address addr) public view returns(address[] memory) {\r\n        address[] storage hospitalAddr =  patientInfo[addr].waitPaymentRequestOrderMedicine;\r\n        return hospitalAddr;\r\n    }\r\n    function get_was_deleted_request_order_medicine(address addr) public view returns(address[] memory) {\r\n        address[] storage hospitalAddr =  patientInfo[addr].wasDeletedRequestOrderMedicine;\r\n        return hospitalAddr;\r\n    }\r\n    function get_success_request_order_medicine(address addr) public view returns(address[] memory) {\r\n        address[] storage hospitalAddr =  patientInfo[addr].successRequestOrderMedicine;\r\n        return hospitalAddr;\r\n    }\r\n    function get_specialty_healthcare(address addr) public view returns(string memory) {\r\n        return healthcareInfo[addr].specialty;\r\n    }\r\n \r\n    function get_working_days(address addr) public view  returns (string memory) {\r\n         return healthcareInfo[addr].workingDays;\r\n    }\r\n    //\r\n    function revoke_access(address daddr) public payable{\r\n        remove_patient(msg.sender,daddr);\r\n        msg.sender.transfer(2 ether);\r\n        creditPool -= 2;\r\n    }\r\n    \r\n    function get_patient_list() public view returns(address[] memory ){\r\n        return patientList;\r\n    }\r\n\r\n    function get_healthcare_list() public view returns(address[] memory ){\r\n        return healthcareList;\r\n    }\r\n\r\n    function get_hash(address paddr) public view returns(string memory ){\r\n        return patientInfo[paddr].record;\r\n    }\r\n \r\n    function set_hash(address paddr, string memory _hash) internal {\r\n        patientInfo[paddr].record = _hash;\r\n    }\r\n\r\n    //new\r\n    function get_hospital_list() public view returns (address[] memory) {\r\n        return hospitalList;\r\n    }\r\n  \r\n\r\n    function getAddressesByField(string memory _field, bool isSpecialty) public view returns (address[] memory) {\r\n        address[] memory matchingAddresses = new address[](healthcareList.length);\r\n        uint count = 0;\r\n\r\n        for (uint i = 0; i < healthcareList.length; i++) {\r\n            string memory compareField = isSpecialty \r\n                ? healthcareInfo[healthcareList[i]].specialty \r\n                : healthcareInfo[healthcareList[i]].workingDays;\r\n\r\n            // Kim tra gi tr\r\n            if (\r\n                (isSpecialty && keccak256(abi.encodePacked(compareField)) == keccak256(abi.encodePacked(_field))) || \r\n                (!isSpecialty && contains(compareField, _field))\r\n            ) {\r\n                matchingAddresses[count] = healthcareList[i];\r\n                count++;\r\n            }\r\n        }\r\n\r\n        \r\n        address[] memory result = new address[](count);\r\n        for (uint j = 0; j < count; j++) {\r\n            result[j] = matchingAddresses[j];\r\n        }\r\n\r\n        return result;\r\n    }\r\n    function contains(string memory _base, string memory _value) internal pure returns (bool) {\r\n        bytes memory baseBytes = bytes(_base);\r\n        bytes memory valueBytes = bytes(_value);\r\n\r\n        // Tr v false nu chui _value rng hoc di hn chui _base\r\n        if (valueBytes.length == 0 || valueBytes.length > baseBytes.length) {\r\n            return false;\r\n        }\r\n\r\n        for (uint i = 0; i <= baseBytes.length - valueBytes.length; i++) {\r\n            bool matchFound = true;\r\n            for (uint j = 0; j < valueBytes.length; j++) {\r\n                if (baseBytes[i + j] != valueBytes[j]) {\r\n                    matchFound = false;\r\n                    break;\r\n                }\r\n            }\r\n            if (matchFound) {\r\n                return true;\r\n            }\r\n        }\r\n\r\n        return false;\r\n    }\r\n\r\n    function send_request_payment(address addr, string memory _hash) payable public {\r\n        require(msg.value == 2 ether);\r\n        creditPool += 2;\r\n        hospitalInfo[msg.sender].medicines = _hash;\r\n        patientInfo[addr].waitPaymentRequestOrderMedicine.push(msg.sender)-1;\r\n        creditPool -= 1;\r\n        remove_element_in_array(patientInfo[addr].waitHandleRequestOrderMedicine, msg.sender);\r\n    }\r\n    function payment_medicine_success(address addr) payable public {\r\n        require(msg.value == 2 ether);\r\n        creditPool +=2;\r\n        patientInfo[msg.sender].successRequestOrderMedicine.push(addr)-1;\r\n        creditPool -= 1;\r\n        remove_element_in_array(patientInfo[msg.sender].waitPaymentRequestOrderMedicine, addr);\r\n    }\r\n    function cancel_payment_medicine(address addr) payable public {\r\n        require(msg.value == 2 ether);\r\n        creditPool += 2;\r\n        patientInfo[msg.sender].cancelPaymentRequestOrderMedicine.push(addr)-1;\r\n        creditPool -=1;\r\n        remove_element_in_array(patientInfo[msg.sender].waitPaymentRequestOrderMedicine, addr);\r\n    }\r\n    function get_cancel_payment_request_order_medicine(address addr) public view returns(address[] memory) {\r\n            address[] storage hospitalAddr =  patientInfo[addr].cancelPaymentRequestOrderMedicine;\r\n            return hospitalAddr;\r\n        }\r\n\r\n}\r\n",
  "sourcePath": "C:\\Users\\duy dat\\Desktop\\DA_CN\\Blockchain-For-EHR-Management\\contracts\\Medishield.sol",
  "compiler": {
    "name": "solc",
    "version": "0.5.1+commit.c8a2cb62.Emscripten.clang"
  },
  "schemaVersion": "3.4.16",
  "updatedAt": "2024-12-21T04:14:46.663Z",
  "networkType": "ethereum",
  "devdoc": {
    "methods": {}
  },
  "userdoc": {
    "methods": {}
  }
}