{
  "contractName": "Medishield",
  "abi": [
    {
      "constant": true,
      "inputs": [
        {
          "name": "",
          "type": "uint256"
        }
      ],
      "name": "healthcareList",
      "outputs": [
        {
          "name": "",
          "type": "address"
        }
      ],
      "payable": false,
      "stateMutability": "view",
      "type": "function"
    },
    {
      "constant": true,
      "inputs": [
        {
          "name": "",
          "type": "uint256"
        }
      ],
      "name": "patientList",
      "outputs": [
        {
          "name": "",
          "type": "address"
        }
      ],
      "payable": false,
      "stateMutability": "view",
      "type": "function"
    },
    {
      "constant": true,
      "inputs": [
        {
          "name": "",
          "type": "uint256"
        }
      ],
      "name": "hospitalList",
      "outputs": [
        {
          "name": "",
          "type": "address"
        }
      ],
      "payable": false,
      "stateMutability": "view",
      "type": "function"
    },
    {
      "constant": false,
      "inputs": [
        {
          "name": "_name",
          "type": "string"
        },
        {
          "name": "_number",
          "type": "uint256"
        },
        {
          "name": "_designation",
          "type": "uint256"
        },
        {
          "name": "_hash",
          "type": "string"
        }
      ],
      "name": "add_agent",
      "outputs": [
        {
          "name": "",
          "type": "string"
        }
      ],
      "payable": false,
      "stateMutability": "nonpayable",
      "type": "function"
    },
    {
      "constant": true,
      "inputs": [
        {
          "name": "addr",
          "type": "address"
        }
      ],
      "name": "get_patient",
      "outputs": [
        {
          "name": "",
          "type": "string"
        },
        {
          "name": "",
          "type": "uint256"
        },
        {
          "name": "",
          "type": "string"
        },
        {
          "name": "",
          "type": "address"
        },
        {
          "name": "",
          "type": "string"
        },
        {
          "name": "",
          "type": "address"
        }
      ],
      "payable": false,
      "stateMutability": "view",
      "type": "function"
    },
    {
      "constant": true,
      "inputs": [
        {
          "name": "addr",
          "type": "address"
        }
      ],
      "name": "get_healthcare",
      "outputs": [
        {
          "name": "",
          "type": "string"
        },
        {
          "name": "",
          "type": "uint256"
        },
        {
          "name": "",
          "type": "uint256"
        }
      ],
      "payable": false,
      "stateMutability": "view",
      "type": "function"
    },
    {
      "constant": true,
      "inputs": [
        {
          "name": "addr",
          "type": "address"
        }
      ],
      "name": "get_hospital",
      "outputs": [
        {
          "name": "",
          "type": "string"
        },
        {
          "name": "",
          "type": "uint256"
        },
        {
          "name": "",
          "type": "uint256"
        }
      ],
      "payable": false,
      "stateMutability": "view",
      "type": "function"
    },
    {
      "constant": true,
      "inputs": [
        {
          "name": "paddr",
          "type": "address"
        },
        {
          "name": "daddr",
          "type": "address"
        }
      ],
      "name": "get_patient_healthcare_name",
      "outputs": [
        {
          "name": "",
          "type": "string"
        },
        {
          "name": "",
          "type": "string"
        }
      ],
      "payable": false,
      "stateMutability": "view",
      "type": "function"
    },
    {
      "constant": false,
      "inputs": [
        {
          "name": "addr",
          "type": "address"
        }
      ],
      "name": "permit_access",
      "outputs": [],
      "payable": true,
      "stateMutability": "payable",
      "type": "function"
    },
    {
      "constant": false,
      "inputs": [
        {
          "name": "addr",
          "type": "address"
        }
      ],
      "name": "doctor_permit_access",
      "outputs": [],
      "payable": true,
      "stateMutability": "payable",
      "type": "function"
    },
    {
      "constant": false,
      "inputs": [
        {
          "name": "addr",
          "type": "address"
        }
      ],
      "name": "create_an_appointment",
      "outputs": [],
      "payable": true,
      "stateMutability": "payable",
      "type": "function"
    },
    {
      "constant": false,
      "inputs": [
        {
          "name": "addr",
          "type": "address"
        }
      ],
      "name": "access_request_patient",
      "outputs": [],
      "payable": true,
      "stateMutability": "payable",
      "type": "function"
    },
    {
      "constant": false,
      "inputs": [
        {
          "name": "addr",
          "type": "address"
        }
      ],
      "name": "doctor_apply",
      "outputs": [],
      "payable": true,
      "stateMutability": "payable",
      "type": "function"
    },
    {
      "constant": false,
      "inputs": [
        {
          "name": "addr",
          "type": "address"
        },
        {
          "name": "_hash",
          "type": "string"
        }
      ],
      "name": "sign_records",
      "outputs": [],
      "payable": true,
      "stateMutability": "payable",
      "type": "function"
    },
    {
      "constant": false,
      "inputs": [
        {
          "name": "addr",
          "type": "address"
        }
      ],
      "name": "permit_access_and_remove_doctor_permit_access",
      "outputs": [],
      "payable": true,
      "stateMutability": "payable",
      "type": "function"
    },
    {
      "constant": false,
      "inputs": [
        {
          "name": "addr",
          "type": "address"
        }
      ],
      "name": "cancel_access",
      "outputs": [],
      "payable": true,
      "stateMutability": "payable",
      "type": "function"
    },
    {
      "constant": false,
      "inputs": [
        {
          "name": "addr",
          "type": "address"
        },
        {
          "name": "paddr",
          "type": "address"
        },
        {
          "name": "_hash",
          "type": "string"
        }
      ],
      "name": "permit_access_and_submitfile",
      "outputs": [],
      "payable": true,
      "stateMutability": "payable",
      "type": "function"
    },
    {
      "constant": false,
      "inputs": [
        {
          "name": "paddr",
          "type": "address"
        },
        {
          "name": "_hash",
          "type": "string"
        }
      ],
      "name": "submitfile",
      "outputs": [],
      "payable": false,
      "stateMutability": "nonpayable",
      "type": "function"
    },
    {
      "constant": false,
      "inputs": [
        {
          "name": "paddr",
          "type": "address"
        },
        {
          "name": "daddr",
          "type": "address"
        }
      ],
      "name": "remove_patient",
      "outputs": [],
      "payable": false,
      "stateMutability": "nonpayable",
      "type": "function"
    },
    {
      "constant": true,
      "inputs": [
        {
          "name": "addr",
          "type": "address"
        }
      ],
      "name": "get_accessed_healthcarelist_for_patient",
      "outputs": [
        {
          "name": "",
          "type": "address[]"
        }
      ],
      "payable": false,
      "stateMutability": "view",
      "type": "function"
    },
    {
      "constant": true,
      "inputs": [
        {
          "name": "addr",
          "type": "address"
        }
      ],
      "name": "get_request_healthcarelist_for_patient",
      "outputs": [
        {
          "name": "",
          "type": "address[]"
        }
      ],
      "payable": false,
      "stateMutability": "view",
      "type": "function"
    },
    {
      "constant": true,
      "inputs": [
        {
          "name": "addr",
          "type": "address"
        }
      ],
      "name": "get_accessed_patientlist_for_healthcare",
      "outputs": [
        {
          "name": "",
          "type": "address[]"
        }
      ],
      "payable": false,
      "stateMutability": "view",
      "type": "function"
    },
    {
      "constant": true,
      "inputs": [
        {
          "name": "addr",
          "type": "address"
        }
      ],
      "name": "get_appointment_first",
      "outputs": [
        {
          "name": "",
          "type": "address[]"
        }
      ],
      "payable": false,
      "stateMutability": "view",
      "type": "function"
    },
    {
      "constant": true,
      "inputs": [
        {
          "name": "addr",
          "type": "address"
        }
      ],
      "name": "get_queue_doctor_sign_first",
      "outputs": [
        {
          "name": "",
          "type": "address[]"
        }
      ],
      "payable": false,
      "stateMutability": "view",
      "type": "function"
    },
    {
      "constant": true,
      "inputs": [
        {
          "name": "addr",
          "type": "address"
        }
      ],
      "name": "get_employeees_hospital",
      "outputs": [
        {
          "name": "",
          "type": "address[]"
        }
      ],
      "payable": false,
      "stateMutability": "view",
      "type": "function"
    },
    {
      "constant": true,
      "inputs": [
        {
          "name": "addr",
          "type": "address"
        }
      ],
      "name": "get_job_doctor",
      "outputs": [
        {
          "name": "",
          "type": "address[]"
        }
      ],
      "payable": false,
      "stateMutability": "view",
      "type": "function"
    },
    {
      "constant": false,
      "inputs": [
        {
          "name": "addr",
          "type": "address"
        }
      ],
      "name": "resign_job_from_doctor",
      "outputs": [],
      "payable": false,
      "stateMutability": "nonpayable",
      "type": "function"
    },
    {
      "constant": false,
      "inputs": [
        {
          "name": "addr",
          "type": "address"
        }
      ],
      "name": "quit_job_from_hospital",
      "outputs": [],
      "payable": false,
      "stateMutability": "nonpayable",
      "type": "function"
    },
    {
      "constant": true,
      "inputs": [
        {
          "name": "addr",
          "type": "address"
        }
      ],
      "name": "get_doctor_in_medicine",
      "outputs": [
        {
          "name": "",
          "type": "address[]"
        }
      ],
      "payable": false,
      "stateMutability": "view",
      "type": "function"
    },
    {
      "constant": false,
      "inputs": [
        {
          "name": "daddr",
          "type": "address"
        }
      ],
      "name": "revoke_access",
      "outputs": [],
      "payable": true,
      "stateMutability": "payable",
      "type": "function"
    },
    {
      "constant": true,
      "inputs": [],
      "name": "get_patient_list",
      "outputs": [
        {
          "name": "",
          "type": "address[]"
        }
      ],
      "payable": false,
      "stateMutability": "view",
      "type": "function"
    },
    {
      "constant": true,
      "inputs": [],
      "name": "get_healthcare_list",
      "outputs": [
        {
          "name": "",
          "type": "address[]"
        }
      ],
      "payable": false,
      "stateMutability": "view",
      "type": "function"
    },
    {
      "constant": true,
      "inputs": [
        {
          "name": "paddr",
          "type": "address"
        }
      ],
      "name": "get_hash",
      "outputs": [
        {
          "name": "",
          "type": "string"
        }
      ],
      "payable": false,
      "stateMutability": "view",
      "type": "function"
    },
    {
      "constant": true,
      "inputs": [],
      "name": "get_hospital_list",
      "outputs": [
        {
          "name": "",
          "type": "address[]"
        }
      ],
      "payable": false,
      "stateMutability": "view",
      "type": "function"
    }
  ],
  "bytecode": "0x608060405234801561001057600080fd5b506142b9806100206000396000f3fe6080604052600436106101a5576000357c0100000000000000000000000000000000000000000000000000000000900480622fd866146101aa5780630362fe9b146102505780630abcb6a0146102c1578063239a75ff146103a957806326e161bc1461044f57806327b1dcee146104f55780632a866eee146105395780632a8d8b9c1461061457806333cdfdba146106805780633740b3c0146106c45780633ba6c5501461073f5780633e429f8f146107905780634042d2d4146108365780634b0ca58514610a4557806350cbd8ae14610a8957806352fc89c214610b2f57806358db888e14610b9b5780637e1519ce14610c7357806388a53fcd14610d3d578063890fa83b14610d815780639f55c37b14610dd2578063a87648a014610e78578063b3d94bd014610f73578063b462b31f14611019578063babb1d411461105d578063bcffb7ca146110d8578063c196a15f1461111c578063c82412b914611160578063cb37190e146111db578063cf9c186f14611331578063d6763c7f14611375578063e7322c701461141b578063e81ac054146114f3578063f02d90a41461155f575b600080fd5b3480156101b657600080fd5b506101f9600480360360208110156101cd57600080fd5b81019080803573ffffffffffffffffffffffffffffffffffffffff16906020019092919050505061174b565b6040518080602001828103825283818151815260200191508051906020019060200280838360005b8381101561023c578082015181840152602081019050610221565b505050509050019250505060405180910390f35b34801561025c57600080fd5b506102bf6004803603604081101561027357600080fd5b81019080803573ffffffffffffffffffffffffffffffffffffffff169060200190929190803573ffffffffffffffffffffffffffffffffffffffff169060200190929190505050611821565b005b3480156102cd57600080fd5b506103a7600480360360408110156102e457600080fd5b81019080803573ffffffffffffffffffffffffffffffffffffffff1690602001909291908035906020019064010000000081111561032157600080fd5b82018360208201111561033357600080fd5b8035906020019184600183028401116401000000008311171561035557600080fd5b91908080601f016020809104026020016040519081016040528093929190818152602001838380828437600081840152601f19601f8201169050808301925050505050505091929192905050506118bd565b005b3480156103b557600080fd5b506103f8600480360360208110156103cc57600080fd5b81019080803573ffffffffffffffffffffffffffffffffffffffff169060200190929190505050611a64565b6040518080602001828103825283818151815260200191508051906020019060200280838360005b8381101561043b578082015181840152602081019050610420565b505050509050019250505060405180910390f35b34801561045b57600080fd5b5061049e6004803603602081101561047257600080fd5b81019080803573ffffffffffffffffffffffffffffffffffffffff169060200190929190505050611b34565b6040518080602001828103825283818151815260200191508051906020019060200280838360005b838110156104e15780820151818401526020810190506104c6565b505050509050019250505060405180910390f35b6105376004803603602081101561050b57600080fd5b81019080803573ffffffffffffffffffffffffffffffffffffffff169060200190929190505050611c0a565b005b6106126004803603604081101561054f57600080fd5b81019080803573ffffffffffffffffffffffffffffffffffffffff1690602001909291908035906020019064010000000081111561058c57600080fd5b82018360208201111561059e57600080fd5b803590602001918460018302840111640100000000831117156105c057600080fd5b91908080601f016020809104026020016040519081016040528093929190818152602001838380828437600081840152601f19601f820116905080830192505050505050509192919290505050611c76565b005b34801561062057600080fd5b50610629611daf565b6040518080602001828103825283818151815260200191508051906020019060200280838360005b8381101561066c578082015181840152602081019050610651565b505050509050019250505060405180910390f35b6106c26004803603602081101561069657600080fd5b81019080803573ffffffffffffffffffffffffffffffffffffffff169060200190929190505050611e3d565b005b3480156106d057600080fd5b506106fd600480360360208110156106e757600080fd5b8101908080359060200190929190505050611fb8565b604051808273ffffffffffffffffffffffffffffffffffffffff1673ffffffffffffffffffffffffffffffffffffffff16815260200191505060405180910390f35b34801561074b57600080fd5b5061078e6004803603602081101561076257600080fd5b81019080803573ffffffffffffffffffffffffffffffffffffffff169060200190929190505050611ff6565b005b34801561079c57600080fd5b506107df600480360360208110156107b357600080fd5b81019080803573ffffffffffffffffffffffffffffffffffffffff169060200190929190505050612091565b6040518080602001828103825283818151815260200191508051906020019060200280838360005b83811015610822578082015181840152602081019050610807565b505050509050019250505060405180910390f35b34801561084257600080fd5b506108856004803603602081101561085957600080fd5b81019080803573ffffffffffffffffffffffffffffffffffffffff169060200190929190505050612167565b6040518080602001878152602001806020018673ffffffffffffffffffffffffffffffffffffffff1673ffffffffffffffffffffffffffffffffffffffff168152602001806020018573ffffffffffffffffffffffffffffffffffffffff1673ffffffffffffffffffffffffffffffffffffffff16815260200184810384528a818151815260200191508051906020019080838360005b8381101561093757808201518184015260208101905061091c565b50505050905090810190601f1680156109645780820380516001836020036101000a031916815260200191505b50848103835288818151815260200191508051906020019080838360005b8381101561099d578082015181840152602081019050610982565b50505050905090810190601f1680156109ca5780820380516001836020036101000a031916815260200191505b50848103825286818151815260200191508051906020019080838360005b83811015610a035780820151818401526020810190506109e8565b50505050905090810190601f168015610a305780820380516001836020036101000a031916815260200191505b50995050505050505050505060405180910390f35b610a8760048036036020811015610a5b57600080fd5b81019080803573ffffffffffffffffffffffffffffffffffffffff169060200190929190505050612525565b005b348015610a9557600080fd5b50610ad860048036036020811015610aac57600080fd5b81019080803573ffffffffffffffffffffffffffffffffffffffff1690602001909291905050506125f7565b6040518080602001828103825283818151815260200191508051906020019060200280838360005b83811015610b1b578082015181840152602081019050610b00565b505050509050019250505060405180910390f35b348015610b3b57600080fd5b50610b446126c7565b6040518080602001828103825283818151815260200191508051906020019060200280838360005b83811015610b87578082015181840152602081019050610b6c565b505050509050019250505060405180910390f35b348015610ba757600080fd5b50610bea60048036036020811015610bbe57600080fd5b81019080803573ffffffffffffffffffffffffffffffffffffffff169060200190929190505050612755565b6040518080602001848152602001838152602001828103825285818151815260200191508051906020019080838360005b83811015610c36578082015181840152602081019050610c1b565b50505050905090810190601f168015610c635780820380516001836020036101000a031916815260200191505b5094505050505060405180910390f35b348015610c7f57600080fd5b50610cc260048036036020811015610c9657600080fd5b81019080803573ffffffffffffffffffffffffffffffffffffffff1690602001909291905050506128cb565b6040518080602001828103825283818151815260200191508051906020019080838360005b83811015610d02578082015181840152602081019050610ce7565b50505050905090810190601f168015610d2f5780820380516001836020036101000a031916815260200191505b509250505060405180910390f35b610d7f60048036036020811015610d5357600080fd5b81019080803573ffffffffffffffffffffffffffffffffffffffff1690602001909291905050506129af565b005b348015610d8d57600080fd5b50610dd060048036036020811015610da457600080fd5b81019080803573ffffffffffffffffffffffffffffffffffffffff169060200190929190505050612a81565b005b348015610dde57600080fd5b50610e2160048036036020811015610df557600080fd5b81019080803573ffffffffffffffffffffffffffffffffffffffff169060200190929190505050612b1c565b6040518080602001828103825283818151815260200191508051906020019060200280838360005b83811015610e64578082015181840152602081019050610e49565b505050509050019250505060405180910390f35b610f7160048036036060811015610e8e57600080fd5b81019080803573ffffffffffffffffffffffffffffffffffffffff169060200190929190803573ffffffffffffffffffffffffffffffffffffffff16906020019092919080359060200190640100000000811115610eeb57600080fd5b820183602082011115610efd57600080fd5b80359060200191846001830284011164010000000083111715610f1f57600080fd5b91908080601f016020809104026020016040519081016040528093929190818152602001838380828437600081840152601f19601f820116905080830192505050505050509192919290505050612bf2565b005b348015610f7f57600080fd5b50610fc260048036036020811015610f9657600080fd5b81019080803573ffffffffffffffffffffffffffffffffffffffff169060200190929190505050612d79565b6040518080602001828103825283818151815260200191508051906020019060200280838360005b83811015611005578082015181840152602081019050610fea565b505050509050019250505060405180910390f35b61105b6004803603602081101561102f57600080fd5b81019080803573ffffffffffffffffffffffffffffffffffffffff169060200190929190505050612e4f565b005b34801561106957600080fd5b506110966004803603602081101561108057600080fd5b8101908080359060200190929190505050612f7d565b604051808273ffffffffffffffffffffffffffffffffffffffff1673ffffffffffffffffffffffffffffffffffffffff16815260200191505060405180910390f35b61111a600480360360208110156110ee57600080fd5b81019080803573ffffffffffffffffffffffffffffffffffffffff169060200190929190505050612fbb565b005b61115e6004803603602081101561113257600080fd5b81019080803573ffffffffffffffffffffffffffffffffffffffff169060200190929190505050613136565b005b34801561116c57600080fd5b506111996004803603602081101561118357600080fd5b81019080803590602001909291905050506131ab565b604051808273ffffffffffffffffffffffffffffffffffffffff1673ffffffffffffffffffffffffffffffffffffffff16815260200191505060405180910390f35b3480156111e757600080fd5b5061124a600480360360408110156111fe57600080fd5b81019080803573ffffffffffffffffffffffffffffffffffffffff169060200190929190803573ffffffffffffffffffffffffffffffffffffffff1690602001909291905050506131e9565b604051808060200180602001838103835285818151815260200191508051906020019080838360005b8381101561128e578082015181840152602081019050611273565b50505050905090810190601f1680156112bb5780820380516001836020036101000a031916815260200191505b50838103825284818151815260200191508051906020019080838360005b838110156112f45780820151818401526020810190506112d9565b50505050905090810190601f1680156113215780820380516001836020036101000a031916815260200191505b5094505050505060405180910390f35b6113736004803603602081101561134757600080fd5b81019080803573ffffffffffffffffffffffffffffffffffffffff1690602001909291905050506133b3565b005b34801561138157600080fd5b506113c46004803603602081101561139857600080fd5b81019080803573ffffffffffffffffffffffffffffffffffffffff16906020019092919050505061358a565b6040518080602001828103825283818151815260200191508051906020019060200280838360005b838110156114075780820151818401526020810190506113ec565b505050509050019250505060405180910390f35b34801561142757600080fd5b5061146a6004803603602081101561143e57600080fd5b81019080803573ffffffffffffffffffffffffffffffffffffffff169060200190929190505050613660565b6040518080602001848152602001838152602001828103825285818151815260200191508051906020019080838360005b838110156114b657808201518184015260208101905061149b565b50505050905090810190601f1680156114e35780820380516001836020036101000a031916815260200191505b5094505050505060405180910390f35b3480156114ff57600080fd5b506115086137d6565b6040518080602001828103825283818151815260200191508051906020019060200280838360005b8381101561154b578082015181840152602081019050611530565b505050509050019250505060405180910390f35b34801561156b57600080fd5b506116d06004803603608081101561158257600080fd5b810190808035906020019064010000000081111561159f57600080fd5b8201836020820111156115b157600080fd5b803590602001918460018302840111640100000000831117156115d357600080fd5b91908080601f016020809104026020016040519081016040528093929190818152602001838380828437600081840152601f19601f82011690508083019250505050505050919291929080359060200190929190803590602001909291908035906020019064010000000081111561164a57600080fd5b82018360208201111561165c57600080fd5b8035906020019184600183028401116401000000008311171561167e57600080fd5b91908080601f016020809104026020016040519081016040528093929190818152602001838380828437600081840152601f19601f820116905080830192505050505050509192919290505050613864565b6040518080602001828103825283818151815260200191508051906020019080838360005b838110156117105780820151818401526020810190506116f5565b50505050905090810190601f16801561173d5780820380516001836020036101000a031916815260200191505b509250505060405180910390f35b60606000600660008473ffffffffffffffffffffffffffffffffffffffff1673ffffffffffffffffffffffffffffffffffffffff16815260200190815260200160002060070190508080548060200260200160405190810160405280929190818152602001828054801561181457602002820191906000526020600020905b8160009054906101000a900473ffffffffffffffffffffffffffffffffffffffff1673ffffffffffffffffffffffffffffffffffffffff16815260200190600101908083116117ca575b5050505050915050919050565b61186c600560008373ffffffffffffffffffffffffffffffffffffffff1673ffffffffffffffffffffffffffffffffffffffff16815260200190815260200160002060030183613d9a565b506118b8600460008473ffffffffffffffffffffffffffffffffffffffff1673ffffffffffffffffffffffffffffffffffffffff16815260200190815260200160002060020182613d9a565b505050565b600080905060008090505b600560003373ffffffffffffffffffffffffffffffffffffffff1673ffffffffffffffffffffffffffffffffffffffff16815260200190815260200160002060030180549050811015611a33578373ffffffffffffffffffffffffffffffffffffffff16600560003373ffffffffffffffffffffffffffffffffffffffff1673ffffffffffffffffffffffffffffffffffffffff1681526020019081526020016000206003018281548110151561197b57fe5b9060005260206000200160009054906101000a900473ffffffffffffffffffffffffffffffffffffffff1673ffffffffffffffffffffffffffffffffffffffff161415611a26573373ffffffffffffffffffffffffffffffffffffffff166108fc671bc16d674ec800009081150290604051600060405180830381858888f19350505050158015611a10573d6000803e3d6000fd5b5060026000808282540392505081905550600191505b80806001019150506118c8565b50600115158115151415611a5a57611a4b8383613f89565b611a558333611821565b611a5f565b600080fd5b505050565b6060600560008373ffffffffffffffffffffffffffffffffffffffff1673ffffffffffffffffffffffffffffffffffffffff168152602001908152602001600020600301805480602002602001604051908101604052809291908181526020018280548015611b2857602002820191906000526020600020905b8160009054906101000a900473ffffffffffffffffffffffffffffffffffffffff1673ffffffffffffffffffffffffffffffffffffffff1681526020019060010190808311611ade575b50505050509050919050565b60606000600560008473ffffffffffffffffffffffffffffffffffffffff1673ffffffffffffffffffffffffffffffffffffffff168152602001908152602001600020600801905080805480602002602001604051908101604052809291908181526020018280548015611bfd57602002820191906000526020600020905b8160009054906101000a900473ffffffffffffffffffffffffffffffffffffffff1673ffffffffffffffffffffffffffffffffffffffff1681526020019060010190808311611bb3575b5050505050915050919050565b611c143382611821565b3373ffffffffffffffffffffffffffffffffffffffff166108fc671bc16d674ec800009081150290604051600060405180830381858888f19350505050158015611c62573d6000803e3d6000fd5b506002600080828254039250508190555050565b671bc16d674ec8000034141515611c8c57600080fd5b600260008082825401925050819055506001600460008473ffffffffffffffffffffffffffffffffffffffff1673ffffffffffffffffffffffffffffffffffffffff1681526020019081526020016000206006013390806001815401808255809150509060018203906000526020600020016000909192909190916101000a81548173ffffffffffffffffffffffffffffffffffffffff021916908373ffffffffffffffffffffffffffffffffffffffff1602179055505050611d4f8282613f89565b60026000808282540392505081905550611daa600560003373ffffffffffffffffffffffffffffffffffffffff1673ffffffffffffffffffffffffffffffffffffffff16815260200190815260200160002060040183613d9a565b505050565b60606003805480602002602001604051908101604052809291908181526020018280548015611e3357602002820191906000526020600020905b8160009054906101000a900473ffffffffffffffffffffffffffffffffffffffff1673ffffffffffffffffffffffffffffffffffffffff1681526020019060010190808311611de9575b5050505050905090565b671bc16d674ec8000034141515611e5357600080fd5b600260008082825401925050819055506001600660008373ffffffffffffffffffffffffffffffffffffffff1673ffffffffffffffffffffffffffffffffffffffff1681526020019081526020016000206007013390806001815401808255809150509060018203906000526020600020016000909192909190916101000a81548173ffffffffffffffffffffffffffffffffffffffff021916908373ffffffffffffffffffffffffffffffffffffffff16021790555050506001600560003373ffffffffffffffffffffffffffffffffffffffff1673ffffffffffffffffffffffffffffffffffffffff1681526020019081526020016000206008018290806001815401808255809150509060018203906000526020600020016000909192909190916101000a81548173ffffffffffffffffffffffffffffffffffffffff021916908373ffffffffffffffffffffffffffffffffffffffff160217905550505050565b600281815481101515611fc757fe5b906000526020600020016000915054906101000a900473ffffffffffffffffffffffffffffffffffffffff1681565b612041600660003373ffffffffffffffffffffffffffffffffffffffff1673ffffffffffffffffffffffffffffffffffffffff16815260200190815260200160002060070182613d9a565b5061208d600560008373ffffffffffffffffffffffffffffffffffffffff1673ffffffffffffffffffffffffffffffffffffffff16815260200190815260200160002060080133613d9a565b5050565b60606000600560008473ffffffffffffffffffffffffffffffffffffffff1673ffffffffffffffffffffffffffffffffffffffff16815260200190815260200160002060050190508080548060200260200160405190810160405280929190818152602001828054801561215a57602002820191906000526020600020905b8160009054906101000a900473ffffffffffffffffffffffffffffffffffffffff1673ffffffffffffffffffffffffffffffffffffffff1681526020019060010190808311612110575b5050505050915050919050565b606060006060600060606000600460008873ffffffffffffffffffffffffffffffffffffffff1673ffffffffffffffffffffffffffffffffffffffff168152602001908152602001600020600001600460008973ffffffffffffffffffffffffffffffffffffffff1673ffffffffffffffffffffffffffffffffffffffff16815260200190815260200160002060010154600460008a73ffffffffffffffffffffffffffffffffffffffff1673ffffffffffffffffffffffffffffffffffffffff168152602001908152602001600020600301600760008b73ffffffffffffffffffffffffffffffffffffffff1673ffffffffffffffffffffffffffffffffffffffff16815260200190815260200160002060009054906101000a900473ffffffffffffffffffffffffffffffffffffffff16600460008c73ffffffffffffffffffffffffffffffffffffffff1673ffffffffffffffffffffffffffffffffffffffff168152602001908152602001600020600401600760008d73ffffffffffffffffffffffffffffffffffffffff1673ffffffffffffffffffffffffffffffffffffffff16815260200190815260200160002060009054906101000a900473ffffffffffffffffffffffffffffffffffffffff16858054600181600116156101000203166002900480601f0160208091040260200160405190810160405280929190818152602001828054600181600116156101000203166002900480156123d15780601f106123a6576101008083540402835291602001916123d1565b820191906000526020600020905b8154815290600101906020018083116123b457829003601f168201915b50505050509550838054600181600116156101000203166002900480601f01602080910402602001604051908101604052809291908181526020018280546001816001161561010002031660029004801561246d5780601f106124425761010080835404028352916020019161246d565b820191906000526020600020905b81548152906001019060200180831161245057829003601f168201915b50505050509350818054600181600116156101000203166002900480601f0160208091040260200160405190810160405280929190818152602001828054600181600116156101000203166002900480156125095780601f106124de57610100808354040283529160200191612509565b820191906000526020600020905b8154815290600101906020018083116124ec57829003601f168201915b5050505050915095509550955095509550955091939550919395565b670de0b6b3a76400003414151561253b57600080fd5b600260008082825401925050819055506001600460008373ffffffffffffffffffffffffffffffffffffffff1673ffffffffffffffffffffffffffffffffffffffff1681526020019081526020016000206005013390806001815401808255809150509060018203906000526020600020016000909192909190916101000a81548173ffffffffffffffffffffffffffffffffffffffff021916908373ffffffffffffffffffffffffffffffffffffffff160217905550505050565b6060600460008373ffffffffffffffffffffffffffffffffffffffff1673ffffffffffffffffffffffffffffffffffffffff1681526020019081526020016000206006018054806020026020016040519081016040528092919081815260200182805480156126bb57602002820191906000526020600020905b8160009054906101000a900473ffffffffffffffffffffffffffffffffffffffff1673ffffffffffffffffffffffffffffffffffffffff1681526020019060010190808311612671575b50505050509050919050565b6060600280548060200260200160405190810160405280929190818152602001828054801561274b57602002820191906000526020600020905b8160009054906101000a900473ffffffffffffffffffffffffffffffffffffffff1673ffffffffffffffffffffffffffffffffffffffff1681526020019060010190808311612701575b5050505050905090565b6060600080600660008573ffffffffffffffffffffffffffffffffffffffff1673ffffffffffffffffffffffffffffffffffffffff168152602001908152602001600020600001600660008673ffffffffffffffffffffffffffffffffffffffff1673ffffffffffffffffffffffffffffffffffffffff16815260200190815260200160002060010154600660008773ffffffffffffffffffffffffffffffffffffffff1673ffffffffffffffffffffffffffffffffffffffff16815260200190815260200160002060020154828054600181600116156101000203166002900480601f0160208091040260200160405190810160405280929190818152602001828054600181600116156101000203166002900480156128b75780601f1061288c576101008083540402835291602001916128b7565b820191906000526020600020905b81548152906001019060200180831161289a57829003601f168201915b505050505092509250925092509193909250565b6060600460008373ffffffffffffffffffffffffffffffffffffffff1673ffffffffffffffffffffffffffffffffffffffff1681526020019081526020016000206004018054600181600116156101000203166002900480601f0160208091040260200160405190810160405280929190818152602001828054600181600116156101000203166002900480156129a35780601f10612978576101008083540402835291602001916129a3565b820191906000526020600020905b81548152906001019060200180831161298657829003601f168201915b50505050509050919050565b671bc16d674ec80000341415156129c557600080fd5b600260008082825401925050819055506001600560008373ffffffffffffffffffffffffffffffffffffffff1673ffffffffffffffffffffffffffffffffffffffff1681526020019081526020016000206005013390806001815401808255809150509060018203906000526020600020016000909192909190916101000a81548173ffffffffffffffffffffffffffffffffffffffff021916908373ffffffffffffffffffffffffffffffffffffffff160217905550505050565b612acc600660008373ffffffffffffffffffffffffffffffffffffffff1673ffffffffffffffffffffffffffffffffffffffff16815260200190815260200160002060070133613d9a565b50612b18600560003373ffffffffffffffffffffffffffffffffffffffff1673ffffffffffffffffffffffffffffffffffffffff16815260200190815260200160002060080182613d9a565b5050565b60606000600460008473ffffffffffffffffffffffffffffffffffffffff1673ffffffffffffffffffffffffffffffffffffffff168152602001908152602001600020600201905080805480602002602001604051908101604052809291908181526020018280548015612be557602002820191906000526020600020905b8160009054906101000a900473ffffffffffffffffffffffffffffffffffffffff1673ffffffffffffffffffffffffffffffffffffffff1681526020019060010190808311612b9b575b5050505050915050919050565b671bc16d674ec8000034141515612c0857600080fd5b600260008082825401925050819055506001600560008573ffffffffffffffffffffffffffffffffffffffff1673ffffffffffffffffffffffffffffffffffffffff1681526020019081526020016000206003013390806001815401808255809150509060018203906000526020600020016000909192909190916101000a81548173ffffffffffffffffffffffffffffffffffffffff021916908373ffffffffffffffffffffffffffffffffffffffff16021790555050506001600460003373ffffffffffffffffffffffffffffffffffffffff1673ffffffffffffffffffffffffffffffffffffffff1681526020019081526020016000206002018490806001815401808255809150509060018203906000526020600020016000909192909190916101000a81548173ffffffffffffffffffffffffffffffffffffffff021916908373ffffffffffffffffffffffffffffffffffffffff1602179055505050612d7482826118bd565b505050565b60606000600560008473ffffffffffffffffffffffffffffffffffffffff1673ffffffffffffffffffffffffffffffffffffffff168152602001908152602001600020600401905080805480602002602001604051908101604052809291908181526020018280548015612e4257602002820191906000526020600020905b8160009054906101000a900473ffffffffffffffffffffffffffffffffffffffff1673ffffffffffffffffffffffffffffffffffffffff1681526020019060010190808311612df8575b5050505050915050919050565b671bc16d674ec8000034141515612e6557600080fd5b600260008082825401925050819055506001600560003373ffffffffffffffffffffffffffffffffffffffff1673ffffffffffffffffffffffffffffffffffffffff1681526020019081526020016000206004018290806001815401808255809150509060018203906000526020600020016000909192909190916101000a81548173ffffffffffffffffffffffffffffffffffffffff021916908373ffffffffffffffffffffffffffffffffffffffff160217905550505060026000808282540392505081905550612f79600560003373ffffffffffffffffffffffffffffffffffffffff1673ffffffffffffffffffffffffffffffffffffffff16815260200190815260200160002060050182613d9a565b5050565b600181815481101515612f8c57fe5b906000526020600020016000915054906101000a900473ffffffffffffffffffffffffffffffffffffffff1681565b671bc16d674ec8000034141515612fd157600080fd5b600260008082825401925050819055506001600560008373ffffffffffffffffffffffffffffffffffffffff1673ffffffffffffffffffffffffffffffffffffffff1681526020019081526020016000206003013390806001815401808255809150509060018203906000526020600020016000909192909190916101000a81548173ffffffffffffffffffffffffffffffffffffffff021916908373ffffffffffffffffffffffffffffffffffffffff16021790555050506001600460003373ffffffffffffffffffffffffffffffffffffffff1673ffffffffffffffffffffffffffffffffffffffff1681526020019081526020016000206002018290806001815401808255809150509060018203906000526020600020016000909192909190916101000a81548173ffffffffffffffffffffffffffffffffffffffff021916908373ffffffffffffffffffffffffffffffffffffffff160217905550505050565b671bc16d674ec800003414151561314c57600080fd5b600260008082825403925050819055506131a7600460003373ffffffffffffffffffffffffffffffffffffffff1673ffffffffffffffffffffffffffffffffffffffff16815260200190815260200160002060050182613d9a565b5050565b6003818154811015156131ba57fe5b906000526020600020016000915054906101000a900473ffffffffffffffffffffffffffffffffffffffff1681565b606080600460008573ffffffffffffffffffffffffffffffffffffffff1673ffffffffffffffffffffffffffffffffffffffff168152602001908152602001600020600001600560008573ffffffffffffffffffffffffffffffffffffffff1673ffffffffffffffffffffffffffffffffffffffff168152602001908152602001600020600001818054600181600116156101000203166002900480601f0160208091040260200160405190810160405280929190818152602001828054600181600116156101000203166002900480156133055780601f106132da57610100808354040283529160200191613305565b820191906000526020600020905b8154815290600101906020018083116132e857829003601f168201915b50505050509150808054600181600116156101000203166002900480601f0160208091040260200160405190810160405280929190818152602001828054600181600116156101000203166002900480156133a15780601f10613376576101008083540402835291602001916133a1565b820191906000526020600020905b81548152906001019060200180831161338457829003601f168201915b50505050509050915091509250929050565b671bc16d674ec80000341415156133c957600080fd5b600260008082825401925050819055506001600560008373ffffffffffffffffffffffffffffffffffffffff1673ffffffffffffffffffffffffffffffffffffffff1681526020019081526020016000206003013390806001815401808255809150509060018203906000526020600020016000909192909190916101000a81548173ffffffffffffffffffffffffffffffffffffffff021916908373ffffffffffffffffffffffffffffffffffffffff16021790555050506001600460003373ffffffffffffffffffffffffffffffffffffffff1673ffffffffffffffffffffffffffffffffffffffff1681526020019081526020016000206002018290806001815401808255809150509060018203906000526020600020016000909192909190916101000a81548173ffffffffffffffffffffffffffffffffffffffff021916908373ffffffffffffffffffffffffffffffffffffffff160217905550505060026000808282540392505081905550613586600460003373ffffffffffffffffffffffffffffffffffffffff1673ffffffffffffffffffffffffffffffffffffffff16815260200190815260200160002060050182613d9a565b5050565b60606000600460008473ffffffffffffffffffffffffffffffffffffffff1673ffffffffffffffffffffffffffffffffffffffff16815260200190815260200160002060050190508080548060200260200160405190810160405280929190818152602001828054801561365357602002820191906000526020600020905b8160009054906101000a900473ffffffffffffffffffffffffffffffffffffffff1673ffffffffffffffffffffffffffffffffffffffff1681526020019060010190808311613609575b5050505050915050919050565b6060600080600560008573ffffffffffffffffffffffffffffffffffffffff1673ffffffffffffffffffffffffffffffffffffffff168152602001908152602001600020600001600560008673ffffffffffffffffffffffffffffffffffffffff1673ffffffffffffffffffffffffffffffffffffffff16815260200190815260200160002060010154600560008773ffffffffffffffffffffffffffffffffffffffff1673ffffffffffffffffffffffffffffffffffffffff16815260200190815260200160002060020154828054600181600116156101000203166002900480601f0160208091040260200160405190810160405280929190818152602001828054600181600116156101000203166002900480156137c25780601f10613797576101008083540402835291602001916137c2565b820191906000526020600020905b8154815290600101906020018083116137a557829003601f168201915b505050505092509250925092509193909250565b6060600180548060200260200160405190810160405280929190818152602001828054801561385a57602002820191906000526020600020905b8160009054906101000a900473ffffffffffffffffffffffffffffffffffffffff1673ffffffffffffffffffffffffffffffffffffffff1681526020019060010190808311613810575b5050505050905090565b606060003390506000841415613a055761387c613fe4565b8681600001819052508581602001818152505083816080018190525080600460003373ffffffffffffffffffffffffffffffffffffffff1673ffffffffffffffffffffffffffffffffffffffff16815260200190815260200160002060008201518160000190805190602001906138f4929190614022565b5060208201518160010155604082015181600201908051906020019061391b9291906140a2565b506060820151816003019080519060200190613938929190614022565b506080820151816004019080519060200190613955929190614022565b5060a08201518160050190805190602001906139729291906140a2565b5060c082015181600601908051906020019061398f9291906140a2565b509050506001808390806001815401808255809150509060018203906000526020600020016000909192909190916101000a81548173ffffffffffffffffffffffffffffffffffffffff021916908373ffffffffffffffffffffffffffffffffffffffff16021790555050508692505050613d92565b6001841415613bc957613a1661412c565b868160000181905250858160200181815250508481604001818152505080600560003373ffffffffffffffffffffffffffffffffffffffff1673ffffffffffffffffffffffffffffffffffffffff1681526020019081526020016000206000820151816000019080519060200190613a8f929190614022565b5060208201518160010155604082015181600201556060820151816003019080519060200190613ac09291906140a2565b506080820151816004019080519060200190613add9291906140a2565b5060a0820151816005019080519060200190613afa9291906140a2565b5060c0820151816006019080519060200190613b179291906140a2565b5060e0820151816007019080519060200190613b349291906140a2565b50610100820151816008019080519060200190613b529291906140a2565b50905050600160028390806001815401808255809150509060018203906000526020600020016000909192909190916101000a81548173ffffffffffffffffffffffffffffffffffffffff021916908373ffffffffffffffffffffffffffffffffffffffff16021790555050508692505050613d92565b6002841415613d8d57613bda61412c565b868160000181905250858160200181815250508481604001818152505080600660003373ffffffffffffffffffffffffffffffffffffffff1673ffffffffffffffffffffffffffffffffffffffff1681526020019081526020016000206000820151816000019080519060200190613c53929190614022565b5060208201518160010155604082015181600201556060820151816003019080519060200190613c849291906140a2565b506080820151816004019080519060200190613ca19291906140a2565b5060a0820151816005019080519060200190613cbe9291906140a2565b5060c0820151816006019080519060200190613cdb9291906140a2565b5060e0820151816007019080519060200190613cf89291906140a2565b50610100820151816008019080519060200190613d169291906140a2565b50905050600160038390806001815401808255809150509060018203906000526020600020016000909192909190916101000a81548173ffffffffffffffffffffffffffffffffffffffff021916908373ffffffffffffffffffffffffffffffffffffffff16021790555050508692505050613d92565b600080fd5b949350505050565b60008060009050600080905060008090505b8580549050811015613e39578473ffffffffffffffffffffffffffffffffffffffff168682815481101515613ddd57fe5b9060005260206000200160009054906101000a900473ffffffffffffffffffffffffffffffffffffffff1673ffffffffffffffffffffffffffffffffffffffff161415613e2c57600192508091505b8080600101915050613dac565b50811515613e4657600080fd5b600185805490501415613e93578481815481101515613e6157fe5b9060005260206000200160006101000a81549073ffffffffffffffffffffffffffffffffffffffff0219169055613f6c565b846001868054905003815481101515613ea857fe5b9060005260206000200160009054906101000a900473ffffffffffffffffffffffffffffffffffffffff168582815481101515613ee157fe5b9060005260206000200160006101000a81548173ffffffffffffffffffffffffffffffffffffffff021916908373ffffffffffffffffffffffffffffffffffffffff160217905550846001868054905003815481101515613f3e57fe5b9060005260206000200160006101000a81549073ffffffffffffffffffffffffffffffffffffffff02191690555b84805480919060019003613f809190614179565b50505092915050565b80600460008473ffffffffffffffffffffffffffffffffffffffff1673ffffffffffffffffffffffffffffffffffffffff1681526020019081526020016000206004019080519060200190613fdf9291906141a5565b505050565b60e060405190810160405280606081526020016000815260200160608152602001606081526020016060815260200160608152602001606081525090565b828054600181600116156101000203166002900490600052602060002090601f016020900481019282601f1061406357805160ff1916838001178555614091565b82800160010185558215614091579182015b82811115614090578251825591602001919060010190614075565b5b50905061409e9190614225565b5090565b82805482825590600052602060002090810192821561411b579160200282015b8281111561411a5782518260006101000a81548173ffffffffffffffffffffffffffffffffffffffff021916908373ffffffffffffffffffffffffffffffffffffffff160217905550916020019190600101906140c2565b5b509050614128919061424a565b5090565b610120604051908101604052806060815260200160008152602001600081526020016060815260200160608152602001606081526020016060815260200160608152602001606081525090565b8154818355818111156141a05781836000526020600020918201910161419f9190614225565b5b505050565b828054600181600116156101000203166002900490600052602060002090601f016020900481019282601f106141e657805160ff1916838001178555614214565b82800160010185558215614214579182015b828111156142135782518255916020019190600101906141f8565b5b5090506142219190614225565b5090565b61424791905b8082111561424357600081600090555060010161422b565b5090565b90565b61428a91905b8082111561428657600081816101000a81549073ffffffffffffffffffffffffffffffffffffffff021916905550600101614250565b5090565b9056fea165627a7a72305820c007b28030bc471388073112e72166272b253246018befc16480766c87d502280029",
  "source": "pragma solidity ^0.5.1;\r\n\r\ncontract Medishield {\r\n    \r\n    struct patient {\r\n        string name;\r\n        uint number;\r\n        address[] healthcareAccessList;\r\n        string diagnosis; // uint[]\r\n        string record;\r\n        address[] healthcareRequestList;\r\n        // string[] listMedicine;\r\n        address[] doctorSigns;   \r\n    }\r\n    \r\n    struct healthcare {\r\n        string name;\r\n        uint number;\r\n        uint designation;\r\n        address[] patientAccessList; // view\r\n        address[] queuDoctorSign; // sign\r\n        address[] queuePatient; // patients\r\n        address[] queuePatientGetMedicine; // hospital\r\n        address[] doctorAccessList; // hospital\r\n        address[] accessJob; // doctor\r\n    }\r\n\r\n    struct medicine{\r\n        // string typeDisease; // loai benh\r\n        // uint quantity;      // S lng\r\n        string[] listMedicine;\r\n        address[] doctor;             // chu ky\r\n    }\r\n\r\n    uint creditPool;\r\n    address[] public patientList;\r\n    address[] public healthcareList;\r\n    // new \r\n    address[] public hospitalList;\r\n    //\r\n\r\n    mapping (address => patient) patientInfo;\r\n    mapping (address => healthcare) healthcareInfo;\r\n    //new\r\n    mapping (address => healthcare) hospitalInfo;\r\n    // mapping (address => medicine) medicineInfo;\r\n    //mapping (address => records) writeRecord;\r\n    //\r\n    mapping (address => address) Empty;\r\n    mapping (address => string) patientRecords;\r\n    \r\n\r\n    function add_agent(string memory _name, uint _number, uint _designation, string memory _hash) public returns(string memory){\r\n        address addr = msg.sender;\r\n        if(_designation == 0){\r\n            patient memory p;\r\n            p.name = _name;\r\n            p.number = _number;\r\n            p.record = _hash;\r\n            // Records memory a;\r\n            // p.records = a;\r\n            // medicine memory a;\r\n            // a.typeDisease = \"\";\r\n            // a.quantity = 0;\r\n            // medicineInfo[msg.sender] = a;\r\n            patientInfo[msg.sender] = p;\r\n            patientList.push(addr)-1;\r\n            return _name;\r\n        }\r\n       else if (_designation == 1){\r\n            healthcare memory d;\r\n            d.name = _name;\r\n            d.number = _number;\r\n            d.designation = _designation;\r\n            //d.medincines = _hash;\r\n            healthcareInfo[msg.sender] = d;\r\n            healthcareList.push(addr)-1;\r\n            return _name;\r\n       }\r\n       else if (_designation == 2){\r\n            healthcare memory d;\r\n            d.name = _name;\r\n            d.number = _number;\r\n            d.designation = _designation;\r\n            //d.medincines = _hash;\r\n            hospitalInfo[msg.sender] = d;\r\n            hospitalList.push(addr)-1;\r\n            return _name;\r\n       }\r\n       else{\r\n           revert();\r\n       }\r\n    }\r\n\r\n    function get_patient(address addr) view public returns (string memory , uint, string memory , address, string memory, address){\r\n        // if(keccak256(patientInfo[addr].name) == keccak256(\"\"))revert();\r\n        return (patientInfo[addr].name, patientInfo[addr].number, patientInfo[addr].diagnosis, Empty[addr], patientInfo[addr].record, Empty[addr]);\r\n    }\r\n\r\n    function get_healthcare(address addr) view public returns (string memory , uint, uint256){\r\n        return (healthcareInfo[addr].name, healthcareInfo[addr].number, healthcareInfo[addr].designation);\r\n    }\r\n    function get_hospital(address addr) view public returns (string memory , uint, uint256){\r\n        return (hospitalInfo[addr].name, hospitalInfo[addr].number, hospitalInfo[addr].designation);\r\n    }\r\n    function get_patient_healthcare_name(address paddr, address daddr) view public returns (string memory , string memory ){\r\n        return (patientInfo[paddr].name,healthcareInfo[daddr].name);\r\n    }\r\n\r\n    function permit_access(address addr) payable public {\r\n        require(msg.value == 2 ether);\r\n        creditPool += 2;\r\n        healthcareInfo[addr].patientAccessList.push(msg.sender)-1;\r\n        patientInfo[msg.sender].healthcareAccessList.push(addr)-1;\r\n    }\r\n    function doctor_permit_access(address addr) payable public {\r\n        require(msg.value == 1 ether);\r\n        creditPool += 2;\r\n        patientInfo[addr].healthcareRequestList.push(msg.sender)-1;\r\n    }\r\n    // new\r\n    function create_an_appointment(address addr) payable public {\r\n        require(msg.value == 2 ether);\r\n        creditPool += 2;\r\n        healthcareInfo[addr].queuePatient.push(msg.sender)-1;\r\n    }\r\n    function access_request_patient(address addr) payable public {\r\n        require(msg.value == 2 ether);\r\n        creditPool += 2;\r\n        healthcareInfo[msg.sender].queuDoctorSign.push(addr)-1;\r\n        creditPool -= 2;\r\n        remove_element_in_array(healthcareInfo[msg.sender].queuePatient, addr);\r\n    }\r\n    function doctor_apply(address addr) payable public {\r\n        require(msg.value == 2 ether);\r\n        creditPool += 2;\r\n        hospitalInfo[addr].doctorAccessList.push(msg.sender)-1;\r\n        healthcareInfo[msg.sender].accessJob.push(addr)-1;\r\n    }\r\n    function sign_records(address addr, string memory _hash) payable public {\r\n        require(msg.value == 2 ether);\r\n        creditPool += 2;\r\n        patientInfo[addr].doctorSigns.push(msg.sender)-1;\r\n        set_hash(addr, _hash);\r\n        // patientInfo[addr].listMedicine.push(_hash)-1;\r\n        creditPool -= 2;\r\n        remove_element_in_array(healthcareInfo[msg.sender].queuDoctorSign, addr);\r\n    }\r\n    //\r\n    function permit_access_and_remove_doctor_permit_access(address addr) payable public {\r\n        require(msg.value == 2 ether);\r\n        creditPool += 2;\r\n        healthcareInfo[addr].patientAccessList.push(msg.sender)-1;\r\n        patientInfo[msg.sender].healthcareAccessList.push(addr)-1;\r\n        creditPool -= 2;\r\n        remove_element_in_array(patientInfo[msg.sender].healthcareRequestList, addr);\r\n    }\r\n    function cancel_access(address addr) payable public {\r\n        require(msg.value == 2 ether);\r\n        creditPool -= 2;\r\n        remove_element_in_array(patientInfo[msg.sender].healthcareRequestList, addr);\r\n    }\r\n    function permit_access_and_submitfile(address addr, address paddr, string memory  _hash) payable public {\r\n        require(msg.value == 2 ether);\r\n        creditPool += 2;\r\n        healthcareInfo[addr].patientAccessList.push(msg.sender)-1;\r\n        patientInfo[msg.sender].healthcareAccessList.push(addr)-1;\r\n        submitfile(paddr,_hash);\r\n    }\r\n    // show request \r\n    //must be called by healthcare.\r\n    function submitfile(address paddr, string memory  _hash) public {\r\n        bool patientFound = false;\r\n        for(uint i = 0;i<healthcareInfo[msg.sender].patientAccessList.length;i++){\r\n            if(healthcareInfo[msg.sender].patientAccessList[i]==paddr){\r\n                msg.sender.transfer(2 ether);\r\n                creditPool -= 2;\r\n                patientFound = true;\r\n                \r\n            }\r\n            \r\n        }\r\n        if(patientFound==true){\r\n            set_hash(paddr, _hash);\r\n            remove_patient(paddr, msg.sender);\r\n        }else {\r\n            revert();\r\n        }\r\n\r\n        // bool DiagnosisFound = false;\r\n        // for(uint j = 0; j < patientInfo[paddr].diagnosis.length;j++){\r\n        //     if(patientInfo[paddr].diagnosis[j] == _diagnosis)DiagnosisFound = true;\r\n        // }\r\n    }\r\n\r\n    //new\r\n    // function submitfileHospital(address paddr, uint _diagnosis, string memory  _hash) public {\r\n    //     bool patientFound = false;\r\n    //     for(uint i = 0;i<healthcareInfo[msg.sender].patientAccessList.length;i++){\r\n    //         if(healthcareInfo[msg.sender].patientAccessList[i]==paddr){\r\n    //             msg.sender.transfer(2 ether);\r\n    //             creditPool -= 2;\r\n    //             patientFound = true;\r\n                \r\n    //         }\r\n            \r\n    //     }\r\n    //     if(patientFound==true){\r\n    //         set_medincine(paddr, _hash);\r\n    //         remove_patient(paddr, msg.sender); // fix\r\n    //     }else {\r\n    //         revert();\r\n    //     }\r\n\r\n    //     bool DiagnosisFound = false;\r\n    //     for(uint j = 0; j < patientInfo[paddr].diagnosis.length;j++){\r\n    //         if(patientInfo[paddr].diagnosis[j] == _diagnosis)DiagnosisFound = true;\r\n    //     }\r\n    // }\r\n    //\r\n\r\n    function remove_element_in_array(address[] storage Array, address addr) internal returns(uint)\r\n    {\r\n        bool check = false;\r\n        uint del_index = 0;\r\n        for(uint i = 0; i<Array.length; i++){\r\n            if(Array[i] == addr){\r\n                check = true;\r\n                del_index = i;\r\n            }\r\n        }\r\n        if(!check) revert();\r\n        else{\r\n            if(Array.length == 1){\r\n                delete Array[del_index];\r\n            }\r\n            else {\r\n                Array[del_index] = Array[Array.length - 1];\r\n                delete Array[Array.length - 1];\r\n\r\n            }\r\n            Array.length--;\r\n        }\r\n    }\r\n\r\n    function remove_patient(address paddr, address daddr) public {\r\n        remove_element_in_array(healthcareInfo[daddr].patientAccessList, paddr);\r\n        remove_element_in_array(patientInfo[paddr].healthcareAccessList, daddr);\r\n    }\r\n    \r\n    function get_accessed_healthcarelist_for_patient(address addr) public view returns (address[] memory )\r\n    { \r\n        address[] storage healthcareaddr = patientInfo[addr].healthcareAccessList;\r\n        return healthcareaddr;\r\n    }\r\n    function get_request_healthcarelist_for_patient(address addr) public view returns (address[] memory )\r\n    {\r\n        address[] storage healthcareaddr = patientInfo[addr].healthcareRequestList;\r\n        return healthcareaddr;\r\n    }\r\n    function get_accessed_patientlist_for_healthcare(address addr) public view returns (address[] memory )\r\n    {\r\n        return healthcareInfo[addr].patientAccessList;\r\n    }\r\n    // new\r\n    function get_appointment_first(address addr) public view returns (address[] memory ){\r\n        address[] storage healthcareaddr = healthcareInfo[addr].queuePatient;\r\n        return healthcareaddr;\r\n    }\r\n    function get_queue_doctor_sign_first(address addr) public view returns (address[] memory ){\r\n        address[] storage healthcareaddr = healthcareInfo[addr].queuDoctorSign;\r\n        return healthcareaddr;\r\n    }\r\n    function get_employeees_hospital(address addr) public view returns (address[] memory) {\r\n        address[] storage doctoraddr = hospitalInfo[addr].doctorAccessList;\r\n        return doctoraddr;\r\n    }\r\n    function get_job_doctor(address addr) public view returns (address[] memory) {\r\n        address[] storage doctoraddr = healthcareInfo[addr].accessJob;\r\n        return doctoraddr;\r\n    }\r\n    function resign_job_from_doctor(address addr) public {\r\n        remove_element_in_array(hospitalInfo[addr].doctorAccessList, msg.sender);\r\n        remove_element_in_array(healthcareInfo[msg.sender].accessJob, addr);\r\n    }\r\n    function quit_job_from_hospital(address addr) public {\r\n        remove_element_in_array(hospitalInfo[msg.sender].doctorAccessList, addr);\r\n        remove_element_in_array(healthcareInfo[addr].accessJob, msg.sender);\r\n    }\r\n    // function get_medicine_by_patient(address addr) public view returns (string[] memory){\r\n    //     return patientInfo[addr].listMedicine;\r\n    // }\r\n    function get_doctor_in_medicine(address  addr) public view   returns (address[] memory) {\r\n        return patientInfo[addr].doctorSigns;\r\n    }\r\n    //\r\n    function revoke_access(address daddr) public payable{\r\n        remove_patient(msg.sender,daddr);\r\n        msg.sender.transfer(2 ether);\r\n        creditPool -= 2;\r\n    }\r\n    \r\n    function get_patient_list() public view returns(address[] memory ){\r\n        return patientList;\r\n    }\r\n\r\n    function get_healthcare_list() public view returns(address[] memory ){\r\n        return healthcareList;\r\n    }\r\n\r\n    function get_hash(address paddr) public view returns(string memory ){\r\n        return patientInfo[paddr].record;\r\n    }\r\n \r\n    function set_hash(address paddr, string memory _hash) internal {\r\n        patientInfo[paddr].record = _hash;\r\n    }\r\n\r\n    //new\r\n    function get_hospital_list() public view returns (address[] memory) {\r\n        return hospitalList;\r\n    }\r\n    // function get_medincines(address addr) public view returns(string memory) {\r\n    //     return hospitalInfo[addr].medincines;\r\n    // }\r\n    // function set_medincine(address paddr, string memory _hash) public {\r\n    //     hospitalInfo[paddr].medincines = _hash;\r\n    // }\r\n    //\r\n\r\n}\r\n\r\n",
  "sourcePath": "C:\\Users\\Acer\\Desktop\\MY WORKSPASE\\DACN\\Blockchain\\Demo_09_11\\Blockchain-For-EHR-Management\\contracts\\Medishield.sol",
  "compiler": {
    "name": "solc",
    "version": "0.5.1+commit.c8a2cb62.Emscripten.clang"
  },
  "schemaVersion": "3.4.16",
  "updatedAt": "2024-12-02T07:27:42.269Z",
  "networkType": "ethereum",
  "devdoc": {
    "methods": {}
  },
  "userdoc": {
    "methods": {}
  }
}