{
  "contractName": "MedishieldStorage",
  "abi": [
    {
      "constant": true,
      "inputs": [
        {
          "name": "",
          "type": "uint256"
        }
      ],
      "name": "healthcareList",
      "outputs": [
        {
          "name": "",
          "type": "address"
        }
      ],
      "payable": false,
      "stateMutability": "view",
      "type": "function"
    },
    {
      "constant": true,
      "inputs": [
        {
          "name": "",
          "type": "uint256"
        }
      ],
      "name": "patientList",
      "outputs": [
        {
          "name": "",
          "type": "address"
        }
      ],
      "payable": false,
      "stateMutability": "view",
      "type": "function"
    },
    {
      "constant": true,
      "inputs": [
        {
          "name": "",
          "type": "uint256"
        }
      ],
      "name": "hospitalList",
      "outputs": [
        {
          "name": "",
          "type": "address"
        }
      ],
      "payable": false,
      "stateMutability": "view",
      "type": "function"
    }
  ],
  "bytecode": "0x608060405234801561001057600080fd5b506102ad806100206000396000f3fe608060405260043610610051576000357c0100000000000000000000000000000000000000000000000000000000900480633740b3c014610056578063babb1d41146100d1578063c82412b91461014c575b600080fd5b34801561006257600080fd5b5061008f6004803603602081101561007957600080fd5b81019080803590602001909291905050506101c7565b604051808273ffffffffffffffffffffffffffffffffffffffff1673ffffffffffffffffffffffffffffffffffffffff16815260200191505060405180910390f35b3480156100dd57600080fd5b5061010a600480360360208110156100f457600080fd5b8101908080359060200190929190505050610205565b604051808273ffffffffffffffffffffffffffffffffffffffff1673ffffffffffffffffffffffffffffffffffffffff16815260200191505060405180910390f35b34801561015857600080fd5b506101856004803603602081101561016f57600080fd5b8101908080359060200190929190505050610243565b604051808273ffffffffffffffffffffffffffffffffffffffff1673ffffffffffffffffffffffffffffffffffffffff16815260200191505060405180910390f35b6002818154811015156101d657fe5b906000526020600020016000915054906101000a900473ffffffffffffffffffffffffffffffffffffffff1681565b60018181548110151561021457fe5b906000526020600020016000915054906101000a900473ffffffffffffffffffffffffffffffffffffffff1681565b60038181548110151561025257fe5b906000526020600020016000915054906101000a900473ffffffffffffffffffffffffffffffffffffffff168156fea165627a7a723058200789ed3bdf9346f3644eebff40c732a10a2993479ce6b22de75eff4a3a0606f50029",
  "source": "// SPDX-License-Identifier: MIT\r\npragma solidity ^0.5.1;\r\n\r\n// Thư viện xử lý mảng\r\nlibrary ArrayUtils {\r\n    function remove_element(address[] storage Array, address addr) internal returns(uint) {\r\n        bool check = false;\r\n        uint del_index = 0;\r\n        for(uint i = 0; i < Array.length; i++){\r\n            if(Array[i] == addr){\r\n                check = true;\r\n                del_index = i;\r\n            }\r\n        }\r\n        if(!check) revert();\r\n        else{\r\n            if(Array.length == 1){\r\n                delete Array[del_index];\r\n            }\r\n            else {\r\n                Array[del_index] = Array[Array.length - 1];\r\n                delete Array[Array.length - 1];\r\n            }\r\n            Array.length--;\r\n        }\r\n    }\r\n}\r\n\r\n// Contract lưu trữ các struct và biến\r\ncontract MedishieldStorage {\r\n    struct patient {\r\n        string name;\r\n        uint number;\r\n        address[] healthcareAccessList;\r\n        string diagnosis;\r\n        string record;\r\n        address[] healthcareRequestList;\r\n        address[] doctorSigns;\r\n        address[] waitHandleRequestOrderMedicine;\r\n        address[] wasDeletedRequestOrderMedicine;\r\n        address[] successRequestOrderMedicine;\r\n        address[] waitPaymentRequestOrderMedicine;\r\n        address[] cancelPaymentRequestOrderMedicine;\r\n    }\r\n    \r\n    struct healthcare {\r\n        string name;\r\n        uint number;\r\n        uint designation;\r\n        address[] patientAccessList;\r\n        address[] queuDoctorSign;\r\n        address[] queuePatient;\r\n        address[] queuePatientGetMedicineSuccess;\r\n        address[] doctorAccessList;\r\n        address[] accessJob;\r\n        address[] patientOrderMedicineList;\r\n        string medicines;\r\n        string specialty;\r\n        string workingDays;\r\n    }\r\n\r\n    uint internal creditPool;\r\n    address[] public patientList;\r\n    address[] public healthcareList;\r\n    address[] public hospitalList;\r\n    \r\n    mapping(address => patient) internal patientInfo;\r\n    mapping(address => healthcare) internal healthcareInfo;\r\n    mapping(address => healthcare) internal hospitalInfo;\r\n    mapping(address => address) internal Empty;\r\n    mapping(address => string) internal patientRecords;\r\n}\r\n\r\n// Contract chính kế thừa storage\r\ncontract Medishield is MedishieldStorage {\r\n    using ArrayUtils for address[];\r\n\r\n    modifier requirePayment(uint amount) {\r\n        require(msg.value == amount, \"Incorrect payment amount\");\r\n        creditPool += amount;\r\n        _;\r\n    }\r\n\r\n    // Hàm thêm mới agent\r\n    function add_agent(string memory _name, uint _number, uint _designation, string memory _hash) \r\n        public returns(string memory)\r\n    {\r\n        address addr = msg.sender;\r\n        if(_designation == 0){\r\n            patient memory p;\r\n            p.name = _name;\r\n            p.number = _number;\r\n            p.record = _hash;\r\n            patientInfo[msg.sender] = p;\r\n            patientList.push(addr)-1;\r\n            return _name;\r\n        }\r\n        else if (_designation == 1){\r\n            healthcare memory d;\r\n            d.name = _name;\r\n            d.number = _number;\r\n            d.designation = _designation;\r\n            healthcareInfo[msg.sender] = d;\r\n            healthcareList.push(addr)-1;\r\n            return _name;\r\n        }\r\n        else if (_designation == 2){\r\n            healthcare memory d;\r\n            d.name = _name;\r\n            d.number = _number;\r\n            d.designation = _designation;\r\n            d.medicines = _hash;\r\n            hospitalInfo[msg.sender] = d;\r\n            hospitalList.push(addr)-1;\r\n            return _name;\r\n        }\r\n        else{\r\n            revert();\r\n        }\r\n    }\r\n\r\n    // Các hàm get info\r\n    function get_patient(address addr) public view returns (\r\n        string memory, uint, string memory, address, string memory, address\r\n    ) {\r\n        return (\r\n            patientInfo[addr].name,\r\n            patientInfo[addr].number,\r\n            patientInfo[addr].diagnosis,\r\n            Empty[addr],\r\n            patientInfo[addr].record,\r\n            Empty[addr]\r\n        );\r\n    }\r\n\r\n    function get_healthcare(address addr) public view returns (\r\n        string memory, uint, uint256\r\n    ) {\r\n        return (\r\n            healthcareInfo[addr].name,\r\n            healthcareInfo[addr].number,\r\n            healthcareInfo[addr].designation\r\n        );\r\n    }\r\n\r\n    function get_hospital(address addr) public view returns (\r\n        string memory, uint, uint256, string memory\r\n    ) {\r\n        return (\r\n            hospitalInfo[addr].name,\r\n            hospitalInfo[addr].number,\r\n            hospitalInfo[addr].designation,\r\n            hospitalInfo[addr].medicines\r\n        );\r\n    }\r\n\r\n    function get_patient_healthcare_name(address paddr, address daddr) \r\n        public view returns (string memory, string memory)\r\n    {\r\n        return (patientInfo[paddr].name, healthcareInfo[daddr].name);\r\n    }\r\n\r\n    // Các hàm access control\r\n    function permit_access(address addr) public payable requirePayment(2 ether) {\r\n        healthcareInfo[addr].patientAccessList.push(msg.sender)-1;\r\n        patientInfo[msg.sender].healthcareAccessList.push(addr)-1;\r\n    }\r\n\r\n    function doctor_permit_access(address addr) public payable requirePayment(1 ether) {\r\n        patientInfo[addr].healthcareRequestList.push(msg.sender)-1;\r\n    }\r\n\r\n    function create_an_appointment(address addr) public payable requirePayment(2 ether) {\r\n        healthcareInfo[addr].queuePatient.push(msg.sender)-1;\r\n    }\r\n    function access_request_patient(address addr) payable public {\r\n        require(msg.value == 2 ether);\r\n        creditPool += 2;\r\n        healthcareInfo[msg.sender].queuDoctorSign.push(addr)-1;\r\n        creditPool -= 2;\r\n        remove_element_in_array(healthcareInfo[msg.sender].queuePatient, addr);\r\n    }\r\n    function doctor_apply(address addr) payable public {\r\n        require(msg.value == 2 ether);\r\n        creditPool += 2;\r\n        hospitalInfo[addr].doctorAccessList.push(msg.sender)-1;\r\n        healthcareInfo[msg.sender].accessJob.push(addr)-1;\r\n    }\r\n    function sign_records(address addr, string memory _hash) payable public {\r\n        require(msg.value == 2 ether);\r\n        creditPool += 2;\r\n        patientInfo[addr].doctorSigns.push(msg.sender)-1;\r\n        set_hash(addr, _hash);\r\n        creditPool -= 2;\r\n        remove_element_in_array(healthcareInfo[msg.sender].queuDoctorSign, addr);\r\n    }\r\n    function request_ordor_medicine(address addr) payable public {\r\n        require(msg.value == 2 ether);\r\n        creditPool += 2;\r\n        hospitalInfo[addr].patientOrderMedicineList.push(msg.sender)-1;\r\n        patientInfo[msg.sender].waitHandleRequestOrderMedicine.push(addr)-1;\r\n    }\r\n    function add_store_medicine(string memory _hash) payable public {\r\n        require(msg.value == 2 ether);\r\n        creditPool += 2;\r\n        hospitalInfo[msg.sender].medicines = _hash;\r\n    }\r\n    function remove_order_request(address addr) payable public{\r\n        require(msg.value == 2 ether);\r\n        creditPool -=1;\r\n        remove_element_in_array(patientInfo[addr].waitHandleRequestOrderMedicine, msg.sender);\r\n        remove_element_in_array( hospitalInfo[msg.sender].patientOrderMedicineList, addr);\r\n        patientInfo[addr].wasDeletedRequestOrderMedicine.push(msg.sender)-1;\r\n    }\r\n    function remove_status_order_request(address addr) payable public{\r\n        require(msg.value == 2 ether);\r\n        creditPool -=1;\r\n        remove_element_in_array(patientInfo[msg.sender].wasDeletedRequestOrderMedicine, addr);\r\n    }\r\n    function choice_specialty(string memory _name) payable public {\r\n        require(msg.value == 2 ether);\r\n        creditPool += 1;\r\n        healthcareInfo[msg.sender].specialty = _name;\r\n    }\r\n    function set_working_days(string memory _hash) payable public {\r\n        //require(healthcareInfo[msg.sender].designation == 1, \"Not a doctor account.\");\r\n        healthcareInfo[msg.sender].workingDays = _hash;\r\n    }\r\n    //\r\n    function permit_access_and_remove_doctor_permit_access(address addr) payable public {\r\n        require(msg.value == 2 ether);\r\n        creditPool += 2;\r\n        healthcareInfo[addr].patientAccessList.push(msg.sender)-1;\r\n        patientInfo[msg.sender].healthcareAccessList.push(addr)-1;\r\n        creditPool -= 2;\r\n        remove_element_in_array(patientInfo[msg.sender].healthcareRequestList, addr);\r\n    }\r\n    function cancel_access(address addr) payable public {\r\n        require(msg.value == 2 ether);\r\n        creditPool -= 2;\r\n        remove_element_in_array(patientInfo[msg.sender].healthcareRequestList, addr);\r\n    }\r\n    function permit_access_and_submitfile(address addr, address paddr, string memory  _hash) payable public {\r\n        require(msg.value == 2 ether);\r\n        creditPool += 2;\r\n        healthcareInfo[addr].patientAccessList.push(msg.sender)-1;\r\n        patientInfo[msg.sender].healthcareAccessList.push(addr)-1;\r\n        submitfile(paddr,_hash);\r\n    }\r\n    // show request \r\n    //must be called by healthcare.\r\n    function submitfile(address paddr, string memory  _hash) public {\r\n        bool patientFound = false;\r\n        for(uint i = 0;i<healthcareInfo[msg.sender].patientAccessList.length;i++){\r\n            if(healthcareInfo[msg.sender].patientAccessList[i]==paddr){\r\n                msg.sender.transfer(2 ether);\r\n                creditPool -= 2;\r\n                patientFound = true;\r\n            }\r\n        }\r\n        if(patientFound==true){\r\n            set_hash(paddr, _hash);\r\n            remove_patient(paddr, msg.sender);\r\n        }else {\r\n            revert();\r\n        }\r\n    }\r\n    function remove_element_in_array(address[] storage Array, address addr) internal returns(uint)\r\n    {\r\n        bool check = false;\r\n        uint del_index = 0;\r\n        for(uint i = 0; i<Array.length; i++){\r\n            if(Array[i] == addr){\r\n                check = true;\r\n                del_index = i;\r\n            }\r\n        }\r\n        if(!check) revert();\r\n        else{\r\n            if(Array.length == 1){\r\n                delete Array[del_index];\r\n            }\r\n            else {\r\n                Array[del_index] = Array[Array.length - 1];\r\n                delete Array[Array.length - 1];\r\n\r\n            }\r\n            Array.length--;\r\n        }\r\n    }\r\n\r\n    function remove_patient(address paddr, address daddr) public {\r\n        remove_element_in_array(healthcareInfo[daddr].patientAccessList, paddr);\r\n        remove_element_in_array(patientInfo[paddr].healthcareAccessList, daddr);\r\n    }\r\n    \r\n    function get_accessed_healthcarelist_for_patient(address addr) public view returns (address[] memory )\r\n    { \r\n        address[] storage healthcareaddr = patientInfo[addr].healthcareAccessList;\r\n        return healthcareaddr;\r\n    }\r\n    function get_request_healthcarelist_for_patient(address addr) public view returns (address[] memory )\r\n    {\r\n        address[] storage healthcareaddr = patientInfo[addr].healthcareRequestList;\r\n        return healthcareaddr;\r\n    }\r\n    function get_accessed_patientlist_for_healthcare(address addr) public view returns (address[] memory )\r\n    {\r\n        return healthcareInfo[addr].patientAccessList;\r\n    }\r\n    // new\r\n    function get_appointment_first(address addr) public view returns (address[] memory ){\r\n        address[] storage healthcareaddr = healthcareInfo[addr].queuePatient;\r\n        return healthcareaddr;\r\n    }\r\n    function get_queue_doctor_sign_first(address addr) public view returns (address[] memory ){\r\n        address[] storage healthcareaddr = healthcareInfo[addr].queuDoctorSign;\r\n        return healthcareaddr;\r\n    }\r\n    function get_employeees_hospital(address addr) public view returns (address[] memory) {\r\n        address[] storage doctoraddr = hospitalInfo[addr].doctorAccessList;\r\n        return doctoraddr;\r\n    }\r\n    function get_job_doctor(address addr) public view returns (address[] memory) {\r\n        address[] storage doctoraddr = healthcareInfo[addr].accessJob;\r\n        return doctoraddr;\r\n    }\r\n    function resign_job_from_doctor(address addr) public {\r\n        remove_element_in_array(hospitalInfo[addr].doctorAccessList, msg.sender);\r\n        remove_element_in_array(healthcareInfo[msg.sender].accessJob, addr);\r\n    }\r\n    function quit_job_from_hospital(address addr) public {\r\n        remove_element_in_array(hospitalInfo[msg.sender].doctorAccessList, addr);\r\n        remove_element_in_array(healthcareInfo[addr].accessJob, msg.sender);\r\n    }\r\n    function get_doctor_in_medicine(address addr) public view  returns (address[] memory) {\r\n        return patientInfo[addr].doctorSigns;\r\n    }\r\n    function get_patient_order_medicine(address addr) public view returns(address[] memory) {\r\n        address[] storage patientAddr =  hospitalInfo[addr].patientOrderMedicineList;\r\n        return patientAddr;\r\n    }\r\n    function get_wait_handle_request_order_medicine(address addr) public view returns(address[] memory) {\r\n        address[] storage hospitalAddr =  patientInfo[addr].waitHandleRequestOrderMedicine;\r\n        return hospitalAddr;\r\n    }\r\n    function get_wait_payment_request_order_medicine(address addr) public view returns(address[] memory) {\r\n        address[] storage hospitalAddr =  patientInfo[addr].waitPaymentRequestOrderMedicine;\r\n        return hospitalAddr;\r\n    }\r\n    function get_was_deleted_request_order_medicine(address addr) public view returns(address[] memory) {\r\n        address[] storage hospitalAddr =  patientInfo[addr].wasDeletedRequestOrderMedicine;\r\n        return hospitalAddr;\r\n    }\r\n    function get_success_request_order_medicine(address addr) public view returns(address[] memory) {\r\n        address[] storage hospitalAddr =  patientInfo[addr].successRequestOrderMedicine;\r\n        return hospitalAddr;\r\n    }\r\n    function get_specialty_healthcare(address addr) public view returns(string memory) {\r\n        return healthcareInfo[addr].specialty;\r\n    }\r\n \r\n    function get_working_days(address addr) public view  returns (string memory) {\r\n         return healthcareInfo[addr].workingDays;\r\n    }\r\n    //\r\n    function revoke_access(address daddr) public payable{\r\n        remove_patient(msg.sender,daddr);\r\n        msg.sender.transfer(2 ether);\r\n        creditPool -= 2;\r\n    }\r\n    \r\n    function get_patient_list() public view returns(address[] memory ){\r\n        return patientList;\r\n    }\r\n\r\n    function get_healthcare_list() public view returns(address[] memory ){\r\n        return healthcareList;\r\n    }\r\n   \r\n    function get_hash(address paddr) public view returns(string memory) {\r\n        return patientInfo[paddr].record;\r\n    }\r\n\r\n    function set_hash(address paddr, string memory _hash) internal {\r\n        patientInfo[paddr].record = _hash;\r\n    }\r\n    function get_hospital_list() public view returns (address[] memory) {\r\n        return hospitalList;\r\n    }\r\n    function contains(string memory _base, string memory _value) internal pure returns (bool) {\r\n        bytes memory baseBytes = bytes(_base);\r\n        bytes memory valueBytes = bytes(_value);\r\n\r\n        if (valueBytes.length == 0 || valueBytes.length > baseBytes.length) {\r\n            return false;\r\n        }\r\n\r\n        for (uint i = 0; i <= baseBytes.length - valueBytes.length; i++) {\r\n            bool matchFound = true;\r\n            for (uint j = 0; j < valueBytes.length; j++) {\r\n                if (baseBytes[i + j] != valueBytes[j]) {\r\n                    matchFound = false;\r\n                    break;\r\n                }\r\n            }\r\n            if (matchFound) {\r\n                return true;\r\n            }\r\n        }\r\n        return false;\r\n    }\r\n}",
  "sourcePath": "C:\\Users\\duy dat\\Desktop\\DA_CN\\Blockchain-For-EHR-Management\\contracts\\Medishield.sol",
  "compiler": {
    "name": "solc",
    "version": "0.5.1+commit.c8a2cb62.Emscripten.clang"
  },
  "schemaVersion": "3.4.16",
  "updatedAt": "2024-12-19T16:43:52.563Z",
  "devdoc": {
    "methods": {}
  },
  "userdoc": {
    "methods": {}
  }
}