{
  "contractName": "Medishield",
  "abi": [
    {
      "constant": true,
      "inputs": [
        {
          "name": "",
          "type": "uint256"
        }
      ],
      "name": "healthcareList",
      "outputs": [
        {
          "name": "",
          "type": "address"
        }
      ],
      "payable": false,
      "stateMutability": "view",
      "type": "function"
    },
    {
      "constant": true,
      "inputs": [
        {
          "name": "",
          "type": "uint256"
        }
      ],
      "name": "patientList",
      "outputs": [
        {
          "name": "",
          "type": "address"
        }
      ],
      "payable": false,
      "stateMutability": "view",
      "type": "function"
    },
    {
      "constant": true,
      "inputs": [
        {
          "name": "",
          "type": "uint256"
        }
      ],
      "name": "hospitalList",
      "outputs": [
        {
          "name": "",
          "type": "address"
        }
      ],
      "payable": false,
      "stateMutability": "view",
      "type": "function"
    },
    {
      "constant": false,
      "inputs": [
        {
          "name": "_name",
          "type": "string"
        },
        {
          "name": "_number",
          "type": "uint256"
        },
        {
          "name": "_designation",
          "type": "uint256"
        },
        {
          "name": "_hash",
          "type": "string"
        }
      ],
      "name": "add_agent",
      "outputs": [
        {
          "name": "",
          "type": "string"
        }
      ],
      "payable": false,
      "stateMutability": "nonpayable",
      "type": "function"
    },
    {
      "constant": true,
      "inputs": [
        {
          "name": "addr",
          "type": "address"
        }
      ],
      "name": "get_patient",
      "outputs": [
        {
          "name": "",
          "type": "string"
        },
        {
          "name": "",
          "type": "uint256"
        },
        {
          "name": "",
          "type": "string"
        },
        {
          "name": "",
          "type": "address"
        },
        {
          "name": "",
          "type": "string"
        },
        {
          "name": "",
          "type": "address"
        }
      ],
      "payable": false,
      "stateMutability": "view",
      "type": "function"
    },
    {
      "constant": true,
      "inputs": [
        {
          "name": "addr",
          "type": "address"
        }
      ],
      "name": "get_healthcare",
      "outputs": [
        {
          "name": "",
          "type": "string"
        },
        {
          "name": "",
          "type": "uint256"
        },
        {
          "name": "",
          "type": "uint256"
        }
      ],
      "payable": false,
      "stateMutability": "view",
      "type": "function"
    },
    {
      "constant": true,
      "inputs": [
        {
          "name": "addr",
          "type": "address"
        }
      ],
      "name": "get_hospital",
      "outputs": [
        {
          "name": "",
          "type": "string"
        },
        {
          "name": "",
          "type": "uint256"
        },
        {
          "name": "",
          "type": "uint256"
        },
        {
          "name": "",
          "type": "string"
        }
      ],
      "payable": false,
      "stateMutability": "view",
      "type": "function"
    },
    {
      "constant": true,
      "inputs": [
        {
          "name": "paddr",
          "type": "address"
        },
        {
          "name": "daddr",
          "type": "address"
        }
      ],
      "name": "get_patient_healthcare_name",
      "outputs": [
        {
          "name": "",
          "type": "string"
        },
        {
          "name": "",
          "type": "string"
        }
      ],
      "payable": false,
      "stateMutability": "view",
      "type": "function"
    },
    {
      "constant": false,
      "inputs": [
        {
          "name": "addr",
          "type": "address"
        }
      ],
      "name": "permit_access",
      "outputs": [],
      "payable": true,
      "stateMutability": "payable",
      "type": "function"
    },
    {
      "constant": false,
      "inputs": [
        {
          "name": "addr",
          "type": "address"
        }
      ],
      "name": "doctor_permit_access",
      "outputs": [],
      "payable": true,
      "stateMutability": "payable",
      "type": "function"
    },
    {
      "constant": false,
      "inputs": [
        {
          "name": "addr",
          "type": "address"
        }
      ],
      "name": "create_an_appointment",
      "outputs": [],
      "payable": true,
      "stateMutability": "payable",
      "type": "function"
    },
    {
      "constant": false,
      "inputs": [
        {
          "name": "addr",
          "type": "address"
        }
      ],
      "name": "access_request_patient",
      "outputs": [],
      "payable": true,
      "stateMutability": "payable",
      "type": "function"
    },
    {
      "constant": false,
      "inputs": [
        {
          "name": "addr",
          "type": "address"
        }
      ],
      "name": "doctor_apply",
      "outputs": [],
      "payable": true,
      "stateMutability": "payable",
      "type": "function"
    },
    {
      "constant": false,
      "inputs": [
        {
          "name": "addr",
          "type": "address"
        },
        {
          "name": "_hash",
          "type": "string"
        }
      ],
      "name": "sign_records",
      "outputs": [],
      "payable": true,
      "stateMutability": "payable",
      "type": "function"
    },
    {
      "constant": false,
      "inputs": [
        {
          "name": "addr",
          "type": "address"
        }
      ],
      "name": "request_ordor_medicine",
      "outputs": [],
      "payable": true,
      "stateMutability": "payable",
      "type": "function"
    },
    {
      "constant": false,
      "inputs": [
        {
          "name": "_hash",
          "type": "string"
        }
      ],
      "name": "add_store_medicine",
      "outputs": [],
      "payable": true,
      "stateMutability": "payable",
      "type": "function"
    },
    {
      "constant": false,
      "inputs": [
        {
          "name": "addr",
          "type": "address"
        }
      ],
      "name": "permit_access_and_remove_doctor_permit_access",
      "outputs": [],
      "payable": true,
      "stateMutability": "payable",
      "type": "function"
    },
    {
      "constant": false,
      "inputs": [
        {
          "name": "addr",
          "type": "address"
        }
      ],
      "name": "cancel_access",
      "outputs": [],
      "payable": true,
      "stateMutability": "payable",
      "type": "function"
    },
    {
      "constant": false,
      "inputs": [
        {
          "name": "addr",
          "type": "address"
        },
        {
          "name": "paddr",
          "type": "address"
        },
        {
          "name": "_hash",
          "type": "string"
        }
      ],
      "name": "permit_access_and_submitfile",
      "outputs": [],
      "payable": true,
      "stateMutability": "payable",
      "type": "function"
    },
    {
      "constant": false,
      "inputs": [
        {
          "name": "paddr",
          "type": "address"
        },
        {
          "name": "_hash",
          "type": "string"
        }
      ],
      "name": "submitfile",
      "outputs": [],
      "payable": false,
      "stateMutability": "nonpayable",
      "type": "function"
    },
    {
      "constant": false,
      "inputs": [
        {
          "name": "paddr",
          "type": "address"
        },
        {
          "name": "daddr",
          "type": "address"
        }
      ],
      "name": "remove_patient",
      "outputs": [],
      "payable": false,
      "stateMutability": "nonpayable",
      "type": "function"
    },
    {
      "constant": true,
      "inputs": [
        {
          "name": "addr",
          "type": "address"
        }
      ],
      "name": "get_accessed_healthcarelist_for_patient",
      "outputs": [
        {
          "name": "",
          "type": "address[]"
        }
      ],
      "payable": false,
      "stateMutability": "view",
      "type": "function"
    },
    {
      "constant": true,
      "inputs": [
        {
          "name": "addr",
          "type": "address"
        }
      ],
      "name": "get_request_healthcarelist_for_patient",
      "outputs": [
        {
          "name": "",
          "type": "address[]"
        }
      ],
      "payable": false,
      "stateMutability": "view",
      "type": "function"
    },
    {
      "constant": true,
      "inputs": [
        {
          "name": "addr",
          "type": "address"
        }
      ],
      "name": "get_accessed_patientlist_for_healthcare",
      "outputs": [
        {
          "name": "",
          "type": "address[]"
        }
      ],
      "payable": false,
      "stateMutability": "view",
      "type": "function"
    },
    {
      "constant": true,
      "inputs": [
        {
          "name": "addr",
          "type": "address"
        }
      ],
      "name": "get_appointment_first",
      "outputs": [
        {
          "name": "",
          "type": "address[]"
        }
      ],
      "payable": false,
      "stateMutability": "view",
      "type": "function"
    },
    {
      "constant": true,
      "inputs": [
        {
          "name": "addr",
          "type": "address"
        }
      ],
      "name": "get_queue_doctor_sign_first",
      "outputs": [
        {
          "name": "",
          "type": "address[]"
        }
      ],
      "payable": false,
      "stateMutability": "view",
      "type": "function"
    },
    {
      "constant": true,
      "inputs": [
        {
          "name": "addr",
          "type": "address"
        }
      ],
      "name": "get_employeees_hospital",
      "outputs": [
        {
          "name": "",
          "type": "address[]"
        }
      ],
      "payable": false,
      "stateMutability": "view",
      "type": "function"
    },
    {
      "constant": true,
      "inputs": [
        {
          "name": "addr",
          "type": "address"
        }
      ],
      "name": "get_job_doctor",
      "outputs": [
        {
          "name": "",
          "type": "address[]"
        }
      ],
      "payable": false,
      "stateMutability": "view",
      "type": "function"
    },
    {
      "constant": false,
      "inputs": [
        {
          "name": "addr",
          "type": "address"
        }
      ],
      "name": "resign_job_from_doctor",
      "outputs": [],
      "payable": false,
      "stateMutability": "nonpayable",
      "type": "function"
    },
    {
      "constant": false,
      "inputs": [
        {
          "name": "addr",
          "type": "address"
        }
      ],
      "name": "quit_job_from_hospital",
      "outputs": [],
      "payable": false,
      "stateMutability": "nonpayable",
      "type": "function"
    },
    {
      "constant": true,
      "inputs": [
        {
          "name": "addr",
          "type": "address"
        }
      ],
      "name": "get_doctor_in_medicine",
      "outputs": [
        {
          "name": "",
          "type": "address[]"
        }
      ],
      "payable": false,
      "stateMutability": "view",
      "type": "function"
    },
    {
      "constant": false,
      "inputs": [
        {
          "name": "daddr",
          "type": "address"
        }
      ],
      "name": "revoke_access",
      "outputs": [],
      "payable": true,
      "stateMutability": "payable",
      "type": "function"
    },
    {
      "constant": true,
      "inputs": [],
      "name": "get_patient_list",
      "outputs": [
        {
          "name": "",
          "type": "address[]"
        }
      ],
      "payable": false,
      "stateMutability": "view",
      "type": "function"
    },
    {
      "constant": true,
      "inputs": [],
      "name": "get_healthcare_list",
      "outputs": [
        {
          "name": "",
          "type": "address[]"
        }
      ],
      "payable": false,
      "stateMutability": "view",
      "type": "function"
    },
    {
      "constant": true,
      "inputs": [
        {
          "name": "paddr",
          "type": "address"
        }
      ],
      "name": "get_hash",
      "outputs": [
        {
          "name": "",
          "type": "string"
        }
      ],
      "payable": false,
      "stateMutability": "view",
      "type": "function"
    },
    {
      "constant": true,
      "inputs": [],
      "name": "get_hospital_list",
      "outputs": [
        {
          "name": "",
          "type": "address[]"
        }
      ],
      "payable": false,
      "stateMutability": "view",
      "type": "function"
    }
  ],
  "bytecode": "0x608060405234801561001057600080fd5b5061483b806100206000396000f3fe6080604052600436106101bb576000357c0100000000000000000000000000000000000000000000000000000000900480622fd866146101c05780630362fe9b146102665780630abcb6a0146102d7578063239a75ff146103bf57806326e161bc1461046557806327b1dcee1461050b5780632a866eee1461054f5780632a8d8b9c1461062a57806333cdfdba146106965780633740b3c0146106da5780633ba6c550146107555780633e429f8f146107a65780634042d2d41461084c5780634b0ca58514610a5b57806350cbd8ae14610a9f57806352fc89c214610b4557806358db888e14610bb15780635a2f284414610cf55780637e1519ce14610db057806388a53fcd14610e7a578063890fa83b14610ebe5780639f55c37b14610f0f578063a87648a014610fb5578063b3d94bd0146110b0578063b462b31f14611156578063babb1d411461119a578063bcffb7ca14611215578063bdf633df14611259578063c196a15f1461129d578063c82412b9146112e1578063cb37190e1461135c578063cf9c186f146114b2578063d6763c7f146114f6578063e7322c701461159c578063e81ac05414611674578063f02d90a4146116e0575b600080fd5b3480156101cc57600080fd5b5061020f600480360360208110156101e357600080fd5b81019080803573ffffffffffffffffffffffffffffffffffffffff1690602001909291905050506118cc565b6040518080602001828103825283818151815260200191508051906020019060200280838360005b83811015610252578082015181840152602081019050610237565b505050509050019250505060405180910390f35b34801561027257600080fd5b506102d56004803603604081101561028957600080fd5b81019080803573ffffffffffffffffffffffffffffffffffffffff169060200190929190803573ffffffffffffffffffffffffffffffffffffffff1690602001909291905050506119a2565b005b3480156102e357600080fd5b506103bd600480360360408110156102fa57600080fd5b81019080803573ffffffffffffffffffffffffffffffffffffffff1690602001909291908035906020019064010000000081111561033757600080fd5b82018360208201111561034957600080fd5b8035906020019184600183028401116401000000008311171561036b57600080fd5b91908080601f016020809104026020016040519081016040528093929190818152602001838380828437600081840152601f19601f820116905080830192505050505050509192919290505050611a3e565b005b3480156103cb57600080fd5b5061040e600480360360208110156103e257600080fd5b81019080803573ffffffffffffffffffffffffffffffffffffffff169060200190929190505050611be5565b6040518080602001828103825283818151815260200191508051906020019060200280838360005b83811015610451578082015181840152602081019050610436565b505050509050019250505060405180910390f35b34801561047157600080fd5b506104b46004803603602081101561048857600080fd5b81019080803573ffffffffffffffffffffffffffffffffffffffff169060200190929190505050611cb5565b6040518080602001828103825283818151815260200191508051906020019060200280838360005b838110156104f75780820151818401526020810190506104dc565b505050509050019250505060405180910390f35b61054d6004803603602081101561052157600080fd5b81019080803573ffffffffffffffffffffffffffffffffffffffff169060200190929190505050611d8b565b005b6106286004803603604081101561056557600080fd5b81019080803573ffffffffffffffffffffffffffffffffffffffff169060200190929190803590602001906401000000008111156105a257600080fd5b8201836020820111156105b457600080fd5b803590602001918460018302840111640100000000831117156105d657600080fd5b91908080601f016020809104026020016040519081016040528093929190818152602001838380828437600081840152601f19601f820116905080830192505050505050509192919290505050611df7565b005b34801561063657600080fd5b5061063f611f30565b6040518080602001828103825283818151815260200191508051906020019060200280838360005b83811015610682578082015181840152602081019050610667565b505050509050019250505060405180910390f35b6106d8600480360360208110156106ac57600080fd5b81019080803573ffffffffffffffffffffffffffffffffffffffff169060200190929190505050611fbe565b005b3480156106e657600080fd5b50610713600480360360208110156106fd57600080fd5b8101908080359060200190929190505050612139565b604051808273ffffffffffffffffffffffffffffffffffffffff1673ffffffffffffffffffffffffffffffffffffffff16815260200191505060405180910390f35b34801561076157600080fd5b506107a46004803603602081101561077857600080fd5b81019080803573ffffffffffffffffffffffffffffffffffffffff169060200190929190505050612177565b005b3480156107b257600080fd5b506107f5600480360360208110156107c957600080fd5b81019080803573ffffffffffffffffffffffffffffffffffffffff169060200190929190505050612212565b6040518080602001828103825283818151815260200191508051906020019060200280838360005b8381101561083857808201518184015260208101905061081d565b505050509050019250505060405180910390f35b34801561085857600080fd5b5061089b6004803603602081101561086f57600080fd5b81019080803573ffffffffffffffffffffffffffffffffffffffff1690602001909291905050506122e8565b6040518080602001878152602001806020018673ffffffffffffffffffffffffffffffffffffffff1673ffffffffffffffffffffffffffffffffffffffff168152602001806020018573ffffffffffffffffffffffffffffffffffffffff1673ffffffffffffffffffffffffffffffffffffffff16815260200184810384528a818151815260200191508051906020019080838360005b8381101561094d578082015181840152602081019050610932565b50505050905090810190601f16801561097a5780820380516001836020036101000a031916815260200191505b50848103835288818151815260200191508051906020019080838360005b838110156109b3578082015181840152602081019050610998565b50505050905090810190601f1680156109e05780820380516001836020036101000a031916815260200191505b50848103825286818151815260200191508051906020019080838360005b83811015610a195780820151818401526020810190506109fe565b50505050905090810190601f168015610a465780820380516001836020036101000a031916815260200191505b50995050505050505050505060405180910390f35b610a9d60048036036020811015610a7157600080fd5b81019080803573ffffffffffffffffffffffffffffffffffffffff1690602001909291905050506126a6565b005b348015610aab57600080fd5b50610aee60048036036020811015610ac257600080fd5b81019080803573ffffffffffffffffffffffffffffffffffffffff169060200190929190505050612778565b6040518080602001828103825283818151815260200191508051906020019060200280838360005b83811015610b31578082015181840152602081019050610b16565b505050509050019250505060405180910390f35b348015610b5157600080fd5b50610b5a612848565b6040518080602001828103825283818151815260200191508051906020019060200280838360005b83811015610b9d578082015181840152602081019050610b82565b505050509050019250505060405180910390f35b348015610bbd57600080fd5b50610c0060048036036020811015610bd457600080fd5b81019080803573ffffffffffffffffffffffffffffffffffffffff1690602001909291905050506128d6565b604051808060200185815260200184815260200180602001838103835287818151815260200191508051906020019080838360005b83811015610c50578082015181840152602081019050610c35565b50505050905090810190601f168015610c7d5780820380516001836020036101000a031916815260200191505b50838103825284818151815260200191508051906020019080838360005b83811015610cb6578082015181840152602081019050610c9b565b50505050905090810190601f168015610ce35780820380516001836020036101000a031916815260200191505b50965050505050505060405180910390f35b610dae60048036036020811015610d0b57600080fd5b8101908080359060200190640100000000811115610d2857600080fd5b820183602082011115610d3a57600080fd5b80359060200191846001830284011164010000000083111715610d5c57600080fd5b91908080601f016020809104026020016040519081016040528093929190818152602001838380828437600081840152601f19601f820116905080830192505050505050509192919290505050612b2e565b005b348015610dbc57600080fd5b50610dff60048036036020811015610dd357600080fd5b81019080803573ffffffffffffffffffffffffffffffffffffffff169060200190929190505050612bae565b6040518080602001828103825283818151815260200191508051906020019080838360005b83811015610e3f578082015181840152602081019050610e24565b50505050905090810190601f168015610e6c5780820380516001836020036101000a031916815260200191505b509250505060405180910390f35b610ebc60048036036020811015610e9057600080fd5b81019080803573ffffffffffffffffffffffffffffffffffffffff169060200190929190505050612c92565b005b348015610eca57600080fd5b50610f0d60048036036020811015610ee157600080fd5b81019080803573ffffffffffffffffffffffffffffffffffffffff169060200190929190505050612d64565b005b348015610f1b57600080fd5b50610f5e60048036036020811015610f3257600080fd5b81019080803573ffffffffffffffffffffffffffffffffffffffff169060200190929190505050612dff565b6040518080602001828103825283818151815260200191508051906020019060200280838360005b83811015610fa1578082015181840152602081019050610f86565b505050509050019250505060405180910390f35b6110ae60048036036060811015610fcb57600080fd5b81019080803573ffffffffffffffffffffffffffffffffffffffff169060200190929190803573ffffffffffffffffffffffffffffffffffffffff1690602001909291908035906020019064010000000081111561102857600080fd5b82018360208201111561103a57600080fd5b8035906020019184600183028401116401000000008311171561105c57600080fd5b91908080601f016020809104026020016040519081016040528093929190818152602001838380828437600081840152601f19601f820116905080830192505050505050509192919290505050612ed5565b005b3480156110bc57600080fd5b506110ff600480360360208110156110d357600080fd5b81019080803573ffffffffffffffffffffffffffffffffffffffff16906020019092919050505061305c565b6040518080602001828103825283818151815260200191508051906020019060200280838360005b83811015611142578082015181840152602081019050611127565b505050509050019250505060405180910390f35b6111986004803603602081101561116c57600080fd5b81019080803573ffffffffffffffffffffffffffffffffffffffff169060200190929190505050613132565b005b3480156111a657600080fd5b506111d3600480360360208110156111bd57600080fd5b8101908080359060200190929190505050613260565b604051808273ffffffffffffffffffffffffffffffffffffffff1673ffffffffffffffffffffffffffffffffffffffff16815260200191505060405180910390f35b6112576004803603602081101561122b57600080fd5b81019080803573ffffffffffffffffffffffffffffffffffffffff16906020019092919050505061329e565b005b61129b6004803603602081101561126f57600080fd5b81019080803573ffffffffffffffffffffffffffffffffffffffff169060200190929190505050613419565b005b6112df600480360360208110156112b357600080fd5b81019080803573ffffffffffffffffffffffffffffffffffffffff169060200190929190505050613594565b005b3480156112ed57600080fd5b5061131a6004803603602081101561130457600080fd5b8101908080359060200190929190505050613609565b604051808273ffffffffffffffffffffffffffffffffffffffff1673ffffffffffffffffffffffffffffffffffffffff16815260200191505060405180910390f35b34801561136857600080fd5b506113cb6004803603604081101561137f57600080fd5b81019080803573ffffffffffffffffffffffffffffffffffffffff169060200190929190803573ffffffffffffffffffffffffffffffffffffffff169060200190929190505050613647565b604051808060200180602001838103835285818151815260200191508051906020019080838360005b8381101561140f5780820151818401526020810190506113f4565b50505050905090810190601f16801561143c5780820380516001836020036101000a031916815260200191505b50838103825284818151815260200191508051906020019080838360005b8381101561147557808201518184015260208101905061145a565b50505050905090810190601f1680156114a25780820380516001836020036101000a031916815260200191505b5094505050505060405180910390f35b6114f4600480360360208110156114c857600080fd5b81019080803573ffffffffffffffffffffffffffffffffffffffff169060200190929190505050613811565b005b34801561150257600080fd5b506115456004803603602081101561151957600080fd5b81019080803573ffffffffffffffffffffffffffffffffffffffff1690602001909291905050506139e8565b6040518080602001828103825283818151815260200191508051906020019060200280838360005b8381101561158857808201518184015260208101905061156d565b505050509050019250505060405180910390f35b3480156115a857600080fd5b506115eb600480360360208110156115bf57600080fd5b81019080803573ffffffffffffffffffffffffffffffffffffffff169060200190929190505050613abe565b6040518080602001848152602001838152602001828103825285818151815260200191508051906020019080838360005b8381101561163757808201518184015260208101905061161c565b50505050905090810190601f1680156116645780820380516001836020036101000a031916815260200191505b5094505050505060405180910390f35b34801561168057600080fd5b50611689613c34565b6040518080602001828103825283818151815260200191508051906020019060200280838360005b838110156116cc5780820151818401526020810190506116b1565b505050509050019250505060405180910390f35b3480156116ec57600080fd5b506118516004803603608081101561170357600080fd5b810190808035906020019064010000000081111561172057600080fd5b82018360208201111561173257600080fd5b8035906020019184600183028401116401000000008311171561175457600080fd5b91908080601f016020809104026020016040519081016040528093929190818152602001838380828437600081840152601f19601f8201169050808301925050505050505091929192908035906020019092919080359060200190929190803590602001906401000000008111156117cb57600080fd5b8201836020820111156117dd57600080fd5b803590602001918460018302840111640100000000831117156117ff57600080fd5b91908080601f016020809104026020016040519081016040528093929190818152602001838380828437600081840152601f19601f820116905080830192505050505050509192919290505050613cc2565b6040518080602001828103825283818151815260200191508051906020019080838360005b83811015611891578082015181840152602081019050611876565b50505050905090810190601f1680156118be5780820380516001836020036101000a031916815260200191505b509250505060405180910390f35b60606000600660008473ffffffffffffffffffffffffffffffffffffffff1673ffffffffffffffffffffffffffffffffffffffff16815260200190815260200160002060070190508080548060200260200160405190810160405280929190818152602001828054801561199557602002820191906000526020600020905b8160009054906101000a900473ffffffffffffffffffffffffffffffffffffffff1673ffffffffffffffffffffffffffffffffffffffff168152602001906001019080831161194b575b5050505050915050919050565b6119ed600560008373ffffffffffffffffffffffffffffffffffffffff1673ffffffffffffffffffffffffffffffffffffffff168152602001908152602001600020600301836142f1565b50611a39600460008473ffffffffffffffffffffffffffffffffffffffff1673ffffffffffffffffffffffffffffffffffffffff168152602001908152602001600020600201826142f1565b505050565b600080905060008090505b600560003373ffffffffffffffffffffffffffffffffffffffff1673ffffffffffffffffffffffffffffffffffffffff16815260200190815260200160002060030180549050811015611bb4578373ffffffffffffffffffffffffffffffffffffffff16600560003373ffffffffffffffffffffffffffffffffffffffff1673ffffffffffffffffffffffffffffffffffffffff16815260200190815260200160002060030182815481101515611afc57fe5b9060005260206000200160009054906101000a900473ffffffffffffffffffffffffffffffffffffffff1673ffffffffffffffffffffffffffffffffffffffff161415611ba7573373ffffffffffffffffffffffffffffffffffffffff166108fc671bc16d674ec800009081150290604051600060405180830381858888f19350505050158015611b91573d6000803e3d6000fd5b5060026000808282540392505081905550600191505b8080600101915050611a49565b50600115158115151415611bdb57611bcc83836144e0565b611bd683336119a2565b611be0565b600080fd5b505050565b6060600560008373ffffffffffffffffffffffffffffffffffffffff1673ffffffffffffffffffffffffffffffffffffffff168152602001908152602001600020600301805480602002602001604051908101604052809291908181526020018280548015611ca957602002820191906000526020600020905b8160009054906101000a900473ffffffffffffffffffffffffffffffffffffffff1673ffffffffffffffffffffffffffffffffffffffff1681526020019060010190808311611c5f575b50505050509050919050565b60606000600560008473ffffffffffffffffffffffffffffffffffffffff1673ffffffffffffffffffffffffffffffffffffffff168152602001908152602001600020600801905080805480602002602001604051908101604052809291908181526020018280548015611d7e57602002820191906000526020600020905b8160009054906101000a900473ffffffffffffffffffffffffffffffffffffffff1673ffffffffffffffffffffffffffffffffffffffff1681526020019060010190808311611d34575b5050505050915050919050565b611d9533826119a2565b3373ffffffffffffffffffffffffffffffffffffffff166108fc671bc16d674ec800009081150290604051600060405180830381858888f19350505050158015611de3573d6000803e3d6000fd5b506002600080828254039250508190555050565b671bc16d674ec8000034141515611e0d57600080fd5b600260008082825401925050819055506001600460008473ffffffffffffffffffffffffffffffffffffffff1673ffffffffffffffffffffffffffffffffffffffff1681526020019081526020016000206006013390806001815401808255809150509060018203906000526020600020016000909192909190916101000a81548173ffffffffffffffffffffffffffffffffffffffff021916908373ffffffffffffffffffffffffffffffffffffffff1602179055505050611ed082826144e0565b60026000808282540392505081905550611f2b600560003373ffffffffffffffffffffffffffffffffffffffff1673ffffffffffffffffffffffffffffffffffffffff168152602001908152602001600020600401836142f1565b505050565b60606003805480602002602001604051908101604052809291908181526020018280548015611fb457602002820191906000526020600020905b8160009054906101000a900473ffffffffffffffffffffffffffffffffffffffff1673ffffffffffffffffffffffffffffffffffffffff1681526020019060010190808311611f6a575b5050505050905090565b671bc16d674ec8000034141515611fd457600080fd5b600260008082825401925050819055506001600660008373ffffffffffffffffffffffffffffffffffffffff1673ffffffffffffffffffffffffffffffffffffffff1681526020019081526020016000206007013390806001815401808255809150509060018203906000526020600020016000909192909190916101000a81548173ffffffffffffffffffffffffffffffffffffffff021916908373ffffffffffffffffffffffffffffffffffffffff16021790555050506001600560003373ffffffffffffffffffffffffffffffffffffffff1673ffffffffffffffffffffffffffffffffffffffff1681526020019081526020016000206008018290806001815401808255809150509060018203906000526020600020016000909192909190916101000a81548173ffffffffffffffffffffffffffffffffffffffff021916908373ffffffffffffffffffffffffffffffffffffffff160217905550505050565b60028181548110151561214857fe5b906000526020600020016000915054906101000a900473ffffffffffffffffffffffffffffffffffffffff1681565b6121c2600660003373ffffffffffffffffffffffffffffffffffffffff1673ffffffffffffffffffffffffffffffffffffffff168152602001908152602001600020600701826142f1565b5061220e600560008373ffffffffffffffffffffffffffffffffffffffff1673ffffffffffffffffffffffffffffffffffffffff168152602001908152602001600020600801336142f1565b5050565b60606000600560008473ffffffffffffffffffffffffffffffffffffffff1673ffffffffffffffffffffffffffffffffffffffff1681526020019081526020016000206005019050808054806020026020016040519081016040528092919081815260200182805480156122db57602002820191906000526020600020905b8160009054906101000a900473ffffffffffffffffffffffffffffffffffffffff1673ffffffffffffffffffffffffffffffffffffffff1681526020019060010190808311612291575b5050505050915050919050565b606060006060600060606000600460008873ffffffffffffffffffffffffffffffffffffffff1673ffffffffffffffffffffffffffffffffffffffff168152602001908152602001600020600001600460008973ffffffffffffffffffffffffffffffffffffffff1673ffffffffffffffffffffffffffffffffffffffff16815260200190815260200160002060010154600460008a73ffffffffffffffffffffffffffffffffffffffff1673ffffffffffffffffffffffffffffffffffffffff168152602001908152602001600020600301600760008b73ffffffffffffffffffffffffffffffffffffffff1673ffffffffffffffffffffffffffffffffffffffff16815260200190815260200160002060009054906101000a900473ffffffffffffffffffffffffffffffffffffffff16600460008c73ffffffffffffffffffffffffffffffffffffffff1673ffffffffffffffffffffffffffffffffffffffff168152602001908152602001600020600401600760008d73ffffffffffffffffffffffffffffffffffffffff1673ffffffffffffffffffffffffffffffffffffffff16815260200190815260200160002060009054906101000a900473ffffffffffffffffffffffffffffffffffffffff16858054600181600116156101000203166002900480601f0160208091040260200160405190810160405280929190818152602001828054600181600116156101000203166002900480156125525780601f1061252757610100808354040283529160200191612552565b820191906000526020600020905b81548152906001019060200180831161253557829003601f168201915b50505050509550838054600181600116156101000203166002900480601f0160208091040260200160405190810160405280929190818152602001828054600181600116156101000203166002900480156125ee5780601f106125c3576101008083540402835291602001916125ee565b820191906000526020600020905b8154815290600101906020018083116125d157829003601f168201915b50505050509350818054600181600116156101000203166002900480601f01602080910402602001604051908101604052809291908181526020018280546001816001161561010002031660029004801561268a5780601f1061265f5761010080835404028352916020019161268a565b820191906000526020600020905b81548152906001019060200180831161266d57829003601f168201915b5050505050915095509550955095509550955091939550919395565b670de0b6b3a7640000341415156126bc57600080fd5b600260008082825401925050819055506001600460008373ffffffffffffffffffffffffffffffffffffffff1673ffffffffffffffffffffffffffffffffffffffff1681526020019081526020016000206005013390806001815401808255809150509060018203906000526020600020016000909192909190916101000a81548173ffffffffffffffffffffffffffffffffffffffff021916908373ffffffffffffffffffffffffffffffffffffffff160217905550505050565b6060600460008373ffffffffffffffffffffffffffffffffffffffff1673ffffffffffffffffffffffffffffffffffffffff16815260200190815260200160002060060180548060200260200160405190810160405280929190818152602001828054801561283c57602002820191906000526020600020905b8160009054906101000a900473ffffffffffffffffffffffffffffffffffffffff1673ffffffffffffffffffffffffffffffffffffffff16815260200190600101908083116127f2575b50505050509050919050565b606060028054806020026020016040519081016040528092919081815260200182805480156128cc57602002820191906000526020600020905b8160009054906101000a900473ffffffffffffffffffffffffffffffffffffffff1673ffffffffffffffffffffffffffffffffffffffff1681526020019060010190808311612882575b5050505050905090565b60606000806060600660008673ffffffffffffffffffffffffffffffffffffffff1673ffffffffffffffffffffffffffffffffffffffff168152602001908152602001600020600001600660008773ffffffffffffffffffffffffffffffffffffffff1673ffffffffffffffffffffffffffffffffffffffff16815260200190815260200160002060010154600660008873ffffffffffffffffffffffffffffffffffffffff1673ffffffffffffffffffffffffffffffffffffffff16815260200190815260200160002060020154600660008973ffffffffffffffffffffffffffffffffffffffff1673ffffffffffffffffffffffffffffffffffffffff168152602001908152602001600020600a01838054600181600116156101000203166002900480601f016020809104026020016040519081016040528092919081815260200182805460018160011615610100020316600290048015612a7c5780601f10612a5157610100808354040283529160200191612a7c565b820191906000526020600020905b815481529060010190602001808311612a5f57829003601f168201915b50505050509350808054600181600116156101000203166002900480601f016020809104026020016040519081016040528092919081815260200182805460018160011615610100020316600290048015612b185780601f10612aed57610100808354040283529160200191612b18565b820191906000526020600020905b815481529060010190602001808311612afb57829003601f168201915b5050505050905093509350935093509193509193565b671bc16d674ec8000034141515612b4457600080fd5b6002600080828254019250508190555080600660003373ffffffffffffffffffffffffffffffffffffffff1673ffffffffffffffffffffffffffffffffffffffff168152602001908152602001600020600a019080519060200190612baa92919061453b565b5050565b6060600460008373ffffffffffffffffffffffffffffffffffffffff1673ffffffffffffffffffffffffffffffffffffffff1681526020019081526020016000206004018054600181600116156101000203166002900480601f016020809104026020016040519081016040528092919081815260200182805460018160011615610100020316600290048015612c865780601f10612c5b57610100808354040283529160200191612c86565b820191906000526020600020905b815481529060010190602001808311612c6957829003601f168201915b50505050509050919050565b671bc16d674ec8000034141515612ca857600080fd5b600260008082825401925050819055506001600560008373ffffffffffffffffffffffffffffffffffffffff1673ffffffffffffffffffffffffffffffffffffffff1681526020019081526020016000206005013390806001815401808255809150509060018203906000526020600020016000909192909190916101000a81548173ffffffffffffffffffffffffffffffffffffffff021916908373ffffffffffffffffffffffffffffffffffffffff160217905550505050565b612daf600660008373ffffffffffffffffffffffffffffffffffffffff1673ffffffffffffffffffffffffffffffffffffffff168152602001908152602001600020600701336142f1565b50612dfb600560003373ffffffffffffffffffffffffffffffffffffffff1673ffffffffffffffffffffffffffffffffffffffff168152602001908152602001600020600801826142f1565b5050565b60606000600460008473ffffffffffffffffffffffffffffffffffffffff1673ffffffffffffffffffffffffffffffffffffffff168152602001908152602001600020600201905080805480602002602001604051908101604052809291908181526020018280548015612ec857602002820191906000526020600020905b8160009054906101000a900473ffffffffffffffffffffffffffffffffffffffff1673ffffffffffffffffffffffffffffffffffffffff1681526020019060010190808311612e7e575b5050505050915050919050565b671bc16d674ec8000034141515612eeb57600080fd5b600260008082825401925050819055506001600560008573ffffffffffffffffffffffffffffffffffffffff1673ffffffffffffffffffffffffffffffffffffffff1681526020019081526020016000206003013390806001815401808255809150509060018203906000526020600020016000909192909190916101000a81548173ffffffffffffffffffffffffffffffffffffffff021916908373ffffffffffffffffffffffffffffffffffffffff16021790555050506001600460003373ffffffffffffffffffffffffffffffffffffffff1673ffffffffffffffffffffffffffffffffffffffff1681526020019081526020016000206002018490806001815401808255809150509060018203906000526020600020016000909192909190916101000a81548173ffffffffffffffffffffffffffffffffffffffff021916908373ffffffffffffffffffffffffffffffffffffffff16021790555050506130578282611a3e565b505050565b60606000600560008473ffffffffffffffffffffffffffffffffffffffff1673ffffffffffffffffffffffffffffffffffffffff16815260200190815260200160002060040190508080548060200260200160405190810160405280929190818152602001828054801561312557602002820191906000526020600020905b8160009054906101000a900473ffffffffffffffffffffffffffffffffffffffff1673ffffffffffffffffffffffffffffffffffffffff16815260200190600101908083116130db575b5050505050915050919050565b671bc16d674ec800003414151561314857600080fd5b600260008082825401925050819055506001600560003373ffffffffffffffffffffffffffffffffffffffff1673ffffffffffffffffffffffffffffffffffffffff1681526020019081526020016000206004018290806001815401808255809150509060018203906000526020600020016000909192909190916101000a81548173ffffffffffffffffffffffffffffffffffffffff021916908373ffffffffffffffffffffffffffffffffffffffff16021790555050506002600080828254039250508190555061325c600560003373ffffffffffffffffffffffffffffffffffffffff1673ffffffffffffffffffffffffffffffffffffffff168152602001908152602001600020600501826142f1565b5050565b60018181548110151561326f57fe5b906000526020600020016000915054906101000a900473ffffffffffffffffffffffffffffffffffffffff1681565b671bc16d674ec80000341415156132b457600080fd5b600260008082825401925050819055506001600560008373ffffffffffffffffffffffffffffffffffffffff1673ffffffffffffffffffffffffffffffffffffffff1681526020019081526020016000206003013390806001815401808255809150509060018203906000526020600020016000909192909190916101000a81548173ffffffffffffffffffffffffffffffffffffffff021916908373ffffffffffffffffffffffffffffffffffffffff16021790555050506001600460003373ffffffffffffffffffffffffffffffffffffffff1673ffffffffffffffffffffffffffffffffffffffff1681526020019081526020016000206002018290806001815401808255809150509060018203906000526020600020016000909192909190916101000a81548173ffffffffffffffffffffffffffffffffffffffff021916908373ffffffffffffffffffffffffffffffffffffffff160217905550505050565b671bc16d674ec800003414151561342f57600080fd5b600260008082825401925050819055506001600660008373ffffffffffffffffffffffffffffffffffffffff1673ffffffffffffffffffffffffffffffffffffffff1681526020019081526020016000206009013390806001815401808255809150509060018203906000526020600020016000909192909190916101000a81548173ffffffffffffffffffffffffffffffffffffffff021916908373ffffffffffffffffffffffffffffffffffffffff16021790555050506001600460003373ffffffffffffffffffffffffffffffffffffffff1673ffffffffffffffffffffffffffffffffffffffff1681526020019081526020016000206007018290806001815401808255809150509060018203906000526020600020016000909192909190916101000a81548173ffffffffffffffffffffffffffffffffffffffff021916908373ffffffffffffffffffffffffffffffffffffffff160217905550505050565b671bc16d674ec80000341415156135aa57600080fd5b60026000808282540392505081905550613605600460003373ffffffffffffffffffffffffffffffffffffffff1673ffffffffffffffffffffffffffffffffffffffff168152602001908152602001600020600501826142f1565b5050565b60038181548110151561361857fe5b906000526020600020016000915054906101000a900473ffffffffffffffffffffffffffffffffffffffff1681565b606080600460008573ffffffffffffffffffffffffffffffffffffffff1673ffffffffffffffffffffffffffffffffffffffff168152602001908152602001600020600001600560008573ffffffffffffffffffffffffffffffffffffffff1673ffffffffffffffffffffffffffffffffffffffff168152602001908152602001600020600001818054600181600116156101000203166002900480601f0160208091040260200160405190810160405280929190818152602001828054600181600116156101000203166002900480156137635780601f1061373857610100808354040283529160200191613763565b820191906000526020600020905b81548152906001019060200180831161374657829003601f168201915b50505050509150808054600181600116156101000203166002900480601f0160208091040260200160405190810160405280929190818152602001828054600181600116156101000203166002900480156137ff5780601f106137d4576101008083540402835291602001916137ff565b820191906000526020600020905b8154815290600101906020018083116137e257829003601f168201915b50505050509050915091509250929050565b671bc16d674ec800003414151561382757600080fd5b600260008082825401925050819055506001600560008373ffffffffffffffffffffffffffffffffffffffff1673ffffffffffffffffffffffffffffffffffffffff1681526020019081526020016000206003013390806001815401808255809150509060018203906000526020600020016000909192909190916101000a81548173ffffffffffffffffffffffffffffffffffffffff021916908373ffffffffffffffffffffffffffffffffffffffff16021790555050506001600460003373ffffffffffffffffffffffffffffffffffffffff1673ffffffffffffffffffffffffffffffffffffffff1681526020019081526020016000206002018290806001815401808255809150509060018203906000526020600020016000909192909190916101000a81548173ffffffffffffffffffffffffffffffffffffffff021916908373ffffffffffffffffffffffffffffffffffffffff1602179055505050600260008082825403925050819055506139e4600460003373ffffffffffffffffffffffffffffffffffffffff1673ffffffffffffffffffffffffffffffffffffffff168152602001908152602001600020600501826142f1565b5050565b60606000600460008473ffffffffffffffffffffffffffffffffffffffff1673ffffffffffffffffffffffffffffffffffffffff168152602001908152602001600020600501905080805480602002602001604051908101604052809291908181526020018280548015613ab157602002820191906000526020600020905b8160009054906101000a900473ffffffffffffffffffffffffffffffffffffffff1673ffffffffffffffffffffffffffffffffffffffff1681526020019060010190808311613a67575b5050505050915050919050565b6060600080600560008573ffffffffffffffffffffffffffffffffffffffff1673ffffffffffffffffffffffffffffffffffffffff168152602001908152602001600020600001600560008673ffffffffffffffffffffffffffffffffffffffff1673ffffffffffffffffffffffffffffffffffffffff16815260200190815260200160002060010154600560008773ffffffffffffffffffffffffffffffffffffffff1673ffffffffffffffffffffffffffffffffffffffff16815260200190815260200160002060020154828054600181600116156101000203166002900480601f016020809104026020016040519081016040528092919081815260200182805460018160011615610100020316600290048015613c205780601f10613bf557610100808354040283529160200191613c20565b820191906000526020600020905b815481529060010190602001808311613c0357829003601f168201915b505050505092509250925092509193909250565b60606001805480602002602001604051908101604052809291908181526020018280548015613cb857602002820191906000526020600020905b8160009054906101000a900473ffffffffffffffffffffffffffffffffffffffff1673ffffffffffffffffffffffffffffffffffffffff1681526020019060010190808311613c6e575b5050505050905090565b606060003390506000841415613eda57613cda6145bb565b8681600001819052508581602001818152505083816080018190525080600460003373ffffffffffffffffffffffffffffffffffffffff1673ffffffffffffffffffffffffffffffffffffffff1681526020019081526020016000206000820151816000019080519060200190613d52929190614616565b50602082015181600101556040820151816002019080519060200190613d79929190614696565b506060820151816003019080519060200190613d96929190614616565b506080820151816004019080519060200190613db3929190614616565b5060a0820151816005019080519060200190613dd0929190614696565b5060c0820151816006019080519060200190613ded929190614696565b5060e0820151816007019080519060200190613e0a929190614696565b50610100820151816008019080519060200190613e28929190614696565b50610120820151816009019080519060200190613e46929190614696565b5061014082015181600a019080519060200190613e64929190614696565b509050506001808390806001815401808255809150509060018203906000526020600020016000909192909190916101000a81548173ffffffffffffffffffffffffffffffffffffffff021916908373ffffffffffffffffffffffffffffffffffffffff160217905550505086925050506142e9565b60018414156140da57613eeb614720565b868160000181905250858160200181815250508481604001818152505080600560003373ffffffffffffffffffffffffffffffffffffffff1673ffffffffffffffffffffffffffffffffffffffff1681526020019081526020016000206000820151816000019080519060200190613f64929190614616565b5060208201518160010155604082015181600201556060820151816003019080519060200190613f95929190614696565b506080820151816004019080519060200190613fb2929190614696565b5060a0820151816005019080519060200190613fcf929190614696565b5060c0820151816006019080519060200190613fec929190614696565b5060e0820151816007019080519060200190614009929190614696565b50610100820151816008019080519060200190614027929190614696565b50610120820151816009019080519060200190614045929190614696565b5061014082015181600a019080519060200190614063929190614616565b50905050600160028390806001815401808255809150509060018203906000526020600020016000909192909190916101000a81548173ffffffffffffffffffffffffffffffffffffffff021916908373ffffffffffffffffffffffffffffffffffffffff160217905550505086925050506142e9565b60028414156142e4576140eb614720565b86816000018190525085816020018181525050848160400181815250508381610140018190525080600660003373ffffffffffffffffffffffffffffffffffffffff1673ffffffffffffffffffffffffffffffffffffffff168152602001908152602001600020600082015181600001908051906020019061416e929190614616565b506020820151816001015560408201518160020155606082015181600301908051906020019061419f929190614696565b5060808201518160040190805190602001906141bc929190614696565b5060a08201518160050190805190602001906141d9929190614696565b5060c08201518160060190805190602001906141f6929190614696565b5060e0820151816007019080519060200190614213929190614696565b50610100820151816008019080519060200190614231929190614696565b5061012082015181600901908051906020019061424f929190614696565b5061014082015181600a01908051906020019061426d929190614616565b50905050600160038390806001815401808255809150509060018203906000526020600020016000909192909190916101000a81548173ffffffffffffffffffffffffffffffffffffffff021916908373ffffffffffffffffffffffffffffffffffffffff160217905550505086925050506142e9565b600080fd5b949350505050565b60008060009050600080905060008090505b8580549050811015614390578473ffffffffffffffffffffffffffffffffffffffff16868281548110151561433457fe5b9060005260206000200160009054906101000a900473ffffffffffffffffffffffffffffffffffffffff1673ffffffffffffffffffffffffffffffffffffffff16141561438357600192508091505b8080600101915050614303565b5081151561439d57600080fd5b6001858054905014156143ea5784818154811015156143b857fe5b9060005260206000200160006101000a81549073ffffffffffffffffffffffffffffffffffffffff02191690556144c3565b8460018680549050038154811015156143ff57fe5b9060005260206000200160009054906101000a900473ffffffffffffffffffffffffffffffffffffffff16858281548110151561443857fe5b9060005260206000200160006101000a81548173ffffffffffffffffffffffffffffffffffffffff021916908373ffffffffffffffffffffffffffffffffffffffff16021790555084600186805490500381548110151561449557fe5b9060005260206000200160006101000a81549073ffffffffffffffffffffffffffffffffffffffff02191690555b848054809190600190036144d7919061477b565b50505092915050565b80600460008473ffffffffffffffffffffffffffffffffffffffff1673ffffffffffffffffffffffffffffffffffffffff168152602001908152602001600020600401908051906020019061453692919061453b565b505050565b828054600181600116156101000203166002900490600052602060002090601f016020900481019282601f1061457c57805160ff19168380011785556145aa565b828001600101855582156145aa579182015b828111156145a957825182559160200191906001019061458e565b5b5090506145b791906147a7565b5090565b6101606040519081016040528060608152602001600081526020016060815260200160608152602001606081526020016060815260200160608152602001606081526020016060815260200160608152602001606081525090565b828054600181600116156101000203166002900490600052602060002090601f016020900481019282601f1061465757805160ff1916838001178555614685565b82800160010185558215614685579182015b82811115614684578251825591602001919060010190614669565b5b50905061469291906147a7565b5090565b82805482825590600052602060002090810192821561470f579160200282015b8281111561470e5782518260006101000a81548173ffffffffffffffffffffffffffffffffffffffff021916908373ffffffffffffffffffffffffffffffffffffffff160217905550916020019190600101906146b6565b5b50905061471c91906147cc565b5090565b6101606040519081016040528060608152602001600081526020016000815260200160608152602001606081526020016060815260200160608152602001606081526020016060815260200160608152602001606081525090565b8154818355818111156147a2578183600052602060002091820191016147a191906147a7565b5b505050565b6147c991905b808211156147c55760008160009055506001016147ad565b5090565b90565b61480c91905b8082111561480857600081816101000a81549073ffffffffffffffffffffffffffffffffffffffff0219169055506001016147d2565b5090565b9056fea165627a7a7230582054baa6c795cc5b6035e147db023dde02e16d5cb6cd588a69cdd2ec36107e3b880029",
  "source": "pragma solidity ^0.5.1;\r\n\r\ncontract Medishield {\r\n    \r\n    struct patient {\r\n        string name;\r\n        uint number;\r\n        address[] healthcareAccessList;\r\n        string diagnosis; // uint[]\r\n        string record;\r\n        address[] healthcareRequestList;\r\n        // string[] listMedicine;\r\n        address[] doctorSigns;\r\n        // request order medicine\r\n        address[] waitHandleRequestOrderMedicine; // 1\r\n        address[] wasDeletedRequestOrderMedicine;  // -1\r\n        address[] successRequestOrderMedicine; // 3\r\n        address[] waitPaymentRequestOrderMedicine; // 2\r\n    }\r\n    \r\n    struct healthcare {\r\n        string name;\r\n        uint number;\r\n        uint designation;\r\n        address[] patientAccessList; // view\r\n        address[] queuDoctorSign; // sign\r\n        address[] queuePatient; // patients\r\n        address[] queuePatientGetMedicine; // hospital\r\n        address[] doctorAccessList; // hospital\r\n        address[] accessJob; // doctor\r\n        address[] patientOrderMedicineList; //  hospital\r\n        string medicines; // hospital\r\n    }\r\n\r\n    uint creditPool;\r\n    address[] public patientList;\r\n    address[] public healthcareList;\r\n    // new \r\n    address[] public hospitalList;\r\n    //\r\n\r\n    mapping (address => patient) patientInfo;\r\n    mapping (address => healthcare) healthcareInfo;\r\n    //new\r\n    mapping (address => healthcare) hospitalInfo;\r\n    //\r\n    mapping (address => address) Empty;\r\n    mapping (address => string) patientRecords;\r\n    \r\n\r\n    function add_agent(string memory _name, uint _number, uint _designation, string memory _hash) public returns(string memory){\r\n        address addr = msg.sender;\r\n        if(_designation == 0){\r\n            patient memory p;\r\n            p.name = _name;\r\n            p.number = _number;\r\n            p.record = _hash;\r\n            patientInfo[msg.sender] = p;\r\n            patientList.push(addr)-1;\r\n            return _name;\r\n        }\r\n       else if (_designation == 1){\r\n            healthcare memory d;\r\n            d.name = _name;\r\n            d.number = _number;\r\n            d.designation = _designation;\r\n            //d.medincines = _hash;\r\n            healthcareInfo[msg.sender] = d;\r\n            healthcareList.push(addr)-1;\r\n            return _name;\r\n       }\r\n       else if (_designation == 2){\r\n            healthcare memory d;\r\n            d.name = _name;\r\n            d.number = _number;\r\n            d.designation = _designation;\r\n            d.medicines = _hash;\r\n            hospitalInfo[msg.sender] = d;\r\n            hospitalList.push(addr)-1;\r\n            return _name;\r\n       }\r\n       else{\r\n           revert();\r\n       }\r\n    }\r\n\r\n    function get_patient(address addr) view public returns (string memory , uint, string memory , address, string memory, address){\r\n        // if(keccak256(patientInfo[addr].name) == keccak256(\"\"))revert();\r\n        return (patientInfo[addr].name, patientInfo[addr].number, patientInfo[addr].diagnosis, Empty[addr], patientInfo[addr].record, Empty[addr]);\r\n    }\r\n\r\n    function get_healthcare(address addr) view public returns (string memory , uint, uint256){\r\n        return (healthcareInfo[addr].name, healthcareInfo[addr].number, healthcareInfo[addr].designation);\r\n    }\r\n    function get_hospital(address addr) view public returns (string memory , uint, uint256, string memory){\r\n        return (hospitalInfo[addr].name, hospitalInfo[addr].number, hospitalInfo[addr].designation, hospitalInfo[addr].medicines);\r\n    }\r\n    function get_patient_healthcare_name(address paddr, address daddr) view public returns (string memory , string memory ){\r\n        return (patientInfo[paddr].name,healthcareInfo[daddr].name);\r\n    }\r\n\r\n    function permit_access(address addr) payable public {\r\n        require(msg.value == 2 ether);\r\n        creditPool += 2;\r\n        healthcareInfo[addr].patientAccessList.push(msg.sender)-1;\r\n        patientInfo[msg.sender].healthcareAccessList.push(addr)-1;\r\n    }\r\n    function doctor_permit_access(address addr) payable public {\r\n        require(msg.value == 1 ether);\r\n        creditPool += 2;\r\n        patientInfo[addr].healthcareRequestList.push(msg.sender)-1;\r\n    }\r\n    // new\r\n    function create_an_appointment(address addr) payable public {\r\n        require(msg.value == 2 ether);\r\n        creditPool += 2;\r\n        healthcareInfo[addr].queuePatient.push(msg.sender)-1;\r\n    }\r\n    function access_request_patient(address addr) payable public {\r\n        require(msg.value == 2 ether);\r\n        creditPool += 2;\r\n        healthcareInfo[msg.sender].queuDoctorSign.push(addr)-1;\r\n        creditPool -= 2;\r\n        remove_element_in_array(healthcareInfo[msg.sender].queuePatient, addr);\r\n    }\r\n    function doctor_apply(address addr) payable public {\r\n        require(msg.value == 2 ether);\r\n        creditPool += 2;\r\n        hospitalInfo[addr].doctorAccessList.push(msg.sender)-1;\r\n        healthcareInfo[msg.sender].accessJob.push(addr)-1;\r\n    }\r\n    function sign_records(address addr, string memory _hash) payable public {\r\n        require(msg.value == 2 ether);\r\n        creditPool += 2;\r\n        patientInfo[addr].doctorSigns.push(msg.sender)-1;\r\n        set_hash(addr, _hash);\r\n        creditPool -= 2;\r\n        remove_element_in_array(healthcareInfo[msg.sender].queuDoctorSign, addr);\r\n    }\r\n    function request_ordor_medicine(address addr) payable public {\r\n        require(msg.value == 2 ether);\r\n        creditPool += 2;\r\n        hospitalInfo[addr].patientOrderMedicineList.push(msg.sender)-1;\r\n        patientInfo[msg.sender].waitHandleRequestOrderMedicine.push(addr)-1;\r\n    }\r\n    function add_store_medicine(string memory _hash) payable public {\r\n        require(msg.value == 2 ether);\r\n        creditPool += 2;\r\n        hospitalInfo[msg.sender].medicines = _hash;\r\n    }\r\n    //\r\n    function permit_access_and_remove_doctor_permit_access(address addr) payable public {\r\n        require(msg.value == 2 ether);\r\n        creditPool += 2;\r\n        healthcareInfo[addr].patientAccessList.push(msg.sender)-1;\r\n        patientInfo[msg.sender].healthcareAccessList.push(addr)-1;\r\n        creditPool -= 2;\r\n        remove_element_in_array(patientInfo[msg.sender].healthcareRequestList, addr);\r\n    }\r\n    function cancel_access(address addr) payable public {\r\n        require(msg.value == 2 ether);\r\n        creditPool -= 2;\r\n        remove_element_in_array(patientInfo[msg.sender].healthcareRequestList, addr);\r\n    }\r\n    function permit_access_and_submitfile(address addr, address paddr, string memory  _hash) payable public {\r\n        require(msg.value == 2 ether);\r\n        creditPool += 2;\r\n        healthcareInfo[addr].patientAccessList.push(msg.sender)-1;\r\n        patientInfo[msg.sender].healthcareAccessList.push(addr)-1;\r\n        submitfile(paddr,_hash);\r\n    }\r\n    // show request \r\n    //must be called by healthcare.\r\n    function submitfile(address paddr, string memory  _hash) public {\r\n        bool patientFound = false;\r\n        for(uint i = 0;i<healthcareInfo[msg.sender].patientAccessList.length;i++){\r\n            if(healthcareInfo[msg.sender].patientAccessList[i]==paddr){\r\n                msg.sender.transfer(2 ether);\r\n                creditPool -= 2;\r\n                patientFound = true;\r\n                \r\n            }\r\n            \r\n        }\r\n        if(patientFound==true){\r\n            set_hash(paddr, _hash);\r\n            remove_patient(paddr, msg.sender);\r\n        }else {\r\n            revert();\r\n        }\r\n\r\n        // bool DiagnosisFound = false;\r\n        // for(uint j = 0; j < patientInfo[paddr].diagnosis.length;j++){\r\n        //     if(patientInfo[paddr].diagnosis[j] == _diagnosis)DiagnosisFound = true;\r\n        // }\r\n    }\r\n\r\n    //new\r\n    // function submitfileHospital(address paddr, uint _diagnosis, string memory  _hash) public {\r\n    //     bool patientFound = false;\r\n    //     for(uint i = 0;i<healthcareInfo[msg.sender].patientAccessList.length;i++){\r\n    //         if(healthcareInfo[msg.sender].patientAccessList[i]==paddr){\r\n    //             msg.sender.transfer(2 ether);\r\n    //             creditPool -= 2;\r\n    //             patientFound = true;\r\n                \r\n    //         }\r\n            \r\n    //     }\r\n    //     if(patientFound==true){\r\n    //         set_medincine(paddr, _hash);\r\n    //         remove_patient(paddr, msg.sender); // fix\r\n    //     }else {\r\n    //         revert();\r\n    //     }\r\n\r\n    //     bool DiagnosisFound = false;\r\n    //     for(uint j = 0; j < patientInfo[paddr].diagnosis.length;j++){\r\n    //         if(patientInfo[paddr].diagnosis[j] == _diagnosis)DiagnosisFound = true;\r\n    //     }\r\n    // }\r\n    //\r\n\r\n    function remove_element_in_array(address[] storage Array, address addr) internal returns(uint)\r\n    {\r\n        bool check = false;\r\n        uint del_index = 0;\r\n        for(uint i = 0; i<Array.length; i++){\r\n            if(Array[i] == addr){\r\n                check = true;\r\n                del_index = i;\r\n            }\r\n        }\r\n        if(!check) revert();\r\n        else{\r\n            if(Array.length == 1){\r\n                delete Array[del_index];\r\n            }\r\n            else {\r\n                Array[del_index] = Array[Array.length - 1];\r\n                delete Array[Array.length - 1];\r\n\r\n            }\r\n            Array.length--;\r\n        }\r\n    }\r\n\r\n    function remove_patient(address paddr, address daddr) public {\r\n        remove_element_in_array(healthcareInfo[daddr].patientAccessList, paddr);\r\n        remove_element_in_array(patientInfo[paddr].healthcareAccessList, daddr);\r\n    }\r\n    \r\n    function get_accessed_healthcarelist_for_patient(address addr) public view returns (address[] memory )\r\n    { \r\n        address[] storage healthcareaddr = patientInfo[addr].healthcareAccessList;\r\n        return healthcareaddr;\r\n    }\r\n    function get_request_healthcarelist_for_patient(address addr) public view returns (address[] memory )\r\n    {\r\n        address[] storage healthcareaddr = patientInfo[addr].healthcareRequestList;\r\n        return healthcareaddr;\r\n    }\r\n    function get_accessed_patientlist_for_healthcare(address addr) public view returns (address[] memory )\r\n    {\r\n        return healthcareInfo[addr].patientAccessList;\r\n    }\r\n    // new\r\n    function get_appointment_first(address addr) public view returns (address[] memory ){\r\n        address[] storage healthcareaddr = healthcareInfo[addr].queuePatient;\r\n        return healthcareaddr;\r\n    }\r\n    function get_queue_doctor_sign_first(address addr) public view returns (address[] memory ){\r\n        address[] storage healthcareaddr = healthcareInfo[addr].queuDoctorSign;\r\n        return healthcareaddr;\r\n    }\r\n    function get_employeees_hospital(address addr) public view returns (address[] memory) {\r\n        address[] storage doctoraddr = hospitalInfo[addr].doctorAccessList;\r\n        return doctoraddr;\r\n    }\r\n    function get_job_doctor(address addr) public view returns (address[] memory) {\r\n        address[] storage doctoraddr = healthcareInfo[addr].accessJob;\r\n        return doctoraddr;\r\n    }\r\n    function resign_job_from_doctor(address addr) public {\r\n        remove_element_in_array(hospitalInfo[addr].doctorAccessList, msg.sender);\r\n        remove_element_in_array(healthcareInfo[msg.sender].accessJob, addr);\r\n    }\r\n    function quit_job_from_hospital(address addr) public {\r\n        remove_element_in_array(hospitalInfo[msg.sender].doctorAccessList, addr);\r\n        remove_element_in_array(healthcareInfo[addr].accessJob, msg.sender);\r\n    }\r\n    // function get_medicine_by_patient(address addr) public view returns (string[] memory){\r\n    //     return patientInfo[addr].listMedicine;\r\n    // }\r\n    function get_doctor_in_medicine(address addr) public view  returns (address[] memory) {\r\n        return patientInfo[addr].doctorSigns;\r\n    }\r\n    //\r\n    function revoke_access(address daddr) public payable{\r\n        remove_patient(msg.sender,daddr);\r\n        msg.sender.transfer(2 ether);\r\n        creditPool -= 2;\r\n    }\r\n    \r\n    function get_patient_list() public view returns(address[] memory ){\r\n        return patientList;\r\n    }\r\n\r\n    function get_healthcare_list() public view returns(address[] memory ){\r\n        return healthcareList;\r\n    }\r\n\r\n    function get_hash(address paddr) public view returns(string memory ){\r\n        return patientInfo[paddr].record;\r\n    }\r\n \r\n    function set_hash(address paddr, string memory _hash) internal {\r\n        patientInfo[paddr].record = _hash;\r\n    }\r\n\r\n    //new\r\n    function get_hospital_list() public view returns (address[] memory) {\r\n        return hospitalList;\r\n    }\r\n    // function get_medincines(address addr) public view returns(string memory) {\r\n    //     return hospitalInfo[addr].medincines;\r\n    // }\r\n    // function set_medincine(address paddr, string memory _hash) public {\r\n    //     hospitalInfo[paddr].medincines = _hash;\r\n    // }\r\n    //\r\n\r\n}\r\n\r\n",
  "sourcePath": "C:\\Users\\Acer\\Desktop\\MY WORKSPASE\\DACN\\Blockchain\\Demo_09_11\\Blockchain-For-EHR-Management\\contracts\\Medishield.sol",
  "compiler": {
    "name": "solc",
    "version": "0.5.1+commit.c8a2cb62.Emscripten.clang"
  },
  "schemaVersion": "3.4.16",
  "updatedAt": "2024-12-05T07:11:08.643Z",
  "devdoc": {
    "methods": {}
  },
  "userdoc": {
    "methods": {}
  }
}