{
  "contractName": "Medishield",
  "abi": [
    {
      "constant": true,
      "inputs": [
        {
          "name": "",
          "type": "uint256"
        }
      ],
      "name": "healthcareList",
      "outputs": [
        {
          "name": "",
          "type": "address"
        }
      ],
      "payable": false,
      "stateMutability": "view",
      "type": "function"
    },
    {
      "constant": true,
      "inputs": [
        {
          "name": "",
          "type": "uint256"
        }
      ],
      "name": "patientList",
      "outputs": [
        {
          "name": "",
          "type": "address"
        }
      ],
      "payable": false,
      "stateMutability": "view",
      "type": "function"
    },
    {
      "constant": true,
      "inputs": [
        {
          "name": "",
          "type": "uint256"
        }
      ],
      "name": "hospitalList",
      "outputs": [
        {
          "name": "",
          "type": "address"
        }
      ],
      "payable": false,
      "stateMutability": "view",
      "type": "function"
    },
    {
      "constant": false,
      "inputs": [
        {
          "name": "_name",
          "type": "string"
        },
        {
          "name": "_number",
          "type": "uint256"
        },
        {
          "name": "_designation",
          "type": "uint256"
        },
        {
          "name": "_hash",
          "type": "string"
        }
      ],
      "name": "add_agent",
      "outputs": [
        {
          "name": "",
          "type": "string"
        }
      ],
      "payable": false,
      "stateMutability": "nonpayable",
      "type": "function"
    },
    {
      "constant": true,
      "inputs": [
        {
          "name": "addr",
          "type": "address"
        }
      ],
      "name": "get_patient",
      "outputs": [
        {
          "name": "",
          "type": "string"
        },
        {
          "name": "",
          "type": "uint256"
        },
        {
          "name": "",
          "type": "string"
        },
        {
          "name": "",
          "type": "address"
        },
        {
          "name": "",
          "type": "string"
        },
        {
          "name": "",
          "type": "address"
        }
      ],
      "payable": false,
      "stateMutability": "view",
      "type": "function"
    },
    {
      "constant": true,
      "inputs": [
        {
          "name": "addr",
          "type": "address"
        }
      ],
      "name": "get_healthcare",
      "outputs": [
        {
          "name": "",
          "type": "string"
        },
        {
          "name": "",
          "type": "uint256"
        },
        {
          "name": "",
          "type": "uint256"
        }
      ],
      "payable": false,
      "stateMutability": "view",
      "type": "function"
    },
    {
      "constant": true,
      "inputs": [
        {
          "name": "addr",
          "type": "address"
        }
      ],
      "name": "get_hospital",
      "outputs": [
        {
          "name": "",
          "type": "string"
        },
        {
          "name": "",
          "type": "uint256"
        },
        {
          "name": "",
          "type": "uint256"
        },
        {
          "name": "",
          "type": "string"
        }
      ],
      "payable": false,
      "stateMutability": "view",
      "type": "function"
    },
    {
      "constant": true,
      "inputs": [
        {
          "name": "paddr",
          "type": "address"
        },
        {
          "name": "daddr",
          "type": "address"
        }
      ],
      "name": "get_patient_healthcare_name",
      "outputs": [
        {
          "name": "",
          "type": "string"
        },
        {
          "name": "",
          "type": "string"
        }
      ],
      "payable": false,
      "stateMutability": "view",
      "type": "function"
    },
    {
      "constant": false,
      "inputs": [
        {
          "name": "addr",
          "type": "address"
        }
      ],
      "name": "permit_access",
      "outputs": [],
      "payable": true,
      "stateMutability": "payable",
      "type": "function"
    },
    {
      "constant": false,
      "inputs": [
        {
          "name": "addr",
          "type": "address"
        }
      ],
      "name": "doctor_permit_access",
      "outputs": [],
      "payable": true,
      "stateMutability": "payable",
      "type": "function"
    },
    {
      "constant": false,
      "inputs": [
        {
          "name": "addr",
          "type": "address"
        },
        {
          "name": "date",
          "type": "string"
        }
      ],
      "name": "create_an_appointment",
      "outputs": [],
      "payable": true,
      "stateMutability": "payable",
      "type": "function"
    },
    {
      "constant": false,
      "inputs": [
        {
          "name": "addr",
          "type": "address"
        },
        {
          "name": "date",
          "type": "string"
        }
      ],
      "name": "access_request_patient",
      "outputs": [],
      "payable": true,
      "stateMutability": "payable",
      "type": "function"
    },
    {
      "constant": false,
      "inputs": [
        {
          "name": "addr",
          "type": "address"
        }
      ],
      "name": "doctor_apply",
      "outputs": [],
      "payable": true,
      "stateMutability": "payable",
      "type": "function"
    },
    {
      "constant": false,
      "inputs": [
        {
          "name": "addr",
          "type": "address"
        },
        {
          "name": "_hash",
          "type": "string"
        }
      ],
      "name": "sign_records",
      "outputs": [],
      "payable": true,
      "stateMutability": "payable",
      "type": "function"
    },
    {
      "constant": false,
      "inputs": [
        {
          "name": "addr",
          "type": "address"
        }
      ],
      "name": "request_ordor_medicine",
      "outputs": [],
      "payable": true,
      "stateMutability": "payable",
      "type": "function"
    },
    {
      "constant": false,
      "inputs": [
        {
          "name": "_hash",
          "type": "string"
        }
      ],
      "name": "add_store_medicine",
      "outputs": [],
      "payable": true,
      "stateMutability": "payable",
      "type": "function"
    },
    {
      "constant": false,
      "inputs": [
        {
          "name": "addr",
          "type": "address"
        }
      ],
      "name": "remove_order_request",
      "outputs": [],
      "payable": true,
      "stateMutability": "payable",
      "type": "function"
    },
    {
      "constant": false,
      "inputs": [
        {
          "name": "addr",
          "type": "address"
        }
      ],
      "name": "remove_status_order_request",
      "outputs": [],
      "payable": true,
      "stateMutability": "payable",
      "type": "function"
    },
    {
      "constant": false,
      "inputs": [
        {
          "name": "_name",
          "type": "string"
        }
      ],
      "name": "choice_specialty",
      "outputs": [],
      "payable": true,
      "stateMutability": "payable",
      "type": "function"
    },
    {
      "constant": false,
      "inputs": [
        {
          "name": "_hash",
          "type": "string"
        }
      ],
      "name": "set_working_days",
      "outputs": [],
      "payable": true,
      "stateMutability": "payable",
      "type": "function"
    },
    {
      "constant": true,
      "inputs": [
        {
          "name": "addr",
          "type": "address"
        },
        {
          "name": "paddr",
          "type": "address"
        }
      ],
      "name": "check_exits_buy_medicine",
      "outputs": [
        {
          "name": "",
          "type": "bool"
        }
      ],
      "payable": false,
      "stateMutability": "view",
      "type": "function"
    },
    {
      "constant": false,
      "inputs": [
        {
          "name": "addr",
          "type": "address"
        }
      ],
      "name": "permit_access_and_remove_doctor_permit_access",
      "outputs": [],
      "payable": true,
      "stateMutability": "payable",
      "type": "function"
    },
    {
      "constant": false,
      "inputs": [
        {
          "name": "addr",
          "type": "address"
        }
      ],
      "name": "cancel_access",
      "outputs": [],
      "payable": true,
      "stateMutability": "payable",
      "type": "function"
    },
    {
      "constant": false,
      "inputs": [
        {
          "name": "addr",
          "type": "address"
        },
        {
          "name": "paddr",
          "type": "address"
        },
        {
          "name": "_hash",
          "type": "string"
        }
      ],
      "name": "permit_access_and_submitfile",
      "outputs": [],
      "payable": true,
      "stateMutability": "payable",
      "type": "function"
    },
    {
      "constant": false,
      "inputs": [
        {
          "name": "paddr",
          "type": "address"
        },
        {
          "name": "_hash",
          "type": "string"
        }
      ],
      "name": "submitfile",
      "outputs": [],
      "payable": false,
      "stateMutability": "nonpayable",
      "type": "function"
    },
    {
      "constant": false,
      "inputs": [
        {
          "name": "paddr",
          "type": "address"
        },
        {
          "name": "daddr",
          "type": "address"
        }
      ],
      "name": "remove_patient",
      "outputs": [],
      "payable": false,
      "stateMutability": "nonpayable",
      "type": "function"
    },
    {
      "constant": true,
      "inputs": [
        {
          "name": "addr",
          "type": "address"
        }
      ],
      "name": "get_accessed_healthcarelist_for_patient",
      "outputs": [
        {
          "name": "",
          "type": "address[]"
        }
      ],
      "payable": false,
      "stateMutability": "view",
      "type": "function"
    },
    {
      "constant": true,
      "inputs": [
        {
          "name": "addr",
          "type": "address"
        }
      ],
      "name": "get_request_healthcarelist_for_patient",
      "outputs": [
        {
          "name": "",
          "type": "address[]"
        }
      ],
      "payable": false,
      "stateMutability": "view",
      "type": "function"
    },
    {
      "constant": true,
      "inputs": [
        {
          "name": "addr",
          "type": "address"
        }
      ],
      "name": "get_accessed_patientlist_for_healthcare",
      "outputs": [
        {
          "name": "",
          "type": "address[]"
        }
      ],
      "payable": false,
      "stateMutability": "view",
      "type": "function"
    },
    {
      "constant": true,
      "inputs": [
        {
          "name": "addr",
          "type": "address"
        },
        {
          "name": "date",
          "type": "string"
        }
      ],
      "name": "get_appointment_first",
      "outputs": [
        {
          "name": "",
          "type": "address[]"
        }
      ],
      "payable": false,
      "stateMutability": "view",
      "type": "function"
    },
    {
      "constant": true,
      "inputs": [
        {
          "name": "addr",
          "type": "address"
        }
      ],
      "name": "get_queue_doctor_sign_first",
      "outputs": [
        {
          "name": "",
          "type": "address[]"
        }
      ],
      "payable": false,
      "stateMutability": "view",
      "type": "function"
    },
    {
      "constant": true,
      "inputs": [
        {
          "name": "addr",
          "type": "address"
        }
      ],
      "name": "get_employeees_hospital",
      "outputs": [
        {
          "name": "",
          "type": "address[]"
        }
      ],
      "payable": false,
      "stateMutability": "view",
      "type": "function"
    },
    {
      "constant": true,
      "inputs": [
        {
          "name": "addr",
          "type": "address"
        }
      ],
      "name": "get_job_doctor",
      "outputs": [
        {
          "name": "",
          "type": "address[]"
        }
      ],
      "payable": false,
      "stateMutability": "view",
      "type": "function"
    },
    {
      "constant": false,
      "inputs": [
        {
          "name": "addr",
          "type": "address"
        }
      ],
      "name": "resign_job_from_doctor",
      "outputs": [],
      "payable": false,
      "stateMutability": "nonpayable",
      "type": "function"
    },
    {
      "constant": false,
      "inputs": [
        {
          "name": "addr",
          "type": "address"
        }
      ],
      "name": "quit_job_from_hospital",
      "outputs": [],
      "payable": false,
      "stateMutability": "nonpayable",
      "type": "function"
    },
    {
      "constant": true,
      "inputs": [
        {
          "name": "addr",
          "type": "address"
        }
      ],
      "name": "get_doctor_in_medicine",
      "outputs": [
        {
          "name": "",
          "type": "address[]"
        }
      ],
      "payable": false,
      "stateMutability": "view",
      "type": "function"
    },
    {
      "constant": true,
      "inputs": [
        {
          "name": "addr",
          "type": "address"
        }
      ],
      "name": "get_patient_order_medicine",
      "outputs": [
        {
          "name": "",
          "type": "address[]"
        }
      ],
      "payable": false,
      "stateMutability": "view",
      "type": "function"
    },
    {
      "constant": true,
      "inputs": [
        {
          "name": "addr",
          "type": "address"
        }
      ],
      "name": "get_wait_handle_request_order_medicine",
      "outputs": [
        {
          "name": "",
          "type": "address[]"
        }
      ],
      "payable": false,
      "stateMutability": "view",
      "type": "function"
    },
    {
      "constant": true,
      "inputs": [
        {
          "name": "addr",
          "type": "address"
        }
      ],
      "name": "get_wait_payment_request_order_medicine",
      "outputs": [
        {
          "name": "",
          "type": "address[]"
        }
      ],
      "payable": false,
      "stateMutability": "view",
      "type": "function"
    },
    {
      "constant": true,
      "inputs": [
        {
          "name": "addr",
          "type": "address"
        }
      ],
      "name": "get_was_deleted_request_order_medicine",
      "outputs": [
        {
          "name": "",
          "type": "address[]"
        }
      ],
      "payable": false,
      "stateMutability": "view",
      "type": "function"
    },
    {
      "constant": true,
      "inputs": [
        {
          "name": "addr",
          "type": "address"
        }
      ],
      "name": "get_success_request_order_medicine",
      "outputs": [
        {
          "name": "",
          "type": "address[]"
        }
      ],
      "payable": false,
      "stateMutability": "view",
      "type": "function"
    },
    {
      "constant": true,
      "inputs": [
        {
          "name": "addr",
          "type": "address"
        }
      ],
      "name": "get_specialty_healthcare",
      "outputs": [
        {
          "name": "",
          "type": "string"
        }
      ],
      "payable": false,
      "stateMutability": "view",
      "type": "function"
    },
    {
      "constant": true,
      "inputs": [
        {
          "name": "addr",
          "type": "address"
        }
      ],
      "name": "get_working_days",
      "outputs": [
        {
          "name": "",
          "type": "string"
        }
      ],
      "payable": false,
      "stateMutability": "view",
      "type": "function"
    },
    {
      "constant": false,
      "inputs": [
        {
          "name": "daddr",
          "type": "address"
        }
      ],
      "name": "revoke_access",
      "outputs": [],
      "payable": true,
      "stateMutability": "payable",
      "type": "function"
    },
    {
      "constant": true,
      "inputs": [],
      "name": "get_patient_list",
      "outputs": [
        {
          "name": "",
          "type": "address[]"
        }
      ],
      "payable": false,
      "stateMutability": "view",
      "type": "function"
    },
    {
      "constant": true,
      "inputs": [],
      "name": "get_healthcare_list",
      "outputs": [
        {
          "name": "",
          "type": "address[]"
        }
      ],
      "payable": false,
      "stateMutability": "view",
      "type": "function"
    },
    {
      "constant": true,
      "inputs": [
        {
          "name": "paddr",
          "type": "address"
        }
      ],
      "name": "get_hash",
      "outputs": [
        {
          "name": "",
          "type": "string"
        }
      ],
      "payable": false,
      "stateMutability": "view",
      "type": "function"
    },
    {
      "constant": true,
      "inputs": [],
      "name": "get_hospital_list",
      "outputs": [
        {
          "name": "",
          "type": "address[]"
        }
      ],
      "payable": false,
      "stateMutability": "view",
      "type": "function"
    },
    {
      "constant": true,
      "inputs": [
        {
          "name": "_field",
          "type": "string"
        },
        {
          "name": "isSpecialty",
          "type": "bool"
        }
      ],
      "name": "getAddressesByField",
      "outputs": [
        {
          "name": "",
          "type": "address[]"
        }
      ],
      "payable": false,
      "stateMutability": "view",
      "type": "function"
    },
    {
      "constant": false,
      "inputs": [
        {
          "name": "addr",
          "type": "address"
        },
        {
          "name": "_hash",
          "type": "string"
        }
      ],
      "name": "send_request_payment",
      "outputs": [],
      "payable": true,
      "stateMutability": "payable",
      "type": "function"
    },
    {
      "constant": false,
      "inputs": [
        {
          "name": "addr",
          "type": "address"
        }
      ],
      "name": "payment_medicine_success",
      "outputs": [],
      "payable": true,
      "stateMutability": "payable",
      "type": "function"
    },
    {
      "constant": false,
      "inputs": [
        {
          "name": "addr",
          "type": "address"
        }
      ],
      "name": "cancel_payment_medicine",
      "outputs": [],
      "payable": true,
      "stateMutability": "payable",
      "type": "function"
    },
    {
      "constant": true,
      "inputs": [
        {
          "name": "addr",
          "type": "address"
        }
      ],
      "name": "get_cancel_payment_request_order_medicine",
      "outputs": [
        {
          "name": "",
          "type": "address[]"
        }
      ],
      "payable": false,
      "stateMutability": "view",
      "type": "function"
    }
  ],
  "bytecode": "0x608060405234801561001057600080fd5b50613ebc806100206000396000f3fe608060405260043610610275577c010000000000000000000000000000000000000000000000000000000060003504622fd866811461027a5780630362fe9b146102fd5780630abcb6a01461033a578063146a3614146103fd57806316d527471461044c578063239a75ff1461050f57806326e161bc1461054257806327b1dcee1461057557806327d9be431461059b5780632a84e0d5146105c15780632a866eee146106675780632a8d8b9c1461071d5780632b6850061461073257806333cdfdba146107655780633740b3c01461078b5780633ba6c550146107d15780634042d2d4146108045780634149060a1461099c5780634b0ca585146109cf57806350cbd8ae146109f557806352fc89c214610a2857806358db888e14610a3d5780635a086a4514610b5c5780635a2f284414610b825780635b1e45dc14610c285780635b2af59e14610c4e578063687d0e9314610cf65780636e82bafc14610dac5780637e1519ce14610ddf57806385cbce9714610e1257806387f52b7314610e38578063890fa83b14610eee5780639ce05dc914610f215780639f55c37b14610f54578063a87648a014610f87578063b3d94bd014611046578063b5d1b3e114611079578063babb1d41146110ac578063bcffb7ca146110d6578063bdf633df146110fc578063c196a15f14611122578063c6f6767d14611148578063c82412b9146111fe578063cb37190e14611228578063cf9c186f14611341578063d51d4b4a14611367578063d535cc3a1461141c578063d6763c7f1461144f578063e7322c7014611482578063e81ac054146114fd578063ef2aac7f14611512578063f02d90a4146115b8578063fa45f6fc146116fe575b600080fd5b34801561028657600080fd5b506102ad6004803603602081101561029d57600080fd5b5035600160a060020a0316611731565b60408051602080825283518183015283519192839290830191858101910280838360005b838110156102e95781810151838201526020016102d1565b505050509050019250505060405180910390f35b34801561030957600080fd5b506103386004803603604081101561032057600080fd5b50600160a060020a03813581169160200135166117af565b005b34801561034657600080fd5b506103386004803603604081101561035d57600080fd5b600160a060020a03823516919081019060408101602082013564010000000081111561038857600080fd5b82018360208201111561039a57600080fd5b803590602001918460018302840111640100000000831117156103bc57600080fd5b91908080601f0160208091040260200160405190810160405280939291908181526020018383808284376000920191909152509295506117ff945050505050565b34801561040957600080fd5b506104386004803603604081101561042057600080fd5b50600160a060020a03813581169160200135166118cf565b604080519115158252519081900360200190f35b34801561045857600080fd5b506102ad6004803603604081101561046f57600080fd5b600160a060020a03823516919081019060408101602082013564010000000081111561049a57600080fd5b8201836020820111156104ac57600080fd5b803590602001918460018302840111640100000000831117156104ce57600080fd5b91908080601f01602080910402602001604051908101604052809392919081815260200183838082843760009201919091525092955061195b945050505050565b34801561051b57600080fd5b506102ad6004803603602081101561053257600080fd5b5035600160a060020a0316611a40565b34801561054e57600080fd5b506102ad6004803603602081101561056557600080fd5b5035600160a060020a0316611ab9565b6103386004803603602081101561058b57600080fd5b5035600160a060020a0316611b35565b610338600480360360208110156105b157600080fd5b5035600160a060020a0316611b7d565b610338600480360360208110156105d757600080fd5b8101906020810181356401000000008111156105f257600080fd5b82018360208201111561060457600080fd5b8035906020019184600183028401116401000000008311171561062657600080fd5b91908080601f016020809104026020016040519081016040528093929190818152602001838380828437600092019190915250929550611bb8945050505050565b6103386004803603604081101561067d57600080fd5b600160a060020a0382351691908101906040810160208201356401000000008111156106a857600080fd5b8201836020820111156106ba57600080fd5b803590602001918460018302840111640100000000831117156106dc57600080fd5b91908080601f016020809104026020016040519081016040528093929190818152602001838380828437600092019190915250929550611bf8945050505050565b34801561072957600080fd5b506102ad611c7a565b34801561073e57600080fd5b506102ad6004803603602081101561075557600080fd5b5035600160a060020a0316611cdd565b6103386004803603602081101561077b57600080fd5b5035600160a060020a0316611d59565b34801561079757600080fd5b506107b5600480360360208110156107ae57600080fd5b5035611ddd565b60408051600160a060020a039092168252519081900360200190f35b3480156107dd57600080fd5b50610338600480360360208110156107f457600080fd5b5035600160a060020a0316611e05565b34801561081057600080fd5b506108376004803603602081101561082757600080fd5b5035600160a060020a0316611e47565b604080516020808201889052600160a060020a038087166060840152841660a083015260c080835289519083015288519192839290830191608084019160e08501918c019080838360005b8381101561089a578181015183820152602001610882565b50505050905090810190601f1680156108c75780820380516001836020036101000a031916815260200191505b5084810383528851815288516020918201918a019080838360005b838110156108fa5781810151838201526020016108e2565b50505050905090810190601f1680156109275780820380516001836020036101000a031916815260200191505b50848103825286518152865160209182019188019080838360005b8381101561095a578181015183820152602001610942565b50505050905090810190601f1680156109875780820380516001836020036101000a031916815260200191505b50995050505050505050505060405180910390f35b3480156109a857600080fd5b506102ad600480360360208110156109bf57600080fd5b5035600160a060020a0316612048565b610338600480360360208110156109e557600080fd5b5035600160a060020a03166120c4565b348015610a0157600080fd5b506102ad60048036036020811015610a1857600080fd5b5035600160a060020a031661211c565b348015610a3457600080fd5b506102ad612193565b348015610a4957600080fd5b50610a7060048036036020811015610a6057600080fd5b5035600160a060020a03166121f3565b604051808060200185815260200184815260200180602001838103835287818151815260200191508051906020019080838360005b83811015610abd578181015183820152602001610aa5565b50505050905090810190601f168015610aea5780820380516001836020036101000a031916815260200191505b50838103825284518152845160209182019186019080838360005b83811015610b1d578181015183820152602001610b05565b50505050905090810190601f168015610b4a5780820380516001836020036101000a031916815260200191505b50965050505050505060405180910390f35b61033860048036036020811015610b7257600080fd5b5035600160a060020a0316612349565b61033860048036036020811015610b9857600080fd5b810190602081018135640100000000811115610bb357600080fd5b820183602082011115610bc557600080fd5b80359060200191846001830284011164010000000083111715610be757600080fd5b91908080601f0160208091040260200160405190810160405280939291908181526020018383808284376000920191909152509295506123ba945050505050565b61033860048036036020811015610c3e57600080fd5b5035600160a060020a03166123fa565b348015610c5a57600080fd5b50610c8160048036036020811015610c7157600080fd5b5035600160a060020a031661246b565b6040805160208082528351818301528351919283929083019185019080838360005b83811015610cbb578181015183820152602001610ca3565b50505050905090810190601f168015610ce85780820380516001836020036101000a031916815260200191505b509250505060405180910390f35b61033860048036036040811015610d0c57600080fd5b600160a060020a038235169190810190604081016020820135640100000000811115610d3757600080fd5b820183602082011115610d4957600080fd5b80359060200191846001830284011164010000000083111715610d6b57600080fd5b91908080601f01602080910402602001604051908101604052809392919081815260200183838082843760009201919091525092955061250f945050505050565b348015610db857600080fd5b506102ad60048036036020811015610dcf57600080fd5b5035600160a060020a03166125d1565b348015610deb57600080fd5b50610c8160048036036020811015610e0257600080fd5b5035600160a060020a031661264d565b61033860048036036020811015610e2857600080fd5b5035600160a060020a03166126c4565b61033860048036036040811015610e4e57600080fd5b600160a060020a038235169190810190604081016020820135640100000000811115610e7957600080fd5b820183602082011115610e8b57600080fd5b80359060200191846001830284011164010000000083111715610ead57600080fd5b91908080601f01602080910402602001604051908101604052809392919081815260200183838082843760009201919091525092955061275e945050505050565b348015610efa57600080fd5b5061033860048036036020811015610f1157600080fd5b5035600160a060020a031661282f565b348015610f2d57600080fd5b50610c8160048036036020811015610f4457600080fd5b5035600160a060020a0316612871565b348015610f6057600080fd5b506102ad60048036036020811015610f7757600080fd5b5035600160a060020a03166128e8565b61033860048036036060811015610f9d57600080fd5b600160a060020a038235811692602081013590911691810190606081016040820135640100000000811115610fd157600080fd5b820183602082011115610fe357600080fd5b8035906020019184600183028401116401000000008311171561100557600080fd5b91908080601f016020809104026020016040519081016040528093929190818152602001838380828437600092019190915250929550612964945050505050565b34801561105257600080fd5b506102ad6004803603602081101561106957600080fd5b5035600160a060020a03166129f0565b34801561108557600080fd5b506102ad6004803603602081101561109c57600080fd5b5035600160a060020a0316612a6c565b3480156110b857600080fd5b506107b5600480360360208110156110cf57600080fd5b5035612ae8565b610338600480360360208110156110ec57600080fd5b5035600160a060020a0316612af6565b6103386004803603602081101561111257600080fd5b5035600160a060020a0316612b7e565b6103386004803603602081101561113857600080fd5b5035600160a060020a0316612c02565b6103386004803603604081101561115e57600080fd5b600160a060020a03823516919081019060408101602082013564010000000081111561118957600080fd5b82018360208201111561119b57600080fd5b803590602001918460018302840111640100000000831117156111bd57600080fd5b91908080601f016020809104026020016040519081016040528093929190818152602001838380828437600092019190915250929550612c39945050505050565b34801561120a57600080fd5b506107b56004803603602081101561122157600080fd5b5035612cd7565b34801561123457600080fd5b506112636004803603604081101561124b57600080fd5b50600160a060020a0381358116916020013516612ce5565b604051808060200180602001838103835285818151815260200191508051906020019080838360005b838110156112a457818101518382015260200161128c565b50505050905090810190601f1680156112d15780820380516001836020036101000a031916815260200191505b50838103825284518152845160209182019186019080838360005b838110156113045781810151838201526020016112ec565b50505050905090810190601f1680156113315780820380516001836020036101000a031916815260200191505b5094505050505060405180910390f35b6103386004803603602081101561135757600080fd5b5035600160a060020a0316612e36565b34801561137357600080fd5b506102ad6004803603604081101561138a57600080fd5b8101906020810181356401000000008111156113a557600080fd5b8201836020820111156113b757600080fd5b803590602001918460018302840111640100000000831117156113d957600080fd5b91908080601f0160208091040260200160405190810160405280939291908181526020018383808284376000920191909152509295505050503515159050612ecf565b34801561142857600080fd5b506102ad6004803603602081101561143f57600080fd5b5035600160a060020a0316613207565b34801561145b57600080fd5b506102ad6004803603602081101561147257600080fd5b5035600160a060020a0316613283565b34801561148e57600080fd5b506114b5600480360360208110156114a557600080fd5b5035600160a060020a03166132ff565b604051808060200184815260200183815260200182810382528581815181526020019150805190602001908083836000838110156113045781810151838201526020016112ec565b34801561150957600080fd5b506102ad6133bf565b6103386004803603602081101561152857600080fd5b81019060208101813564010000000081111561154357600080fd5b82018360208201111561155557600080fd5b8035906020019184600183028401116401000000008311171561157757600080fd5b91908080601f01602080910402602001604051908101604052809392919081815260200183838082843760009201919091525092955061341f945050505050565b3480156115c457600080fd5b50610c81600480360360808110156115db57600080fd5b8101906020810181356401000000008111156115f657600080fd5b82018360208201111561160857600080fd5b8035906020019184600183028401116401000000008311171561162a57600080fd5b91908080601f016020809104026020016040519081016040528093929190818152602001838380828437600092019190915250929584359560208601359591945092506060810191506040013564010000000081111561168957600080fd5b82018360208201111561169b57600080fd5b803590602001918460018302840111640100000000831117156116bd57600080fd5b91908080601f016020809104026020016040519081016040528093929190818152602001838380828437600092019190915250929550613445945050505050565b34801561170a57600080fd5b506102ad6004803603602081101561172157600080fd5b5035600160a060020a031661399c565b600160a060020a038116600090815260066020908152604091829020600701805483518184028101840190945280845260609391928391908301828280156117a257602002820191906000526020600020905b8154600160a060020a03168152600190910190602001808311611784575b5050505050915050919050565b600160a060020a03811660009081526005602052604090206117d49060030183613a18565b50600160a060020a03821660009081526004602052604090206117fa9060020182613a18565b505050565b6000805b336000908152600560205260409020600301548110156118aa573360009081526005602052604090206003018054600160a060020a03861691908390811061184757fe5b600091825260209091200154600160a060020a031614156118a2576040513390600090671bc16d674ec800009082818181858883f19350505050158015611892573d6000803e3d6000fd5b5060008054600119019055600191505b600101611803565b5060018115151415610275576118c08383613b53565b6118ca83336117af565b6117fa565b6000805b600160a060020a03841660009081526006602052604090206009015481101561194f57600160a060020a0384811660009081526006602052604090206009018054918516918390811061192257fe5b600091825260209091200154600160a060020a03161415611947576001915050611955565b6001016118d3565b50600090505b92915050565b606060006005600085600160a060020a0316600160a060020a03168152602001908152602001600020600501836040518082805190602001908083835b602083106119b75780518252601f199092019160209182019101611998565b51815160209384036101000a600019018019909216911617905292019485525060408051948590038201852080548084028701840190925281865295508593509150830182828015611a3257602002820191906000526020600020905b8154600160a060020a03168152600190910190602001808311611a14575b505050505091505092915050565b600160a060020a038116600090815260056020908152604091829020600301805483518184028101840190945280845260609392830182828015611aad57602002820191906000526020600020905b8154600160a060020a03168152600190910190602001808311611a8f575b50505050509050919050565b600160a060020a038116600090815260056020908152604091829020600801805483518184028101840190945280845260609391928391908301828280156117a257602002820191906000526020600020908154600160a060020a03168152600190910190602001808311611784575050505050915050919050565b611b3f33826117af565b6040513390600090671bc16d674ec800009082818181858883f19350505050158015611b6f573d6000803e3d6000fd5b505060008054600119019055565b671bc16d674ec800003414611b9157600080fd5b60008054600019018155338152600460205260409020611bb49060080182613a18565b5050565b671bc16d674ec800003414611bcc57600080fd5b6000805460010181553381526005602090815260409091208251611bb492600b90920191840190613c88565b671bc16d674ec800003414611c0c57600080fd5b600080546002018155600160a060020a0383168152600460209081526040822060060180546001810182559083529120018054600160a060020a03191633179055611c578282613b53565b600080546001190181553381526005602052604090206117fa9060040183613a18565b60606003805480602002602001604051908101604052809291908181526020018280548015611cd257602002820191906000526020600020905b8154600160a060020a03168152600190910190602001808311611cb4575b505050505090505b90565b600160a060020a038116600090815260046020908152604091829020600901805483518184028101840190945280845260609391928391908301828280156117a257602002820191906000526020600020908154600160a060020a03168152600190910190602001808311611784575050505050915050919050565b671bc16d674ec800003414611d6d57600080fd5b600080546002018155600160a060020a03909116808252600660209081526040808420600701805460018181018355918652838620018054600160a060020a0319908116339081179092559086526005845291852060080180549182018155855291909320018054909216179055565b6002805482908110611deb57fe5b600091825260209091200154600160a060020a0316905081565b336000908152600660205260409020611e219060070182613a18565b50600160a060020a0381166000908152600560205260409020611bb49060080133613a18565b600160a060020a038181166000908152600460208181526040808420600180820154600785528387205483548551600261010095831615959095026000190190911693909304601f810187900487028401870190955284835260609889978997899789979660038801959094169392870192849290918891830182828015611f105780601f10611ee557610100808354040283529160200191611f10565b820191906000526020600020905b815481529060010190602001808311611ef357829003601f168201915b5050875460408051602060026001851615610100026000190190941693909304601f8101849004840282018401909252818152959b5089945092508401905082828015611f9e5780601f10611f7357610100808354040283529160200191611f9e565b820191906000526020600020905b815481529060010190602001808311611f8157829003601f168201915b5050855460408051602060026001851615610100026000190190941693909304601f81018490048402820184019092528181529599508794509250840190508282801561202c5780601f106120015761010080835404028352916020019161202c565b820191906000526020600020905b81548152906001019060200180831161200f57829003601f168201915b5050505050915095509550955095509550955091939550919395565b600160a060020a038116600090815260046020908152604091829020600701805483518184028101840190945280845260609391928391908301828280156117a257602002820191906000526020600020908154600160a060020a03168152600190910190602001808311611784575050505050915050919050565b670de0b6b3a764000034146120d857600080fd5b600080546002018155600160a060020a039091168152600460209081526040822060050180546001810182559083529120018054600160a060020a03191633179055565b600160a060020a038116600090815260046020908152604091829020600601805483518184028101840190945280845260609392830182828015611aad57602002820191906000526020600020908154600160a060020a03168152600190910190602001808311611a8f5750505050509050919050565b60606002805480602002602001604051908101604052809291908181526020018280548015611cd257602002820191906000526020600020908154600160a060020a03168152600190910190602001808311611cb4575050505050905090565b600160a060020a0381166000908152600660209081526040808320600180820154600280840154845486519481161561010002600019011691909104601f8101879004870284018701909552848352606096958695889594600a860192909186918301828280156122a55780601f1061227a576101008083540402835291602001916122a5565b820191906000526020600020905b81548152906001019060200180831161228857829003601f168201915b5050845460408051602060026001851615610100026000190190941693909304601f8101849004840282018401909252818152959950869450925084019050828280156123335780601f1061230857610100808354040283529160200191612333565b820191906000526020600020905b81548152906001019060200180831161231657829003601f168201915b5050505050905093509350935093509193509193565b671bc16d674ec80000341461235d57600080fd5b6000805460020181553380825260046020908152604083206009810180546001810182559085529184209091018054600160a060020a031916600160a060020a03861617905582546000190183559152611bb490600a0182613a18565b671bc16d674ec8000034146123ce57600080fd5b6000805460020181553381526006602090815260409091208251611bb492600a90920191840190613c88565b671bc16d674ec80000341461240e57600080fd5b600080546002018155338082526004602090815260408320600b810180546001810182559085529184209091018054600160a060020a031916600160a060020a03861617905582546000190183559152611bb490600a0182613a18565b600160a060020a038116600090815260056020908152604091829020600b0180548351601f6002600019610100600186161502019093169290920491820184900484028101840190945280845260609392830182828015611aad5780601f106124e257610100808354040283529160200191611aad565b820191906000526020600020905b8154815290600101906020018083116124f05750939695505050505050565b671bc16d674ec80000341461252357600080fd5b600080546002018155600160a060020a0383168152600560208181526040928390209251845193909201928492918291908401908083835b6020831061257a5780518252601f19909201916020918201910161255b565b51815160001960209485036101000a01908116901991909116179052920194855250604051938490038101909320805460018101825560009182529390209092018054600160a060020a0319163317905550505050565b600160a060020a038116600090815260066020908152604091829020600901805483518184028101840190945280845260609391928391908301828280156117a257602002820191906000526020600020908154600160a060020a03168152600190910190602001808311611784575050505050915050919050565b600160a060020a03811660009081526004602081815260409283902090910180548351601f6002600019610100600186161502019093169290920491820184900484028101840190945280845260609392830182828015611aad5780601f106124e257610100808354040283529160200191611aad565b671bc16d674ec8000034146126d857600080fd5b60008054600019018155600160a060020a03821681526004602052604090206127049060070133613a18565b503360009081526006602052604090206127219060090182613a18565b50600160a060020a03166000908152600460209081526040822060080180546001810182559083529120018054600160a060020a03191633179055565b671bc16d674ec80000341461277257600080fd5b60008054600201815533808252600560208181526040808520600481018054600181018255908752838720018054600160a060020a031916600160a060020a038a16179055855460011901865593909452925184516117fa949390920192859282918401908083835b602083106127fa5780518252601f1990920191602091820191016127db565b51815160209384036101000a600019018019909216911617905292019485525060405193849003019092209150849050613a18565b600160a060020a03811660009081526006602052604090206128549060070133613a18565b50336000908152600560205260409020611bb49060080182613a18565b600160a060020a038116600090815260056020908152604091829020600c0180548351601f6002600019610100600186161502019093169290920491820184900484028101840190945280845260609392830182828015611aad5780601f106124e257610100808354040283529160200191611aad565b600160a060020a038116600090815260046020908152604091829020600201805483518184028101840190945280845260609391928391908301828280156117a257602002820191906000526020600020908154600160a060020a03168152600190910190602001808311611784575050505050915050919050565b671bc16d674ec80000341461297857600080fd5b6000805460029081018255600160a060020a03851680835260056020908152604080852060030180546001818101835591875283872001805433600160a060020a0319918216811790925590875260048452918620909401805494850181558552932090910180549092161790556117fa82826117ff565b600160a060020a038116600090815260056020908152604091829020600401805483518184028101840190945280845260609391928391908301828280156117a257602002820191906000526020600020908154600160a060020a03168152600190910190602001808311611784575050505050915050919050565b600160a060020a038116600090815260046020908152604091829020600801805483518184028101840190945280845260609391928391908301828280156117a257602002820191906000526020600020908154600160a060020a03168152600190910190602001808311611784575050505050915050919050565b6001805482908110611deb57fe5b671bc16d674ec800003414612b0a57600080fd5b6000805460029081018255600160a060020a03909216808252600560209081526040808420600301805460018181018355918652838620018054600160a060020a03199081163390811790925590865260048452918520909501805495860181558452922090920180549091169091179055565b671bc16d674ec800003414612b9257600080fd5b600080546002018155600160a060020a03909116808252600660209081526040808420600901805460018181018355918652838620018054600160a060020a0319908116339081179092559086526004845291852060070180549182018155855291909320018054909216179055565b671bc16d674ec800003414612c1657600080fd5b60008054600119018155338152600460205260409020611bb49060050182613a18565b671bc16d674ec800003414612c4d57600080fd5b6000805460020181553381526006602090815260409091208251612c7992600a90920191840190613c88565b50600160a060020a03821660008181526004602090815260408220600a810180546001810182559084529183209091018054600160a060020a031916339081179091558254600019018355929091526117fa91600790910190613a18565b6003805482908110611deb57fe5b600160a060020a038281166000908152600460209081526040808320938516835260058252918290208354835160026001831615610100026000190190921691909104601f810184900484028201840190945283815260609485949093849190830182828015612d965780601f10612d6b57610100808354040283529160200191612d96565b820191906000526020600020905b815481529060010190602001808311612d7957829003601f168201915b5050845460408051602060026001851615610100026000190190941693909304601f810184900484028201840190925281815295975086945092508401905082828015612e245780601f10612df957610100808354040283529160200191612e24565b820191906000526020600020905b815481529060010190602001808311612e0757829003601f168201915b50505050509050915091509250929050565b671bc16d674ec800003414612e4a57600080fd5b6000805460029081018255600160a060020a03831680835260056020818152604080862060030180546001818101835591885283882001805433600160a060020a031991821681179092558189526004855292882096870180549283018155885292872001805490911690931790925583546001190184559252611bb4910182613a18565b606080600280549050604051908082528060200260200182016040528015612f01578160200160208202803883390190505b5090506000805b60025481101561317d57606085612f585760056000600284815481101515612f2c57fe5b6000918252602080832090910154600160a060020a031683528201929092526040019020600c01612f93565b60056000600284815481101515612f6b57fe5b6000918252602080832090910154600160a060020a031683528201929092526040019020600b015b805460408051602060026001851615610100026000190190941693909304601f810184900484028201840190925281815292918301828280156130175780601f10612fec57610100808354040283529160200191613017565b820191906000526020600020905b815481529060010190602001808311612ffa57829003601f168201915b505050505090508580156131045750866040516020018082805190602001908083835b602083106130595780518252601f19909201916020918201910161303a565b6001836020036101000a03801982511681845116808217855250505050505090500191505060405160208183030381529060405280519060200120816040516020018082805190602001908083835b602083106130c75780518252601f1990920191602091820191016130a8565b6001836020036101000a03801982511681845116808217855250505050505090500191505060405160208183030381529060405280519060200120145b8061311d57508515801561311d575061311d8188613b82565b1561317457600280548390811061313057fe5b6000918252602090912001548451600160a060020a039091169085908590811061315657fe5b600160a060020a039092166020928302909101909101526001909201915b50600101612f08565b506060816040519080825280602002602001820160405280156131aa578160200160208202803883390190505b50905060005b828110156131fd5783818151811015156131c657fe5b9060200190602002015182828151811015156131de57fe5b600160a060020a039092166020928302909101909101526001016131b0565b5095945050505050565b600160a060020a038116600090815260046020908152604091829020600b01805483518184028101840190945280845260609391928391908301828280156117a257602002820191906000526020600020908154600160a060020a03168152600190910190602001808311611784575050505050915050919050565b600160a060020a038116600090815260046020908152604091829020600501805483518184028101840190945280845260609391928391908301828280156117a257602002820191906000526020600020908154600160a060020a03168152600190910190602001808311611784575050505050915050919050565b600160a060020a0381166000908152600560209081526040808320600180820154600280840154845486519481161561010002600019011691909104601f81018790048702840187019095528483526060969586959293919285918301828280156133ab5780601f10613380576101008083540402835291602001916133ab565b820191906000526020600020905b81548152906001019060200180831161338e57829003601f168201915b505050505092509250925092509193909250565b60606001805480602002602001604051908101604052809291908181526020018280548015611cd257602002820191906000526020600020908154600160a060020a03168152600190910190602001808311611cb4575050505050905090565b3360009081526005602090815260409091208251611bb492600c90920191840190613c88565b60603383151561362857613457613d06565b868152602080820187905260808201859052336000908152600482526040902082518051849361348b928492910190613c88565b506020828101516001830155604083015180516134ae9260028501920190613d6f565b50606082015180516134ca916003840191602090910190613c88565b50608082015180516134e6916004840191602090910190613c88565b5060a08201518051613502916005840191602090910190613d6f565b5060c0820151805161351e916006840191602090910190613d6f565b5060e0820151805161353a916007840191602090910190613d6f565b506101008201518051613557916008840191602090910190613d6f565b506101208201518051613574916009840191602090910190613d6f565b50610140820151805161359191600a840191602090910190613d6f565b5061016082015180516135ae91600b840191602090910190613d6f565b5061018082015180516135cb91600c840191602090910190613d6f565b50506001805480820182556000919091527fb10e2d527612073b26eecdfd717e6a320cf44b4afac2b0732d9fcbe2b7fa0cf6018054600160a060020a031916600160a060020a039490941693909317909255508591506139949050565b83600114156137da57613639613dd0565b86815260208082018790526040808301879052336000908152600583522082518051849361366b928492910190613c88565b50602082810151600183015560408301516002830155606083015180516136989260038501920190613d6f565b50608082015180516136b4916004840191602090910190613d6f565b5060a082015180516136d0916006840191602090910190613d6f565b5060c082015180516136ec916007840191602090910190613d6f565b5060e08201518051613708916008840191602090910190613d6f565b506101008201518051613725916009840191602090910190613d6f565b50610120820151805161374291600a840191602090910190613c88565b50610140820151805161375f91600b840191602090910190613c88565b50610160820151805161377c91600c840191602090910190613c88565b5050600280546001810182556000919091527f405787fa12a823e0f2b7631cc41b3ba8828b3321ca811111fa75cd3aa3bb5ace018054600160a060020a031916600160a060020a039490941693909317909255508591506139949050565b8360021415610275576137eb613dd0565b8681526020808201879052604080830187905261012083018690523360009081526006835220825180518493613825928492910190613c88565b50602082810151600183015560408301516002830155606083015180516138529260038501920190613d6f565b506080820151805161386e916004840191602090910190613d6f565b5060a0820151805161388a916006840191602090910190613d6f565b5060c082015180516138a6916007840191602090910190613d6f565b5060e082015180516138c2916008840191602090910190613d6f565b5061010082015180516138df916009840191602090910190613d6f565b5061012082015180516138fc91600a840191602090910190613c88565b50610140820151805161391991600b840191602090910190613c88565b50610160820151805161393691600c840191602090910190613c88565b5050600380546001810182556000919091527fc2575a0e9e593c00f959f8c92f12db2869c3395a3b0502d05e2516446f71f85b018054600160a060020a031916600160a060020a039490941693909317909255508591506139949050565b949350505050565b600160a060020a038116600090815260046020908152604091829020600a01805483518184028101840190945280845260609391928391908301828280156117a257602002820191906000526020600020908154600160a060020a03168152600190910190602001808311611784575050505050915050919050565b60008080805b8554811015613a6a5784600160a060020a03168682815481101515613a3f57fe5b600091825260209091200154600160a060020a03161415613a6257600192508091505b600101613a1e565b50811515613a7757600080fd5b845460011415613aad578481815481101515613a8f57fe5b60009182526020909120018054600160a060020a0319169055613b3a565b845485906000198101908110613abf57fe5b6000918252602090912001548554600160a060020a0390911690869083908110613ae557fe5b60009182526020909120018054600160a060020a031916600160a060020a0392909216919091179055845485906000198101908110613b2057fe5b60009182526020909120018054600160a060020a03191690555b8454613b4a866000198301613e32565b50505092915050565b600160a060020a038216600090815260046020818152604090922083516117fa93919092019190840190613c88565b8051600090839083901580613b98575081518151115b15613ba857600092505050611955565b60005b81518351038111613c7c57600160005b8351811015613c5f578381815181101515613bd257fe5b90602001015160f860020a900460f860020a027effffffffffffffffffffffffffffffffffffffffffffffffffffffffffffff191685828501815181101515613c1757fe5b60209101015160f860020a90819004027fff000000000000000000000000000000000000000000000000000000000000001614613c575760009150613c5f565b600101613bbb565b508015613c73576001945050505050611955565b50600101613bab565b50600095945050505050565b828054600181600116156101000203166002900490600052602060002090601f016020900481019282601f10613cc957805160ff1916838001178555613cf6565b82800160010185558215613cf6579182015b82811115613cf6578251825591602001919060010190613cdb565b50613d02929150613e52565b5090565b6101a060405190810160405280606081526020016000815260200160608152602001606081526020016060815260200160608152602001606081526020016060815260200160608152602001606081526020016060815260200160608152602001606081525090565b828054828255906000526020600020908101928215613dc4579160200282015b82811115613dc45782518254600160a060020a031916600160a060020a03909116178255602090920191600190910190613d8f565b50613d02929150613e6c565b610180604051908101604052806060815260200160008152602001600081526020016060815260200160608152602001606081526020016060815260200160608152602001606081526020016060815260200160608152602001606081525090565b8154818355818111156117fa576000838152602090206117fa9181019083015b611cda91905b80821115613d025760008155600101613e58565b611cda91905b80821115613d02578054600160a060020a0319168155600101613e7256fea165627a7a723058200ebf31cf1603b0ba4d1cf0e3ab3fb5a6b1118fe5329183d04357b7e5dd53acbb0029",
  "source": "pragma solidity ^0.5.1;\r\n\r\ncontract Medishield {\r\n    \r\n    struct patient {\r\n        string name;\r\n        uint number;\r\n        address[] healthcareAccessList;\r\n        string diagnosis; // uint[]\r\n        string record;\r\n        address[] healthcareRequestList;\r\n        // string[] listMedicine;\r\n        address[] doctorSigns;\r\n        // request order medicine\r\n        address[] waitHandleRequestOrderMedicine; // 1\r\n        address[] wasDeletedRequestOrderMedicine;  // -1\r\n        address[] successRequestOrderMedicine; // 3\r\n        address[] waitPaymentRequestOrderMedicine; // 2\r\n        address[] cancelPaymentRequestOrderMedicine;\r\n        address[] queuePatientGetMedicineSuccess;\r\n    }\r\n    \r\n    struct healthcare {\r\n        string name;\r\n        uint number;\r\n        uint designation;\r\n        address[] patientAccessList; // view\r\n        address[] queuDoctorSign; // sign\r\n        // address[] queuePatient; // patients\r\n         mapping(string => address[]) queuePatient;\r\n        address[] queuePatientGetMedicine; // hospital\r\n        address[] doctorAccessList; // hospital\r\n        address[] accessJob; // doctor\r\n        address[] patientOrderMedicineList; //  hospital\r\n        string medicines; // hospital\r\n        string specialty; // doctor\r\n        string workingDays;\r\n    }\r\n\r\n    uint creditPool;\r\n    address[] public patientList;\r\n    address[] public healthcareList;\r\n    // new \r\n    address[] public hospitalList;\r\n    //\r\n\r\n    mapping (address => patient) patientInfo;\r\n    mapping (address => healthcare) healthcareInfo;\r\n    //new\r\n    mapping (address => healthcare) hospitalInfo;\r\n    //\r\n    mapping (address => address) Empty;\r\n    mapping (address => string) patientRecords;\r\n    \r\n\r\n    function add_agent(string memory _name, uint _number, uint _designation, string memory _hash) public returns(string memory){\r\n        address addr = msg.sender;\r\n        if(_designation == 0){\r\n            patient memory p;\r\n            p.name = _name;\r\n            p.number = _number;\r\n            p.record = _hash;\r\n            patientInfo[msg.sender] = p;\r\n            patientList.push(addr)-1;\r\n            return _name;\r\n        }\r\n       else if (_designation == 1){\r\n            healthcare memory d;\r\n            d.name = _name;\r\n            d.number = _number;\r\n            d.designation = _designation;\r\n            //d.medincines = _hash;\r\n            healthcareInfo[msg.sender] = d;\r\n            healthcareList.push(addr)-1;\r\n            return _name;\r\n       }\r\n       else if (_designation == 2){\r\n            healthcare memory d;\r\n            d.name = _name;\r\n            d.number = _number;\r\n            d.designation = _designation;\r\n            d.medicines = _hash;\r\n            hospitalInfo[msg.sender] = d;\r\n            hospitalList.push(addr)-1;\r\n            return _name;\r\n       }\r\n       else{\r\n           revert();\r\n       }\r\n    }\r\n\r\n    function get_patient(address addr) view public returns (string memory , uint, string memory , address, string memory, address){\r\n        // if(keccak256(patientInfo[addr].name) == keccak256(\"\"))revert();\r\n        return (patientInfo[addr].name, patientInfo[addr].number, patientInfo[addr].diagnosis, Empty[addr], patientInfo[addr].record, Empty[addr]);\r\n    }\r\n\r\n    function get_healthcare(address addr) view public returns (string memory , uint, uint256){\r\n        return (healthcareInfo[addr].name, healthcareInfo[addr].number, healthcareInfo[addr].designation);\r\n    }\r\n    function get_hospital(address addr) view public returns (string memory , uint, uint256, string memory){\r\n        return (hospitalInfo[addr].name, hospitalInfo[addr].number, hospitalInfo[addr].designation, hospitalInfo[addr].medicines);\r\n    }\r\n    function get_patient_healthcare_name(address paddr, address daddr) view public returns (string memory , string memory ){\r\n        return (patientInfo[paddr].name,healthcareInfo[daddr].name);\r\n    }\r\n\r\n    function permit_access(address addr) payable public {\r\n        require(msg.value == 2 ether);\r\n        creditPool += 2;\r\n        healthcareInfo[addr].patientAccessList.push(msg.sender)-1;\r\n        patientInfo[msg.sender].healthcareAccessList.push(addr)-1;\r\n    }\r\n    function doctor_permit_access(address addr) payable public {\r\n        require(msg.value == 1 ether);\r\n        creditPool += 2;\r\n        patientInfo[addr].healthcareRequestList.push(msg.sender)-1;\r\n    }\r\n    // new\r\n    // function create_an_appointment(address addr) payable public {\r\n    //     require(msg.value == 2 ether);\r\n    //     creditPool += 2;\r\n    //     healthcareInfo[addr].queuePatient.push(msg.sender)-1;\r\n    // }\r\n    function create_an_appointment(address addr, string memory date) payable public {\r\n        require(msg.value == 2 ether);\r\n        creditPool += 2;\r\n        healthcareInfo[addr].queuePatient[date].push(msg.sender);\r\n    }\r\n    //da sua\r\n    function access_request_patient(address addr, string memory date) payable public {\r\n        require(msg.value == 2 ether);\r\n        creditPool += 2;\r\n        healthcareInfo[msg.sender].queuDoctorSign.push(addr)-1;\r\n        creditPool -= 2;\r\n        remove_element_in_array(healthcareInfo[msg.sender].queuePatient[date], addr);\r\n    }\r\n    \r\n    function doctor_apply(address addr) payable public {\r\n        require(msg.value == 2 ether);\r\n        creditPool += 2;\r\n        hospitalInfo[addr].doctorAccessList.push(msg.sender)-1;\r\n        healthcareInfo[msg.sender].accessJob.push(addr)-1;\r\n    }\r\n    function sign_records(address addr, string memory _hash) payable public {\r\n        require(msg.value == 2 ether);\r\n        creditPool += 2;\r\n        patientInfo[addr].doctorSigns.push(msg.sender)-1;\r\n        set_hash(addr, _hash);\r\n        creditPool -= 2;\r\n        remove_element_in_array(healthcareInfo[msg.sender].queuDoctorSign, addr);\r\n    }\r\n    function request_ordor_medicine(address addr) payable public {\r\n        require(msg.value == 2 ether);\r\n        creditPool += 2;\r\n        hospitalInfo[addr].patientOrderMedicineList.push(msg.sender)-1;\r\n        patientInfo[msg.sender].waitHandleRequestOrderMedicine.push(addr)-1;\r\n    }\r\n    function add_store_medicine(string memory _hash) payable public {\r\n        require(msg.value == 2 ether);\r\n        creditPool += 2;\r\n        hospitalInfo[msg.sender].medicines = _hash;\r\n    }\r\n    function remove_order_request(address addr) payable public{\r\n        require(msg.value == 2 ether);\r\n        creditPool -=1;\r\n        remove_element_in_array(patientInfo[addr].waitHandleRequestOrderMedicine, msg.sender);\r\n        remove_element_in_array( hospitalInfo[msg.sender].patientOrderMedicineList, addr);\r\n        patientInfo[addr].wasDeletedRequestOrderMedicine.push(msg.sender)-1;\r\n    }\r\n    function remove_status_order_request(address addr) payable public{\r\n        require(msg.value == 2 ether);\r\n        creditPool -=1;\r\n        remove_element_in_array(patientInfo[msg.sender].wasDeletedRequestOrderMedicine, addr);\r\n    }\r\n    function choice_specialty(string memory _name) payable public {\r\n        require(msg.value == 2 ether);\r\n        creditPool += 1;\r\n        healthcareInfo[msg.sender].specialty = _name;\r\n    }\r\n    function set_working_days(string memory _hash) payable public {\r\n        //require(healthcareInfo[msg.sender].designation == 1, \"Not a doctor account.\");\r\n        healthcareInfo[msg.sender].workingDays = _hash;\r\n    }\r\n    function check_exits_buy_medicine(address addr, address paddr) public view returns(bool) {\r\n        for (uint i = 0; i < hospitalInfo[addr].patientOrderMedicineList.length; i++) {\r\n            if(hospitalInfo[addr].patientOrderMedicineList[i] == paddr) {\r\n                return true;\r\n            }\r\n        }\r\n        return false;\r\n    }\r\n    //\r\n    function permit_access_and_remove_doctor_permit_access(address addr) payable public {\r\n        require(msg.value == 2 ether);\r\n        creditPool += 2;\r\n        healthcareInfo[addr].patientAccessList.push(msg.sender)-1;\r\n        patientInfo[msg.sender].healthcareAccessList.push(addr)-1;\r\n        creditPool -= 2;\r\n        remove_element_in_array(patientInfo[msg.sender].healthcareRequestList, addr);\r\n    }\r\n    function cancel_access(address addr) payable public {\r\n        require(msg.value == 2 ether);\r\n        creditPool -= 2;\r\n        remove_element_in_array(patientInfo[msg.sender].healthcareRequestList, addr);\r\n    }\r\n    function permit_access_and_submitfile(address addr, address paddr, string memory  _hash) payable public {\r\n        require(msg.value == 2 ether);\r\n        creditPool += 2;\r\n        healthcareInfo[addr].patientAccessList.push(msg.sender)-1;\r\n        patientInfo[msg.sender].healthcareAccessList.push(addr)-1;\r\n        submitfile(paddr,_hash);\r\n    }\r\n    // show request \r\n    //must be called by healthcare.\r\n    function submitfile(address paddr, string memory  _hash) public {\r\n        bool patientFound = false;\r\n        for(uint i = 0;i<healthcareInfo[msg.sender].patientAccessList.length;i++){\r\n            if(healthcareInfo[msg.sender].patientAccessList[i]==paddr){\r\n                msg.sender.transfer(2 ether);\r\n                creditPool -= 2;\r\n                patientFound = true;\r\n            }\r\n        }\r\n        if(patientFound==true){\r\n            set_hash(paddr, _hash);\r\n            remove_patient(paddr, msg.sender);\r\n        }else {\r\n            revert();\r\n        }\r\n    }\r\n    function remove_element_in_array(address[] storage Array, address addr) internal returns(uint)\r\n    {\r\n        bool check = false;\r\n        uint del_index = 0;\r\n        for(uint i = 0; i<Array.length; i++){\r\n            if(Array[i] == addr){\r\n                check = true;\r\n                del_index = i;\r\n            }\r\n        }\r\n        if(!check) revert();\r\n        else{\r\n            if(Array.length == 1){\r\n                delete Array[del_index];\r\n            }\r\n            else {\r\n                Array[del_index] = Array[Array.length - 1];\r\n                delete Array[Array.length - 1];\r\n\r\n            }\r\n            Array.length--;\r\n        }\r\n    }\r\n\r\n    function remove_patient(address paddr, address daddr) public {\r\n        remove_element_in_array(healthcareInfo[daddr].patientAccessList, paddr);\r\n        remove_element_in_array(patientInfo[paddr].healthcareAccessList, daddr);\r\n    }\r\n    \r\n    function get_accessed_healthcarelist_for_patient(address addr) public view returns (address[] memory )\r\n    { \r\n        address[] storage healthcareaddr = patientInfo[addr].healthcareAccessList;\r\n        return healthcareaddr;\r\n    }\r\n    function get_request_healthcarelist_for_patient(address addr) public view returns (address[] memory )\r\n    {\r\n        address[] storage healthcareaddr = patientInfo[addr].healthcareRequestList;\r\n        return healthcareaddr;\r\n    }\r\n    function get_accessed_patientlist_for_healthcare(address addr) public view returns (address[] memory )\r\n    {\r\n        return healthcareInfo[addr].patientAccessList;\r\n    }\r\n    // new\r\n    // function get_appointment_first(address addr) public view returns (address[] memory ){\r\n    //     address[] storage healthcareaddr = healthcareInfo[addr].queuePatient;\r\n    //     return healthcareaddr;\r\n    // }\r\n    function get_appointment_first(address addr, string memory date) public view returns (address[] memory) {\r\n        // Retrieve the queue for the specified date\r\n        address[] storage healthcareaddr = healthcareInfo[addr].queuePatient[date];\r\n        return healthcareaddr;\r\n    }\r\n    function get_queue_doctor_sign_first(address addr) public view returns (address[] memory ){\r\n        address[] storage healthcareaddr = healthcareInfo[addr].queuDoctorSign;\r\n        return healthcareaddr;\r\n    }\r\n    function get_employeees_hospital(address addr) public view returns (address[] memory) {\r\n        address[] storage doctoraddr = hospitalInfo[addr].doctorAccessList;\r\n        return doctoraddr;\r\n    }\r\n    function get_job_doctor(address addr) public view returns (address[] memory) {\r\n        address[] storage doctoraddr = healthcareInfo[addr].accessJob;\r\n        return doctoraddr;\r\n    }\r\n    function resign_job_from_doctor(address addr) public {\r\n        remove_element_in_array(hospitalInfo[addr].doctorAccessList, msg.sender);\r\n        remove_element_in_array(healthcareInfo[msg.sender].accessJob, addr);\r\n    }\r\n    function quit_job_from_hospital(address addr) public {\r\n        remove_element_in_array(hospitalInfo[msg.sender].doctorAccessList, addr);\r\n        remove_element_in_array(healthcareInfo[addr].accessJob, msg.sender);\r\n    }\r\n    function get_doctor_in_medicine(address addr) public view  returns (address[] memory) {\r\n        return patientInfo[addr].doctorSigns;\r\n    }\r\n    function get_patient_order_medicine(address addr) public view returns(address[] memory) {\r\n        address[] storage patientAddr =  hospitalInfo[addr].patientOrderMedicineList;\r\n        return patientAddr;\r\n    }\r\n    function get_wait_handle_request_order_medicine(address addr) public view returns(address[] memory) {\r\n        address[] storage hospitalAddr =  patientInfo[addr].waitHandleRequestOrderMedicine;\r\n        return hospitalAddr;\r\n    }\r\n    function get_wait_payment_request_order_medicine(address addr) public view returns(address[] memory) {\r\n        address[] storage hospitalAddr =  patientInfo[addr].waitPaymentRequestOrderMedicine;\r\n        return hospitalAddr;\r\n    }\r\n    function get_was_deleted_request_order_medicine(address addr) public view returns(address[] memory) {\r\n        address[] storage hospitalAddr =  patientInfo[addr].wasDeletedRequestOrderMedicine;\r\n        return hospitalAddr;\r\n    }\r\n    function get_success_request_order_medicine(address addr) public view returns(address[] memory) {\r\n        address[] storage hospitalAddr =  patientInfo[addr].successRequestOrderMedicine;\r\n        return hospitalAddr;\r\n    }\r\n    function get_specialty_healthcare(address addr) public view returns(string memory) {\r\n        return healthcareInfo[addr].specialty;\r\n    }\r\n \r\n    function get_working_days(address addr) public view  returns (string memory) {\r\n         return healthcareInfo[addr].workingDays;\r\n    }\r\n    //\r\n    function revoke_access(address daddr) public payable{\r\n        remove_patient(msg.sender,daddr);\r\n        msg.sender.transfer(2 ether);\r\n        creditPool -= 2;\r\n    }\r\n    \r\n    function get_patient_list() public view returns(address[] memory ){\r\n        return patientList;\r\n    }\r\n\r\n    function get_healthcare_list() public view returns(address[] memory ){\r\n        return healthcareList;\r\n    }\r\n\r\n    function get_hash(address paddr) public view returns(string memory ){\r\n        return patientInfo[paddr].record;\r\n    }\r\n \r\n    function set_hash(address paddr, string memory _hash) internal {\r\n        patientInfo[paddr].record = _hash;\r\n    }\r\n\r\n    //new\r\n    function get_hospital_list() public view returns (address[] memory) {\r\n        return hospitalList;\r\n    }\r\n  \r\n\r\n    function getAddressesByField(string memory _field, bool isSpecialty) public view returns (address[] memory) {\r\n        address[] memory matchingAddresses = new address[](healthcareList.length);\r\n        uint count = 0;\r\n\r\n        for (uint i = 0; i < healthcareList.length; i++) {\r\n            string memory compareField = isSpecialty \r\n                ? healthcareInfo[healthcareList[i]].specialty \r\n                : healthcareInfo[healthcareList[i]].workingDays;\r\n\r\n            // Kim tra gi tr\r\n            if (\r\n                (isSpecialty && keccak256(abi.encodePacked(compareField)) == keccak256(abi.encodePacked(_field))) || \r\n                (!isSpecialty && contains(compareField, _field))\r\n            ) {\r\n                matchingAddresses[count] = healthcareList[i];\r\n                count++;\r\n            }\r\n        }\r\n\r\n        \r\n        address[] memory result = new address[](count);\r\n        for (uint j = 0; j < count; j++) {\r\n            result[j] = matchingAddresses[j];\r\n        }\r\n\r\n        return result;\r\n    }\r\n    function contains(string memory _base, string memory _value) internal pure returns (bool) {\r\n        bytes memory baseBytes = bytes(_base);\r\n        bytes memory valueBytes = bytes(_value);\r\n\r\n        // Tr v false nu chui _value rng hoc di hn chui _base\r\n        if (valueBytes.length == 0 || valueBytes.length > baseBytes.length) {\r\n            return false;\r\n        }\r\n\r\n        for (uint i = 0; i <= baseBytes.length - valueBytes.length; i++) {\r\n            bool matchFound = true;\r\n            for (uint j = 0; j < valueBytes.length; j++) {\r\n                if (baseBytes[i + j] != valueBytes[j]) {\r\n                    matchFound = false;\r\n                    break;\r\n                }\r\n            }\r\n            if (matchFound) {\r\n                return true;\r\n            }\r\n        }\r\n\r\n        return false;\r\n    }\r\n\r\n    function send_request_payment(address addr, string memory _hash) payable public {\r\n        require(msg.value == 2 ether);\r\n        creditPool += 2;\r\n        hospitalInfo[msg.sender].medicines = _hash;\r\n        patientInfo[addr].waitPaymentRequestOrderMedicine.push(msg.sender)-1;\r\n        creditPool -= 1;\r\n        remove_element_in_array(patientInfo[addr].waitHandleRequestOrderMedicine, msg.sender);\r\n    }\r\n    function payment_medicine_success(address addr) payable public {\r\n        require(msg.value == 2 ether);\r\n        creditPool +=2;\r\n        patientInfo[msg.sender].successRequestOrderMedicine.push(addr)-1;\r\n        creditPool -= 1;\r\n        remove_element_in_array(patientInfo[msg.sender].waitPaymentRequestOrderMedicine, addr);\r\n    }\r\n    function cancel_payment_medicine(address addr) payable public {\r\n        require(msg.value == 2 ether);\r\n        creditPool += 2;\r\n        patientInfo[msg.sender].cancelPaymentRequestOrderMedicine.push(addr)-1;\r\n        creditPool -=1;\r\n        remove_element_in_array(patientInfo[msg.sender].waitPaymentRequestOrderMedicine, addr);\r\n    }\r\n    function get_cancel_payment_request_order_medicine(address addr) public view returns(address[] memory) {\r\n            address[] storage hospitalAddr =  patientInfo[addr].cancelPaymentRequestOrderMedicine;\r\n            return hospitalAddr;\r\n        }\r\n\r\n}",
  "sourcePath": "C:\\Users\\Acer\\Desktop\\MY WORKSPASE\\DACN\\Blockchain\\Demo_22_12\\Blockchain-For-EHR-Management\\contracts\\Medishield.sol",
  "compiler": {
    "name": "solc",
    "version": "0.5.1+commit.c8a2cb62.Emscripten.clang"
  },
  "schemaVersion": "3.4.16",
  "updatedAt": "2024-12-22T04:54:58.074Z",
  "networkType": "ethereum",
  "devdoc": {
    "methods": {}
  },
  "userdoc": {
    "methods": {}
  }
}