{
  "contractName": "Medishield",
  "abi": [
    {
      "constant": true,
      "inputs": [
        {
          "name": "",
          "type": "uint256"
        }
      ],
      "name": "healthcareList",
      "outputs": [
        {
          "name": "",
          "type": "address"
        }
      ],
      "payable": false,
      "stateMutability": "view",
      "type": "function"
    },
    {
      "constant": true,
      "inputs": [
        {
          "name": "",
          "type": "uint256"
        }
      ],
      "name": "patientList",
      "outputs": [
        {
          "name": "",
          "type": "address"
        }
      ],
      "payable": false,
      "stateMutability": "view",
      "type": "function"
    },
    {
      "constant": true,
      "inputs": [
        {
          "name": "",
          "type": "uint256"
        }
      ],
      "name": "hospitalList",
      "outputs": [
        {
          "name": "",
          "type": "address"
        }
      ],
      "payable": false,
      "stateMutability": "view",
      "type": "function"
    },
    {
      "constant": false,
      "inputs": [
        {
          "name": "_name",
          "type": "string"
        },
        {
          "name": "_number",
          "type": "uint256"
        },
        {
          "name": "_designation",
          "type": "uint256"
        },
        {
          "name": "_hash",
          "type": "string"
        }
      ],
      "name": "add_agent",
      "outputs": [
        {
          "name": "",
          "type": "string"
        }
      ],
      "payable": false,
      "stateMutability": "nonpayable",
      "type": "function"
    },
    {
      "constant": true,
      "inputs": [
        {
          "name": "addr",
          "type": "address"
        }
      ],
      "name": "get_patient",
      "outputs": [
        {
          "name": "",
          "type": "string"
        },
        {
          "name": "",
          "type": "uint256"
        },
        {
          "name": "",
          "type": "string"
        },
        {
          "name": "",
          "type": "address"
        },
        {
          "name": "",
          "type": "string"
        },
        {
          "name": "",
          "type": "address"
        }
      ],
      "payable": false,
      "stateMutability": "view",
      "type": "function"
    },
    {
      "constant": true,
      "inputs": [
        {
          "name": "addr",
          "type": "address"
        }
      ],
      "name": "get_healthcare",
      "outputs": [
        {
          "name": "",
          "type": "string"
        },
        {
          "name": "",
          "type": "uint256"
        },
        {
          "name": "",
          "type": "uint256"
        }
      ],
      "payable": false,
      "stateMutability": "view",
      "type": "function"
    },
    {
      "constant": true,
      "inputs": [
        {
          "name": "addr",
          "type": "address"
        }
      ],
      "name": "get_hospital",
      "outputs": [
        {
          "name": "",
          "type": "string"
        },
        {
          "name": "",
          "type": "uint256"
        },
        {
          "name": "",
          "type": "uint256"
        },
        {
          "name": "",
          "type": "string"
        }
      ],
      "payable": false,
      "stateMutability": "view",
      "type": "function"
    },
    {
      "constant": true,
      "inputs": [
        {
          "name": "paddr",
          "type": "address"
        },
        {
          "name": "daddr",
          "type": "address"
        }
      ],
      "name": "get_patient_healthcare_name",
      "outputs": [
        {
          "name": "",
          "type": "string"
        },
        {
          "name": "",
          "type": "string"
        }
      ],
      "payable": false,
      "stateMutability": "view",
      "type": "function"
    },
    {
      "constant": false,
      "inputs": [
        {
          "name": "addr",
          "type": "address"
        }
      ],
      "name": "permit_access",
      "outputs": [],
      "payable": true,
      "stateMutability": "payable",
      "type": "function"
    },
    {
      "constant": false,
      "inputs": [
        {
          "name": "addr",
          "type": "address"
        }
      ],
      "name": "doctor_permit_access",
      "outputs": [],
      "payable": true,
      "stateMutability": "payable",
      "type": "function"
    },
    {
      "constant": false,
      "inputs": [
        {
          "name": "addr",
          "type": "address"
        }
      ],
      "name": "create_an_appointment",
      "outputs": [],
      "payable": true,
      "stateMutability": "payable",
      "type": "function"
    },
    {
      "constant": false,
      "inputs": [
        {
          "name": "addr",
          "type": "address"
        }
      ],
      "name": "access_request_patient",
      "outputs": [],
      "payable": true,
      "stateMutability": "payable",
      "type": "function"
    },
    {
      "constant": false,
      "inputs": [
        {
          "name": "addr",
          "type": "address"
        }
      ],
      "name": "doctor_apply",
      "outputs": [],
      "payable": true,
      "stateMutability": "payable",
      "type": "function"
    },
    {
      "constant": false,
      "inputs": [
        {
          "name": "addr",
          "type": "address"
        },
        {
          "name": "_hash",
          "type": "string"
        }
      ],
      "name": "sign_records",
      "outputs": [],
      "payable": true,
      "stateMutability": "payable",
      "type": "function"
    },
    {
      "constant": false,
      "inputs": [
        {
          "name": "addr",
          "type": "address"
        }
      ],
      "name": "request_ordor_medicine",
      "outputs": [],
      "payable": true,
      "stateMutability": "payable",
      "type": "function"
    },
    {
      "constant": false,
      "inputs": [
        {
          "name": "_hash",
          "type": "string"
        }
      ],
      "name": "add_store_medicine",
      "outputs": [],
      "payable": true,
      "stateMutability": "payable",
      "type": "function"
    },
    {
      "constant": false,
      "inputs": [
        {
          "name": "addr",
          "type": "address"
        }
      ],
      "name": "remove_order_request",
      "outputs": [],
      "payable": true,
      "stateMutability": "payable",
      "type": "function"
    },
    {
      "constant": false,
      "inputs": [
        {
          "name": "addr",
          "type": "address"
        }
      ],
      "name": "remove_status_order_request",
      "outputs": [],
      "payable": true,
      "stateMutability": "payable",
      "type": "function"
    },
    {
      "constant": false,
      "inputs": [
        {
          "name": "_name",
          "type": "string"
        }
      ],
      "name": "choice_specialty",
      "outputs": [],
      "payable": true,
      "stateMutability": "payable",
      "type": "function"
    },
    {
      "constant": false,
      "inputs": [
        {
          "name": "_hash",
          "type": "string"
        }
      ],
      "name": "set_working_days",
      "outputs": [],
      "payable": true,
      "stateMutability": "payable",
      "type": "function"
    },
    {
      "constant": false,
      "inputs": [
        {
          "name": "addr",
          "type": "address"
        }
      ],
      "name": "permit_access_and_remove_doctor_permit_access",
      "outputs": [],
      "payable": true,
      "stateMutability": "payable",
      "type": "function"
    },
    {
      "constant": false,
      "inputs": [
        {
          "name": "addr",
          "type": "address"
        }
      ],
      "name": "cancel_access",
      "outputs": [],
      "payable": true,
      "stateMutability": "payable",
      "type": "function"
    },
    {
      "constant": false,
      "inputs": [
        {
          "name": "addr",
          "type": "address"
        },
        {
          "name": "paddr",
          "type": "address"
        },
        {
          "name": "_hash",
          "type": "string"
        }
      ],
      "name": "permit_access_and_submitfile",
      "outputs": [],
      "payable": true,
      "stateMutability": "payable",
      "type": "function"
    },
    {
      "constant": false,
      "inputs": [
        {
          "name": "paddr",
          "type": "address"
        },
        {
          "name": "_hash",
          "type": "string"
        }
      ],
      "name": "submitfile",
      "outputs": [],
      "payable": false,
      "stateMutability": "nonpayable",
      "type": "function"
    },
    {
      "constant": false,
      "inputs": [
        {
          "name": "paddr",
          "type": "address"
        },
        {
          "name": "daddr",
          "type": "address"
        }
      ],
      "name": "remove_patient",
      "outputs": [],
      "payable": false,
      "stateMutability": "nonpayable",
      "type": "function"
    },
    {
      "constant": true,
      "inputs": [
        {
          "name": "addr",
          "type": "address"
        }
      ],
      "name": "get_accessed_healthcarelist_for_patient",
      "outputs": [
        {
          "name": "",
          "type": "address[]"
        }
      ],
      "payable": false,
      "stateMutability": "view",
      "type": "function"
    },
    {
      "constant": true,
      "inputs": [
        {
          "name": "addr",
          "type": "address"
        }
      ],
      "name": "get_request_healthcarelist_for_patient",
      "outputs": [
        {
          "name": "",
          "type": "address[]"
        }
      ],
      "payable": false,
      "stateMutability": "view",
      "type": "function"
    },
    {
      "constant": true,
      "inputs": [
        {
          "name": "addr",
          "type": "address"
        }
      ],
      "name": "get_accessed_patientlist_for_healthcare",
      "outputs": [
        {
          "name": "",
          "type": "address[]"
        }
      ],
      "payable": false,
      "stateMutability": "view",
      "type": "function"
    },
    {
      "constant": true,
      "inputs": [
        {
          "name": "addr",
          "type": "address"
        }
      ],
      "name": "get_appointment_first",
      "outputs": [
        {
          "name": "",
          "type": "address[]"
        }
      ],
      "payable": false,
      "stateMutability": "view",
      "type": "function"
    },
    {
      "constant": true,
      "inputs": [
        {
          "name": "addr",
          "type": "address"
        }
      ],
      "name": "get_queue_doctor_sign_first",
      "outputs": [
        {
          "name": "",
          "type": "address[]"
        }
      ],
      "payable": false,
      "stateMutability": "view",
      "type": "function"
    },
    {
      "constant": true,
      "inputs": [
        {
          "name": "addr",
          "type": "address"
        }
      ],
      "name": "get_employeees_hospital",
      "outputs": [
        {
          "name": "",
          "type": "address[]"
        }
      ],
      "payable": false,
      "stateMutability": "view",
      "type": "function"
    },
    {
      "constant": true,
      "inputs": [
        {
          "name": "addr",
          "type": "address"
        }
      ],
      "name": "get_job_doctor",
      "outputs": [
        {
          "name": "",
          "type": "address[]"
        }
      ],
      "payable": false,
      "stateMutability": "view",
      "type": "function"
    },
    {
      "constant": false,
      "inputs": [
        {
          "name": "addr",
          "type": "address"
        }
      ],
      "name": "resign_job_from_doctor",
      "outputs": [],
      "payable": false,
      "stateMutability": "nonpayable",
      "type": "function"
    },
    {
      "constant": false,
      "inputs": [
        {
          "name": "addr",
          "type": "address"
        }
      ],
      "name": "quit_job_from_hospital",
      "outputs": [],
      "payable": false,
      "stateMutability": "nonpayable",
      "type": "function"
    },
    {
      "constant": true,
      "inputs": [
        {
          "name": "addr",
          "type": "address"
        }
      ],
      "name": "get_doctor_in_medicine",
      "outputs": [
        {
          "name": "",
          "type": "address[]"
        }
      ],
      "payable": false,
      "stateMutability": "view",
      "type": "function"
    },
    {
      "constant": true,
      "inputs": [
        {
          "name": "addr",
          "type": "address"
        }
      ],
      "name": "get_patient_order_medicine",
      "outputs": [
        {
          "name": "",
          "type": "address[]"
        }
      ],
      "payable": false,
      "stateMutability": "view",
      "type": "function"
    },
    {
      "constant": true,
      "inputs": [
        {
          "name": "addr",
          "type": "address"
        }
      ],
      "name": "get_wait_handle_request_order_medicine",
      "outputs": [
        {
          "name": "",
          "type": "address[]"
        }
      ],
      "payable": false,
      "stateMutability": "view",
      "type": "function"
    },
    {
      "constant": true,
      "inputs": [
        {
          "name": "addr",
          "type": "address"
        }
      ],
      "name": "get_wait_payment_request_order_medicine",
      "outputs": [
        {
          "name": "",
          "type": "address[]"
        }
      ],
      "payable": false,
      "stateMutability": "view",
      "type": "function"
    },
    {
      "constant": true,
      "inputs": [
        {
          "name": "addr",
          "type": "address"
        }
      ],
      "name": "get_was_deleted_request_order_medicine",
      "outputs": [
        {
          "name": "",
          "type": "address[]"
        }
      ],
      "payable": false,
      "stateMutability": "view",
      "type": "function"
    },
    {
      "constant": true,
      "inputs": [
        {
          "name": "addr",
          "type": "address"
        }
      ],
      "name": "get_success_request_order_medicine",
      "outputs": [
        {
          "name": "",
          "type": "address[]"
        }
      ],
      "payable": false,
      "stateMutability": "view",
      "type": "function"
    },
    {
      "constant": true,
      "inputs": [
        {
          "name": "addr",
          "type": "address"
        }
      ],
      "name": "get_specialty_healthcare",
      "outputs": [
        {
          "name": "",
          "type": "string"
        }
      ],
      "payable": false,
      "stateMutability": "view",
      "type": "function"
    },
    {
      "constant": true,
      "inputs": [
        {
          "name": "addr",
          "type": "address"
        }
      ],
      "name": "get_working_days",
      "outputs": [
        {
          "name": "",
          "type": "string"
        }
      ],
      "payable": false,
      "stateMutability": "view",
      "type": "function"
    },
    {
      "constant": false,
      "inputs": [
        {
          "name": "daddr",
          "type": "address"
        }
      ],
      "name": "revoke_access",
      "outputs": [],
      "payable": true,
      "stateMutability": "payable",
      "type": "function"
    },
    {
      "constant": true,
      "inputs": [],
      "name": "get_patient_list",
      "outputs": [
        {
          "name": "",
          "type": "address[]"
        }
      ],
      "payable": false,
      "stateMutability": "view",
      "type": "function"
    },
    {
      "constant": true,
      "inputs": [],
      "name": "get_healthcare_list",
      "outputs": [
        {
          "name": "",
          "type": "address[]"
        }
      ],
      "payable": false,
      "stateMutability": "view",
      "type": "function"
    },
    {
      "constant": true,
      "inputs": [
        {
          "name": "paddr",
          "type": "address"
        }
      ],
      "name": "get_hash",
      "outputs": [
        {
          "name": "",
          "type": "string"
        }
      ],
      "payable": false,
      "stateMutability": "view",
      "type": "function"
    },
    {
      "constant": true,
      "inputs": [],
      "name": "get_hospital_list",
      "outputs": [
        {
          "name": "",
          "type": "address[]"
        }
      ],
      "payable": false,
      "stateMutability": "view",
      "type": "function"
    },
    {
      "constant": true,
      "inputs": [
        {
          "name": "_field",
          "type": "string"
        },
        {
          "name": "isSpecialty",
          "type": "bool"
        }
      ],
      "name": "getAddressesByField",
      "outputs": [
        {
          "name": "",
          "type": "address[]"
        }
      ],
      "payable": false,
      "stateMutability": "view",
      "type": "function"
    }
  ],
  "bytecode": "0x608060405234801561001057600080fd5b50615fe380620000216000396000f3fe60806040526004361061023f576000357c0100000000000000000000000000000000000000000000000000000000900480622fd866146102445780630362fe9b146102ea5780630abcb6a01461035b578063239a75ff1461044357806326e161bc146104e957806327b1dcee1461058f57806327d9be43146105d35780632a84e0d5146106175780632a866eee146106d25780632a8d8b9c146107ad5780632b6850061461081957806333cdfdba146108bf5780633740b3c0146109035780633ba6c5501461097e5780633e429f8f146109cf5780634042d2d414610a755780634149060a14610c845780634b0ca58514610d2a57806350cbd8ae14610d6e57806352fc89c214610e1457806358db888e14610e805780635a2f284414610fc45780635b2af59e1461107f5780636e82bafc146111495780637e1519ce146111ef57806385cbce97146112b957806388a53fcd146112fd578063890fa83b146113415780639ce05dc9146113925780639f55c37b1461145c578063a87648a014611502578063b3d94bd0146115fd578063b462b31f146116a3578063b5d1b3e1146116e7578063babb1d411461178d578063bcffb7ca14611808578063bdf633df1461184c578063c196a15f14611890578063c82412b9146118d4578063cb37190e1461194f578063cf9c186f14611aa5578063d51d4b4a14611ae9578063d6763c7f14611c12578063e7322c7014611cb8578063e81ac05414611d90578063ef2aac7f14611dfc578063f02d90a414611eb7578063fa45f6fc146120a3575b600080fd5b34801561025057600080fd5b506102936004803603602081101561026757600080fd5b81019080803573ffffffffffffffffffffffffffffffffffffffff169060200190929190505050612149565b6040518080602001828103825283818151815260200191508051906020019060200280838360005b838110156102d65780820151818401526020810190506102bb565b505050509050019250505060405180910390f35b3480156102f657600080fd5b506103596004803603604081101561030d57600080fd5b81019080803573ffffffffffffffffffffffffffffffffffffffff169060200190929190803573ffffffffffffffffffffffffffffffffffffffff16906020019092919050505061221f565b005b34801561036757600080fd5b506104416004803603604081101561037e57600080fd5b81019080803573ffffffffffffffffffffffffffffffffffffffff169060200190929190803590602001906401000000008111156103bb57600080fd5b8201836020820111156103cd57600080fd5b803590602001918460018302840111640100000000831117156103ef57600080fd5b91908080601f016020809104026020016040519081016040528093929190818152602001838380828437600081840152601f19601f8201169050808301925050505050505091929192905050506122bb565b005b34801561044f57600080fd5b506104926004803603602081101561046657600080fd5b81019080803573ffffffffffffffffffffffffffffffffffffffff169060200190929190505050612462565b6040518080602001828103825283818151815260200191508051906020019060200280838360005b838110156104d55780820151818401526020810190506104ba565b505050509050019250505060405180910390f35b3480156104f557600080fd5b506105386004803603602081101561050c57600080fd5b81019080803573ffffffffffffffffffffffffffffffffffffffff169060200190929190505050612532565b6040518080602001828103825283818151815260200191508051906020019060200280838360005b8381101561057b578082015181840152602081019050610560565b505050509050019250505060405180910390f35b6105d1600480360360208110156105a557600080fd5b81019080803573ffffffffffffffffffffffffffffffffffffffff169060200190929190505050612608565b005b610615600480360360208110156105e957600080fd5b81019080803573ffffffffffffffffffffffffffffffffffffffff169060200190929190505050612674565b005b6106d06004803603602081101561062d57600080fd5b810190808035906020019064010000000081111561064a57600080fd5b82018360208201111561065c57600080fd5b8035906020019184600183028401116401000000008311171561067e57600080fd5b91908080601f016020809104026020016040519081016040528093929190818152602001838380828437600081840152601f19601f8201169050808301925050505050505091929192905050506126e9565b005b6107ab600480360360408110156106e857600080fd5b81019080803573ffffffffffffffffffffffffffffffffffffffff1690602001909291908035906020019064010000000081111561072557600080fd5b82018360208201111561073757600080fd5b8035906020019184600183028401116401000000008311171561075957600080fd5b91908080601f016020809104026020016040519081016040528093929190818152602001838380828437600081840152601f19601f820116905080830192505050505050509192919290505050612769565b005b3480156107b957600080fd5b506107c26128a2565b6040518080602001828103825283818151815260200191508051906020019060200280838360005b838110156108055780820151818401526020810190506107ea565b505050509050019250505060405180910390f35b34801561082557600080fd5b506108686004803603602081101561083c57600080fd5b81019080803573ffffffffffffffffffffffffffffffffffffffff169060200190929190505050612930565b6040518080602001828103825283818151815260200191508051906020019060200280838360005b838110156108ab578082015181840152602081019050610890565b505050509050019250505060405180910390f35b610901600480360360208110156108d557600080fd5b81019080803573ffffffffffffffffffffffffffffffffffffffff169060200190929190505050612a06565b005b34801561090f57600080fd5b5061093c6004803603602081101561092657600080fd5b8101908080359060200190929190505050612b81565b604051808273ffffffffffffffffffffffffffffffffffffffff1673ffffffffffffffffffffffffffffffffffffffff16815260200191505060405180910390f35b34801561098a57600080fd5b506109cd600480360360208110156109a157600080fd5b81019080803573ffffffffffffffffffffffffffffffffffffffff169060200190929190505050612bbf565b005b3480156109db57600080fd5b50610a1e600480360360208110156109f257600080fd5b81019080803573ffffffffffffffffffffffffffffffffffffffff169060200190929190505050612c5a565b6040518080602001828103825283818151815260200191508051906020019060200280838360005b83811015610a61578082015181840152602081019050610a46565b505050509050019250505060405180910390f35b348015610a8157600080fd5b50610ac460048036036020811015610a9857600080fd5b81019080803573ffffffffffffffffffffffffffffffffffffffff169060200190929190505050612d30565b6040518080602001878152602001806020018673ffffffffffffffffffffffffffffffffffffffff1673ffffffffffffffffffffffffffffffffffffffff168152602001806020018573ffffffffffffffffffffffffffffffffffffffff1673ffffffffffffffffffffffffffffffffffffffff16815260200184810384528a818151815260200191508051906020019080838360005b83811015610b76578082015181840152602081019050610b5b565b50505050905090810190601f168015610ba35780820380516001836020036101000a031916815260200191505b50848103835288818151815260200191508051906020019080838360005b83811015610bdc578082015181840152602081019050610bc1565b50505050905090810190601f168015610c095780820380516001836020036101000a031916815260200191505b50848103825286818151815260200191508051906020019080838360005b83811015610c42578082015181840152602081019050610c27565b50505050905090810190601f168015610c6f5780820380516001836020036101000a031916815260200191505b50995050505050505050505060405180910390f35b348015610c9057600080fd5b50610cd360048036036020811015610ca757600080fd5b81019080803573ffffffffffffffffffffffffffffffffffffffff1690602001909291905050506130ee565b6040518080602001828103825283818151815260200191508051906020019060200280838360005b83811015610d16578082015181840152602081019050610cfb565b505050509050019250505060405180910390f35b610d6c60048036036020811015610d4057600080fd5b81019080803573ffffffffffffffffffffffffffffffffffffffff1690602001909291905050506131c4565b005b348015610d7a57600080fd5b50610dbd60048036036020811015610d9157600080fd5b81019080803573ffffffffffffffffffffffffffffffffffffffff169060200190929190505050613296565b6040518080602001828103825283818151815260200191508051906020019060200280838360005b83811015610e00578082015181840152602081019050610de5565b505050509050019250505060405180910390f35b348015610e2057600080fd5b50610e29613366565b6040518080602001828103825283818151815260200191508051906020019060200280838360005b83811015610e6c578082015181840152602081019050610e51565b505050509050019250505060405180910390f35b348015610e8c57600080fd5b50610ecf60048036036020811015610ea357600080fd5b81019080803573ffffffffffffffffffffffffffffffffffffffff1690602001909291905050506133f4565b604051808060200185815260200184815260200180602001838103835287818151815260200191508051906020019080838360005b83811015610f1f578082015181840152602081019050610f04565b50505050905090810190601f168015610f4c5780820380516001836020036101000a031916815260200191505b50838103825284818151815260200191508051906020019080838360005b83811015610f85578082015181840152602081019050610f6a565b50505050905090810190601f168015610fb25780820380516001836020036101000a031916815260200191505b50965050505050505060405180910390f35b61107d60048036036020811015610fda57600080fd5b8101908080359060200190640100000000811115610ff757600080fd5b82018360208201111561100957600080fd5b8035906020019184600183028401116401000000008311171561102b57600080fd5b91908080601f016020809104026020016040519081016040528093929190818152602001838380828437600081840152601f19601f82011690508083019250505050505050919291929050505061364c565b005b34801561108b57600080fd5b506110ce600480360360208110156110a257600080fd5b81019080803573ffffffffffffffffffffffffffffffffffffffff1690602001909291905050506136cc565b6040518080602001828103825283818151815260200191508051906020019080838360005b8381101561110e5780820151818401526020810190506110f3565b50505050905090810190601f16801561113b5780820380516001836020036101000a031916815260200191505b509250505060405180910390f35b34801561115557600080fd5b506111986004803603602081101561116c57600080fd5b81019080803573ffffffffffffffffffffffffffffffffffffffff1690602001909291905050506137b0565b6040518080602001828103825283818151815260200191508051906020019060200280838360005b838110156111db5780820151818401526020810190506111c0565b505050509050019250505060405180910390f35b3480156111fb57600080fd5b5061123e6004803603602081101561121257600080fd5b81019080803573ffffffffffffffffffffffffffffffffffffffff169060200190929190505050613886565b6040518080602001828103825283818151815260200191508051906020019080838360005b8381101561127e578082015181840152602081019050611263565b50505050905090810190601f1680156112ab5780820380516001836020036101000a031916815260200191505b509250505060405180910390f35b6112fb600480360360208110156112cf57600080fd5b81019080803573ffffffffffffffffffffffffffffffffffffffff16906020019092919050505061396a565b005b61133f6004803603602081101561131357600080fd5b81019080803573ffffffffffffffffffffffffffffffffffffffff169060200190929190505050613ad4565b005b34801561134d57600080fd5b506113906004803603602081101561136457600080fd5b81019080803573ffffffffffffffffffffffffffffffffffffffff169060200190929190505050613ba6565b005b34801561139e57600080fd5b506113e1600480360360208110156113b557600080fd5b81019080803573ffffffffffffffffffffffffffffffffffffffff169060200190929190505050613c41565b6040518080602001828103825283818151815260200191508051906020019080838360005b83811015611421578082015181840152602081019050611406565b50505050905090810190601f16801561144e5780820380516001836020036101000a031916815260200191505b509250505060405180910390f35b34801561146857600080fd5b506114ab6004803603602081101561147f57600080fd5b81019080803573ffffffffffffffffffffffffffffffffffffffff169060200190929190505050613d25565b6040518080602001828103825283818151815260200191508051906020019060200280838360005b838110156114ee5780820151818401526020810190506114d3565b505050509050019250505060405180910390f35b6115fb6004803603606081101561151857600080fd5b81019080803573ffffffffffffffffffffffffffffffffffffffff169060200190929190803573ffffffffffffffffffffffffffffffffffffffff1690602001909291908035906020019064010000000081111561157557600080fd5b82018360208201111561158757600080fd5b803590602001918460018302840111640100000000831117156115a957600080fd5b91908080601f016020809104026020016040519081016040528093929190818152602001838380828437600081840152601f19601f820116905080830192505050505050509192919290505050613dfb565b005b34801561160957600080fd5b5061164c6004803603602081101561162057600080fd5b81019080803573ffffffffffffffffffffffffffffffffffffffff169060200190929190505050613f82565b6040518080602001828103825283818151815260200191508051906020019060200280838360005b8381101561168f578082015181840152602081019050611674565b505050509050019250505060405180910390f35b6116e5600480360360208110156116b957600080fd5b81019080803573ffffffffffffffffffffffffffffffffffffffff169060200190929190505050614058565b005b3480156116f357600080fd5b506117366004803603602081101561170a57600080fd5b81019080803573ffffffffffffffffffffffffffffffffffffffff169060200190929190505050614186565b6040518080602001828103825283818151815260200191508051906020019060200280838360005b8381101561177957808201518184015260208101905061175e565b505050509050019250505060405180910390f35b34801561179957600080fd5b506117c6600480360360208110156117b057600080fd5b810190808035906020019092919050505061425c565b604051808273ffffffffffffffffffffffffffffffffffffffff1673ffffffffffffffffffffffffffffffffffffffff16815260200191505060405180910390f35b61184a6004803603602081101561181e57600080fd5b81019080803573ffffffffffffffffffffffffffffffffffffffff16906020019092919050505061429a565b005b61188e6004803603602081101561186257600080fd5b81019080803573ffffffffffffffffffffffffffffffffffffffff169060200190929190505050614415565b005b6118d2600480360360208110156118a657600080fd5b81019080803573ffffffffffffffffffffffffffffffffffffffff169060200190929190505050614590565b005b3480156118e057600080fd5b5061190d600480360360208110156118f757600080fd5b8101908080359060200190929190505050614605565b604051808273ffffffffffffffffffffffffffffffffffffffff1673ffffffffffffffffffffffffffffffffffffffff16815260200191505060405180910390f35b34801561195b57600080fd5b506119be6004803603604081101561197257600080fd5b81019080803573ffffffffffffffffffffffffffffffffffffffff169060200190929190803573ffffffffffffffffffffffffffffffffffffffff169060200190929190505050614643565b604051808060200180602001838103835285818151815260200191508051906020019080838360005b83811015611a025780820151818401526020810190506119e7565b50505050905090810190601f168015611a2f5780820380516001836020036101000a031916815260200191505b50838103825284818151815260200191508051906020019080838360005b83811015611a68578082015181840152602081019050611a4d565b50505050905090810190601f168015611a955780820380516001836020036101000a031916815260200191505b5094505050505060405180910390f35b611ae760048036036020811015611abb57600080fd5b81019080803573ffffffffffffffffffffffffffffffffffffffff16906020019092919050505061480d565b005b348015611af557600080fd5b50611bbb60048036036040811015611b0c57600080fd5b8101908080359060200190640100000000811115611b2957600080fd5b820183602082011115611b3b57600080fd5b80359060200191846001830284011164010000000083111715611b5d57600080fd5b91908080601f016020809104026020016040519081016040528093929190818152602001838380828437600081840152601f19601f8201169050808301925050505050505091929192908035151590602001909291905050506149e4565b6040518080602001828103825283818151815260200191508051906020019060200280838360005b83811015611bfe578082015181840152602081019050611be3565b505050509050019250505060405180910390f35b348015611c1e57600080fd5b50611c6160048036036020811015611c3557600080fd5b81019080803573ffffffffffffffffffffffffffffffffffffffff169060200190929190505050614e40565b6040518080602001828103825283818151815260200191508051906020019060200280838360005b83811015611ca4578082015181840152602081019050611c89565b505050509050019250505060405180910390f35b348015611cc457600080fd5b50611d0760048036036020811015611cdb57600080fd5b81019080803573ffffffffffffffffffffffffffffffffffffffff169060200190929190505050614f16565b6040518080602001848152602001838152602001828103825285818151815260200191508051906020019080838360005b83811015611d53578082015181840152602081019050611d38565b50505050905090810190601f168015611d805780820380516001836020036101000a031916815260200191505b5094505050505060405180910390f35b348015611d9c57600080fd5b50611da561508c565b6040518080602001828103825283818151815260200191508051906020019060200280838360005b83811015611de8578082015181840152602081019050611dcd565b505050509050019250505060405180910390f35b611eb560048036036020811015611e1257600080fd5b8101908080359060200190640100000000811115611e2f57600080fd5b820183602082011115611e4157600080fd5b80359060200191846001830284011164010000000083111715611e6357600080fd5b91908080601f016020809104026020016040519081016040528093929190818152602001838380828437600081840152601f19601f82011690508083019250505050505050919291929050505061511a565b005b348015611ec357600080fd5b5061202860048036036080811015611eda57600080fd5b8101908080359060200190640100000000811115611ef757600080fd5b820183602082011115611f0957600080fd5b80359060200191846001830284011164010000000083111715611f2b57600080fd5b91908080601f016020809104026020016040519081016040528093929190818152602001838380828437600081840152601f19601f820116905080830192505050505050509192919290803590602001909291908035906020019092919080359060200190640100000000811115611fa257600080fd5b820183602082011115611fb457600080fd5b80359060200191846001830284011164010000000083111715611fd657600080fd5b91908080601f016020809104026020016040519081016040528093929190818152602001838380828437600081840152601f19601f820116905080830192505050505050509192919290505050615174565b6040518080602001828103825283818151815260200191508051906020019080838360005b8381101561206857808201518184015260208101905061204d565b50505050905090810190601f1680156120955780820380516001836020036101000a031916815260200191505b509250505060405180910390f35b3480156120af57600080fd5b506120f2600480360360208110156120c657600080fd5b81019080803573ffffffffffffffffffffffffffffffffffffffff16906020019092919050505061581b565b6040518080602001828103825283818151815260200191508051906020019060200280838360005b8381101561213557808201518184015260208101905061211a565b505050509050019250505060405180910390f35b60606000600660008473ffffffffffffffffffffffffffffffffffffffff1673ffffffffffffffffffffffffffffffffffffffff16815260200190815260200160002060070190508080548060200260200160405190810160405280929190818152602001828054801561221257602002820191906000526020600020905b8160009054906101000a900473ffffffffffffffffffffffffffffffffffffffff1673ffffffffffffffffffffffffffffffffffffffff16815260200190600101908083116121c8575b5050505050915050919050565b61226a600560008373ffffffffffffffffffffffffffffffffffffffff1673ffffffffffffffffffffffffffffffffffffffff168152602001908152602001600020600301836158f1565b506122b6600460008473ffffffffffffffffffffffffffffffffffffffff1673ffffffffffffffffffffffffffffffffffffffff168152602001908152602001600020600201826158f1565b505050565b600080905060008090505b600560003373ffffffffffffffffffffffffffffffffffffffff1673ffffffffffffffffffffffffffffffffffffffff16815260200190815260200160002060030180549050811015612431578373ffffffffffffffffffffffffffffffffffffffff16600560003373ffffffffffffffffffffffffffffffffffffffff1673ffffffffffffffffffffffffffffffffffffffff1681526020019081526020016000206003018281548110151561237957fe5b9060005260206000200160009054906101000a900473ffffffffffffffffffffffffffffffffffffffff1673ffffffffffffffffffffffffffffffffffffffff161415612424573373ffffffffffffffffffffffffffffffffffffffff166108fc671bc16d674ec800009081150290604051600060405180830381858888f1935050505015801561240e573d6000803e3d6000fd5b5060026000808282540392505081905550600191505b80806001019150506122c6565b50600115158115151415612458576124498383615ae0565b612453833361221f565b61245d565b600080fd5b505050565b6060600560008373ffffffffffffffffffffffffffffffffffffffff1673ffffffffffffffffffffffffffffffffffffffff16815260200190815260200160002060030180548060200260200160405190810160405280929190818152602001828054801561252657602002820191906000526020600020905b8160009054906101000a900473ffffffffffffffffffffffffffffffffffffffff1673ffffffffffffffffffffffffffffffffffffffff16815260200190600101908083116124dc575b50505050509050919050565b60606000600560008473ffffffffffffffffffffffffffffffffffffffff1673ffffffffffffffffffffffffffffffffffffffff1681526020019081526020016000206008019050808054806020026020016040519081016040528092919081815260200182805480156125fb57602002820191906000526020600020905b8160009054906101000a900473ffffffffffffffffffffffffffffffffffffffff1673ffffffffffffffffffffffffffffffffffffffff16815260200190600101908083116125b1575b5050505050915050919050565b612612338261221f565b3373ffffffffffffffffffffffffffffffffffffffff166108fc671bc16d674ec800009081150290604051600060405180830381858888f19350505050158015612660573d6000803e3d6000fd5b506002600080828254039250508190555050565b671bc16d674ec800003414151561268a57600080fd5b600160008082825403925050819055506126e5600460003373ffffffffffffffffffffffffffffffffffffffff1673ffffffffffffffffffffffffffffffffffffffff168152602001908152602001600020600801826158f1565b5050565b671bc16d674ec80000341415156126ff57600080fd5b6001600080828254019250508190555080600560003373ffffffffffffffffffffffffffffffffffffffff1673ffffffffffffffffffffffffffffffffffffffff168152602001908152602001600020600b019080519060200190612765929190615cd5565b5050565b671bc16d674ec800003414151561277f57600080fd5b600260008082825401925050819055506001600460008473ffffffffffffffffffffffffffffffffffffffff1673ffffffffffffffffffffffffffffffffffffffff1681526020019081526020016000206006013390806001815401808255809150509060018203906000526020600020016000909192909190916101000a81548173ffffffffffffffffffffffffffffffffffffffff021916908373ffffffffffffffffffffffffffffffffffffffff16021790555050506128428282615ae0565b6002600080828254039250508190555061289d600560003373ffffffffffffffffffffffffffffffffffffffff1673ffffffffffffffffffffffffffffffffffffffff168152602001908152602001600020600401836158f1565b505050565b6060600380548060200260200160405190810160405280929190818152602001828054801561292657602002820191906000526020600020905b8160009054906101000a900473ffffffffffffffffffffffffffffffffffffffff1673ffffffffffffffffffffffffffffffffffffffff16815260200190600101908083116128dc575b5050505050905090565b60606000600460008473ffffffffffffffffffffffffffffffffffffffff1673ffffffffffffffffffffffffffffffffffffffff1681526020019081526020016000206009019050808054806020026020016040519081016040528092919081815260200182805480156129f957602002820191906000526020600020905b8160009054906101000a900473ffffffffffffffffffffffffffffffffffffffff1673ffffffffffffffffffffffffffffffffffffffff16815260200190600101908083116129af575b5050505050915050919050565b671bc16d674ec8000034141515612a1c57600080fd5b600260008082825401925050819055506001600660008373ffffffffffffffffffffffffffffffffffffffff1673ffffffffffffffffffffffffffffffffffffffff1681526020019081526020016000206007013390806001815401808255809150509060018203906000526020600020016000909192909190916101000a81548173ffffffffffffffffffffffffffffffffffffffff021916908373ffffffffffffffffffffffffffffffffffffffff16021790555050506001600560003373ffffffffffffffffffffffffffffffffffffffff1673ffffffffffffffffffffffffffffffffffffffff1681526020019081526020016000206008018290806001815401808255809150509060018203906000526020600020016000909192909190916101000a81548173ffffffffffffffffffffffffffffffffffffffff021916908373ffffffffffffffffffffffffffffffffffffffff160217905550505050565b600281815481101515612b9057fe5b906000526020600020016000915054906101000a900473ffffffffffffffffffffffffffffffffffffffff1681565b612c0a600660003373ffffffffffffffffffffffffffffffffffffffff1673ffffffffffffffffffffffffffffffffffffffff168152602001908152602001600020600701826158f1565b50612c56600560008373ffffffffffffffffffffffffffffffffffffffff1673ffffffffffffffffffffffffffffffffffffffff168152602001908152602001600020600801336158f1565b5050565b60606000600560008473ffffffffffffffffffffffffffffffffffffffff1673ffffffffffffffffffffffffffffffffffffffff168152602001908152602001600020600501905080805480602002602001604051908101604052809291908181526020018280548015612d2357602002820191906000526020600020905b8160009054906101000a900473ffffffffffffffffffffffffffffffffffffffff1673ffffffffffffffffffffffffffffffffffffffff1681526020019060010190808311612cd9575b5050505050915050919050565b606060006060600060606000600460008873ffffffffffffffffffffffffffffffffffffffff1673ffffffffffffffffffffffffffffffffffffffff168152602001908152602001600020600001600460008973ffffffffffffffffffffffffffffffffffffffff1673ffffffffffffffffffffffffffffffffffffffff16815260200190815260200160002060010154600460008a73ffffffffffffffffffffffffffffffffffffffff1673ffffffffffffffffffffffffffffffffffffffff168152602001908152602001600020600301600760008b73ffffffffffffffffffffffffffffffffffffffff1673ffffffffffffffffffffffffffffffffffffffff16815260200190815260200160002060009054906101000a900473ffffffffffffffffffffffffffffffffffffffff16600460008c73ffffffffffffffffffffffffffffffffffffffff1673ffffffffffffffffffffffffffffffffffffffff168152602001908152602001600020600401600760008d73ffffffffffffffffffffffffffffffffffffffff1673ffffffffffffffffffffffffffffffffffffffff16815260200190815260200160002060009054906101000a900473ffffffffffffffffffffffffffffffffffffffff16858054600181600116156101000203166002900480601f016020809104026020016040519081016040528092919081815260200182805460018160011615610100020316600290048015612f9a5780601f10612f6f57610100808354040283529160200191612f9a565b820191906000526020600020905b815481529060010190602001808311612f7d57829003601f168201915b50505050509550838054600181600116156101000203166002900480601f0160208091040260200160405190810160405280929190818152602001828054600181600116156101000203166002900480156130365780601f1061300b57610100808354040283529160200191613036565b820191906000526020600020905b81548152906001019060200180831161301957829003601f168201915b50505050509350818054600181600116156101000203166002900480601f0160208091040260200160405190810160405280929190818152602001828054600181600116156101000203166002900480156130d25780601f106130a7576101008083540402835291602001916130d2565b820191906000526020600020905b8154815290600101906020018083116130b557829003601f168201915b5050505050915095509550955095509550955091939550919395565b60606000600460008473ffffffffffffffffffffffffffffffffffffffff1673ffffffffffffffffffffffffffffffffffffffff1681526020019081526020016000206007019050808054806020026020016040519081016040528092919081815260200182805480156131b757602002820191906000526020600020905b8160009054906101000a900473ffffffffffffffffffffffffffffffffffffffff1673ffffffffffffffffffffffffffffffffffffffff168152602001906001019080831161316d575b5050505050915050919050565b670de0b6b3a7640000341415156131da57600080fd5b600260008082825401925050819055506001600460008373ffffffffffffffffffffffffffffffffffffffff1673ffffffffffffffffffffffffffffffffffffffff1681526020019081526020016000206005013390806001815401808255809150509060018203906000526020600020016000909192909190916101000a81548173ffffffffffffffffffffffffffffffffffffffff021916908373ffffffffffffffffffffffffffffffffffffffff160217905550505050565b6060600460008373ffffffffffffffffffffffffffffffffffffffff1673ffffffffffffffffffffffffffffffffffffffff16815260200190815260200160002060060180548060200260200160405190810160405280929190818152602001828054801561335a57602002820191906000526020600020905b8160009054906101000a900473ffffffffffffffffffffffffffffffffffffffff1673ffffffffffffffffffffffffffffffffffffffff1681526020019060010190808311613310575b50505050509050919050565b606060028054806020026020016040519081016040528092919081815260200182805480156133ea57602002820191906000526020600020905b8160009054906101000a900473ffffffffffffffffffffffffffffffffffffffff1673ffffffffffffffffffffffffffffffffffffffff16815260200190600101908083116133a0575b5050505050905090565b60606000806060600660008673ffffffffffffffffffffffffffffffffffffffff1673ffffffffffffffffffffffffffffffffffffffff168152602001908152602001600020600001600660008773ffffffffffffffffffffffffffffffffffffffff1673ffffffffffffffffffffffffffffffffffffffff16815260200190815260200160002060010154600660008873ffffffffffffffffffffffffffffffffffffffff1673ffffffffffffffffffffffffffffffffffffffff16815260200190815260200160002060020154600660008973ffffffffffffffffffffffffffffffffffffffff1673ffffffffffffffffffffffffffffffffffffffff168152602001908152602001600020600a01838054600181600116156101000203166002900480601f01602080910402602001604051908101604052809291908181526020018280546001816001161561010002031660029004801561359a5780601f1061356f5761010080835404028352916020019161359a565b820191906000526020600020905b81548152906001019060200180831161357d57829003601f168201915b50505050509350808054600181600116156101000203166002900480601f0160208091040260200160405190810160405280929190818152602001828054600181600116156101000203166002900480156136365780601f1061360b57610100808354040283529160200191613636565b820191906000526020600020905b81548152906001019060200180831161361957829003601f168201915b5050505050905093509350935093509193509193565b671bc16d674ec800003414151561366257600080fd5b6002600080828254019250508190555080600660003373ffffffffffffffffffffffffffffffffffffffff1673ffffffffffffffffffffffffffffffffffffffff168152602001908152602001600020600a0190805190602001906136c8929190615cd5565b5050565b6060600560008373ffffffffffffffffffffffffffffffffffffffff1673ffffffffffffffffffffffffffffffffffffffff168152602001908152602001600020600b018054600181600116156101000203166002900480601f0160208091040260200160405190810160405280929190818152602001828054600181600116156101000203166002900480156137a45780601f10613779576101008083540402835291602001916137a4565b820191906000526020600020905b81548152906001019060200180831161378757829003601f168201915b50505050509050919050565b60606000600660008473ffffffffffffffffffffffffffffffffffffffff1673ffffffffffffffffffffffffffffffffffffffff16815260200190815260200160002060090190508080548060200260200160405190810160405280929190818152602001828054801561387957602002820191906000526020600020905b8160009054906101000a900473ffffffffffffffffffffffffffffffffffffffff1673ffffffffffffffffffffffffffffffffffffffff168152602001906001019080831161382f575b5050505050915050919050565b6060600460008373ffffffffffffffffffffffffffffffffffffffff1673ffffffffffffffffffffffffffffffffffffffff1681526020019081526020016000206004018054600181600116156101000203166002900480601f01602080910402602001604051908101604052809291908181526020018280546001816001161561010002031660029004801561395e5780601f106139335761010080835404028352916020019161395e565b820191906000526020600020905b81548152906001019060200180831161394157829003601f168201915b50505050509050919050565b671bc16d674ec800003414151561398057600080fd5b600160008082825403925050819055506139db600460008373ffffffffffffffffffffffffffffffffffffffff1673ffffffffffffffffffffffffffffffffffffffff168152602001908152602001600020600701336158f1565b50613a27600660003373ffffffffffffffffffffffffffffffffffffffff1673ffffffffffffffffffffffffffffffffffffffff168152602001908152602001600020600901826158f1565b506001600460008373ffffffffffffffffffffffffffffffffffffffff1673ffffffffffffffffffffffffffffffffffffffff1681526020019081526020016000206008013390806001815401808255809150509060018203906000526020600020016000909192909190916101000a81548173ffffffffffffffffffffffffffffffffffffffff021916908373ffffffffffffffffffffffffffffffffffffffff160217905550505050565b671bc16d674ec8000034141515613aea57600080fd5b600260008082825401925050819055506001600560008373ffffffffffffffffffffffffffffffffffffffff1673ffffffffffffffffffffffffffffffffffffffff1681526020019081526020016000206005013390806001815401808255809150509060018203906000526020600020016000909192909190916101000a81548173ffffffffffffffffffffffffffffffffffffffff021916908373ffffffffffffffffffffffffffffffffffffffff160217905550505050565b613bf1600660008373ffffffffffffffffffffffffffffffffffffffff1673ffffffffffffffffffffffffffffffffffffffff168152602001908152602001600020600701336158f1565b50613c3d600560003373ffffffffffffffffffffffffffffffffffffffff1673ffffffffffffffffffffffffffffffffffffffff168152602001908152602001600020600801826158f1565b5050565b6060600560008373ffffffffffffffffffffffffffffffffffffffff1673ffffffffffffffffffffffffffffffffffffffff168152602001908152602001600020600c018054600181600116156101000203166002900480601f016020809104026020016040519081016040528092919081815260200182805460018160011615610100020316600290048015613d195780601f10613cee57610100808354040283529160200191613d19565b820191906000526020600020905b815481529060010190602001808311613cfc57829003601f168201915b50505050509050919050565b60606000600460008473ffffffffffffffffffffffffffffffffffffffff1673ffffffffffffffffffffffffffffffffffffffff168152602001908152602001600020600201905080805480602002602001604051908101604052809291908181526020018280548015613dee57602002820191906000526020600020905b8160009054906101000a900473ffffffffffffffffffffffffffffffffffffffff1673ffffffffffffffffffffffffffffffffffffffff1681526020019060010190808311613da4575b5050505050915050919050565b671bc16d674ec8000034141515613e1157600080fd5b600260008082825401925050819055506001600560008573ffffffffffffffffffffffffffffffffffffffff1673ffffffffffffffffffffffffffffffffffffffff1681526020019081526020016000206003013390806001815401808255809150509060018203906000526020600020016000909192909190916101000a81548173ffffffffffffffffffffffffffffffffffffffff021916908373ffffffffffffffffffffffffffffffffffffffff16021790555050506001600460003373ffffffffffffffffffffffffffffffffffffffff1673ffffffffffffffffffffffffffffffffffffffff1681526020019081526020016000206002018490806001815401808255809150509060018203906000526020600020016000909192909190916101000a81548173ffffffffffffffffffffffffffffffffffffffff021916908373ffffffffffffffffffffffffffffffffffffffff1602179055505050613f7d82826122bb565b505050565b60606000600560008473ffffffffffffffffffffffffffffffffffffffff1673ffffffffffffffffffffffffffffffffffffffff16815260200190815260200160002060040190508080548060200260200160405190810160405280929190818152602001828054801561404b57602002820191906000526020600020905b8160009054906101000a900473ffffffffffffffffffffffffffffffffffffffff1673ffffffffffffffffffffffffffffffffffffffff1681526020019060010190808311614001575b5050505050915050919050565b671bc16d674ec800003414151561406e57600080fd5b600260008082825401925050819055506001600560003373ffffffffffffffffffffffffffffffffffffffff1673ffffffffffffffffffffffffffffffffffffffff1681526020019081526020016000206004018290806001815401808255809150509060018203906000526020600020016000909192909190916101000a81548173ffffffffffffffffffffffffffffffffffffffff021916908373ffffffffffffffffffffffffffffffffffffffff160217905550505060026000808282540392505081905550614182600560003373ffffffffffffffffffffffffffffffffffffffff1673ffffffffffffffffffffffffffffffffffffffff168152602001908152602001600020600501826158f1565b5050565b60606000600460008473ffffffffffffffffffffffffffffffffffffffff1673ffffffffffffffffffffffffffffffffffffffff16815260200190815260200160002060080190508080548060200260200160405190810160405280929190818152602001828054801561424f57602002820191906000526020600020905b8160009054906101000a900473ffffffffffffffffffffffffffffffffffffffff1673ffffffffffffffffffffffffffffffffffffffff1681526020019060010190808311614205575b5050505050915050919050565b60018181548110151561426b57fe5b906000526020600020016000915054906101000a900473ffffffffffffffffffffffffffffffffffffffff1681565b671bc16d674ec80000341415156142b057600080fd5b600260008082825401925050819055506001600560008373ffffffffffffffffffffffffffffffffffffffff1673ffffffffffffffffffffffffffffffffffffffff1681526020019081526020016000206003013390806001815401808255809150509060018203906000526020600020016000909192909190916101000a81548173ffffffffffffffffffffffffffffffffffffffff021916908373ffffffffffffffffffffffffffffffffffffffff16021790555050506001600460003373ffffffffffffffffffffffffffffffffffffffff1673ffffffffffffffffffffffffffffffffffffffff1681526020019081526020016000206002018290806001815401808255809150509060018203906000526020600020016000909192909190916101000a81548173ffffffffffffffffffffffffffffffffffffffff021916908373ffffffffffffffffffffffffffffffffffffffff160217905550505050565b671bc16d674ec800003414151561442b57600080fd5b600260008082825401925050819055506001600660008373ffffffffffffffffffffffffffffffffffffffff1673ffffffffffffffffffffffffffffffffffffffff1681526020019081526020016000206009013390806001815401808255809150509060018203906000526020600020016000909192909190916101000a81548173ffffffffffffffffffffffffffffffffffffffff021916908373ffffffffffffffffffffffffffffffffffffffff16021790555050506001600460003373ffffffffffffffffffffffffffffffffffffffff1673ffffffffffffffffffffffffffffffffffffffff1681526020019081526020016000206007018290806001815401808255809150509060018203906000526020600020016000909192909190916101000a81548173ffffffffffffffffffffffffffffffffffffffff021916908373ffffffffffffffffffffffffffffffffffffffff160217905550505050565b671bc16d674ec80000341415156145a657600080fd5b60026000808282540392505081905550614601600460003373ffffffffffffffffffffffffffffffffffffffff1673ffffffffffffffffffffffffffffffffffffffff168152602001908152602001600020600501826158f1565b5050565b60038181548110151561461457fe5b906000526020600020016000915054906101000a900473ffffffffffffffffffffffffffffffffffffffff1681565b606080600460008573ffffffffffffffffffffffffffffffffffffffff1673ffffffffffffffffffffffffffffffffffffffff168152602001908152602001600020600001600560008573ffffffffffffffffffffffffffffffffffffffff1673ffffffffffffffffffffffffffffffffffffffff168152602001908152602001600020600001818054600181600116156101000203166002900480601f01602080910402602001604051908101604052809291908181526020018280546001816001161561010002031660029004801561475f5780601f106147345761010080835404028352916020019161475f565b820191906000526020600020905b81548152906001019060200180831161474257829003601f168201915b50505050509150808054600181600116156101000203166002900480601f0160208091040260200160405190810160405280929190818152602001828054600181600116156101000203166002900480156147fb5780601f106147d0576101008083540402835291602001916147fb565b820191906000526020600020905b8154815290600101906020018083116147de57829003601f168201915b50505050509050915091509250929050565b671bc16d674ec800003414151561482357600080fd5b600260008082825401925050819055506001600560008373ffffffffffffffffffffffffffffffffffffffff1673ffffffffffffffffffffffffffffffffffffffff1681526020019081526020016000206003013390806001815401808255809150509060018203906000526020600020016000909192909190916101000a81548173ffffffffffffffffffffffffffffffffffffffff021916908373ffffffffffffffffffffffffffffffffffffffff16021790555050506001600460003373ffffffffffffffffffffffffffffffffffffffff1673ffffffffffffffffffffffffffffffffffffffff1681526020019081526020016000206002018290806001815401808255809150509060018203906000526020600020016000909192909190916101000a81548173ffffffffffffffffffffffffffffffffffffffff021916908373ffffffffffffffffffffffffffffffffffffffff1602179055505050600260008082825403925050819055506149e0600460003373ffffffffffffffffffffffffffffffffffffffff1673ffffffffffffffffffffffffffffffffffffffff168152602001908152602001600020600501826158f1565b5050565b606080600280549050604051908082528060200260200182016040528015614a1b5781602001602082028038833980820191505090505b509050600080905060008090505b600280549050811015614d8157606085614abd5760056000600284815481101515614a5057fe5b9060005260206000200160009054906101000a900473ffffffffffffffffffffffffffffffffffffffff1673ffffffffffffffffffffffffffffffffffffffff1673ffffffffffffffffffffffffffffffffffffffff168152602001908152602001600020600c01614b39565b60056000600284815481101515614ad057fe5b9060005260206000200160009054906101000a900473ffffffffffffffffffffffffffffffffffffffff1673ffffffffffffffffffffffffffffffffffffffff1673ffffffffffffffffffffffffffffffffffffffff168152602001908152602001600020600b015b8054600181600116156101000203166002900480601f016020809104026020016040519081016040528092919081815260200182805460018160011615610100020316600290048015614bcd5780601f10614ba257610100808354040283529160200191614bcd565b820191906000526020600020905b815481529060010190602001808311614bb057829003601f168201915b50505050509050858015614cc65750866040516020018082805190602001908083835b602083101515614c155780518252602082019150602081019050602083039250614bf0565b6001836020036101000a03801982511681845116808217855250505050505090500191505060405160208183030381529060405280519060200120816040516020018082805190602001908083835b602083101515614c895780518252602082019150602081019050602083039250614c64565b6001836020036101000a03801982511681845116808217855250505050505090500191505060405160208183030381529060405280519060200120145b80614ce1575085158015614ce05750614cdf8188615b3b565b5b5b15614d7357600282815481101515614cf557fe5b9060005260206000200160009054906101000a900473ffffffffffffffffffffffffffffffffffffffff168484815181101515614d2e57fe5b9060200190602002019073ffffffffffffffffffffffffffffffffffffffff16908173ffffffffffffffffffffffffffffffffffffffff168152505082806001019350505b508080600101915050614a29565b50606081604051908082528060200260200182016040528015614db35781602001602082028038833980820191505090505b50905060008090505b82811015614e33578381815181101515614dd257fe5b906020019060200201518282815181101515614dea57fe5b9060200190602002019073ffffffffffffffffffffffffffffffffffffffff16908173ffffffffffffffffffffffffffffffffffffffff16815250508080600101915050614dbc565b5080935050505092915050565b60606000600460008473ffffffffffffffffffffffffffffffffffffffff1673ffffffffffffffffffffffffffffffffffffffff168152602001908152602001600020600501905080805480602002602001604051908101604052809291908181526020018280548015614f0957602002820191906000526020600020905b8160009054906101000a900473ffffffffffffffffffffffffffffffffffffffff1673ffffffffffffffffffffffffffffffffffffffff1681526020019060010190808311614ebf575b5050505050915050919050565b6060600080600560008573ffffffffffffffffffffffffffffffffffffffff1673ffffffffffffffffffffffffffffffffffffffff168152602001908152602001600020600001600560008673ffffffffffffffffffffffffffffffffffffffff1673ffffffffffffffffffffffffffffffffffffffff16815260200190815260200160002060010154600560008773ffffffffffffffffffffffffffffffffffffffff1673ffffffffffffffffffffffffffffffffffffffff16815260200190815260200160002060020154828054600181600116156101000203166002900480601f0160208091040260200160405190810160405280929190818152602001828054600181600116156101000203166002900480156150785780601f1061504d57610100808354040283529160200191615078565b820191906000526020600020905b81548152906001019060200180831161505b57829003601f168201915b505050505092509250925092509193909250565b6060600180548060200260200160405190810160405280929190818152602001828054801561511057602002820191906000526020600020905b8160009054906101000a900473ffffffffffffffffffffffffffffffffffffffff1673ffffffffffffffffffffffffffffffffffffffff16815260200190600101908083116150c6575b5050505050905090565b80600560003373ffffffffffffffffffffffffffffffffffffffff1673ffffffffffffffffffffffffffffffffffffffff168152602001908152602001600020600c019080519060200190615170929190615cd5565b5050565b60606000339050600084141561538c5761518c615d55565b8681600001819052508581602001818152505083816080018190525080600460003373ffffffffffffffffffffffffffffffffffffffff1673ffffffffffffffffffffffffffffffffffffffff1681526020019081526020016000206000820151816000019080519060200190615204929190615db0565b5060208201518160010155604082015181600201908051906020019061522b929190615e30565b506060820151816003019080519060200190615248929190615db0565b506080820151816004019080519060200190615265929190615db0565b5060a0820151816005019080519060200190615282929190615e30565b5060c082015181600601908051906020019061529f929190615e30565b5060e08201518160070190805190602001906152bc929190615e30565b506101008201518160080190805190602001906152da929190615e30565b506101208201518160090190805190602001906152f8929190615e30565b5061014082015181600a019080519060200190615316929190615e30565b509050506001808390806001815401808255809150509060018203906000526020600020016000909192909190916101000a81548173ffffffffffffffffffffffffffffffffffffffff021916908373ffffffffffffffffffffffffffffffffffffffff16021790555050508692505050615813565b60018414156155c85761539d615eba565b868160000181905250858160200181815250508481604001818152505080600560003373ffffffffffffffffffffffffffffffffffffffff1673ffffffffffffffffffffffffffffffffffffffff1681526020019081526020016000206000820151816000019080519060200190615416929190615db0565b5060208201518160010155604082015181600201556060820151816003019080519060200190615447929190615e30565b506080820151816004019080519060200190615464929190615e30565b5060a0820151816005019080519060200190615481929190615e30565b5060c082015181600601908051906020019061549e929190615e30565b5060e08201518160070190805190602001906154bb929190615e30565b506101008201518160080190805190602001906154d9929190615e30565b506101208201518160090190805190602001906154f7929190615e30565b5061014082015181600a019080519060200190615515929190615db0565b5061016082015181600b019080519060200190615533929190615db0565b5061018082015181600c019080519060200190615551929190615db0565b50905050600160028390806001815401808255809150509060018203906000526020600020016000909192909190916101000a81548173ffffffffffffffffffffffffffffffffffffffff021916908373ffffffffffffffffffffffffffffffffffffffff16021790555050508692505050615813565b600284141561580e576155d9615eba565b86816000018190525085816020018181525050848160400181815250508381610140018190525080600660003373ffffffffffffffffffffffffffffffffffffffff1673ffffffffffffffffffffffffffffffffffffffff168152602001908152602001600020600082015181600001908051906020019061565c929190615db0565b506020820151816001015560408201518160020155606082015181600301908051906020019061568d929190615e30565b5060808201518160040190805190602001906156aa929190615e30565b5060a08201518160050190805190602001906156c7929190615e30565b5060c08201518160060190805190602001906156e4929190615e30565b5060e0820151816007019080519060200190615701929190615e30565b5061010082015181600801908051906020019061571f929190615e30565b5061012082015181600901908051906020019061573d929190615e30565b5061014082015181600a01908051906020019061575b929190615db0565b5061016082015181600b019080519060200190615779929190615db0565b5061018082015181600c019080519060200190615797929190615db0565b50905050600160038390806001815401808255809150509060018203906000526020600020016000909192909190916101000a81548173ffffffffffffffffffffffffffffffffffffffff021916908373ffffffffffffffffffffffffffffffffffffffff16021790555050508692505050615813565b600080fd5b949350505050565b60606000600460008473ffffffffffffffffffffffffffffffffffffffff1673ffffffffffffffffffffffffffffffffffffffff168152602001908152602001600020600a019050808054806020026020016040519081016040528092919081815260200182805480156158e457602002820191906000526020600020905b8160009054906101000a900473ffffffffffffffffffffffffffffffffffffffff1673ffffffffffffffffffffffffffffffffffffffff168152602001906001019080831161589a575b5050505050915050919050565b60008060009050600080905060008090505b8580549050811015615990578473ffffffffffffffffffffffffffffffffffffffff16868281548110151561593457fe5b9060005260206000200160009054906101000a900473ffffffffffffffffffffffffffffffffffffffff1673ffffffffffffffffffffffffffffffffffffffff16141561598357600192508091505b8080600101915050615903565b5081151561599d57600080fd5b6001858054905014156159ea5784818154811015156159b857fe5b9060005260206000200160006101000a81549073ffffffffffffffffffffffffffffffffffffffff0219169055615ac3565b8460018680549050038154811015156159ff57fe5b9060005260206000200160009054906101000a900473ffffffffffffffffffffffffffffffffffffffff168582815481101515615a3857fe5b9060005260206000200160006101000a81548173ffffffffffffffffffffffffffffffffffffffff021916908373ffffffffffffffffffffffffffffffffffffffff160217905550846001868054905003815481101515615a9557fe5b9060005260206000200160006101000a81549073ffffffffffffffffffffffffffffffffffffffff02191690555b84805480919060019003615ad79190615f23565b50505092915050565b80600460008473ffffffffffffffffffffffffffffffffffffffff1673ffffffffffffffffffffffffffffffffffffffff1681526020019081526020016000206004019080519060200190615b36929190615cd5565b505050565b600060608390506060839050600081511480615b58575081518151115b15615b6857600092505050615ccf565b60008090505b815183510381111515615cc75760006001905060008090505b8351811015615ca5578381815181101515615b9e57fe5b9060200101517f010000000000000000000000000000000000000000000000000000000000000090047f0100000000000000000000000000000000000000000000000000000000000000027effffffffffffffffffffffffffffffffffffffffffffffffffffffffffffff191685828501815181101515615c1b57fe5b9060200101517f010000000000000000000000000000000000000000000000000000000000000090047f0100000000000000000000000000000000000000000000000000000000000000027effffffffffffffffffffffffffffffffffffffffffffffffffffffffffffff1916141515615c985760009150615ca5565b8080600101915050615b87565b508015615cb9576001945050505050615ccf565b508080600101915050615b6e565b506000925050505b92915050565b828054600181600116156101000203166002900490600052602060002090601f016020900481019282601f10615d1657805160ff1916838001178555615d44565b82800160010185558215615d44579182015b82811115615d43578251825591602001919060010190615d28565b5b509050615d519190615f4f565b5090565b6101606040519081016040528060608152602001600081526020016060815260200160608152602001606081526020016060815260200160608152602001606081526020016060815260200160608152602001606081525090565b828054600181600116156101000203166002900490600052602060002090601f016020900481019282601f10615df157805160ff1916838001178555615e1f565b82800160010185558215615e1f579182015b82811115615e1e578251825591602001919060010190615e03565b5b509050615e2c9190615f4f565b5090565b828054828255906000526020600020908101928215615ea9579160200282015b82811115615ea85782518260006101000a81548173ffffffffffffffffffffffffffffffffffffffff021916908373ffffffffffffffffffffffffffffffffffffffff16021790555091602001919060010190615e50565b5b509050615eb69190615f74565b5090565b6101a060405190810160405280606081526020016000815260200160008152602001606081526020016060815260200160608152602001606081526020016060815260200160608152602001606081526020016060815260200160608152602001606081525090565b815481835581811115615f4a57818360005260206000209182019101615f499190615f4f565b5b505050565b615f7191905b80821115615f6d576000816000905550600101615f55565b5090565b90565b615fb491905b80821115615fb057600081816101000a81549073ffffffffffffffffffffffffffffffffffffffff021916905550600101615f7a565b5090565b9056fea165627a7a72305820bded93740c9b123ed35d6f13f9414c5ce899c47f5e7fa2305598c96d17a2bbdc0029",
  "source": "pragma solidity ^0.5.1;\r\n\r\ncontract Medishield {\r\n    \r\n    struct patient {\r\n        string name;\r\n        uint number;\r\n        address[] healthcareAccessList;\r\n        string diagnosis; // uint[]\r\n        string record;\r\n        address[] healthcareRequestList;\r\n        // string[] listMedicine;\r\n        address[] doctorSigns;\r\n        // request order medicine\r\n        address[] waitHandleRequestOrderMedicine; // 1\r\n        address[] wasDeletedRequestOrderMedicine;  // -1\r\n        address[] successRequestOrderMedicine; // 3\r\n        address[] waitPaymentRequestOrderMedicine; // 2\r\n    }\r\n    \r\n    struct healthcare {\r\n        string name;\r\n        uint number;\r\n        uint designation;\r\n        address[] patientAccessList; // view\r\n        address[] queuDoctorSign; // sign\r\n        address[] queuePatient; // patients\r\n        address[] queuePatientGetMedicine; // hospital\r\n        address[] doctorAccessList; // hospital\r\n        address[] accessJob; // doctor\r\n        address[] patientOrderMedicineList; //  hospital\r\n        string medicines; // hospital\r\n        string specialty; // doctor\r\n        string workingDays;\r\n    }\r\n\r\n    uint creditPool;\r\n    address[] public patientList;\r\n    address[] public healthcareList;\r\n    // new \r\n    address[] public hospitalList;\r\n    //\r\n\r\n    mapping (address => patient) patientInfo;\r\n    mapping (address => healthcare) healthcareInfo;\r\n    //new\r\n    mapping (address => healthcare) hospitalInfo;\r\n    //\r\n    mapping (address => address) Empty;\r\n    mapping (address => string) patientRecords;\r\n    \r\n\r\n    function add_agent(string memory _name, uint _number, uint _designation, string memory _hash) public returns(string memory){\r\n        address addr = msg.sender;\r\n        if(_designation == 0){\r\n            patient memory p;\r\n            p.name = _name;\r\n            p.number = _number;\r\n            p.record = _hash;\r\n            patientInfo[msg.sender] = p;\r\n            patientList.push(addr)-1;\r\n            return _name;\r\n        }\r\n       else if (_designation == 1){\r\n            healthcare memory d;\r\n            d.name = _name;\r\n            d.number = _number;\r\n            d.designation = _designation;\r\n            //d.medincines = _hash;\r\n            healthcareInfo[msg.sender] = d;\r\n            healthcareList.push(addr)-1;\r\n            return _name;\r\n       }\r\n       else if (_designation == 2){\r\n            healthcare memory d;\r\n            d.name = _name;\r\n            d.number = _number;\r\n            d.designation = _designation;\r\n            d.medicines = _hash;\r\n            hospitalInfo[msg.sender] = d;\r\n            hospitalList.push(addr)-1;\r\n            return _name;\r\n       }\r\n       else{\r\n           revert();\r\n       }\r\n    }\r\n\r\n    function get_patient(address addr) view public returns (string memory , uint, string memory , address, string memory, address){\r\n        // if(keccak256(patientInfo[addr].name) == keccak256(\"\"))revert();\r\n        return (patientInfo[addr].name, patientInfo[addr].number, patientInfo[addr].diagnosis, Empty[addr], patientInfo[addr].record, Empty[addr]);\r\n    }\r\n\r\n    function get_healthcare(address addr) view public returns (string memory , uint, uint256){\r\n        return (healthcareInfo[addr].name, healthcareInfo[addr].number, healthcareInfo[addr].designation);\r\n    }\r\n    function get_hospital(address addr) view public returns (string memory , uint, uint256, string memory){\r\n        return (hospitalInfo[addr].name, hospitalInfo[addr].number, hospitalInfo[addr].designation, hospitalInfo[addr].medicines);\r\n    }\r\n    function get_patient_healthcare_name(address paddr, address daddr) view public returns (string memory , string memory ){\r\n        return (patientInfo[paddr].name,healthcareInfo[daddr].name);\r\n    }\r\n\r\n    function permit_access(address addr) payable public {\r\n        require(msg.value == 2 ether);\r\n        creditPool += 2;\r\n        healthcareInfo[addr].patientAccessList.push(msg.sender)-1;\r\n        patientInfo[msg.sender].healthcareAccessList.push(addr)-1;\r\n    }\r\n    function doctor_permit_access(address addr) payable public {\r\n        require(msg.value == 1 ether);\r\n        creditPool += 2;\r\n        patientInfo[addr].healthcareRequestList.push(msg.sender)-1;\r\n    }\r\n    // new\r\n    function create_an_appointment(address addr) payable public {\r\n        require(msg.value == 2 ether);\r\n        creditPool += 2;\r\n        healthcareInfo[addr].queuePatient.push(msg.sender)-1;\r\n    }\r\n    function access_request_patient(address addr) payable public {\r\n        require(msg.value == 2 ether);\r\n        creditPool += 2;\r\n        healthcareInfo[msg.sender].queuDoctorSign.push(addr)-1;\r\n        creditPool -= 2;\r\n        remove_element_in_array(healthcareInfo[msg.sender].queuePatient, addr);\r\n    }\r\n    function doctor_apply(address addr) payable public {\r\n        require(msg.value == 2 ether);\r\n        creditPool += 2;\r\n        hospitalInfo[addr].doctorAccessList.push(msg.sender)-1;\r\n        healthcareInfo[msg.sender].accessJob.push(addr)-1;\r\n    }\r\n    function sign_records(address addr, string memory _hash) payable public {\r\n        require(msg.value == 2 ether);\r\n        creditPool += 2;\r\n        patientInfo[addr].doctorSigns.push(msg.sender)-1;\r\n        set_hash(addr, _hash);\r\n        creditPool -= 2;\r\n        remove_element_in_array(healthcareInfo[msg.sender].queuDoctorSign, addr);\r\n    }\r\n    function request_ordor_medicine(address addr) payable public {\r\n        require(msg.value == 2 ether);\r\n        creditPool += 2;\r\n        hospitalInfo[addr].patientOrderMedicineList.push(msg.sender)-1;\r\n        patientInfo[msg.sender].waitHandleRequestOrderMedicine.push(addr)-1;\r\n    }\r\n    function add_store_medicine(string memory _hash) payable public {\r\n        require(msg.value == 2 ether);\r\n        creditPool += 2;\r\n        hospitalInfo[msg.sender].medicines = _hash;\r\n    }\r\n    function remove_order_request(address addr) payable public{\r\n        require(msg.value == 2 ether);\r\n        creditPool -=1;\r\n        remove_element_in_array(patientInfo[addr].waitHandleRequestOrderMedicine, msg.sender);\r\n        remove_element_in_array( hospitalInfo[msg.sender].patientOrderMedicineList, addr);\r\n        patientInfo[addr].wasDeletedRequestOrderMedicine.push(msg.sender)-1;\r\n    }\r\n    function remove_status_order_request(address addr) payable public{\r\n        require(msg.value == 2 ether);\r\n        creditPool -=1;\r\n        remove_element_in_array(patientInfo[msg.sender].wasDeletedRequestOrderMedicine, addr);\r\n    }\r\n    function choice_specialty(string memory _name) payable public {\r\n        require(msg.value == 2 ether);\r\n        creditPool += 1;\r\n        healthcareInfo[msg.sender].specialty = _name;\r\n    }\r\n    function set_working_days(string memory _hash) payable public {\r\n        //require(healthcareInfo[msg.sender].designation == 1, \"Not a doctor account.\");\r\n        healthcareInfo[msg.sender].workingDays = _hash;\r\n    }\r\n    //\r\n    function permit_access_and_remove_doctor_permit_access(address addr) payable public {\r\n        require(msg.value == 2 ether);\r\n        creditPool += 2;\r\n        healthcareInfo[addr].patientAccessList.push(msg.sender)-1;\r\n        patientInfo[msg.sender].healthcareAccessList.push(addr)-1;\r\n        creditPool -= 2;\r\n        remove_element_in_array(patientInfo[msg.sender].healthcareRequestList, addr);\r\n    }\r\n    function cancel_access(address addr) payable public {\r\n        require(msg.value == 2 ether);\r\n        creditPool -= 2;\r\n        remove_element_in_array(patientInfo[msg.sender].healthcareRequestList, addr);\r\n    }\r\n    function permit_access_and_submitfile(address addr, address paddr, string memory  _hash) payable public {\r\n        require(msg.value == 2 ether);\r\n        creditPool += 2;\r\n        healthcareInfo[addr].patientAccessList.push(msg.sender)-1;\r\n        patientInfo[msg.sender].healthcareAccessList.push(addr)-1;\r\n        submitfile(paddr,_hash);\r\n    }\r\n    // show request \r\n    //must be called by healthcare.\r\n    function submitfile(address paddr, string memory  _hash) public {\r\n        bool patientFound = false;\r\n        for(uint i = 0;i<healthcareInfo[msg.sender].patientAccessList.length;i++){\r\n            if(healthcareInfo[msg.sender].patientAccessList[i]==paddr){\r\n                msg.sender.transfer(2 ether);\r\n                creditPool -= 2;\r\n                patientFound = true;\r\n            }\r\n        }\r\n        if(patientFound==true){\r\n            set_hash(paddr, _hash);\r\n            remove_patient(paddr, msg.sender);\r\n        }else {\r\n            revert();\r\n        }\r\n    }\r\n    function remove_element_in_array(address[] storage Array, address addr) internal returns(uint)\r\n    {\r\n        bool check = false;\r\n        uint del_index = 0;\r\n        for(uint i = 0; i<Array.length; i++){\r\n            if(Array[i] == addr){\r\n                check = true;\r\n                del_index = i;\r\n            }\r\n        }\r\n        if(!check) revert();\r\n        else{\r\n            if(Array.length == 1){\r\n                delete Array[del_index];\r\n            }\r\n            else {\r\n                Array[del_index] = Array[Array.length - 1];\r\n                delete Array[Array.length - 1];\r\n\r\n            }\r\n            Array.length--;\r\n        }\r\n    }\r\n\r\n    function remove_patient(address paddr, address daddr) public {\r\n        remove_element_in_array(healthcareInfo[daddr].patientAccessList, paddr);\r\n        remove_element_in_array(patientInfo[paddr].healthcareAccessList, daddr);\r\n    }\r\n    \r\n    function get_accessed_healthcarelist_for_patient(address addr) public view returns (address[] memory )\r\n    { \r\n        address[] storage healthcareaddr = patientInfo[addr].healthcareAccessList;\r\n        return healthcareaddr;\r\n    }\r\n    function get_request_healthcarelist_for_patient(address addr) public view returns (address[] memory )\r\n    {\r\n        address[] storage healthcareaddr = patientInfo[addr].healthcareRequestList;\r\n        return healthcareaddr;\r\n    }\r\n    function get_accessed_patientlist_for_healthcare(address addr) public view returns (address[] memory )\r\n    {\r\n        return healthcareInfo[addr].patientAccessList;\r\n    }\r\n    // new\r\n    function get_appointment_first(address addr) public view returns (address[] memory ){\r\n        address[] storage healthcareaddr = healthcareInfo[addr].queuePatient;\r\n        return healthcareaddr;\r\n    }\r\n    function get_queue_doctor_sign_first(address addr) public view returns (address[] memory ){\r\n        address[] storage healthcareaddr = healthcareInfo[addr].queuDoctorSign;\r\n        return healthcareaddr;\r\n    }\r\n    function get_employeees_hospital(address addr) public view returns (address[] memory) {\r\n        address[] storage doctoraddr = hospitalInfo[addr].doctorAccessList;\r\n        return doctoraddr;\r\n    }\r\n    function get_job_doctor(address addr) public view returns (address[] memory) {\r\n        address[] storage doctoraddr = healthcareInfo[addr].accessJob;\r\n        return doctoraddr;\r\n    }\r\n    function resign_job_from_doctor(address addr) public {\r\n        remove_element_in_array(hospitalInfo[addr].doctorAccessList, msg.sender);\r\n        remove_element_in_array(healthcareInfo[msg.sender].accessJob, addr);\r\n    }\r\n    function quit_job_from_hospital(address addr) public {\r\n        remove_element_in_array(hospitalInfo[msg.sender].doctorAccessList, addr);\r\n        remove_element_in_array(healthcareInfo[addr].accessJob, msg.sender);\r\n    }\r\n    function get_doctor_in_medicine(address addr) public view  returns (address[] memory) {\r\n        return patientInfo[addr].doctorSigns;\r\n    }\r\n    function get_patient_order_medicine(address addr) public view returns(address[] memory) {\r\n        address[] storage patientAddr =  hospitalInfo[addr].patientOrderMedicineList;\r\n        return patientAddr;\r\n    }\r\n    function get_wait_handle_request_order_medicine(address addr) public view returns(address[] memory) {\r\n        address[] storage hospitalAddr =  patientInfo[addr].waitHandleRequestOrderMedicine;\r\n        return hospitalAddr;\r\n    }\r\n    function get_wait_payment_request_order_medicine(address addr) public view returns(address[] memory) {\r\n        address[] storage hospitalAddr =  patientInfo[addr].waitPaymentRequestOrderMedicine;\r\n        return hospitalAddr;\r\n    }\r\n    function get_was_deleted_request_order_medicine(address addr) public view returns(address[] memory) {\r\n        address[] storage hospitalAddr =  patientInfo[addr].wasDeletedRequestOrderMedicine;\r\n        return hospitalAddr;\r\n    }\r\n    function get_success_request_order_medicine(address addr) public view returns(address[] memory) {\r\n        address[] storage hospitalAddr =  patientInfo[addr].successRequestOrderMedicine;\r\n        return hospitalAddr;\r\n    }\r\n    function get_specialty_healthcare(address addr) public view returns(string memory) {\r\n        return healthcareInfo[addr].specialty;\r\n    }\r\n \r\n    function get_working_days(address addr) public view  returns (string memory) {\r\n         return healthcareInfo[addr].workingDays;\r\n    }\r\n    //\r\n    function revoke_access(address daddr) public payable{\r\n        remove_patient(msg.sender,daddr);\r\n        msg.sender.transfer(2 ether);\r\n        creditPool -= 2;\r\n    }\r\n    \r\n    function get_patient_list() public view returns(address[] memory ){\r\n        return patientList;\r\n    }\r\n\r\n    function get_healthcare_list() public view returns(address[] memory ){\r\n        return healthcareList;\r\n    }\r\n\r\n    function get_hash(address paddr) public view returns(string memory ){\r\n        return patientInfo[paddr].record;\r\n    }\r\n \r\n    function set_hash(address paddr, string memory _hash) internal {\r\n        patientInfo[paddr].record = _hash;\r\n    }\r\n\r\n    //new\r\n    function get_hospital_list() public view returns (address[] memory) {\r\n        return hospitalList;\r\n    }\r\n    // function get_medincines(address addr) public view returns(string memory) {\r\n    //     return hospitalInfo[addr].medincines;\r\n    // }\r\n    // function set_medincine(address paddr, string memory _hash) public {\r\n    //     hospitalInfo[paddr].medincines = _hash;\r\n    // }\r\n    //\r\n\r\n    function getAddressesByField(string memory _field, bool isSpecialty) public view returns (address[] memory) {\r\n        address[] memory matchingAddresses = new address[](healthcareList.length);\r\n        uint count = 0;\r\n\r\n        for (uint i = 0; i < healthcareList.length; i++) {\r\n            string memory compareField = isSpecialty \r\n                ? healthcareInfo[healthcareList[i]].specialty \r\n                : healthcareInfo[healthcareList[i]].workingDays;\r\n\r\n            // Kim tra gi tr\r\n            if (\r\n                (isSpecialty && keccak256(abi.encodePacked(compareField)) == keccak256(abi.encodePacked(_field))) || \r\n                (!isSpecialty && contains(compareField, _field))\r\n            ) {\r\n                matchingAddresses[count] = healthcareList[i];\r\n                count++;\r\n            }\r\n        }\r\n\r\n        \r\n        address[] memory result = new address[](count);\r\n        for (uint j = 0; j < count; j++) {\r\n            result[j] = matchingAddresses[j];\r\n        }\r\n\r\n        return result;\r\n    }\r\n    function contains(string memory _base, string memory _value) internal pure returns (bool) {\r\n        bytes memory baseBytes = bytes(_base);\r\n        bytes memory valueBytes = bytes(_value);\r\n\r\n        // Tr v false nu chui _value rng hoc di hn chui _base\r\n        if (valueBytes.length == 0 || valueBytes.length > baseBytes.length) {\r\n            return false;\r\n        }\r\n\r\n        for (uint i = 0; i <= baseBytes.length - valueBytes.length; i++) {\r\n            bool matchFound = true;\r\n            for (uint j = 0; j < valueBytes.length; j++) {\r\n                if (baseBytes[i + j] != valueBytes[j]) {\r\n                    matchFound = false;\r\n                    break;\r\n                }\r\n            }\r\n            if (matchFound) {\r\n                return true;\r\n            }\r\n        }\r\n\r\n        return false;\r\n    }\r\n\r\n}\r\n\r\n",
  "sourcePath": "C:\\Users\\duy dat\\Desktop\\DA_CN\\Blockchain-For-EHR-Management\\contracts\\Medishield.sol",
  "compiler": {
    "name": "solc",
    "version": "0.5.1+commit.c8a2cb62.Emscripten.clang"
  },
  "schemaVersion": "3.4.16",
  "updatedAt": "2024-12-19T03:13:44.412Z",
  "networkType": "ethereum",
  "devdoc": {
    "methods": {}
  },
  "userdoc": {
    "methods": {}
  }
}