{
  "contractName": "Medishield",
  "abi": [
    {
      "constant": true,
      "inputs": [
        {
          "name": "",
          "type": "uint256"
        }
      ],
      "name": "healthcareList",
      "outputs": [
        {
          "name": "",
          "type": "address"
        }
      ],
      "payable": false,
      "stateMutability": "view",
      "type": "function"
    },
    {
      "constant": true,
      "inputs": [
        {
          "name": "",
          "type": "uint256"
        }
      ],
      "name": "patientList",
      "outputs": [
        {
          "name": "",
          "type": "address"
        }
      ],
      "payable": false,
      "stateMutability": "view",
      "type": "function"
    },
    {
      "constant": true,
      "inputs": [
        {
          "name": "",
          "type": "uint256"
        }
      ],
      "name": "hospitalList",
      "outputs": [
        {
          "name": "",
          "type": "address"
        }
      ],
      "payable": false,
      "stateMutability": "view",
      "type": "function"
    },
    {
      "constant": false,
      "inputs": [
        {
          "name": "_name",
          "type": "string"
        },
        {
          "name": "_number",
          "type": "uint256"
        },
        {
          "name": "_designation",
          "type": "uint256"
        },
        {
          "name": "_hash",
          "type": "string"
        }
      ],
      "name": "add_agent",
      "outputs": [
        {
          "name": "",
          "type": "string"
        }
      ],
      "payable": false,
      "stateMutability": "nonpayable",
      "type": "function"
    },
    {
      "constant": true,
      "inputs": [
        {
          "name": "addr",
          "type": "address"
        }
      ],
      "name": "get_patient",
      "outputs": [
        {
          "name": "",
          "type": "string"
        },
        {
          "name": "",
          "type": "uint256"
        },
        {
          "name": "",
          "type": "string"
        },
        {
          "name": "",
          "type": "address"
        },
        {
          "name": "",
          "type": "string"
        },
        {
          "name": "",
          "type": "address"
        }
      ],
      "payable": false,
      "stateMutability": "view",
      "type": "function"
    },
    {
      "constant": true,
      "inputs": [
        {
          "name": "addr",
          "type": "address"
        }
      ],
      "name": "get_healthcare",
      "outputs": [
        {
          "name": "",
          "type": "string"
        },
        {
          "name": "",
          "type": "uint256"
        },
        {
          "name": "",
          "type": "uint256"
        }
      ],
      "payable": false,
      "stateMutability": "view",
      "type": "function"
    },
    {
      "constant": true,
      "inputs": [
        {
          "name": "addr",
          "type": "address"
        }
      ],
      "name": "get_hospital",
      "outputs": [
        {
          "name": "",
          "type": "string"
        },
        {
          "name": "",
          "type": "uint256"
        },
        {
          "name": "",
          "type": "uint256"
        },
        {
          "name": "",
          "type": "string"
        }
      ],
      "payable": false,
      "stateMutability": "view",
      "type": "function"
    },
    {
      "constant": true,
      "inputs": [
        {
          "name": "paddr",
          "type": "address"
        },
        {
          "name": "daddr",
          "type": "address"
        }
      ],
      "name": "get_patient_healthcare_name",
      "outputs": [
        {
          "name": "",
          "type": "string"
        },
        {
          "name": "",
          "type": "string"
        }
      ],
      "payable": false,
      "stateMutability": "view",
      "type": "function"
    },
    {
      "constant": false,
      "inputs": [
        {
          "name": "addr",
          "type": "address"
        }
      ],
      "name": "permit_access",
      "outputs": [],
      "payable": true,
      "stateMutability": "payable",
      "type": "function"
    },
    {
      "constant": false,
      "inputs": [
        {
          "name": "addr",
          "type": "address"
        }
      ],
      "name": "doctor_permit_access",
      "outputs": [],
      "payable": true,
      "stateMutability": "payable",
      "type": "function"
    },
    {
      "constant": false,
      "inputs": [
        {
          "name": "addr",
          "type": "address"
        },
        {
          "name": "date",
          "type": "string"
        }
      ],
      "name": "create_an_appointment",
      "outputs": [],
      "payable": true,
      "stateMutability": "payable",
      "type": "function"
    },
    {
      "constant": false,
      "inputs": [
        {
          "name": "addr",
          "type": "address"
        },
        {
          "name": "date",
          "type": "string"
        }
      ],
      "name": "access_request_patient",
      "outputs": [],
      "payable": true,
      "stateMutability": "payable",
      "type": "function"
    },
    {
      "constant": false,
      "inputs": [
        {
          "name": "addr",
          "type": "address"
        }
      ],
      "name": "doctor_apply",
      "outputs": [],
      "payable": true,
      "stateMutability": "payable",
      "type": "function"
    },
    {
      "constant": false,
      "inputs": [
        {
          "name": "addr",
          "type": "address"
        },
        {
          "name": "_hash",
          "type": "string"
        }
      ],
      "name": "sign_records",
      "outputs": [],
      "payable": true,
      "stateMutability": "payable",
      "type": "function"
    },
    {
      "constant": false,
      "inputs": [
        {
          "name": "addr",
          "type": "address"
        }
      ],
      "name": "request_ordor_medicine",
      "outputs": [],
      "payable": true,
      "stateMutability": "payable",
      "type": "function"
    },
    {
      "constant": false,
      "inputs": [
        {
          "name": "_hash",
          "type": "string"
        }
      ],
      "name": "add_store_medicine",
      "outputs": [],
      "payable": true,
      "stateMutability": "payable",
      "type": "function"
    },
    {
      "constant": false,
      "inputs": [
        {
          "name": "addr",
          "type": "address"
        }
      ],
      "name": "remove_order_request",
      "outputs": [],
      "payable": true,
      "stateMutability": "payable",
      "type": "function"
    },
    {
      "constant": false,
      "inputs": [
        {
          "name": "addr",
          "type": "address"
        }
      ],
      "name": "remove_status_order_request",
      "outputs": [],
      "payable": true,
      "stateMutability": "payable",
      "type": "function"
    },
    {
      "constant": false,
      "inputs": [
        {
          "name": "_name",
          "type": "string"
        }
      ],
      "name": "choice_specialty",
      "outputs": [],
      "payable": true,
      "stateMutability": "payable",
      "type": "function"
    },
    {
      "constant": false,
      "inputs": [
        {
          "name": "_hash",
          "type": "string"
        }
      ],
      "name": "set_working_days",
      "outputs": [],
      "payable": true,
      "stateMutability": "payable",
      "type": "function"
    },
    {
      "constant": false,
      "inputs": [
        {
          "name": "addr",
          "type": "address"
        }
      ],
      "name": "permit_access_and_remove_doctor_permit_access",
      "outputs": [],
      "payable": true,
      "stateMutability": "payable",
      "type": "function"
    },
    {
      "constant": false,
      "inputs": [
        {
          "name": "addr",
          "type": "address"
        }
      ],
      "name": "cancel_access",
      "outputs": [],
      "payable": true,
      "stateMutability": "payable",
      "type": "function"
    },
    {
      "constant": false,
      "inputs": [
        {
          "name": "addr",
          "type": "address"
        },
        {
          "name": "paddr",
          "type": "address"
        },
        {
          "name": "_hash",
          "type": "string"
        }
      ],
      "name": "permit_access_and_submitfile",
      "outputs": [],
      "payable": true,
      "stateMutability": "payable",
      "type": "function"
    },
    {
      "constant": false,
      "inputs": [
        {
          "name": "paddr",
          "type": "address"
        },
        {
          "name": "_hash",
          "type": "string"
        }
      ],
      "name": "submitfile",
      "outputs": [],
      "payable": false,
      "stateMutability": "nonpayable",
      "type": "function"
    },
    {
      "constant": false,
      "inputs": [
        {
          "name": "paddr",
          "type": "address"
        },
        {
          "name": "daddr",
          "type": "address"
        }
      ],
      "name": "remove_patient",
      "outputs": [],
      "payable": false,
      "stateMutability": "nonpayable",
      "type": "function"
    },
    {
      "constant": true,
      "inputs": [
        {
          "name": "addr",
          "type": "address"
        }
      ],
      "name": "get_accessed_healthcarelist_for_patient",
      "outputs": [
        {
          "name": "",
          "type": "address[]"
        }
      ],
      "payable": false,
      "stateMutability": "view",
      "type": "function"
    },
    {
      "constant": true,
      "inputs": [
        {
          "name": "addr",
          "type": "address"
        }
      ],
      "name": "get_request_healthcarelist_for_patient",
      "outputs": [
        {
          "name": "",
          "type": "address[]"
        }
      ],
      "payable": false,
      "stateMutability": "view",
      "type": "function"
    },
    {
      "constant": true,
      "inputs": [
        {
          "name": "addr",
          "type": "address"
        }
      ],
      "name": "get_accessed_patientlist_for_healthcare",
      "outputs": [
        {
          "name": "",
          "type": "address[]"
        }
      ],
      "payable": false,
      "stateMutability": "view",
      "type": "function"
    },
    {
      "constant": true,
      "inputs": [
        {
          "name": "addr",
          "type": "address"
        },
        {
          "name": "date",
          "type": "string"
        }
      ],
      "name": "get_appointment_first",
      "outputs": [
        {
          "name": "",
          "type": "address[]"
        }
      ],
      "payable": false,
      "stateMutability": "view",
      "type": "function"
    },
    {
      "constant": true,
      "inputs": [
        {
          "name": "addr",
          "type": "address"
        }
      ],
      "name": "get_queue_doctor_sign_first",
      "outputs": [
        {
          "name": "",
          "type": "address[]"
        }
      ],
      "payable": false,
      "stateMutability": "view",
      "type": "function"
    },
    {
      "constant": true,
      "inputs": [
        {
          "name": "addr",
          "type": "address"
        }
      ],
      "name": "get_employeees_hospital",
      "outputs": [
        {
          "name": "",
          "type": "address[]"
        }
      ],
      "payable": false,
      "stateMutability": "view",
      "type": "function"
    },
    {
      "constant": true,
      "inputs": [
        {
          "name": "addr",
          "type": "address"
        }
      ],
      "name": "get_job_doctor",
      "outputs": [
        {
          "name": "",
          "type": "address[]"
        }
      ],
      "payable": false,
      "stateMutability": "view",
      "type": "function"
    },
    {
      "constant": false,
      "inputs": [
        {
          "name": "addr",
          "type": "address"
        }
      ],
      "name": "resign_job_from_doctor",
      "outputs": [],
      "payable": false,
      "stateMutability": "nonpayable",
      "type": "function"
    },
    {
      "constant": false,
      "inputs": [
        {
          "name": "addr",
          "type": "address"
        }
      ],
      "name": "quit_job_from_hospital",
      "outputs": [],
      "payable": false,
      "stateMutability": "nonpayable",
      "type": "function"
    },
    {
      "constant": true,
      "inputs": [
        {
          "name": "addr",
          "type": "address"
        }
      ],
      "name": "get_doctor_in_medicine",
      "outputs": [
        {
          "name": "",
          "type": "address[]"
        }
      ],
      "payable": false,
      "stateMutability": "view",
      "type": "function"
    },
    {
      "constant": true,
      "inputs": [
        {
          "name": "addr",
          "type": "address"
        }
      ],
      "name": "get_patient_order_medicine",
      "outputs": [
        {
          "name": "",
          "type": "address[]"
        }
      ],
      "payable": false,
      "stateMutability": "view",
      "type": "function"
    },
    {
      "constant": true,
      "inputs": [
        {
          "name": "addr",
          "type": "address"
        }
      ],
      "name": "get_wait_handle_request_order_medicine",
      "outputs": [
        {
          "name": "",
          "type": "address[]"
        }
      ],
      "payable": false,
      "stateMutability": "view",
      "type": "function"
    },
    {
      "constant": true,
      "inputs": [
        {
          "name": "addr",
          "type": "address"
        }
      ],
      "name": "get_wait_payment_request_order_medicine",
      "outputs": [
        {
          "name": "",
          "type": "address[]"
        }
      ],
      "payable": false,
      "stateMutability": "view",
      "type": "function"
    },
    {
      "constant": true,
      "inputs": [
        {
          "name": "addr",
          "type": "address"
        }
      ],
      "name": "get_was_deleted_request_order_medicine",
      "outputs": [
        {
          "name": "",
          "type": "address[]"
        }
      ],
      "payable": false,
      "stateMutability": "view",
      "type": "function"
    },
    {
      "constant": true,
      "inputs": [
        {
          "name": "addr",
          "type": "address"
        }
      ],
      "name": "get_success_request_order_medicine",
      "outputs": [
        {
          "name": "",
          "type": "address[]"
        }
      ],
      "payable": false,
      "stateMutability": "view",
      "type": "function"
    },
    {
      "constant": true,
      "inputs": [
        {
          "name": "addr",
          "type": "address"
        }
      ],
      "name": "get_specialty_healthcare",
      "outputs": [
        {
          "name": "",
          "type": "string"
        }
      ],
      "payable": false,
      "stateMutability": "view",
      "type": "function"
    },
    {
      "constant": true,
      "inputs": [
        {
          "name": "addr",
          "type": "address"
        }
      ],
      "name": "get_working_days",
      "outputs": [
        {
          "name": "",
          "type": "string"
        }
      ],
      "payable": false,
      "stateMutability": "view",
      "type": "function"
    },
    {
      "constant": false,
      "inputs": [
        {
          "name": "daddr",
          "type": "address"
        }
      ],
      "name": "revoke_access",
      "outputs": [],
      "payable": true,
      "stateMutability": "payable",
      "type": "function"
    },
    {
      "constant": true,
      "inputs": [],
      "name": "get_patient_list",
      "outputs": [
        {
          "name": "",
          "type": "address[]"
        }
      ],
      "payable": false,
      "stateMutability": "view",
      "type": "function"
    },
    {
      "constant": true,
      "inputs": [],
      "name": "get_healthcare_list",
      "outputs": [
        {
          "name": "",
          "type": "address[]"
        }
      ],
      "payable": false,
      "stateMutability": "view",
      "type": "function"
    },
    {
      "constant": true,
      "inputs": [
        {
          "name": "paddr",
          "type": "address"
        }
      ],
      "name": "get_hash",
      "outputs": [
        {
          "name": "",
          "type": "string"
        }
      ],
      "payable": false,
      "stateMutability": "view",
      "type": "function"
    },
    {
      "constant": true,
      "inputs": [],
      "name": "get_hospital_list",
      "outputs": [
        {
          "name": "",
          "type": "address[]"
        }
      ],
      "payable": false,
      "stateMutability": "view",
      "type": "function"
    },
    {
      "constant": true,
      "inputs": [
        {
          "name": "_field",
          "type": "string"
        },
        {
          "name": "isSpecialty",
          "type": "bool"
        }
      ],
      "name": "getAddressesByField",
      "outputs": [
        {
          "name": "",
          "type": "address[]"
        }
      ],
      "payable": false,
      "stateMutability": "view",
      "type": "function"
    },
    {
      "constant": false,
      "inputs": [
        {
          "name": "addr",
          "type": "address"
        },
        {
          "name": "_hash",
          "type": "string"
        }
      ],
      "name": "send_request_payment",
      "outputs": [],
      "payable": true,
      "stateMutability": "payable",
      "type": "function"
    },
    {
      "constant": false,
      "inputs": [
        {
          "name": "addr",
          "type": "address"
        }
      ],
      "name": "payment_medicine_success",
      "outputs": [],
      "payable": true,
      "stateMutability": "payable",
      "type": "function"
    },
    {
      "constant": false,
      "inputs": [
        {
          "name": "addr",
          "type": "address"
        }
      ],
      "name": "cancel_payment_medicine",
      "outputs": [],
      "payable": true,
      "stateMutability": "payable",
      "type": "function"
    },
    {
      "constant": true,
      "inputs": [
        {
          "name": "addr",
          "type": "address"
        }
      ],
      "name": "get_cancel_payment_request_order_medicine",
      "outputs": [
        {
          "name": "",
          "type": "address[]"
        }
      ],
      "payable": false,
      "stateMutability": "view",
      "type": "function"
    }
  ],
  "bytecode": "0x608060405234801561001057600080fd5b50613dd7806100206000396000f3fe60806040526004361061026a577c010000000000000000000000000000000000000000000000000000000060003504622fd866811461026f5780630362fe9b146102f25780630abcb6a01461032f57806316d52747146103f2578063239a75ff146104b557806326e161bc146104e857806327b1dcee1461051b57806327d9be43146105415780632a84e0d5146105675780632a866eee1461060d5780632a8d8b9c146106c35780632b685006146106d857806333cdfdba1461070b5780633740b3c0146107315780633ba6c550146107775780634042d2d4146107aa5780634149060a146109425780634b0ca5851461097557806350cbd8ae1461099b57806352fc89c2146109ce57806358db888e146109e35780635a086a4514610b025780635a2f284414610b285780635b1e45dc14610bce5780635b2af59e14610bf4578063687d0e9314610c9c5780636e82bafc14610d525780637e1519ce14610d8557806385cbce9714610db857806387f52b7314610dde578063890fa83b14610e945780639ce05dc914610ec75780639f55c37b14610efa578063a87648a014610f2d578063b3d94bd014610fec578063b5d1b3e11461101f578063babb1d4114611052578063bcffb7ca1461107c578063bdf633df146110a2578063c196a15f146110c8578063c6f6767d146110ee578063c82412b9146111a4578063cb37190e146111ce578063cf9c186f146112e7578063d51d4b4a1461130d578063d535cc3a146113c2578063d6763c7f146113f5578063e7322c7014611428578063e81ac054146114a3578063ef2aac7f146114b8578063f02d90a41461155e578063fa45f6fc146116a4575b600080fd5b34801561027b57600080fd5b506102a26004803603602081101561029257600080fd5b5035600160a060020a03166116d7565b60408051602080825283518183015283519192839290830191858101910280838360005b838110156102de5781810151838201526020016102c6565b505050509050019250505060405180910390f35b3480156102fe57600080fd5b5061032d6004803603604081101561031557600080fd5b50600160a060020a0381358116916020013516611755565b005b34801561033b57600080fd5b5061032d6004803603604081101561035257600080fd5b600160a060020a03823516919081019060408101602082013564010000000081111561037d57600080fd5b82018360208201111561038f57600080fd5b803590602001918460018302840111640100000000831117156103b157600080fd5b91908080601f0160208091040260200160405190810160405280939291908181526020018383808284376000920191909152509295506117a5945050505050565b3480156103fe57600080fd5b506102a26004803603604081101561041557600080fd5b600160a060020a03823516919081019060408101602082013564010000000081111561044057600080fd5b82018360208201111561045257600080fd5b8035906020019184600183028401116401000000008311171561047457600080fd5b91908080601f016020809104026020016040519081016040528093929190818152602001838380828437600092019190915250929550611875945050505050565b3480156104c157600080fd5b506102a2600480360360208110156104d857600080fd5b5035600160a060020a031661195b565b3480156104f457600080fd5b506102a26004803603602081101561050b57600080fd5b5035600160a060020a03166119d4565b61032d6004803603602081101561053157600080fd5b5035600160a060020a0316611a50565b61032d6004803603602081101561055757600080fd5b5035600160a060020a0316611a98565b61032d6004803603602081101561057d57600080fd5b81019060208101813564010000000081111561059857600080fd5b8201836020820111156105aa57600080fd5b803590602001918460018302840111640100000000831117156105cc57600080fd5b91908080601f016020809104026020016040519081016040528093929190818152602001838380828437600092019190915250929550611ad3945050505050565b61032d6004803603604081101561062357600080fd5b600160a060020a03823516919081019060408101602082013564010000000081111561064e57600080fd5b82018360208201111561066057600080fd5b8035906020019184600183028401116401000000008311171561068257600080fd5b91908080601f016020809104026020016040519081016040528093929190818152602001838380828437600092019190915250929550611b13945050505050565b3480156106cf57600080fd5b506102a2611b95565b3480156106e457600080fd5b506102a2600480360360208110156106fb57600080fd5b5035600160a060020a0316611bf8565b61032d6004803603602081101561072157600080fd5b5035600160a060020a0316611c74565b34801561073d57600080fd5b5061075b6004803603602081101561075457600080fd5b5035611cf8565b60408051600160a060020a039092168252519081900360200190f35b34801561078357600080fd5b5061032d6004803603602081101561079a57600080fd5b5035600160a060020a0316611d20565b3480156107b657600080fd5b506107dd600480360360208110156107cd57600080fd5b5035600160a060020a0316611d62565b604080516020808201889052600160a060020a038087166060840152841660a083015260c080835289519083015288519192839290830191608084019160e08501918c019080838360005b83811015610840578181015183820152602001610828565b50505050905090810190601f16801561086d5780820380516001836020036101000a031916815260200191505b5084810383528851815288516020918201918a019080838360005b838110156108a0578181015183820152602001610888565b50505050905090810190601f1680156108cd5780820380516001836020036101000a031916815260200191505b50848103825286518152865160209182019188019080838360005b838110156109005781810151838201526020016108e8565b50505050905090810190601f16801561092d5780820380516001836020036101000a031916815260200191505b50995050505050505050505060405180910390f35b34801561094e57600080fd5b506102a26004803603602081101561096557600080fd5b5035600160a060020a0316611f63565b61032d6004803603602081101561098b57600080fd5b5035600160a060020a0316611fdf565b3480156109a757600080fd5b506102a2600480360360208110156109be57600080fd5b5035600160a060020a0316612037565b3480156109da57600080fd5b506102a26120ae565b3480156109ef57600080fd5b50610a1660048036036020811015610a0657600080fd5b5035600160a060020a031661210e565b604051808060200185815260200184815260200180602001838103835287818151815260200191508051906020019080838360005b83811015610a63578181015183820152602001610a4b565b50505050905090810190601f168015610a905780820380516001836020036101000a031916815260200191505b50838103825284518152845160209182019186019080838360005b83811015610ac3578181015183820152602001610aab565b50505050905090810190601f168015610af05780820380516001836020036101000a031916815260200191505b50965050505050505060405180910390f35b61032d60048036036020811015610b1857600080fd5b5035600160a060020a0316612264565b61032d60048036036020811015610b3e57600080fd5b810190602081018135640100000000811115610b5957600080fd5b820183602082011115610b6b57600080fd5b80359060200191846001830284011164010000000083111715610b8d57600080fd5b91908080601f0160208091040260200160405190810160405280939291908181526020018383808284376000920191909152509295506122d5945050505050565b61032d60048036036020811015610be457600080fd5b5035600160a060020a0316612315565b348015610c0057600080fd5b50610c2760048036036020811015610c1757600080fd5b5035600160a060020a0316612386565b6040805160208082528351818301528351919283929083019185019080838360005b83811015610c61578181015183820152602001610c49565b50505050905090810190601f168015610c8e5780820380516001836020036101000a031916815260200191505b509250505060405180910390f35b61032d60048036036040811015610cb257600080fd5b600160a060020a038235169190810190604081016020820135640100000000811115610cdd57600080fd5b820183602082011115610cef57600080fd5b80359060200191846001830284011164010000000083111715610d1157600080fd5b91908080601f01602080910402602001604051908101604052809392919081815260200183838082843760009201919091525092955061242a945050505050565b348015610d5e57600080fd5b506102a260048036036020811015610d7557600080fd5b5035600160a060020a03166124ec565b348015610d9157600080fd5b50610c2760048036036020811015610da857600080fd5b5035600160a060020a0316612568565b61032d60048036036020811015610dce57600080fd5b5035600160a060020a03166125df565b61032d60048036036040811015610df457600080fd5b600160a060020a038235169190810190604081016020820135640100000000811115610e1f57600080fd5b820183602082011115610e3157600080fd5b80359060200191846001830284011164010000000083111715610e5357600080fd5b91908080601f016020809104026020016040519081016040528093929190818152602001838380828437600092019190915250929550612679945050505050565b348015610ea057600080fd5b5061032d60048036036020811015610eb757600080fd5b5035600160a060020a031661274a565b348015610ed357600080fd5b50610c2760048036036020811015610eea57600080fd5b5035600160a060020a031661278c565b348015610f0657600080fd5b506102a260048036036020811015610f1d57600080fd5b5035600160a060020a0316612803565b61032d60048036036060811015610f4357600080fd5b600160a060020a038235811692602081013590911691810190606081016040820135640100000000811115610f7757600080fd5b820183602082011115610f8957600080fd5b80359060200191846001830284011164010000000083111715610fab57600080fd5b91908080601f01602080910402602001604051908101604052809392919081815260200183838082843760009201919091525092955061287f945050505050565b348015610ff857600080fd5b506102a26004803603602081101561100f57600080fd5b5035600160a060020a031661290b565b34801561102b57600080fd5b506102a26004803603602081101561104257600080fd5b5035600160a060020a0316612987565b34801561105e57600080fd5b5061075b6004803603602081101561107557600080fd5b5035612a03565b61032d6004803603602081101561109257600080fd5b5035600160a060020a0316612a11565b61032d600480360360208110156110b857600080fd5b5035600160a060020a0316612a99565b61032d600480360360208110156110de57600080fd5b5035600160a060020a0316612b1d565b61032d6004803603604081101561110457600080fd5b600160a060020a03823516919081019060408101602082013564010000000081111561112f57600080fd5b82018360208201111561114157600080fd5b8035906020019184600183028401116401000000008311171561116357600080fd5b91908080601f016020809104026020016040519081016040528093929190818152602001838380828437600092019190915250929550612b54945050505050565b3480156111b057600080fd5b5061075b600480360360208110156111c757600080fd5b5035612bf2565b3480156111da57600080fd5b50611209600480360360408110156111f157600080fd5b50600160a060020a0381358116916020013516612c00565b604051808060200180602001838103835285818151815260200191508051906020019080838360005b8381101561124a578181015183820152602001611232565b50505050905090810190601f1680156112775780820380516001836020036101000a031916815260200191505b50838103825284518152845160209182019186019080838360005b838110156112aa578181015183820152602001611292565b50505050905090810190601f1680156112d75780820380516001836020036101000a031916815260200191505b5094505050505060405180910390f35b61032d600480360360208110156112fd57600080fd5b5035600160a060020a0316612d51565b34801561131957600080fd5b506102a26004803603604081101561133057600080fd5b81019060208101813564010000000081111561134b57600080fd5b82018360208201111561135d57600080fd5b8035906020019184600183028401116401000000008311171561137f57600080fd5b91908080601f0160208091040260200160405190810160405280939291908181526020018383808284376000920191909152509295505050503515159050612dea565b3480156113ce57600080fd5b506102a2600480360360208110156113e557600080fd5b5035600160a060020a0316613122565b34801561140157600080fd5b506102a26004803603602081101561141857600080fd5b5035600160a060020a031661319e565b34801561143457600080fd5b5061145b6004803603602081101561144b57600080fd5b5035600160a060020a031661321a565b604051808060200184815260200183815260200182810382528581815181526020019150805190602001908083836000838110156112aa578181015183820152602001611292565b3480156114af57600080fd5b506102a26132da565b61032d600480360360208110156114ce57600080fd5b8101906020810181356401000000008111156114e957600080fd5b8201836020820111156114fb57600080fd5b8035906020019184600183028401116401000000008311171561151d57600080fd5b91908080601f01602080910402602001604051908101604052809392919081815260200183838082843760009201919091525092955061333a945050505050565b34801561156a57600080fd5b50610c276004803603608081101561158157600080fd5b81019060208101813564010000000081111561159c57600080fd5b8201836020820111156115ae57600080fd5b803590602001918460018302840111640100000000831117156115d057600080fd5b91908080601f016020809104026020016040519081016040528093929190818152602001838380828437600092019190915250929584359560208601359591945092506060810191506040013564010000000081111561162f57600080fd5b82018360208201111561164157600080fd5b8035906020019184600183028401116401000000008311171561166357600080fd5b91908080601f016020809104026020016040519081016040528093929190818152602001838380828437600092019190915250929550613360945050505050565b3480156116b057600080fd5b506102a2600480360360208110156116c757600080fd5b5035600160a060020a03166138b7565b600160a060020a0381166000908152600660209081526040918290206007018054835181840281018401909452808452606093919283919083018282801561174857602002820191906000526020600020905b8154600160a060020a0316815260019091019060200180831161172a575b5050505050915050919050565b600160a060020a038116600090815260056020526040902061177a9060030183613933565b50600160a060020a03821660009081526004602052604090206117a09060020182613933565b505050565b6000805b33600090815260056020526040902060030154811015611850573360009081526005602052604090206003018054600160a060020a0386169190839081106117ed57fe5b600091825260209091200154600160a060020a03161415611848576040513390600090671bc16d674ec800009082818181858883f19350505050158015611838573d6000803e3d6000fd5b5060008054600119019055600191505b6001016117a9565b506001811515141561026a576118668383613a6e565b6118708333611755565b6117a0565b606060006005600085600160a060020a0316600160a060020a03168152602001908152602001600020600501836040518082805190602001908083835b602083106118d15780518252601f1990920191602091820191016118b2565b51815160209384036101000a60001901801990921691161790529201948552506040805194859003820185208054808402870184019092528186529550859350915083018282801561194c57602002820191906000526020600020905b8154600160a060020a0316815260019091019060200180831161192e575b50505050509150505b92915050565b600160a060020a0381166000908152600560209081526040918290206003018054835181840281018401909452808452606093928301828280156119c857602002820191906000526020600020905b8154600160a060020a031681526001909101906020018083116119aa575b50505050509050919050565b600160a060020a0381166000908152600560209081526040918290206008018054835181840281018401909452808452606093919283919083018282801561174857602002820191906000526020600020908154600160a060020a0316815260019091019060200180831161172a575050505050915050919050565b611a5a3382611755565b6040513390600090671bc16d674ec800009082818181858883f19350505050158015611a8a573d6000803e3d6000fd5b505060008054600119019055565b671bc16d674ec800003414611aac57600080fd5b60008054600019018155338152600460205260409020611acf9060080182613933565b5050565b671bc16d674ec800003414611ae757600080fd5b6000805460010181553381526005602090815260409091208251611acf92600b90920191840190613ba3565b671bc16d674ec800003414611b2757600080fd5b600080546002018155600160a060020a0383168152600460209081526040822060060180546001810182559083529120018054600160a060020a03191633179055611b728282613a6e565b600080546001190181553381526005602052604090206117a09060040183613933565b60606003805480602002602001604051908101604052809291908181526020018280548015611bed57602002820191906000526020600020905b8154600160a060020a03168152600190910190602001808311611bcf575b505050505090505b90565b600160a060020a0381166000908152600460209081526040918290206009018054835181840281018401909452808452606093919283919083018282801561174857602002820191906000526020600020908154600160a060020a0316815260019091019060200180831161172a575050505050915050919050565b671bc16d674ec800003414611c8857600080fd5b600080546002018155600160a060020a03909116808252600660209081526040808420600701805460018181018355918652838620018054600160a060020a0319908116339081179092559086526005845291852060080180549182018155855291909320018054909216179055565b6002805482908110611d0657fe5b600091825260209091200154600160a060020a0316905081565b336000908152600660205260409020611d3c9060070182613933565b50600160a060020a0381166000908152600560205260409020611acf9060080133613933565b600160a060020a038181166000908152600460208181526040808420600180820154600785528387205483548551600261010095831615959095026000190190911693909304601f810187900487028401870190955284835260609889978997899789979660038801959094169392870192849290918891830182828015611e2b5780601f10611e0057610100808354040283529160200191611e2b565b820191906000526020600020905b815481529060010190602001808311611e0e57829003601f168201915b5050875460408051602060026001851615610100026000190190941693909304601f8101849004840282018401909252818152959b5089945092508401905082828015611eb95780601f10611e8e57610100808354040283529160200191611eb9565b820191906000526020600020905b815481529060010190602001808311611e9c57829003601f168201915b5050855460408051602060026001851615610100026000190190941693909304601f810184900484028201840190925281815295995087945092508401905082828015611f475780601f10611f1c57610100808354040283529160200191611f47565b820191906000526020600020905b815481529060010190602001808311611f2a57829003601f168201915b5050505050915095509550955095509550955091939550919395565b600160a060020a0381166000908152600460209081526040918290206007018054835181840281018401909452808452606093919283919083018282801561174857602002820191906000526020600020908154600160a060020a0316815260019091019060200180831161172a575050505050915050919050565b670de0b6b3a76400003414611ff357600080fd5b600080546002018155600160a060020a039091168152600460209081526040822060050180546001810182559083529120018054600160a060020a03191633179055565b600160a060020a0381166000908152600460209081526040918290206006018054835181840281018401909452808452606093928301828280156119c857602002820191906000526020600020908154600160a060020a031681526001909101906020018083116119aa5750505050509050919050565b60606002805480602002602001604051908101604052809291908181526020018280548015611bed57602002820191906000526020600020908154600160a060020a03168152600190910190602001808311611bcf575050505050905090565b600160a060020a0381166000908152600660209081526040808320600180820154600280840154845486519481161561010002600019011691909104601f8101879004870284018701909552848352606096958695889594600a860192909186918301828280156121c05780601f10612195576101008083540402835291602001916121c0565b820191906000526020600020905b8154815290600101906020018083116121a357829003601f168201915b5050845460408051602060026001851615610100026000190190941693909304601f81018490048402820184019092528181529599508694509250840190508282801561224e5780601f106122235761010080835404028352916020019161224e565b820191906000526020600020905b81548152906001019060200180831161223157829003601f168201915b5050505050905093509350935093509193509193565b671bc16d674ec80000341461227857600080fd5b6000805460020181553380825260046020908152604083206009810180546001810182559085529184209091018054600160a060020a031916600160a060020a03861617905582546000190183559152611acf90600a0182613933565b671bc16d674ec8000034146122e957600080fd5b6000805460020181553381526006602090815260409091208251611acf92600a90920191840190613ba3565b671bc16d674ec80000341461232957600080fd5b600080546002018155338082526004602090815260408320600b810180546001810182559085529184209091018054600160a060020a031916600160a060020a03861617905582546000190183559152611acf90600a0182613933565b600160a060020a038116600090815260056020908152604091829020600b0180548351601f60026000196101006001861615020190931692909204918201849004840281018401909452808452606093928301828280156119c85780601f106123fd576101008083540402835291602001916119c8565b820191906000526020600020905b81548152906001019060200180831161240b5750939695505050505050565b671bc16d674ec80000341461243e57600080fd5b600080546002018155600160a060020a0383168152600560208181526040928390209251845193909201928492918291908401908083835b602083106124955780518252601f199092019160209182019101612476565b51815160001960209485036101000a01908116901991909116179052920194855250604051938490038101909320805460018101825560009182529390209092018054600160a060020a0319163317905550505050565b600160a060020a0381166000908152600660209081526040918290206009018054835181840281018401909452808452606093919283919083018282801561174857602002820191906000526020600020908154600160a060020a0316815260019091019060200180831161172a575050505050915050919050565b600160a060020a03811660009081526004602081815260409283902090910180548351601f60026000196101006001861615020190931692909204918201849004840281018401909452808452606093928301828280156119c85780601f106123fd576101008083540402835291602001916119c8565b671bc16d674ec8000034146125f357600080fd5b60008054600019018155600160a060020a038216815260046020526040902061261f9060070133613933565b5033600090815260066020526040902061263c9060090182613933565b50600160a060020a03166000908152600460209081526040822060080180546001810182559083529120018054600160a060020a03191633179055565b671bc16d674ec80000341461268d57600080fd5b60008054600201815533808252600560208181526040808520600481018054600181018255908752838720018054600160a060020a031916600160a060020a038a16179055855460011901865593909452925184516117a0949390920192859282918401908083835b602083106127155780518252601f1990920191602091820191016126f6565b51815160209384036101000a600019018019909216911617905292019485525060405193849003019092209150849050613933565b600160a060020a038116600090815260066020526040902061276f9060070133613933565b50336000908152600560205260409020611acf9060080182613933565b600160a060020a038116600090815260056020908152604091829020600c0180548351601f60026000196101006001861615020190931692909204918201849004840281018401909452808452606093928301828280156119c85780601f106123fd576101008083540402835291602001916119c8565b600160a060020a0381166000908152600460209081526040918290206002018054835181840281018401909452808452606093919283919083018282801561174857602002820191906000526020600020908154600160a060020a0316815260019091019060200180831161172a575050505050915050919050565b671bc16d674ec80000341461289357600080fd5b6000805460029081018255600160a060020a03851680835260056020908152604080852060030180546001818101835591875283872001805433600160a060020a0319918216811790925590875260048452918620909401805494850181558552932090910180549092161790556117a082826117a5565b600160a060020a0381166000908152600560209081526040918290206004018054835181840281018401909452808452606093919283919083018282801561174857602002820191906000526020600020908154600160a060020a0316815260019091019060200180831161172a575050505050915050919050565b600160a060020a0381166000908152600460209081526040918290206008018054835181840281018401909452808452606093919283919083018282801561174857602002820191906000526020600020908154600160a060020a0316815260019091019060200180831161172a575050505050915050919050565b6001805482908110611d0657fe5b671bc16d674ec800003414612a2557600080fd5b6000805460029081018255600160a060020a03909216808252600560209081526040808420600301805460018181018355918652838620018054600160a060020a03199081163390811790925590865260048452918520909501805495860181558452922090920180549091169091179055565b671bc16d674ec800003414612aad57600080fd5b600080546002018155600160a060020a03909116808252600660209081526040808420600901805460018181018355918652838620018054600160a060020a0319908116339081179092559086526004845291852060070180549182018155855291909320018054909216179055565b671bc16d674ec800003414612b3157600080fd5b60008054600119018155338152600460205260409020611acf9060050182613933565b671bc16d674ec800003414612b6857600080fd5b6000805460020181553381526006602090815260409091208251612b9492600a90920191840190613ba3565b50600160a060020a03821660008181526004602090815260408220600a810180546001810182559084529183209091018054600160a060020a031916339081179091558254600019018355929091526117a091600790910190613933565b6003805482908110611d0657fe5b600160a060020a038281166000908152600460209081526040808320938516835260058252918290208354835160026001831615610100026000190190921691909104601f810184900484028201840190945283815260609485949093849190830182828015612cb15780601f10612c8657610100808354040283529160200191612cb1565b820191906000526020600020905b815481529060010190602001808311612c9457829003601f168201915b5050845460408051602060026001851615610100026000190190941693909304601f810184900484028201840190925281815295975086945092508401905082828015612d3f5780601f10612d1457610100808354040283529160200191612d3f565b820191906000526020600020905b815481529060010190602001808311612d2257829003601f168201915b50505050509050915091509250929050565b671bc16d674ec800003414612d6557600080fd5b6000805460029081018255600160a060020a03831680835260056020818152604080862060030180546001818101835591885283882001805433600160a060020a031991821681179092558189526004855292882096870180549283018155885292872001805490911690931790925583546001190184559252611acf910182613933565b606080600280549050604051908082528060200260200182016040528015612e1c578160200160208202803883390190505b5090506000805b60025481101561309857606085612e735760056000600284815481101515612e4757fe5b6000918252602080832090910154600160a060020a031683528201929092526040019020600c01612eae565b60056000600284815481101515612e8657fe5b6000918252602080832090910154600160a060020a031683528201929092526040019020600b015b805460408051602060026001851615610100026000190190941693909304601f81018490048402820184019092528181529291830182828015612f325780601f10612f0757610100808354040283529160200191612f32565b820191906000526020600020905b815481529060010190602001808311612f1557829003601f168201915b5050505050905085801561301f5750866040516020018082805190602001908083835b60208310612f745780518252601f199092019160209182019101612f55565b6001836020036101000a03801982511681845116808217855250505050505090500191505060405160208183030381529060405280519060200120816040516020018082805190602001908083835b60208310612fe25780518252601f199092019160209182019101612fc3565b6001836020036101000a03801982511681845116808217855250505050505090500191505060405160208183030381529060405280519060200120145b8061303857508515801561303857506130388188613a9d565b1561308f57600280548390811061304b57fe5b6000918252602090912001548451600160a060020a039091169085908590811061307157fe5b600160a060020a039092166020928302909101909101526001909201915b50600101612e23565b506060816040519080825280602002602001820160405280156130c5578160200160208202803883390190505b50905060005b828110156131185783818151811015156130e157fe5b9060200190602002015182828151811015156130f957fe5b600160a060020a039092166020928302909101909101526001016130cb565b5095945050505050565b600160a060020a038116600090815260046020908152604091829020600b018054835181840281018401909452808452606093919283919083018282801561174857602002820191906000526020600020908154600160a060020a0316815260019091019060200180831161172a575050505050915050919050565b600160a060020a0381166000908152600460209081526040918290206005018054835181840281018401909452808452606093919283919083018282801561174857602002820191906000526020600020908154600160a060020a0316815260019091019060200180831161172a575050505050915050919050565b600160a060020a0381166000908152600560209081526040808320600180820154600280840154845486519481161561010002600019011691909104601f81018790048702840187019095528483526060969586959293919285918301828280156132c65780601f1061329b576101008083540402835291602001916132c6565b820191906000526020600020905b8154815290600101906020018083116132a957829003601f168201915b505050505092509250925092509193909250565b60606001805480602002602001604051908101604052809291908181526020018280548015611bed57602002820191906000526020600020908154600160a060020a03168152600190910190602001808311611bcf575050505050905090565b3360009081526005602090815260409091208251611acf92600c90920191840190613ba3565b60603383151561354357613372613c21565b86815260208082018790526080820185905233600090815260048252604090208251805184936133a6928492910190613ba3565b506020828101516001830155604083015180516133c99260028501920190613c8a565b50606082015180516133e5916003840191602090910190613ba3565b5060808201518051613401916004840191602090910190613ba3565b5060a0820151805161341d916005840191602090910190613c8a565b5060c08201518051613439916006840191602090910190613c8a565b5060e08201518051613455916007840191602090910190613c8a565b506101008201518051613472916008840191602090910190613c8a565b50610120820151805161348f916009840191602090910190613c8a565b5061014082015180516134ac91600a840191602090910190613c8a565b5061016082015180516134c991600b840191602090910190613c8a565b5061018082015180516134e691600c840191602090910190613c8a565b50506001805480820182556000919091527fb10e2d527612073b26eecdfd717e6a320cf44b4afac2b0732d9fcbe2b7fa0cf6018054600160a060020a031916600160a060020a039490941693909317909255508591506138af9050565b83600114156136f557613554613ceb565b868152602080820187905260408083018790523360009081526005835220825180518493613586928492910190613ba3565b50602082810151600183015560408301516002830155606083015180516135b39260038501920190613c8a565b50608082015180516135cf916004840191602090910190613c8a565b5060a082015180516135eb916006840191602090910190613c8a565b5060c08201518051613607916007840191602090910190613c8a565b5060e08201518051613623916008840191602090910190613c8a565b506101008201518051613640916009840191602090910190613c8a565b50610120820151805161365d91600a840191602090910190613ba3565b50610140820151805161367a91600b840191602090910190613ba3565b50610160820151805161369791600c840191602090910190613ba3565b5050600280546001810182556000919091527f405787fa12a823e0f2b7631cc41b3ba8828b3321ca811111fa75cd3aa3bb5ace018054600160a060020a031916600160a060020a039490941693909317909255508591506138af9050565b836002141561026a57613706613ceb565b8681526020808201879052604080830187905261012083018690523360009081526006835220825180518493613740928492910190613ba3565b506020828101516001830155604083015160028301556060830151805161376d9260038501920190613c8a565b5060808201518051613789916004840191602090910190613c8a565b5060a082015180516137a5916006840191602090910190613c8a565b5060c082015180516137c1916007840191602090910190613c8a565b5060e082015180516137dd916008840191602090910190613c8a565b5061010082015180516137fa916009840191602090910190613c8a565b50610120820151805161381791600a840191602090910190613ba3565b50610140820151805161383491600b840191602090910190613ba3565b50610160820151805161385191600c840191602090910190613ba3565b5050600380546001810182556000919091527fc2575a0e9e593c00f959f8c92f12db2869c3395a3b0502d05e2516446f71f85b018054600160a060020a031916600160a060020a039490941693909317909255508591506138af9050565b949350505050565b600160a060020a038116600090815260046020908152604091829020600a018054835181840281018401909452808452606093919283919083018282801561174857602002820191906000526020600020908154600160a060020a0316815260019091019060200180831161172a575050505050915050919050565b60008080805b85548110156139855784600160a060020a0316868281548110151561395a57fe5b600091825260209091200154600160a060020a0316141561397d57600192508091505b600101613939565b5081151561399257600080fd5b8454600114156139c85784818154811015156139aa57fe5b60009182526020909120018054600160a060020a0319169055613a55565b8454859060001981019081106139da57fe5b6000918252602090912001548554600160a060020a0390911690869083908110613a0057fe5b60009182526020909120018054600160a060020a031916600160a060020a0392909216919091179055845485906000198101908110613a3b57fe5b60009182526020909120018054600160a060020a03191690555b8454613a65866000198301613d4d565b50505092915050565b600160a060020a038216600090815260046020818152604090922083516117a093919092019190840190613ba3565b8051600090839083901580613ab3575081518151115b15613ac357600092505050611955565b60005b81518351038111613b9757600160005b8351811015613b7a578381815181101515613aed57fe5b90602001015160f860020a900460f860020a027effffffffffffffffffffffffffffffffffffffffffffffffffffffffffffff191685828501815181101515613b3257fe5b60209101015160f860020a90819004027fff000000000000000000000000000000000000000000000000000000000000001614613b725760009150613b7a565b600101613ad6565b508015613b8e576001945050505050611955565b50600101613ac6565b50600095945050505050565b828054600181600116156101000203166002900490600052602060002090601f016020900481019282601f10613be457805160ff1916838001178555613c11565b82800160010185558215613c11579182015b82811115613c11578251825591602001919060010190613bf6565b50613c1d929150613d6d565b5090565b6101a060405190810160405280606081526020016000815260200160608152602001606081526020016060815260200160608152602001606081526020016060815260200160608152602001606081526020016060815260200160608152602001606081525090565b828054828255906000526020600020908101928215613cdf579160200282015b82811115613cdf5782518254600160a060020a031916600160a060020a03909116178255602090920191600190910190613caa565b50613c1d929150613d87565b610180604051908101604052806060815260200160008152602001600081526020016060815260200160608152602001606081526020016060815260200160608152602001606081526020016060815260200160608152602001606081525090565b8154818355818111156117a0576000838152602090206117a09181019083015b611bf591905b80821115613c1d5760008155600101613d73565b611bf591905b80821115613c1d578054600160a060020a0319168155600101613d8d56fea165627a7a72305820464db18d47049d118a1b68870952eaa4d3a8673317d147c0906eba3bf75a5e250029",
  "source": "pragma solidity ^0.5.1;\r\n\r\ncontract Medishield {\r\n    \r\n    struct patient {\r\n        string name;\r\n        uint number;\r\n        address[] healthcareAccessList;\r\n        string diagnosis; // uint[]\r\n        string record;\r\n        address[] healthcareRequestList;\r\n        // string[] listMedicine;\r\n        address[] doctorSigns;\r\n        // request order medicine\r\n        address[] waitHandleRequestOrderMedicine; // 1\r\n        address[] wasDeletedRequestOrderMedicine;  // -1\r\n        address[] successRequestOrderMedicine; // 3\r\n        address[] waitPaymentRequestOrderMedicine; // 2\r\n        address[] cancelPaymentRequestOrderMedicine;\r\n        address[] queuePatientGetMedicineSuccess;\r\n    }\r\n    \r\n    struct healthcare {\r\n        string name;\r\n        uint number;\r\n        uint designation;\r\n        address[] patientAccessList; // view\r\n        address[] queuDoctorSign; // sign\r\n        // address[] queuePatient; // patients\r\n         mapping(string => address[]) queuePatient;\r\n        address[] queuePatientGetMedicine; // hospital\r\n        address[] doctorAccessList; // hospital\r\n        address[] accessJob; // doctor\r\n        address[] patientOrderMedicineList; //  hospital\r\n        string medicines; // hospital\r\n        string specialty; // doctor\r\n        string workingDays;\r\n    }\r\n\r\n    uint creditPool;\r\n    address[] public patientList;\r\n    address[] public healthcareList;\r\n    // new \r\n    address[] public hospitalList;\r\n    //\r\n\r\n    mapping (address => patient) patientInfo;\r\n    mapping (address => healthcare) healthcareInfo;\r\n    //new\r\n    mapping (address => healthcare) hospitalInfo;\r\n    //\r\n    mapping (address => address) Empty;\r\n    mapping (address => string) patientRecords;\r\n    \r\n\r\n    function add_agent(string memory _name, uint _number, uint _designation, string memory _hash) public returns(string memory){\r\n        address addr = msg.sender;\r\n        if(_designation == 0){\r\n            patient memory p;\r\n            p.name = _name;\r\n            p.number = _number;\r\n            p.record = _hash;\r\n            patientInfo[msg.sender] = p;\r\n            patientList.push(addr)-1;\r\n            return _name;\r\n        }\r\n       else if (_designation == 1){\r\n            healthcare memory d;\r\n            d.name = _name;\r\n            d.number = _number;\r\n            d.designation = _designation;\r\n            //d.medincines = _hash;\r\n            healthcareInfo[msg.sender] = d;\r\n            healthcareList.push(addr)-1;\r\n            return _name;\r\n       }\r\n       else if (_designation == 2){\r\n            healthcare memory d;\r\n            d.name = _name;\r\n            d.number = _number;\r\n            d.designation = _designation;\r\n            d.medicines = _hash;\r\n            hospitalInfo[msg.sender] = d;\r\n            hospitalList.push(addr)-1;\r\n            return _name;\r\n       }\r\n       else{\r\n           revert();\r\n       }\r\n    }\r\n\r\n    function get_patient(address addr) view public returns (string memory , uint, string memory , address, string memory, address){\r\n        // if(keccak256(patientInfo[addr].name) == keccak256(\"\"))revert();\r\n        return (patientInfo[addr].name, patientInfo[addr].number, patientInfo[addr].diagnosis, Empty[addr], patientInfo[addr].record, Empty[addr]);\r\n    }\r\n\r\n    function get_healthcare(address addr) view public returns (string memory , uint, uint256){\r\n        return (healthcareInfo[addr].name, healthcareInfo[addr].number, healthcareInfo[addr].designation);\r\n    }\r\n    function get_hospital(address addr) view public returns (string memory , uint, uint256, string memory){\r\n        return (hospitalInfo[addr].name, hospitalInfo[addr].number, hospitalInfo[addr].designation, hospitalInfo[addr].medicines);\r\n    }\r\n    function get_patient_healthcare_name(address paddr, address daddr) view public returns (string memory , string memory ){\r\n        return (patientInfo[paddr].name,healthcareInfo[daddr].name);\r\n    }\r\n\r\n    function permit_access(address addr) payable public {\r\n        require(msg.value == 2 ether);\r\n        creditPool += 2;\r\n        healthcareInfo[addr].patientAccessList.push(msg.sender)-1;\r\n        patientInfo[msg.sender].healthcareAccessList.push(addr)-1;\r\n    }\r\n    function doctor_permit_access(address addr) payable public {\r\n        require(msg.value == 1 ether);\r\n        creditPool += 2;\r\n        patientInfo[addr].healthcareRequestList.push(msg.sender)-1;\r\n    }\r\n    // new\r\n    // function create_an_appointment(address addr) payable public {\r\n    //     require(msg.value == 2 ether);\r\n    //     creditPool += 2;\r\n    //     healthcareInfo[addr].queuePatient.push(msg.sender)-1;\r\n    // }\r\n    function create_an_appointment(address addr, string memory date) payable public {\r\n        require(msg.value == 2 ether);\r\n        creditPool += 2;\r\n        healthcareInfo[addr].queuePatient[date].push(msg.sender);\r\n    }\r\n    //da sua\r\n    function access_request_patient(address addr, string memory date) payable public {\r\n        require(msg.value == 2 ether);\r\n        creditPool += 2;\r\n        healthcareInfo[msg.sender].queuDoctorSign.push(addr)-1;\r\n        creditPool -= 2;\r\n        remove_element_in_array(healthcareInfo[msg.sender].queuePatient[date], addr);\r\n    }\r\n    \r\n    function doctor_apply(address addr) payable public {\r\n        require(msg.value == 2 ether);\r\n        creditPool += 2;\r\n        hospitalInfo[addr].doctorAccessList.push(msg.sender)-1;\r\n        healthcareInfo[msg.sender].accessJob.push(addr)-1;\r\n    }\r\n    function sign_records(address addr, string memory _hash) payable public {\r\n        require(msg.value == 2 ether);\r\n        creditPool += 2;\r\n        patientInfo[addr].doctorSigns.push(msg.sender)-1;\r\n        set_hash(addr, _hash);\r\n        creditPool -= 2;\r\n        remove_element_in_array(healthcareInfo[msg.sender].queuDoctorSign, addr);\r\n    }\r\n    function request_ordor_medicine(address addr) payable public {\r\n        require(msg.value == 2 ether);\r\n        creditPool += 2;\r\n        hospitalInfo[addr].patientOrderMedicineList.push(msg.sender)-1;\r\n        patientInfo[msg.sender].waitHandleRequestOrderMedicine.push(addr)-1;\r\n    }\r\n    function add_store_medicine(string memory _hash) payable public {\r\n        require(msg.value == 2 ether);\r\n        creditPool += 2;\r\n        hospitalInfo[msg.sender].medicines = _hash;\r\n    }\r\n    function remove_order_request(address addr) payable public{\r\n        require(msg.value == 2 ether);\r\n        creditPool -=1;\r\n        remove_element_in_array(patientInfo[addr].waitHandleRequestOrderMedicine, msg.sender);\r\n        remove_element_in_array( hospitalInfo[msg.sender].patientOrderMedicineList, addr);\r\n        patientInfo[addr].wasDeletedRequestOrderMedicine.push(msg.sender)-1;\r\n    }\r\n    function remove_status_order_request(address addr) payable public{\r\n        require(msg.value == 2 ether);\r\n        creditPool -=1;\r\n        remove_element_in_array(patientInfo[msg.sender].wasDeletedRequestOrderMedicine, addr);\r\n    }\r\n    function choice_specialty(string memory _name) payable public {\r\n        require(msg.value == 2 ether);\r\n        creditPool += 1;\r\n        healthcareInfo[msg.sender].specialty = _name;\r\n    }\r\n    function set_working_days(string memory _hash) payable public {\r\n        //require(healthcareInfo[msg.sender].designation == 1, \"Not a doctor account.\");\r\n        healthcareInfo[msg.sender].workingDays = _hash;\r\n    }\r\n    //\r\n    function permit_access_and_remove_doctor_permit_access(address addr) payable public {\r\n        require(msg.value == 2 ether);\r\n        creditPool += 2;\r\n        healthcareInfo[addr].patientAccessList.push(msg.sender)-1;\r\n        patientInfo[msg.sender].healthcareAccessList.push(addr)-1;\r\n        creditPool -= 2;\r\n        remove_element_in_array(patientInfo[msg.sender].healthcareRequestList, addr);\r\n    }\r\n    function cancel_access(address addr) payable public {\r\n        require(msg.value == 2 ether);\r\n        creditPool -= 2;\r\n        remove_element_in_array(patientInfo[msg.sender].healthcareRequestList, addr);\r\n    }\r\n    function permit_access_and_submitfile(address addr, address paddr, string memory  _hash) payable public {\r\n        require(msg.value == 2 ether);\r\n        creditPool += 2;\r\n        healthcareInfo[addr].patientAccessList.push(msg.sender)-1;\r\n        patientInfo[msg.sender].healthcareAccessList.push(addr)-1;\r\n        submitfile(paddr,_hash);\r\n    }\r\n    // show request \r\n    //must be called by healthcare.\r\n    function submitfile(address paddr, string memory  _hash) public {\r\n        bool patientFound = false;\r\n        for(uint i = 0;i<healthcareInfo[msg.sender].patientAccessList.length;i++){\r\n            if(healthcareInfo[msg.sender].patientAccessList[i]==paddr){\r\n                msg.sender.transfer(2 ether);\r\n                creditPool -= 2;\r\n                patientFound = true;\r\n            }\r\n        }\r\n        if(patientFound==true){\r\n            set_hash(paddr, _hash);\r\n            remove_patient(paddr, msg.sender);\r\n        }else {\r\n            revert();\r\n        }\r\n    }\r\n    function remove_element_in_array(address[] storage Array, address addr) internal returns(uint)\r\n    {\r\n        bool check = false;\r\n        uint del_index = 0;\r\n        for(uint i = 0; i<Array.length; i++){\r\n            if(Array[i] == addr){\r\n                check = true;\r\n                del_index = i;\r\n            }\r\n        }\r\n        if(!check) revert();\r\n        else{\r\n            if(Array.length == 1){\r\n                delete Array[del_index];\r\n            }\r\n            else {\r\n                Array[del_index] = Array[Array.length - 1];\r\n                delete Array[Array.length - 1];\r\n\r\n            }\r\n            Array.length--;\r\n        }\r\n    }\r\n\r\n    function remove_patient(address paddr, address daddr) public {\r\n        remove_element_in_array(healthcareInfo[daddr].patientAccessList, paddr);\r\n        remove_element_in_array(patientInfo[paddr].healthcareAccessList, daddr);\r\n    }\r\n    \r\n    function get_accessed_healthcarelist_for_patient(address addr) public view returns (address[] memory )\r\n    { \r\n        address[] storage healthcareaddr = patientInfo[addr].healthcareAccessList;\r\n        return healthcareaddr;\r\n    }\r\n    function get_request_healthcarelist_for_patient(address addr) public view returns (address[] memory )\r\n    {\r\n        address[] storage healthcareaddr = patientInfo[addr].healthcareRequestList;\r\n        return healthcareaddr;\r\n    }\r\n    function get_accessed_patientlist_for_healthcare(address addr) public view returns (address[] memory )\r\n    {\r\n        return healthcareInfo[addr].patientAccessList;\r\n    }\r\n    // new\r\n    // function get_appointment_first(address addr) public view returns (address[] memory ){\r\n    //     address[] storage healthcareaddr = healthcareInfo[addr].queuePatient;\r\n    //     return healthcareaddr;\r\n    // }\r\n    function get_appointment_first(address addr, string memory date) public view returns (address[] memory) {\r\n        // Retrieve the queue for the specified date\r\n        address[] storage healthcareaddr = healthcareInfo[addr].queuePatient[date];\r\n        return healthcareaddr;\r\n    }\r\n    function get_queue_doctor_sign_first(address addr) public view returns (address[] memory ){\r\n        address[] storage healthcareaddr = healthcareInfo[addr].queuDoctorSign;\r\n        return healthcareaddr;\r\n    }\r\n    function get_employeees_hospital(address addr) public view returns (address[] memory) {\r\n        address[] storage doctoraddr = hospitalInfo[addr].doctorAccessList;\r\n        return doctoraddr;\r\n    }\r\n    function get_job_doctor(address addr) public view returns (address[] memory) {\r\n        address[] storage doctoraddr = healthcareInfo[addr].accessJob;\r\n        return doctoraddr;\r\n    }\r\n    function resign_job_from_doctor(address addr) public {\r\n        remove_element_in_array(hospitalInfo[addr].doctorAccessList, msg.sender);\r\n        remove_element_in_array(healthcareInfo[msg.sender].accessJob, addr);\r\n    }\r\n    function quit_job_from_hospital(address addr) public {\r\n        remove_element_in_array(hospitalInfo[msg.sender].doctorAccessList, addr);\r\n        remove_element_in_array(healthcareInfo[addr].accessJob, msg.sender);\r\n    }\r\n    function get_doctor_in_medicine(address addr) public view  returns (address[] memory) {\r\n        return patientInfo[addr].doctorSigns;\r\n    }\r\n    function get_patient_order_medicine(address addr) public view returns(address[] memory) {\r\n        address[] storage patientAddr =  hospitalInfo[addr].patientOrderMedicineList;\r\n        return patientAddr;\r\n    }\r\n    function get_wait_handle_request_order_medicine(address addr) public view returns(address[] memory) {\r\n        address[] storage hospitalAddr =  patientInfo[addr].waitHandleRequestOrderMedicine;\r\n        return hospitalAddr;\r\n    }\r\n    function get_wait_payment_request_order_medicine(address addr) public view returns(address[] memory) {\r\n        address[] storage hospitalAddr =  patientInfo[addr].waitPaymentRequestOrderMedicine;\r\n        return hospitalAddr;\r\n    }\r\n    function get_was_deleted_request_order_medicine(address addr) public view returns(address[] memory) {\r\n        address[] storage hospitalAddr =  patientInfo[addr].wasDeletedRequestOrderMedicine;\r\n        return hospitalAddr;\r\n    }\r\n    function get_success_request_order_medicine(address addr) public view returns(address[] memory) {\r\n        address[] storage hospitalAddr =  patientInfo[addr].successRequestOrderMedicine;\r\n        return hospitalAddr;\r\n    }\r\n    function get_specialty_healthcare(address addr) public view returns(string memory) {\r\n        return healthcareInfo[addr].specialty;\r\n    }\r\n \r\n    function get_working_days(address addr) public view  returns (string memory) {\r\n         return healthcareInfo[addr].workingDays;\r\n    }\r\n    //\r\n    function revoke_access(address daddr) public payable{\r\n        remove_patient(msg.sender,daddr);\r\n        msg.sender.transfer(2 ether);\r\n        creditPool -= 2;\r\n    }\r\n    \r\n    function get_patient_list() public view returns(address[] memory ){\r\n        return patientList;\r\n    }\r\n\r\n    function get_healthcare_list() public view returns(address[] memory ){\r\n        return healthcareList;\r\n    }\r\n\r\n    function get_hash(address paddr) public view returns(string memory ){\r\n        return patientInfo[paddr].record;\r\n    }\r\n \r\n    function set_hash(address paddr, string memory _hash) internal {\r\n        patientInfo[paddr].record = _hash;\r\n    }\r\n\r\n    //new\r\n    function get_hospital_list() public view returns (address[] memory) {\r\n        return hospitalList;\r\n    }\r\n  \r\n\r\n    function getAddressesByField(string memory _field, bool isSpecialty) public view returns (address[] memory) {\r\n        address[] memory matchingAddresses = new address[](healthcareList.length);\r\n        uint count = 0;\r\n\r\n        for (uint i = 0; i < healthcareList.length; i++) {\r\n            string memory compareField = isSpecialty \r\n                ? healthcareInfo[healthcareList[i]].specialty \r\n                : healthcareInfo[healthcareList[i]].workingDays;\r\n\r\n            // Kim tra gi tr\r\n            if (\r\n                (isSpecialty && keccak256(abi.encodePacked(compareField)) == keccak256(abi.encodePacked(_field))) || \r\n                (!isSpecialty && contains(compareField, _field))\r\n            ) {\r\n                matchingAddresses[count] = healthcareList[i];\r\n                count++;\r\n            }\r\n        }\r\n\r\n        \r\n        address[] memory result = new address[](count);\r\n        for (uint j = 0; j < count; j++) {\r\n            result[j] = matchingAddresses[j];\r\n        }\r\n\r\n        return result;\r\n    }\r\n    function contains(string memory _base, string memory _value) internal pure returns (bool) {\r\n        bytes memory baseBytes = bytes(_base);\r\n        bytes memory valueBytes = bytes(_value);\r\n\r\n        // Tr v false nu chui _value rng hoc di hn chui _base\r\n        if (valueBytes.length == 0 || valueBytes.length > baseBytes.length) {\r\n            return false;\r\n        }\r\n\r\n        for (uint i = 0; i <= baseBytes.length - valueBytes.length; i++) {\r\n            bool matchFound = true;\r\n            for (uint j = 0; j < valueBytes.length; j++) {\r\n                if (baseBytes[i + j] != valueBytes[j]) {\r\n                    matchFound = false;\r\n                    break;\r\n                }\r\n            }\r\n            if (matchFound) {\r\n                return true;\r\n            }\r\n        }\r\n\r\n        return false;\r\n    }\r\n\r\n    function send_request_payment(address addr, string memory _hash) payable public {\r\n        require(msg.value == 2 ether);\r\n        creditPool += 2;\r\n        hospitalInfo[msg.sender].medicines = _hash;\r\n        patientInfo[addr].waitPaymentRequestOrderMedicine.push(msg.sender)-1;\r\n        creditPool -= 1;\r\n        remove_element_in_array(patientInfo[addr].waitHandleRequestOrderMedicine, msg.sender);\r\n    }\r\n    function payment_medicine_success(address addr) payable public {\r\n        require(msg.value == 2 ether);\r\n        creditPool +=2;\r\n        patientInfo[msg.sender].successRequestOrderMedicine.push(addr)-1;\r\n        creditPool -= 1;\r\n        remove_element_in_array(patientInfo[msg.sender].waitPaymentRequestOrderMedicine, addr);\r\n    }\r\n    function cancel_payment_medicine(address addr) payable public {\r\n        require(msg.value == 2 ether);\r\n        creditPool += 2;\r\n        patientInfo[msg.sender].cancelPaymentRequestOrderMedicine.push(addr)-1;\r\n        creditPool -=1;\r\n        remove_element_in_array(patientInfo[msg.sender].waitPaymentRequestOrderMedicine, addr);\r\n    }\r\n    function get_cancel_payment_request_order_medicine(address addr) public view returns(address[] memory) {\r\n            address[] storage hospitalAddr =  patientInfo[addr].cancelPaymentRequestOrderMedicine;\r\n            return hospitalAddr;\r\n        }\r\n\r\n}",
  "sourcePath": "C:\\Users\\duy dat\\Desktop\\DA_CN\\Blockchain-For-EHR-Management\\contracts\\Medishield.sol",
  "compiler": {
    "name": "solc",
    "version": "0.5.1+commit.c8a2cb62.Emscripten.clang"
  },
  "schemaVersion": "3.4.16",
  "updatedAt": "2024-12-21T15:35:06.042Z",
  "networkType": "ethereum",
  "devdoc": {
    "methods": {}
  },
  "userdoc": {
    "methods": {}
  }
}